{
	"contracts/rides.sol": {
		"Rides": {
			"abi": [
				{
					"anonymous": false,
					"inputs": [
						{
							"indexed": true,
							"internalType": "address",
							"name": "_address",
							"type": "address"
						}
					],
					"name": "driverRegistration",
					"type": "event"
				},
				{
					"anonymous": false,
					"inputs": [
						{
							"indexed": true,
							"internalType": "address",
							"name": "_address",
							"type": "address"
						}
					],
					"name": "passengerRegistration",
					"type": "event"
				},
				{
					"inputs": [
						{
							"internalType": "uint256",
							"name": "",
							"type": "uint256"
						}
					],
					"name": "driverKeys",
					"outputs": [
						{
							"internalType": "address payable",
							"name": "",
							"type": "address"
						}
					],
					"stateMutability": "view",
					"type": "function"
				},
				{
					"inputs": [
						{
							"internalType": "address",
							"name": "",
							"type": "address"
						}
					],
					"name": "drivers",
					"outputs": [
						{
							"internalType": "string",
							"name": "name",
							"type": "string"
						},
						{
							"internalType": "string",
							"name": "email",
							"type": "string"
						},
						{
							"internalType": "string",
							"name": "phoneNumber",
							"type": "string"
						},
						{
							"internalType": "address payable",
							"name": "driverAddress",
							"type": "address"
						},
						{
							"internalType": "enum Rides.Users",
							"name": "user",
							"type": "uint8"
						}
					],
					"stateMutability": "view",
					"type": "function"
				},
				{
					"inputs": [
						{
							"internalType": "address payable",
							"name": "driverAddress",
							"type": "address"
						}
					],
					"name": "getDriverInfo",
					"outputs": [
						{
							"components": [
								{
									"internalType": "string",
									"name": "name",
									"type": "string"
								},
								{
									"internalType": "string",
									"name": "email",
									"type": "string"
								},
								{
									"internalType": "string",
									"name": "phoneNumber",
									"type": "string"
								},
								{
									"internalType": "address payable",
									"name": "driverAddress",
									"type": "address"
								},
								{
									"internalType": "string[]",
									"name": "rides",
									"type": "string[]"
								},
								{
									"internalType": "enum Rides.Users",
									"name": "user",
									"type": "uint8"
								}
							],
							"internalType": "struct Rides.driver",
							"name": "",
							"type": "tuple"
						}
					],
					"stateMutability": "view",
					"type": "function"
				},
				{
					"inputs": [
						{
							"internalType": "address payable",
							"name": "passengerAddress",
							"type": "address"
						}
					],
					"name": "getPassengerInfo",
					"outputs": [
						{
							"components": [
								{
									"internalType": "string",
									"name": "name",
									"type": "string"
								},
								{
									"internalType": "string",
									"name": "email",
									"type": "string"
								},
								{
									"internalType": "string",
									"name": "phoneNumber",
									"type": "string"
								},
								{
									"internalType": "address payable",
									"name": "passengerAddress",
									"type": "address"
								},
								{
									"internalType": "string[]",
									"name": "rides",
									"type": "string[]"
								},
								{
									"internalType": "enum Rides.Users",
									"name": "user",
									"type": "uint8"
								}
							],
							"internalType": "struct Rides.passenger",
							"name": "",
							"type": "tuple"
						}
					],
					"stateMutability": "view",
					"type": "function"
				},
				{
					"inputs": [
						{
							"internalType": "uint256",
							"name": "",
							"type": "uint256"
						}
					],
					"name": "passengerKeys",
					"outputs": [
						{
							"internalType": "address payable",
							"name": "",
							"type": "address"
						}
					],
					"stateMutability": "view",
					"type": "function"
				},
				{
					"inputs": [
						{
							"internalType": "address",
							"name": "",
							"type": "address"
						}
					],
					"name": "passengers",
					"outputs": [
						{
							"internalType": "string",
							"name": "name",
							"type": "string"
						},
						{
							"internalType": "string",
							"name": "email",
							"type": "string"
						},
						{
							"internalType": "string",
							"name": "phoneNumber",
							"type": "string"
						},
						{
							"internalType": "address payable",
							"name": "passengerAddress",
							"type": "address"
						},
						{
							"internalType": "enum Rides.Users",
							"name": "user",
							"type": "uint8"
						}
					],
					"stateMutability": "view",
					"type": "function"
				},
				{
					"inputs": [
						{
							"internalType": "string",
							"name": "name",
							"type": "string"
						},
						{
							"internalType": "string",
							"name": "email",
							"type": "string"
						},
						{
							"internalType": "string",
							"name": "phoneNumber",
							"type": "string"
						},
						{
							"internalType": "uint256",
							"name": "user",
							"type": "uint256"
						}
					],
					"name": "registerDriver",
					"outputs": [],
					"stateMutability": "nonpayable",
					"type": "function"
				},
				{
					"inputs": [
						{
							"internalType": "string",
							"name": "name",
							"type": "string"
						},
						{
							"internalType": "string",
							"name": "email",
							"type": "string"
						},
						{
							"internalType": "string",
							"name": "phoneNumber",
							"type": "string"
						},
						{
							"internalType": "uint256",
							"name": "user",
							"type": "uint256"
						}
					],
					"name": "registerPassenger",
					"outputs": [],
					"stateMutability": "nonpayable",
					"type": "function"
				},
				{
					"inputs": [
						{
							"internalType": "uint256",
							"name": "",
							"type": "uint256"
						}
					],
					"name": "rideKeys",
					"outputs": [
						{
							"internalType": "string",
							"name": "",
							"type": "string"
						}
					],
					"stateMutability": "view",
					"type": "function"
				},
				{
					"inputs": [
						{
							"internalType": "string",
							"name": "",
							"type": "string"
						}
					],
					"name": "rides",
					"outputs": [
						{
							"internalType": "address payable",
							"name": "passengerAddress",
							"type": "address"
						},
						{
							"internalType": "address payable",
							"name": "driverAddress",
							"type": "address"
						},
						{
							"internalType": "uint256",
							"name": "amount",
							"type": "uint256"
						}
					],
					"stateMutability": "view",
					"type": "function"
				}
			],
			"devdoc": {
				"kind": "dev",
				"methods": {},
				"version": 1
			},
			"evm": {
				"assembly": "    /* \"contracts/rides.sol\":64:2181  contract Rides {\r... */\n  mstore(0x40, 0x80)\n  callvalue\n  dup1\n  iszero\n  tag_1\n  jumpi\n  0x00\n  dup1\n  revert\ntag_1:\n  pop\n  dataSize(sub_0)\n  dup1\n  dataOffset(sub_0)\n  0x00\n  codecopy\n  0x00\n  return\nstop\n\nsub_0: assembly {\n        /* \"contracts/rides.sol\":64:2181  contract Rides {\r... */\n      mstore(0x40, 0x80)\n      callvalue\n      dup1\n      iszero\n      tag_1\n      jumpi\n      0x00\n      dup1\n      revert\n    tag_1:\n      pop\n      jumpi(tag_2, lt(calldatasize, 0x04))\n      shr(0xe0, calldataload(0x00))\n      dup1\n      0x470240c2\n      gt\n      tag_13\n      jumpi\n      dup1\n      0x470240c2\n      eq\n      tag_8\n      jumpi\n      dup1\n      0x47b399ed\n      eq\n      tag_9\n      jumpi\n      dup1\n      0x4aa60186\n      eq\n      tag_10\n      jumpi\n      dup1\n      0xce164fdd\n      eq\n      tag_11\n      jumpi\n      dup1\n      0xd4126e6f\n      eq\n      tag_12\n      jumpi\n      jump(tag_2)\n    tag_13:\n      dup1\n      0x0294e77f\n      eq\n      tag_3\n      jumpi\n      dup1\n      0x0ca0c38b\n      eq\n      tag_4\n      jumpi\n      dup1\n      0x1881c5fc\n      eq\n      tag_5\n      jumpi\n      dup1\n      0x219a7f27\n      eq\n      tag_6\n      jumpi\n      dup1\n      0x3e4994c9\n      eq\n      tag_7\n      jumpi\n    tag_2:\n      0x00\n      dup1\n      revert\n        /* \"contracts/rides.sol\":2126:2150  string[] public rideKeys */\n    tag_3:\n      tag_14\n      0x04\n      dup1\n      calldatasize\n      sub\n      dup2\n      add\n      swap1\n      tag_15\n      swap2\n      swap1\n      tag_16\n      jump\t// in\n    tag_15:\n      tag_17\n      jump\t// in\n    tag_14:\n      mload(0x40)\n      tag_18\n      swap2\n      swap1\n      tag_19\n      jump\t// in\n    tag_18:\n      mload(0x40)\n      dup1\n      swap2\n      sub\n      swap1\n      return\n        /* \"contracts/rides.sol\":820:1200  function registerPassenger(string memory name, string memory email, string memory phoneNumber, uint256 user) external {\r... */\n    tag_4:\n      tag_20\n      0x04\n      dup1\n      calldatasize\n      sub\n      dup2\n      add\n      swap1\n      tag_21\n      swap2\n      swap1\n      tag_22\n      jump\t// in\n    tag_21:\n      tag_23\n      jump\t// in\n    tag_20:\n      stop\n        /* \"contracts/rides.sol\":1429:1791  function registerDriver(string memory name, string memory email, string memory phoneNumber, uint256 user) external {\r... */\n    tag_5:\n      tag_24\n      0x04\n      dup1\n      calldatasize\n      sub\n      dup2\n      add\n      swap1\n      tag_25\n      swap2\n      swap1\n      tag_22\n      jump\t// in\n    tag_25:\n      tag_26\n      jump\t// in\n    tag_24:\n      stop\n        /* \"contracts/rides.sol\":1799:1939  function getDriverInfo(address payable driverAddress) external view returns (driver memory) {\r... */\n    tag_6:\n      tag_27\n      0x04\n      dup1\n      calldatasize\n      sub\n      dup2\n      add\n      swap1\n      tag_28\n      swap2\n      swap1\n      tag_29\n      jump\t// in\n    tag_28:\n      tag_30\n      jump\t// in\n    tag_27:\n      mload(0x40)\n      tag_31\n      swap2\n      swap1\n      tag_32\n      jump\t// in\n    tag_31:\n      mload(0x40)\n      dup1\n      swap2\n      sub\n      swap1\n      return\n        /* \"contracts/rides.sol\":429:467  address payable[] public passengerKeys */\n    tag_7:\n      tag_33\n      0x04\n      dup1\n      calldatasize\n      sub\n      dup2\n      add\n      swap1\n      tag_34\n      swap2\n      swap1\n      tag_16\n      jump\t// in\n    tag_34:\n      tag_35\n      jump\t// in\n    tag_33:\n      mload(0x40)\n      tag_36\n      swap2\n      swap1\n      tag_37\n      jump\t// in\n    tag_36:\n      mload(0x40)\n      dup1\n      swap2\n      sub\n      swap1\n      return\n        /* \"contracts/rides.sol\":1208:1362  function getPassengerInfo(address payable passengerAddress) external view returns(passenger memory) {\r... */\n    tag_8:\n      tag_38\n      0x04\n      dup1\n      calldatasize\n      sub\n      dup2\n      add\n      swap1\n      tag_39\n      swap2\n      swap1\n      tag_29\n      jump\t// in\n    tag_39:\n      tag_40\n      jump\t// in\n    tag_38:\n      mload(0x40)\n      tag_41\n      swap2\n      swap1\n      tag_42\n      jump\t// in\n    tag_41:\n      mload(0x40)\n      dup1\n      swap2\n      sub\n      swap1\n      return\n        /* \"contracts/rides.sol\":714:749  address payable[] public driverKeys */\n    tag_9:\n      tag_43\n      0x04\n      dup1\n      calldatasize\n      sub\n      dup2\n      add\n      swap1\n      tag_44\n      swap2\n      swap1\n      tag_16\n      jump\t// in\n    tag_44:\n      tag_45\n      jump\t// in\n    tag_43:\n      mload(0x40)\n      tag_46\n      swap2\n      swap1\n      tag_37\n      jump\t// in\n    tag_46:\n      mload(0x40)\n      dup1\n      swap2\n      sub\n      swap1\n      return\n        /* \"contracts/rides.sol\":666:707  mapping(address => driver) public drivers */\n    tag_10:\n      tag_47\n      0x04\n      dup1\n      calldatasize\n      sub\n      dup2\n      add\n      swap1\n      tag_48\n      swap2\n      swap1\n      tag_49\n      jump\t// in\n    tag_48:\n      tag_50\n      jump\t// in\n    tag_47:\n      mload(0x40)\n      tag_51\n      swap6\n      swap5\n      swap4\n      swap3\n      swap2\n      swap1\n      tag_52\n      jump\t// in\n    tag_51:\n      mload(0x40)\n      dup1\n      swap2\n      sub\n      swap1\n      return\n        /* \"contracts/rides.sol\":375:422  mapping(address => passenger) public passengers */\n    tag_11:\n      tag_53\n      0x04\n      dup1\n      calldatasize\n      sub\n      dup2\n      add\n      swap1\n      tag_54\n      swap2\n      swap1\n      tag_49\n      jump\t// in\n    tag_54:\n      tag_55\n      jump\t// in\n    tag_53:\n      mload(0x40)\n      tag_56\n      swap6\n      swap5\n      swap4\n      swap3\n      swap2\n      swap1\n      tag_52\n      jump\t// in\n    tag_56:\n      mload(0x40)\n      dup1\n      swap2\n      sub\n      swap1\n      return\n        /* \"contracts/rides.sol\":2083:2119  mapping(string => ride) public rides */\n    tag_12:\n      tag_57\n      0x04\n      dup1\n      calldatasize\n      sub\n      dup2\n      add\n      swap1\n      tag_58\n      swap2\n      swap1\n      tag_59\n      jump\t// in\n    tag_58:\n      tag_60\n      jump\t// in\n    tag_57:\n      mload(0x40)\n      tag_61\n      swap4\n      swap3\n      swap2\n      swap1\n      tag_62\n      jump\t// in\n    tag_61:\n      mload(0x40)\n      dup1\n      swap2\n      sub\n      swap1\n      return\n        /* \"contracts/rides.sol\":2126:2150  string[] public rideKeys */\n    tag_17:\n      0x06\n      dup2\n      dup2\n      sload\n      dup2\n      lt\n      tag_63\n      jumpi\n      0x00\n      dup1\n      revert\n    tag_63:\n      swap1\n      0x00\n      mstore\n      keccak256(0x00, 0x20)\n      add\n      0x00\n      swap2\n      pop\n      swap1\n      pop\n      dup1\n      sload\n      tag_65\n      swap1\n      tag_66\n      jump\t// in\n    tag_65:\n      dup1\n      0x1f\n      add\n      0x20\n      dup1\n      swap2\n      div\n      mul\n      0x20\n      add\n      mload(0x40)\n      swap1\n      dup2\n      add\n      0x40\n      mstore\n      dup1\n      swap3\n      swap2\n      swap1\n      dup2\n      dup2\n      mstore\n      0x20\n      add\n      dup3\n      dup1\n      sload\n      tag_67\n      swap1\n      tag_66\n      jump\t// in\n    tag_67:\n      dup1\n      iszero\n      tag_68\n      jumpi\n      dup1\n      0x1f\n      lt\n      tag_69\n      jumpi\n      0x0100\n      dup1\n      dup4\n      sload\n      div\n      mul\n      dup4\n      mstore\n      swap2\n      0x20\n      add\n      swap2\n      jump(tag_68)\n    tag_69:\n      dup3\n      add\n      swap2\n      swap1\n      0x00\n      mstore\n      keccak256(0x00, 0x20)\n      swap1\n    tag_70:\n      dup2\n      sload\n      dup2\n      mstore\n      swap1\n      0x01\n      add\n      swap1\n      0x20\n      add\n      dup1\n      dup4\n      gt\n      tag_70\n      jumpi\n      dup3\n      swap1\n      sub\n      0x1f\n      and\n      dup3\n      add\n      swap2\n    tag_68:\n      pop\n      pop\n      pop\n      pop\n      pop\n      dup2\n      jump\t// out\n        /* \"contracts/rides.sol\":820:1200  function registerPassenger(string memory name, string memory email, string memory phoneNumber, uint256 user) external {\r... */\n    tag_23:\n        /* \"contracts/rides.sol\":979:983  name */\n      dup4\n        /* \"contracts/rides.sol\":949:959  passengers */\n      0x01\n        /* \"contracts/rides.sol\":949:971  passengers[msg.sender] */\n      0x00\n        /* \"contracts/rides.sol\":960:970  msg.sender */\n      caller\n        /* \"contracts/rides.sol\":949:971  passengers[msg.sender] */\n      0xffffffffffffffffffffffffffffffffffffffff\n      and\n      0xffffffffffffffffffffffffffffffffffffffff\n      and\n      dup2\n      mstore\n      0x20\n      add\n      swap1\n      dup2\n      mstore\n      0x20\n      add\n      0x00\n      keccak256\n        /* \"contracts/rides.sol\":949:976  passengers[msg.sender].name */\n      0x00\n      add\n        /* \"contracts/rides.sol\":949:983  passengers[msg.sender].name = name */\n      swap1\n      dup1\n      mload\n      swap1\n      0x20\n      add\n      swap1\n      tag_72\n      swap3\n      swap2\n      swap1\n      tag_73\n      jump\t// in\n    tag_72:\n      pop\n        /* \"contracts/rides.sol\":1025:1030  email */\n      dup3\n        /* \"contracts/rides.sol\":994:1004  passengers */\n      0x01\n        /* \"contracts/rides.sol\":994:1016  passengers[msg.sender] */\n      0x00\n        /* \"contracts/rides.sol\":1005:1015  msg.sender */\n      caller\n        /* \"contracts/rides.sol\":994:1016  passengers[msg.sender] */\n      0xffffffffffffffffffffffffffffffffffffffff\n      and\n      0xffffffffffffffffffffffffffffffffffffffff\n      and\n      dup2\n      mstore\n      0x20\n      add\n      swap1\n      dup2\n      mstore\n      0x20\n      add\n      0x00\n      keccak256\n        /* \"contracts/rides.sol\":994:1022  passengers[msg.sender].email */\n      0x01\n      add\n        /* \"contracts/rides.sol\":994:1030  passengers[msg.sender].email = email */\n      swap1\n      dup1\n      mload\n      swap1\n      0x20\n      add\n      swap1\n      tag_74\n      swap3\n      swap2\n      swap1\n      tag_73\n      jump\t// in\n    tag_74:\n      pop\n        /* \"contracts/rides.sol\":1078:1089  phoneNumber */\n      dup2\n        /* \"contracts/rides.sol\":1041:1051  passengers */\n      0x01\n        /* \"contracts/rides.sol\":1041:1063  passengers[msg.sender] */\n      0x00\n        /* \"contracts/rides.sol\":1052:1062  msg.sender */\n      caller\n        /* \"contracts/rides.sol\":1041:1063  passengers[msg.sender] */\n      0xffffffffffffffffffffffffffffffffffffffff\n      and\n      0xffffffffffffffffffffffffffffffffffffffff\n      and\n      dup2\n      mstore\n      0x20\n      add\n      swap1\n      dup2\n      mstore\n      0x20\n      add\n      0x00\n      keccak256\n        /* \"contracts/rides.sol\":1041:1075  passengers[msg.sender].phoneNumber */\n      0x02\n      add\n        /* \"contracts/rides.sol\":1041:1089  passengers[msg.sender].phoneNumber = phoneNumber */\n      swap1\n      dup1\n      mload\n      swap1\n      0x20\n      add\n      swap1\n      tag_75\n      swap3\n      swap2\n      swap1\n      tag_73\n      jump\t// in\n    tag_75:\n      pop\n        /* \"contracts/rides.sol\":1136:1140  user */\n      dup1\n        /* \"contracts/rides.sol\":1130:1141  Users(user) */\n      0x01\n      dup2\n      gt\n      iszero\n      tag_76\n      jumpi\n      tag_77\n      tag_78\n      jump\t// in\n    tag_77:\n    tag_76:\n        /* \"contracts/rides.sol\":1100:1110  passengers */\n      0x01\n        /* \"contracts/rides.sol\":1100:1122  passengers[msg.sender] */\n      0x00\n        /* \"contracts/rides.sol\":1111:1121  msg.sender */\n      caller\n        /* \"contracts/rides.sol\":1100:1122  passengers[msg.sender] */\n      0xffffffffffffffffffffffffffffffffffffffff\n      and\n      0xffffffffffffffffffffffffffffffffffffffff\n      and\n      dup2\n      mstore\n      0x20\n      add\n      swap1\n      dup2\n      mstore\n      0x20\n      add\n      0x00\n      keccak256\n        /* \"contracts/rides.sol\":1100:1127  passengers[msg.sender].user */\n      0x05\n      add\n      0x00\n        /* \"contracts/rides.sol\":1100:1141  passengers[msg.sender].user = Users(user) */\n      0x0100\n      exp\n      dup2\n      sload\n      dup2\n      0xff\n      mul\n      not\n      and\n      swap1\n      dup4\n      0x01\n      dup2\n      gt\n      iszero\n      tag_79\n      jumpi\n      tag_80\n      tag_78\n      jump\t// in\n    tag_80:\n    tag_79:\n      mul\n      or\n      swap1\n      sstore\n      pop\n        /* \"contracts/rides.sol\":1181:1191  msg.sender */\n      caller\n        /* \"contracts/rides.sol\":1159:1192  passengerRegistration(msg.sender) */\n      0xffffffffffffffffffffffffffffffffffffffff\n      and\n      0x9b86717872986aab9d78c64f2726b6dae96b25a759ac26ed7adbfffba8d0ce3a\n      mload(0x40)\n      mload(0x40)\n      dup1\n      swap2\n      sub\n      swap1\n      log2\n        /* \"contracts/rides.sol\":820:1200  function registerPassenger(string memory name, string memory email, string memory phoneNumber, uint256 user) external {\r... */\n      pop\n      pop\n      pop\n      pop\n      jump\t// out\n        /* \"contracts/rides.sol\":1429:1791  function registerDriver(string memory name, string memory email, string memory phoneNumber, uint256 user) external {\r... */\n    tag_26:\n        /* \"contracts/rides.sol\":1582:1586  name */\n      dup4\n        /* \"contracts/rides.sol\":1555:1562  drivers */\n      0x03\n        /* \"contracts/rides.sol\":1555:1574  drivers[msg.sender] */\n      0x00\n        /* \"contracts/rides.sol\":1563:1573  msg.sender */\n      caller\n        /* \"contracts/rides.sol\":1555:1574  drivers[msg.sender] */\n      0xffffffffffffffffffffffffffffffffffffffff\n      and\n      0xffffffffffffffffffffffffffffffffffffffff\n      and\n      dup2\n      mstore\n      0x20\n      add\n      swap1\n      dup2\n      mstore\n      0x20\n      add\n      0x00\n      keccak256\n        /* \"contracts/rides.sol\":1555:1579  drivers[msg.sender].name */\n      0x00\n      add\n        /* \"contracts/rides.sol\":1555:1586  drivers[msg.sender].name = name */\n      swap1\n      dup1\n      mload\n      swap1\n      0x20\n      add\n      swap1\n      tag_82\n      swap3\n      swap2\n      swap1\n      tag_73\n      jump\t// in\n    tag_82:\n      pop\n        /* \"contracts/rides.sol\":1625:1630  email */\n      dup3\n        /* \"contracts/rides.sol\":1597:1604  drivers */\n      0x03\n        /* \"contracts/rides.sol\":1597:1616  drivers[msg.sender] */\n      0x00\n        /* \"contracts/rides.sol\":1605:1615  msg.sender */\n      caller\n        /* \"contracts/rides.sol\":1597:1616  drivers[msg.sender] */\n      0xffffffffffffffffffffffffffffffffffffffff\n      and\n      0xffffffffffffffffffffffffffffffffffffffff\n      and\n      dup2\n      mstore\n      0x20\n      add\n      swap1\n      dup2\n      mstore\n      0x20\n      add\n      0x00\n      keccak256\n        /* \"contracts/rides.sol\":1597:1622  drivers[msg.sender].email */\n      0x01\n      add\n        /* \"contracts/rides.sol\":1597:1630  drivers[msg.sender].email = email */\n      swap1\n      dup1\n      mload\n      swap1\n      0x20\n      add\n      swap1\n      tag_83\n      swap3\n      swap2\n      swap1\n      tag_73\n      jump\t// in\n    tag_83:\n      pop\n        /* \"contracts/rides.sol\":1675:1686  phoneNumber */\n      dup2\n        /* \"contracts/rides.sol\":1641:1648  drivers */\n      0x03\n        /* \"contracts/rides.sol\":1641:1660  drivers[msg.sender] */\n      0x00\n        /* \"contracts/rides.sol\":1649:1659  msg.sender */\n      caller\n        /* \"contracts/rides.sol\":1641:1660  drivers[msg.sender] */\n      0xffffffffffffffffffffffffffffffffffffffff\n      and\n      0xffffffffffffffffffffffffffffffffffffffff\n      and\n      dup2\n      mstore\n      0x20\n      add\n      swap1\n      dup2\n      mstore\n      0x20\n      add\n      0x00\n      keccak256\n        /* \"contracts/rides.sol\":1641:1672  drivers[msg.sender].phoneNumber */\n      0x02\n      add\n        /* \"contracts/rides.sol\":1641:1686  drivers[msg.sender].phoneNumber = phoneNumber */\n      swap1\n      dup1\n      mload\n      swap1\n      0x20\n      add\n      swap1\n      tag_84\n      swap3\n      swap2\n      swap1\n      tag_73\n      jump\t// in\n    tag_84:\n      pop\n        /* \"contracts/rides.sol\":1730:1734  user */\n      dup1\n        /* \"contracts/rides.sol\":1724:1735  Users(user) */\n      0x01\n      dup2\n      gt\n      iszero\n      tag_85\n      jumpi\n      tag_86\n      tag_78\n      jump\t// in\n    tag_86:\n    tag_85:\n        /* \"contracts/rides.sol\":1697:1704  drivers */\n      0x03\n        /* \"contracts/rides.sol\":1697:1716  drivers[msg.sender] */\n      0x00\n        /* \"contracts/rides.sol\":1705:1715  msg.sender */\n      caller\n        /* \"contracts/rides.sol\":1697:1716  drivers[msg.sender] */\n      0xffffffffffffffffffffffffffffffffffffffff\n      and\n      0xffffffffffffffffffffffffffffffffffffffff\n      and\n      dup2\n      mstore\n      0x20\n      add\n      swap1\n      dup2\n      mstore\n      0x20\n      add\n      0x00\n      keccak256\n        /* \"contracts/rides.sol\":1697:1721  drivers[msg.sender].user */\n      0x05\n      add\n      0x00\n        /* \"contracts/rides.sol\":1697:1735  drivers[msg.sender].user = Users(user) */\n      0x0100\n      exp\n      dup2\n      sload\n      dup2\n      0xff\n      mul\n      not\n      and\n      swap1\n      dup4\n      0x01\n      dup2\n      gt\n      iszero\n      tag_87\n      jumpi\n      tag_88\n      tag_78\n      jump\t// in\n    tag_88:\n    tag_87:\n      mul\n      or\n      swap1\n      sstore\n      pop\n        /* \"contracts/rides.sol\":1772:1782  msg.sender */\n      caller\n        /* \"contracts/rides.sol\":1753:1783  driverRegistration(msg.sender) */\n      0xffffffffffffffffffffffffffffffffffffffff\n      and\n      0x8e8163abfd8af54d75ae372dd0fee97b14b981449bee2aeb55d2de269a9f5a2a\n      mload(0x40)\n      mload(0x40)\n      dup1\n      swap2\n      sub\n      swap1\n      log2\n        /* \"contracts/rides.sol\":1429:1791  function registerDriver(string memory name, string memory email, string memory phoneNumber, uint256 user) external {\r... */\n      pop\n      pop\n      pop\n      pop\n      jump\t// out\n        /* \"contracts/rides.sol\":1799:1939  function getDriverInfo(address payable driverAddress) external view returns (driver memory) {\r... */\n    tag_30:\n        /* \"contracts/rides.sol\":1876:1889  driver memory */\n      tag_89\n      tag_90\n      jump\t// in\n    tag_89:\n        /* \"contracts/rides.sol\":1909:1916  drivers */\n      0x03\n        /* \"contracts/rides.sol\":1909:1931  drivers[driverAddress] */\n      0x00\n        /* \"contracts/rides.sol\":1917:1930  driverAddress */\n      dup4\n        /* \"contracts/rides.sol\":1909:1931  drivers[driverAddress] */\n      0xffffffffffffffffffffffffffffffffffffffff\n      and\n      0xffffffffffffffffffffffffffffffffffffffff\n      and\n      dup2\n      mstore\n      0x20\n      add\n      swap1\n      dup2\n      mstore\n      0x20\n      add\n      0x00\n      keccak256\n        /* \"contracts/rides.sol\":1902:1931  return drivers[driverAddress] */\n      mload(0x40)\n      dup1\n      0xc0\n      add\n      0x40\n      mstore\n      swap1\n      dup2\n      0x00\n      dup3\n      add\n      dup1\n      sload\n      tag_92\n      swap1\n      tag_66\n      jump\t// in\n    tag_92:\n      dup1\n      0x1f\n      add\n      0x20\n      dup1\n      swap2\n      div\n      mul\n      0x20\n      add\n      mload(0x40)\n      swap1\n      dup2\n      add\n      0x40\n      mstore\n      dup1\n      swap3\n      swap2\n      swap1\n      dup2\n      dup2\n      mstore\n      0x20\n      add\n      dup3\n      dup1\n      sload\n      tag_93\n      swap1\n      tag_66\n      jump\t// in\n    tag_93:\n      dup1\n      iszero\n      tag_94\n      jumpi\n      dup1\n      0x1f\n      lt\n      tag_95\n      jumpi\n      0x0100\n      dup1\n      dup4\n      sload\n      div\n      mul\n      dup4\n      mstore\n      swap2\n      0x20\n      add\n      swap2\n      jump(tag_94)\n    tag_95:\n      dup3\n      add\n      swap2\n      swap1\n      0x00\n      mstore\n      keccak256(0x00, 0x20)\n      swap1\n    tag_96:\n      dup2\n      sload\n      dup2\n      mstore\n      swap1\n      0x01\n      add\n      swap1\n      0x20\n      add\n      dup1\n      dup4\n      gt\n      tag_96\n      jumpi\n      dup3\n      swap1\n      sub\n      0x1f\n      and\n      dup3\n      add\n      swap2\n    tag_94:\n      pop\n      pop\n      pop\n      pop\n      pop\n      dup2\n      mstore\n      0x20\n      add\n      0x01\n      dup3\n      add\n      dup1\n      sload\n      tag_97\n      swap1\n      tag_66\n      jump\t// in\n    tag_97:\n      dup1\n      0x1f\n      add\n      0x20\n      dup1\n      swap2\n      div\n      mul\n      0x20\n      add\n      mload(0x40)\n      swap1\n      dup2\n      add\n      0x40\n      mstore\n      dup1\n      swap3\n      swap2\n      swap1\n      dup2\n      dup2\n      mstore\n      0x20\n      add\n      dup3\n      dup1\n      sload\n      tag_98\n      swap1\n      tag_66\n      jump\t// in\n    tag_98:\n      dup1\n      iszero\n      tag_99\n      jumpi\n      dup1\n      0x1f\n      lt\n      tag_100\n      jumpi\n      0x0100\n      dup1\n      dup4\n      sload\n      div\n      mul\n      dup4\n      mstore\n      swap2\n      0x20\n      add\n      swap2\n      jump(tag_99)\n    tag_100:\n      dup3\n      add\n      swap2\n      swap1\n      0x00\n      mstore\n      keccak256(0x00, 0x20)\n      swap1\n    tag_101:\n      dup2\n      sload\n      dup2\n      mstore\n      swap1\n      0x01\n      add\n      swap1\n      0x20\n      add\n      dup1\n      dup4\n      gt\n      tag_101\n      jumpi\n      dup3\n      swap1\n      sub\n      0x1f\n      and\n      dup3\n      add\n      swap2\n    tag_99:\n      pop\n      pop\n      pop\n      pop\n      pop\n      dup2\n      mstore\n      0x20\n      add\n      0x02\n      dup3\n      add\n      dup1\n      sload\n      tag_102\n      swap1\n      tag_66\n      jump\t// in\n    tag_102:\n      dup1\n      0x1f\n      add\n      0x20\n      dup1\n      swap2\n      div\n      mul\n      0x20\n      add\n      mload(0x40)\n      swap1\n      dup2\n      add\n      0x40\n      mstore\n      dup1\n      swap3\n      swap2\n      swap1\n      dup2\n      dup2\n      mstore\n      0x20\n      add\n      dup3\n      dup1\n      sload\n      tag_103\n      swap1\n      tag_66\n      jump\t// in\n    tag_103:\n      dup1\n      iszero\n      tag_104\n      jumpi\n      dup1\n      0x1f\n      lt\n      tag_105\n      jumpi\n      0x0100\n      dup1\n      dup4\n      sload\n      div\n      mul\n      dup4\n      mstore\n      swap2\n      0x20\n      add\n      swap2\n      jump(tag_104)\n    tag_105:\n      dup3\n      add\n      swap2\n      swap1\n      0x00\n      mstore\n      keccak256(0x00, 0x20)\n      swap1\n    tag_106:\n      dup2\n      sload\n      dup2\n      mstore\n      swap1\n      0x01\n      add\n      swap1\n      0x20\n      add\n      dup1\n      dup4\n      gt\n      tag_106\n      jumpi\n      dup3\n      swap1\n      sub\n      0x1f\n      and\n      dup3\n      add\n      swap2\n    tag_104:\n      pop\n      pop\n      pop\n      pop\n      pop\n      dup2\n      mstore\n      0x20\n      add\n      0x03\n      dup3\n      add\n      0x00\n      swap1\n      sload\n      swap1\n      0x0100\n      exp\n      swap1\n      div\n      0xffffffffffffffffffffffffffffffffffffffff\n      and\n      0xffffffffffffffffffffffffffffffffffffffff\n      and\n      0xffffffffffffffffffffffffffffffffffffffff\n      and\n      dup2\n      mstore\n      0x20\n      add\n      0x04\n      dup3\n      add\n      dup1\n      sload\n      dup1\n      0x20\n      mul\n      0x20\n      add\n      mload(0x40)\n      swap1\n      dup2\n      add\n      0x40\n      mstore\n      dup1\n      swap3\n      swap2\n      swap1\n      dup2\n      dup2\n      mstore\n      0x20\n      add\n      0x00\n      swap1\n    tag_107:\n      dup3\n      dup3\n      lt\n      iszero\n      tag_108\n      jumpi\n      dup4\n      dup3\n      swap1\n      0x00\n      mstore\n      keccak256(0x00, 0x20)\n      add\n      dup1\n      sload\n      tag_110\n      swap1\n      tag_66\n      jump\t// in\n    tag_110:\n      dup1\n      0x1f\n      add\n      0x20\n      dup1\n      swap2\n      div\n      mul\n      0x20\n      add\n      mload(0x40)\n      swap1\n      dup2\n      add\n      0x40\n      mstore\n      dup1\n      swap3\n      swap2\n      swap1\n      dup2\n      dup2\n      mstore\n      0x20\n      add\n      dup3\n      dup1\n      sload\n      tag_111\n      swap1\n      tag_66\n      jump\t// in\n    tag_111:\n      dup1\n      iszero\n      tag_112\n      jumpi\n      dup1\n      0x1f\n      lt\n      tag_113\n      jumpi\n      0x0100\n      dup1\n      dup4\n      sload\n      div\n      mul\n      dup4\n      mstore\n      swap2\n      0x20\n      add\n      swap2\n      jump(tag_112)\n    tag_113:\n      dup3\n      add\n      swap2\n      swap1\n      0x00\n      mstore\n      keccak256(0x00, 0x20)\n      swap1\n    tag_114:\n      dup2\n      sload\n      dup2\n      mstore\n      swap1\n      0x01\n      add\n      swap1\n      0x20\n      add\n      dup1\n      dup4\n      gt\n      tag_114\n      jumpi\n      dup3\n      swap1\n      sub\n      0x1f\n      and\n      dup3\n      add\n      swap2\n    tag_112:\n      pop\n      pop\n      pop\n      pop\n      pop\n      dup2\n      mstore\n      0x20\n      add\n      swap1\n      0x01\n      add\n      swap1\n      jump(tag_107)\n    tag_108:\n      pop\n      pop\n      pop\n      pop\n      dup2\n      mstore\n      0x20\n      add\n      0x05\n      dup3\n      add\n      0x00\n      swap1\n      sload\n      swap1\n      0x0100\n      exp\n      swap1\n      div\n      0xff\n      and\n      0x01\n      dup2\n      gt\n      iszero\n      tag_115\n      jumpi\n      tag_116\n      tag_78\n      jump\t// in\n    tag_116:\n    tag_115:\n      0x01\n      dup2\n      gt\n      iszero\n      tag_117\n      jumpi\n      tag_118\n      tag_78\n      jump\t// in\n    tag_118:\n    tag_117:\n      dup2\n      mstore\n      pop\n      pop\n      swap1\n      pop\n        /* \"contracts/rides.sol\":1799:1939  function getDriverInfo(address payable driverAddress) external view returns (driver memory) {\r... */\n      swap2\n      swap1\n      pop\n      jump\t// out\n        /* \"contracts/rides.sol\":429:467  address payable[] public passengerKeys */\n    tag_35:\n      0x02\n      dup2\n      dup2\n      sload\n      dup2\n      lt\n      tag_119\n      jumpi\n      0x00\n      dup1\n      revert\n    tag_119:\n      swap1\n      0x00\n      mstore\n      keccak256(0x00, 0x20)\n      add\n      0x00\n      swap2\n      pop\n      sload\n      swap1\n      0x0100\n      exp\n      swap1\n      div\n      0xffffffffffffffffffffffffffffffffffffffff\n      and\n      dup2\n      jump\t// out\n        /* \"contracts/rides.sol\":1208:1362  function getPassengerInfo(address payable passengerAddress) external view returns(passenger memory) {\r... */\n    tag_40:\n        /* \"contracts/rides.sol\":1290:1306  passenger memory */\n      tag_121\n      tag_122\n      jump\t// in\n    tag_121:\n        /* \"contracts/rides.sol\":1326:1336  passengers */\n      0x01\n        /* \"contracts/rides.sol\":1326:1354  passengers[passengerAddress] */\n      0x00\n        /* \"contracts/rides.sol\":1337:1353  passengerAddress */\n      dup4\n        /* \"contracts/rides.sol\":1326:1354  passengers[passengerAddress] */\n      0xffffffffffffffffffffffffffffffffffffffff\n      and\n      0xffffffffffffffffffffffffffffffffffffffff\n      and\n      dup2\n      mstore\n      0x20\n      add\n      swap1\n      dup2\n      mstore\n      0x20\n      add\n      0x00\n      keccak256\n        /* \"contracts/rides.sol\":1319:1354  return passengers[passengerAddress] */\n      mload(0x40)\n      dup1\n      0xc0\n      add\n      0x40\n      mstore\n      swap1\n      dup2\n      0x00\n      dup3\n      add\n      dup1\n      sload\n      tag_124\n      swap1\n      tag_66\n      jump\t// in\n    tag_124:\n      dup1\n      0x1f\n      add\n      0x20\n      dup1\n      swap2\n      div\n      mul\n      0x20\n      add\n      mload(0x40)\n      swap1\n      dup2\n      add\n      0x40\n      mstore\n      dup1\n      swap3\n      swap2\n      swap1\n      dup2\n      dup2\n      mstore\n      0x20\n      add\n      dup3\n      dup1\n      sload\n      tag_125\n      swap1\n      tag_66\n      jump\t// in\n    tag_125:\n      dup1\n      iszero\n      tag_126\n      jumpi\n      dup1\n      0x1f\n      lt\n      tag_127\n      jumpi\n      0x0100\n      dup1\n      dup4\n      sload\n      div\n      mul\n      dup4\n      mstore\n      swap2\n      0x20\n      add\n      swap2\n      jump(tag_126)\n    tag_127:\n      dup3\n      add\n      swap2\n      swap1\n      0x00\n      mstore\n      keccak256(0x00, 0x20)\n      swap1\n    tag_128:\n      dup2\n      sload\n      dup2\n      mstore\n      swap1\n      0x01\n      add\n      swap1\n      0x20\n      add\n      dup1\n      dup4\n      gt\n      tag_128\n      jumpi\n      dup3\n      swap1\n      sub\n      0x1f\n      and\n      dup3\n      add\n      swap2\n    tag_126:\n      pop\n      pop\n      pop\n      pop\n      pop\n      dup2\n      mstore\n      0x20\n      add\n      0x01\n      dup3\n      add\n      dup1\n      sload\n      tag_129\n      swap1\n      tag_66\n      jump\t// in\n    tag_129:\n      dup1\n      0x1f\n      add\n      0x20\n      dup1\n      swap2\n      div\n      mul\n      0x20\n      add\n      mload(0x40)\n      swap1\n      dup2\n      add\n      0x40\n      mstore\n      dup1\n      swap3\n      swap2\n      swap1\n      dup2\n      dup2\n      mstore\n      0x20\n      add\n      dup3\n      dup1\n      sload\n      tag_130\n      swap1\n      tag_66\n      jump\t// in\n    tag_130:\n      dup1\n      iszero\n      tag_131\n      jumpi\n      dup1\n      0x1f\n      lt\n      tag_132\n      jumpi\n      0x0100\n      dup1\n      dup4\n      sload\n      div\n      mul\n      dup4\n      mstore\n      swap2\n      0x20\n      add\n      swap2\n      jump(tag_131)\n    tag_132:\n      dup3\n      add\n      swap2\n      swap1\n      0x00\n      mstore\n      keccak256(0x00, 0x20)\n      swap1\n    tag_133:\n      dup2\n      sload\n      dup2\n      mstore\n      swap1\n      0x01\n      add\n      swap1\n      0x20\n      add\n      dup1\n      dup4\n      gt\n      tag_133\n      jumpi\n      dup3\n      swap1\n      sub\n      0x1f\n      and\n      dup3\n      add\n      swap2\n    tag_131:\n      pop\n      pop\n      pop\n      pop\n      pop\n      dup2\n      mstore\n      0x20\n      add\n      0x02\n      dup3\n      add\n      dup1\n      sload\n      tag_134\n      swap1\n      tag_66\n      jump\t// in\n    tag_134:\n      dup1\n      0x1f\n      add\n      0x20\n      dup1\n      swap2\n      div\n      mul\n      0x20\n      add\n      mload(0x40)\n      swap1\n      dup2\n      add\n      0x40\n      mstore\n      dup1\n      swap3\n      swap2\n      swap1\n      dup2\n      dup2\n      mstore\n      0x20\n      add\n      dup3\n      dup1\n      sload\n      tag_135\n      swap1\n      tag_66\n      jump\t// in\n    tag_135:\n      dup1\n      iszero\n      tag_136\n      jumpi\n      dup1\n      0x1f\n      lt\n      tag_137\n      jumpi\n      0x0100\n      dup1\n      dup4\n      sload\n      div\n      mul\n      dup4\n      mstore\n      swap2\n      0x20\n      add\n      swap2\n      jump(tag_136)\n    tag_137:\n      dup3\n      add\n      swap2\n      swap1\n      0x00\n      mstore\n      keccak256(0x00, 0x20)\n      swap1\n    tag_138:\n      dup2\n      sload\n      dup2\n      mstore\n      swap1\n      0x01\n      add\n      swap1\n      0x20\n      add\n      dup1\n      dup4\n      gt\n      tag_138\n      jumpi\n      dup3\n      swap1\n      sub\n      0x1f\n      and\n      dup3\n      add\n      swap2\n    tag_136:\n      pop\n      pop\n      pop\n      pop\n      pop\n      dup2\n      mstore\n      0x20\n      add\n      0x03\n      dup3\n      add\n      0x00\n      swap1\n      sload\n      swap1\n      0x0100\n      exp\n      swap1\n      div\n      0xffffffffffffffffffffffffffffffffffffffff\n      and\n      0xffffffffffffffffffffffffffffffffffffffff\n      and\n      0xffffffffffffffffffffffffffffffffffffffff\n      and\n      dup2\n      mstore\n      0x20\n      add\n      0x04\n      dup3\n      add\n      dup1\n      sload\n      dup1\n      0x20\n      mul\n      0x20\n      add\n      mload(0x40)\n      swap1\n      dup2\n      add\n      0x40\n      mstore\n      dup1\n      swap3\n      swap2\n      swap1\n      dup2\n      dup2\n      mstore\n      0x20\n      add\n      0x00\n      swap1\n    tag_139:\n      dup3\n      dup3\n      lt\n      iszero\n      tag_140\n      jumpi\n      dup4\n      dup3\n      swap1\n      0x00\n      mstore\n      keccak256(0x00, 0x20)\n      add\n      dup1\n      sload\n      tag_142\n      swap1\n      tag_66\n      jump\t// in\n    tag_142:\n      dup1\n      0x1f\n      add\n      0x20\n      dup1\n      swap2\n      div\n      mul\n      0x20\n      add\n      mload(0x40)\n      swap1\n      dup2\n      add\n      0x40\n      mstore\n      dup1\n      swap3\n      swap2\n      swap1\n      dup2\n      dup2\n      mstore\n      0x20\n      add\n      dup3\n      dup1\n      sload\n      tag_143\n      swap1\n      tag_66\n      jump\t// in\n    tag_143:\n      dup1\n      iszero\n      tag_144\n      jumpi\n      dup1\n      0x1f\n      lt\n      tag_145\n      jumpi\n      0x0100\n      dup1\n      dup4\n      sload\n      div\n      mul\n      dup4\n      mstore\n      swap2\n      0x20\n      add\n      swap2\n      jump(tag_144)\n    tag_145:\n      dup3\n      add\n      swap2\n      swap1\n      0x00\n      mstore\n      keccak256(0x00, 0x20)\n      swap1\n    tag_146:\n      dup2\n      sload\n      dup2\n      mstore\n      swap1\n      0x01\n      add\n      swap1\n      0x20\n      add\n      dup1\n      dup4\n      gt\n      tag_146\n      jumpi\n      dup3\n      swap1\n      sub\n      0x1f\n      and\n      dup3\n      add\n      swap2\n    tag_144:\n      pop\n      pop\n      pop\n      pop\n      pop\n      dup2\n      mstore\n      0x20\n      add\n      swap1\n      0x01\n      add\n      swap1\n      jump(tag_139)\n    tag_140:\n      pop\n      pop\n      pop\n      pop\n      dup2\n      mstore\n      0x20\n      add\n      0x05\n      dup3\n      add\n      0x00\n      swap1\n      sload\n      swap1\n      0x0100\n      exp\n      swap1\n      div\n      0xff\n      and\n      0x01\n      dup2\n      gt\n      iszero\n      tag_147\n      jumpi\n      tag_148\n      tag_78\n      jump\t// in\n    tag_148:\n    tag_147:\n      0x01\n      dup2\n      gt\n      iszero\n      tag_149\n      jumpi\n      tag_150\n      tag_78\n      jump\t// in\n    tag_150:\n    tag_149:\n      dup2\n      mstore\n      pop\n      pop\n      swap1\n      pop\n        /* \"contracts/rides.sol\":1208:1362  function getPassengerInfo(address payable passengerAddress) external view returns(passenger memory) {\r... */\n      swap2\n      swap1\n      pop\n      jump\t// out\n        /* \"contracts/rides.sol\":714:749  address payable[] public driverKeys */\n    tag_45:\n      0x04\n      dup2\n      dup2\n      sload\n      dup2\n      lt\n      tag_151\n      jumpi\n      0x00\n      dup1\n      revert\n    tag_151:\n      swap1\n      0x00\n      mstore\n      keccak256(0x00, 0x20)\n      add\n      0x00\n      swap2\n      pop\n      sload\n      swap1\n      0x0100\n      exp\n      swap1\n      div\n      0xffffffffffffffffffffffffffffffffffffffff\n      and\n      dup2\n      jump\t// out\n        /* \"contracts/rides.sol\":666:707  mapping(address => driver) public drivers */\n    tag_50:\n      mstore(0x20, 0x03)\n      dup1\n      0x00\n      mstore\n      keccak256(0x00, 0x40)\n      0x00\n      swap2\n      pop\n      swap1\n      pop\n      dup1\n      0x00\n      add\n      dup1\n      sload\n      tag_153\n      swap1\n      tag_66\n      jump\t// in\n    tag_153:\n      dup1\n      0x1f\n      add\n      0x20\n      dup1\n      swap2\n      div\n      mul\n      0x20\n      add\n      mload(0x40)\n      swap1\n      dup2\n      add\n      0x40\n      mstore\n      dup1\n      swap3\n      swap2\n      swap1\n      dup2\n      dup2\n      mstore\n      0x20\n      add\n      dup3\n      dup1\n      sload\n      tag_154\n      swap1\n      tag_66\n      jump\t// in\n    tag_154:\n      dup1\n      iszero\n      tag_155\n      jumpi\n      dup1\n      0x1f\n      lt\n      tag_156\n      jumpi\n      0x0100\n      dup1\n      dup4\n      sload\n      div\n      mul\n      dup4\n      mstore\n      swap2\n      0x20\n      add\n      swap2\n      jump(tag_155)\n    tag_156:\n      dup3\n      add\n      swap2\n      swap1\n      0x00\n      mstore\n      keccak256(0x00, 0x20)\n      swap1\n    tag_157:\n      dup2\n      sload\n      dup2\n      mstore\n      swap1\n      0x01\n      add\n      swap1\n      0x20\n      add\n      dup1\n      dup4\n      gt\n      tag_157\n      jumpi\n      dup3\n      swap1\n      sub\n      0x1f\n      and\n      dup3\n      add\n      swap2\n    tag_155:\n      pop\n      pop\n      pop\n      pop\n      pop\n      swap1\n      dup1\n      0x01\n      add\n      dup1\n      sload\n      tag_158\n      swap1\n      tag_66\n      jump\t// in\n    tag_158:\n      dup1\n      0x1f\n      add\n      0x20\n      dup1\n      swap2\n      div\n      mul\n      0x20\n      add\n      mload(0x40)\n      swap1\n      dup2\n      add\n      0x40\n      mstore\n      dup1\n      swap3\n      swap2\n      swap1\n      dup2\n      dup2\n      mstore\n      0x20\n      add\n      dup3\n      dup1\n      sload\n      tag_159\n      swap1\n      tag_66\n      jump\t// in\n    tag_159:\n      dup1\n      iszero\n      tag_160\n      jumpi\n      dup1\n      0x1f\n      lt\n      tag_161\n      jumpi\n      0x0100\n      dup1\n      dup4\n      sload\n      div\n      mul\n      dup4\n      mstore\n      swap2\n      0x20\n      add\n      swap2\n      jump(tag_160)\n    tag_161:\n      dup3\n      add\n      swap2\n      swap1\n      0x00\n      mstore\n      keccak256(0x00, 0x20)\n      swap1\n    tag_162:\n      dup2\n      sload\n      dup2\n      mstore\n      swap1\n      0x01\n      add\n      swap1\n      0x20\n      add\n      dup1\n      dup4\n      gt\n      tag_162\n      jumpi\n      dup3\n      swap1\n      sub\n      0x1f\n      and\n      dup3\n      add\n      swap2\n    tag_160:\n      pop\n      pop\n      pop\n      pop\n      pop\n      swap1\n      dup1\n      0x02\n      add\n      dup1\n      sload\n      tag_163\n      swap1\n      tag_66\n      jump\t// in\n    tag_163:\n      dup1\n      0x1f\n      add\n      0x20\n      dup1\n      swap2\n      div\n      mul\n      0x20\n      add\n      mload(0x40)\n      swap1\n      dup2\n      add\n      0x40\n      mstore\n      dup1\n      swap3\n      swap2\n      swap1\n      dup2\n      dup2\n      mstore\n      0x20\n      add\n      dup3\n      dup1\n      sload\n      tag_164\n      swap1\n      tag_66\n      jump\t// in\n    tag_164:\n      dup1\n      iszero\n      tag_165\n      jumpi\n      dup1\n      0x1f\n      lt\n      tag_166\n      jumpi\n      0x0100\n      dup1\n      dup4\n      sload\n      div\n      mul\n      dup4\n      mstore\n      swap2\n      0x20\n      add\n      swap2\n      jump(tag_165)\n    tag_166:\n      dup3\n      add\n      swap2\n      swap1\n      0x00\n      mstore\n      keccak256(0x00, 0x20)\n      swap1\n    tag_167:\n      dup2\n      sload\n      dup2\n      mstore\n      swap1\n      0x01\n      add\n      swap1\n      0x20\n      add\n      dup1\n      dup4\n      gt\n      tag_167\n      jumpi\n      dup3\n      swap1\n      sub\n      0x1f\n      and\n      dup3\n      add\n      swap2\n    tag_165:\n      pop\n      pop\n      pop\n      pop\n      pop\n      swap1\n      dup1\n      0x03\n      add\n      0x00\n      swap1\n      sload\n      swap1\n      0x0100\n      exp\n      swap1\n      div\n      0xffffffffffffffffffffffffffffffffffffffff\n      and\n      swap1\n      dup1\n      0x05\n      add\n      0x00\n      swap1\n      sload\n      swap1\n      0x0100\n      exp\n      swap1\n      div\n      0xff\n      and\n      swap1\n      pop\n      dup6\n      jump\t// out\n        /* \"contracts/rides.sol\":375:422  mapping(address => passenger) public passengers */\n    tag_55:\n      mstore(0x20, 0x01)\n      dup1\n      0x00\n      mstore\n      keccak256(0x00, 0x40)\n      0x00\n      swap2\n      pop\n      swap1\n      pop\n      dup1\n      0x00\n      add\n      dup1\n      sload\n      tag_168\n      swap1\n      tag_66\n      jump\t// in\n    tag_168:\n      dup1\n      0x1f\n      add\n      0x20\n      dup1\n      swap2\n      div\n      mul\n      0x20\n      add\n      mload(0x40)\n      swap1\n      dup2\n      add\n      0x40\n      mstore\n      dup1\n      swap3\n      swap2\n      swap1\n      dup2\n      dup2\n      mstore\n      0x20\n      add\n      dup3\n      dup1\n      sload\n      tag_169\n      swap1\n      tag_66\n      jump\t// in\n    tag_169:\n      dup1\n      iszero\n      tag_170\n      jumpi\n      dup1\n      0x1f\n      lt\n      tag_171\n      jumpi\n      0x0100\n      dup1\n      dup4\n      sload\n      div\n      mul\n      dup4\n      mstore\n      swap2\n      0x20\n      add\n      swap2\n      jump(tag_170)\n    tag_171:\n      dup3\n      add\n      swap2\n      swap1\n      0x00\n      mstore\n      keccak256(0x00, 0x20)\n      swap1\n    tag_172:\n      dup2\n      sload\n      dup2\n      mstore\n      swap1\n      0x01\n      add\n      swap1\n      0x20\n      add\n      dup1\n      dup4\n      gt\n      tag_172\n      jumpi\n      dup3\n      swap1\n      sub\n      0x1f\n      and\n      dup3\n      add\n      swap2\n    tag_170:\n      pop\n      pop\n      pop\n      pop\n      pop\n      swap1\n      dup1\n      0x01\n      add\n      dup1\n      sload\n      tag_173\n      swap1\n      tag_66\n      jump\t// in\n    tag_173:\n      dup1\n      0x1f\n      add\n      0x20\n      dup1\n      swap2\n      div\n      mul\n      0x20\n      add\n      mload(0x40)\n      swap1\n      dup2\n      add\n      0x40\n      mstore\n      dup1\n      swap3\n      swap2\n      swap1\n      dup2\n      dup2\n      mstore\n      0x20\n      add\n      dup3\n      dup1\n      sload\n      tag_174\n      swap1\n      tag_66\n      jump\t// in\n    tag_174:\n      dup1\n      iszero\n      tag_175\n      jumpi\n      dup1\n      0x1f\n      lt\n      tag_176\n      jumpi\n      0x0100\n      dup1\n      dup4\n      sload\n      div\n      mul\n      dup4\n      mstore\n      swap2\n      0x20\n      add\n      swap2\n      jump(tag_175)\n    tag_176:\n      dup3\n      add\n      swap2\n      swap1\n      0x00\n      mstore\n      keccak256(0x00, 0x20)\n      swap1\n    tag_177:\n      dup2\n      sload\n      dup2\n      mstore\n      swap1\n      0x01\n      add\n      swap1\n      0x20\n      add\n      dup1\n      dup4\n      gt\n      tag_177\n      jumpi\n      dup3\n      swap1\n      sub\n      0x1f\n      and\n      dup3\n      add\n      swap2\n    tag_175:\n      pop\n      pop\n      pop\n      pop\n      pop\n      swap1\n      dup1\n      0x02\n      add\n      dup1\n      sload\n      tag_178\n      swap1\n      tag_66\n      jump\t// in\n    tag_178:\n      dup1\n      0x1f\n      add\n      0x20\n      dup1\n      swap2\n      div\n      mul\n      0x20\n      add\n      mload(0x40)\n      swap1\n      dup2\n      add\n      0x40\n      mstore\n      dup1\n      swap3\n      swap2\n      swap1\n      dup2\n      dup2\n      mstore\n      0x20\n      add\n      dup3\n      dup1\n      sload\n      tag_179\n      swap1\n      tag_66\n      jump\t// in\n    tag_179:\n      dup1\n      iszero\n      tag_180\n      jumpi\n      dup1\n      0x1f\n      lt\n      tag_181\n      jumpi\n      0x0100\n      dup1\n      dup4\n      sload\n      div\n      mul\n      dup4\n      mstore\n      swap2\n      0x20\n      add\n      swap2\n      jump(tag_180)\n    tag_181:\n      dup3\n      add\n      swap2\n      swap1\n      0x00\n      mstore\n      keccak256(0x00, 0x20)\n      swap1\n    tag_182:\n      dup2\n      sload\n      dup2\n      mstore\n      swap1\n      0x01\n      add\n      swap1\n      0x20\n      add\n      dup1\n      dup4\n      gt\n      tag_182\n      jumpi\n      dup3\n      swap1\n      sub\n      0x1f\n      and\n      dup3\n      add\n      swap2\n    tag_180:\n      pop\n      pop\n      pop\n      pop\n      pop\n      swap1\n      dup1\n      0x03\n      add\n      0x00\n      swap1\n      sload\n      swap1\n      0x0100\n      exp\n      swap1\n      div\n      0xffffffffffffffffffffffffffffffffffffffff\n      and\n      swap1\n      dup1\n      0x05\n      add\n      0x00\n      swap1\n      sload\n      swap1\n      0x0100\n      exp\n      swap1\n      div\n      0xff\n      and\n      swap1\n      pop\n      dup6\n      jump\t// out\n        /* \"contracts/rides.sol\":2083:2119  mapping(string => ride) public rides */\n    tag_60:\n      0x05\n      dup2\n      dup1\n      mload\n      0x20\n      dup2\n      add\n      dup3\n      add\n      dup1\n      mload\n      dup5\n      dup3\n      mstore\n      0x20\n      dup4\n      add\n      0x20\n      dup6\n      add\n      keccak256\n      dup2\n      dup4\n      mstore\n      dup1\n      swap6\n      pop\n      pop\n      pop\n      pop\n      pop\n      pop\n      0x00\n      swap2\n      pop\n      swap1\n      pop\n      dup1\n      0x00\n      add\n      0x00\n      swap1\n      sload\n      swap1\n      0x0100\n      exp\n      swap1\n      div\n      0xffffffffffffffffffffffffffffffffffffffff\n      and\n      swap1\n      dup1\n      0x01\n      add\n      0x00\n      swap1\n      sload\n      swap1\n      0x0100\n      exp\n      swap1\n      div\n      0xffffffffffffffffffffffffffffffffffffffff\n      and\n      swap1\n      dup1\n      0x02\n      add\n      sload\n      swap1\n      pop\n      dup4\n      jump\t// out\n    tag_73:\n      dup3\n      dup1\n      sload\n      tag_183\n      swap1\n      tag_66\n      jump\t// in\n    tag_183:\n      swap1\n      0x00\n      mstore\n      keccak256(0x00, 0x20)\n      swap1\n      0x1f\n      add\n      0x20\n      swap1\n      div\n      dup2\n      add\n      swap3\n      dup3\n      tag_185\n      jumpi\n      0x00\n      dup6\n      sstore\n      jump(tag_184)\n    tag_185:\n      dup3\n      0x1f\n      lt\n      tag_186\n      jumpi\n      dup1\n      mload\n      not(0xff)\n      and\n      dup4\n      dup1\n      add\n      or\n      dup6\n      sstore\n      jump(tag_184)\n    tag_186:\n      dup3\n      dup1\n      add\n      0x01\n      add\n      dup6\n      sstore\n      dup3\n      iszero\n      tag_184\n      jumpi\n      swap2\n      dup3\n      add\n    tag_187:\n      dup3\n      dup2\n      gt\n      iszero\n      tag_188\n      jumpi\n      dup3\n      mload\n      dup3\n      sstore\n      swap2\n      0x20\n      add\n      swap2\n      swap1\n      0x01\n      add\n      swap1\n      jump(tag_187)\n    tag_188:\n    tag_184:\n      pop\n      swap1\n      pop\n      tag_189\n      swap2\n      swap1\n      tag_190\n      jump\t// in\n    tag_189:\n      pop\n      swap1\n      jump\t// out\n    tag_90:\n      mload(0x40)\n      dup1\n      0xc0\n      add\n      0x40\n      mstore\n      dup1\n      0x60\n      dup2\n      mstore\n      0x20\n      add\n      0x60\n      dup2\n      mstore\n      0x20\n      add\n      0x60\n      dup2\n      mstore\n      0x20\n      add\n      and(0xffffffffffffffffffffffffffffffffffffffff, 0x00)\n      dup2\n      mstore\n      0x20\n      add\n      0x60\n      dup2\n      mstore\n      0x20\n      add\n      0x00\n      0x01\n      dup2\n      gt\n      iszero\n      tag_191\n      jumpi\n      tag_192\n      tag_78\n      jump\t// in\n    tag_192:\n    tag_191:\n      dup2\n      mstore\n      pop\n      swap1\n      jump\t// out\n    tag_122:\n      mload(0x40)\n      dup1\n      0xc0\n      add\n      0x40\n      mstore\n      dup1\n      0x60\n      dup2\n      mstore\n      0x20\n      add\n      0x60\n      dup2\n      mstore\n      0x20\n      add\n      0x60\n      dup2\n      mstore\n      0x20\n      add\n      and(0xffffffffffffffffffffffffffffffffffffffff, 0x00)\n      dup2\n      mstore\n      0x20\n      add\n      0x60\n      dup2\n      mstore\n      0x20\n      add\n      0x00\n      0x01\n      dup2\n      gt\n      iszero\n      tag_193\n      jumpi\n      tag_194\n      tag_78\n      jump\t// in\n    tag_194:\n    tag_193:\n      dup2\n      mstore\n      pop\n      swap1\n      jump\t// out\n    tag_190:\n    tag_195:\n      dup1\n      dup3\n      gt\n      iszero\n      tag_196\n      jumpi\n      0x00\n      dup2\n      0x00\n      swap1\n      sstore\n      pop\n      0x01\n      add\n      jump(tag_195)\n    tag_196:\n      pop\n      swap1\n      jump\t// out\n        /* \"#utility.yul\":7:419   */\n    tag_198:\n        /* \"#utility.yul\":85:90   */\n      0x00\n        /* \"#utility.yul\":110:176   */\n      tag_200\n        /* \"#utility.yul\":126:175   */\n      tag_201\n        /* \"#utility.yul\":168:174   */\n      dup5\n        /* \"#utility.yul\":126:175   */\n      tag_202\n      jump\t// in\n    tag_201:\n        /* \"#utility.yul\":110:176   */\n      tag_203\n      jump\t// in\n    tag_200:\n        /* \"#utility.yul\":101:176   */\n      swap1\n      pop\n        /* \"#utility.yul\":199:205   */\n      dup3\n        /* \"#utility.yul\":192:197   */\n      dup2\n        /* \"#utility.yul\":185:206   */\n      mstore\n        /* \"#utility.yul\":237:241   */\n      0x20\n        /* \"#utility.yul\":230:235   */\n      dup2\n        /* \"#utility.yul\":226:242   */\n      add\n        /* \"#utility.yul\":275:278   */\n      dup5\n        /* \"#utility.yul\":266:272   */\n      dup5\n        /* \"#utility.yul\":261:264   */\n      dup5\n        /* \"#utility.yul\":257:273   */\n      add\n        /* \"#utility.yul\":254:279   */\n      gt\n        /* \"#utility.yul\":251:363   */\n      iszero\n      tag_204\n      jumpi\n        /* \"#utility.yul\":282:361   */\n      tag_205\n      tag_206\n      jump\t// in\n    tag_205:\n        /* \"#utility.yul\":251:363   */\n    tag_204:\n        /* \"#utility.yul\":372:413   */\n      tag_207\n        /* \"#utility.yul\":406:412   */\n      dup5\n        /* \"#utility.yul\":401:404   */\n      dup3\n        /* \"#utility.yul\":396:399   */\n      dup6\n        /* \"#utility.yul\":372:413   */\n      tag_208\n      jump\t// in\n    tag_207:\n        /* \"#utility.yul\":91:419   */\n      pop\n        /* \"#utility.yul\":7:419   */\n      swap4\n      swap3\n      pop\n      pop\n      pop\n      jump\t// out\n        /* \"#utility.yul\":425:564   */\n    tag_209:\n        /* \"#utility.yul\":471:476   */\n      0x00\n        /* \"#utility.yul\":509:515   */\n      dup2\n        /* \"#utility.yul\":496:516   */\n      calldataload\n        /* \"#utility.yul\":487:516   */\n      swap1\n      pop\n        /* \"#utility.yul\":525:558   */\n      tag_211\n        /* \"#utility.yul\":552:557   */\n      dup2\n        /* \"#utility.yul\":525:558   */\n      tag_212\n      jump\t// in\n    tag_211:\n        /* \"#utility.yul\":425:564   */\n      swap3\n      swap2\n      pop\n      pop\n      jump\t// out\n        /* \"#utility.yul\":570:725   */\n    tag_213:\n        /* \"#utility.yul\":624:629   */\n      0x00\n        /* \"#utility.yul\":662:668   */\n      dup2\n        /* \"#utility.yul\":649:669   */\n      calldataload\n        /* \"#utility.yul\":640:669   */\n      swap1\n      pop\n        /* \"#utility.yul\":678:719   */\n      tag_215\n        /* \"#utility.yul\":713:718   */\n      dup2\n        /* \"#utility.yul\":678:719   */\n      tag_216\n      jump\t// in\n    tag_215:\n        /* \"#utility.yul\":570:725   */\n      swap3\n      swap2\n      pop\n      pop\n      jump\t// out\n        /* \"#utility.yul\":745:1085   */\n    tag_217:\n        /* \"#utility.yul\":801:806   */\n      0x00\n        /* \"#utility.yul\":850:853   */\n      dup3\n        /* \"#utility.yul\":843:847   */\n      0x1f\n        /* \"#utility.yul\":835:841   */\n      dup4\n        /* \"#utility.yul\":831:848   */\n      add\n        /* \"#utility.yul\":827:854   */\n      slt\n        /* \"#utility.yul\":817:939   */\n      tag_219\n      jumpi\n        /* \"#utility.yul\":858:937   */\n      tag_220\n      tag_221\n      jump\t// in\n    tag_220:\n        /* \"#utility.yul\":817:939   */\n    tag_219:\n        /* \"#utility.yul\":975:981   */\n      dup2\n        /* \"#utility.yul\":962:982   */\n      calldataload\n        /* \"#utility.yul\":1000:1079   */\n      tag_222\n        /* \"#utility.yul\":1075:1078   */\n      dup5\n        /* \"#utility.yul\":1067:1073   */\n      dup3\n        /* \"#utility.yul\":1060:1064   */\n      0x20\n        /* \"#utility.yul\":1052:1058   */\n      dup7\n        /* \"#utility.yul\":1048:1065   */\n      add\n        /* \"#utility.yul\":1000:1079   */\n      tag_198\n      jump\t// in\n    tag_222:\n        /* \"#utility.yul\":991:1079   */\n      swap2\n      pop\n        /* \"#utility.yul\":807:1085   */\n      pop\n        /* \"#utility.yul\":745:1085   */\n      swap3\n      swap2\n      pop\n      pop\n      jump\t// out\n        /* \"#utility.yul\":1091:1230   */\n    tag_223:\n        /* \"#utility.yul\":1137:1142   */\n      0x00\n        /* \"#utility.yul\":1175:1181   */\n      dup2\n        /* \"#utility.yul\":1162:1182   */\n      calldataload\n        /* \"#utility.yul\":1153:1182   */\n      swap1\n      pop\n        /* \"#utility.yul\":1191:1224   */\n      tag_225\n        /* \"#utility.yul\":1218:1223   */\n      dup2\n        /* \"#utility.yul\":1191:1224   */\n      tag_226\n      jump\t// in\n    tag_225:\n        /* \"#utility.yul\":1091:1230   */\n      swap3\n      swap2\n      pop\n      pop\n      jump\t// out\n        /* \"#utility.yul\":1236:1565   */\n    tag_49:\n        /* \"#utility.yul\":1295:1301   */\n      0x00\n        /* \"#utility.yul\":1344:1346   */\n      0x20\n        /* \"#utility.yul\":1332:1341   */\n      dup3\n        /* \"#utility.yul\":1323:1330   */\n      dup5\n        /* \"#utility.yul\":1319:1342   */\n      sub\n        /* \"#utility.yul\":1315:1347   */\n      slt\n        /* \"#utility.yul\":1312:1431   */\n      iszero\n      tag_228\n      jumpi\n        /* \"#utility.yul\":1350:1429   */\n      tag_229\n      tag_230\n      jump\t// in\n    tag_229:\n        /* \"#utility.yul\":1312:1431   */\n    tag_228:\n        /* \"#utility.yul\":1470:1471   */\n      0x00\n        /* \"#utility.yul\":1495:1548   */\n      tag_231\n        /* \"#utility.yul\":1540:1547   */\n      dup5\n        /* \"#utility.yul\":1531:1537   */\n      dup3\n        /* \"#utility.yul\":1520:1529   */\n      dup6\n        /* \"#utility.yul\":1516:1538   */\n      add\n        /* \"#utility.yul\":1495:1548   */\n      tag_209\n      jump\t// in\n    tag_231:\n        /* \"#utility.yul\":1485:1548   */\n      swap2\n      pop\n        /* \"#utility.yul\":1441:1558   */\n      pop\n        /* \"#utility.yul\":1236:1565   */\n      swap3\n      swap2\n      pop\n      pop\n      jump\t// out\n        /* \"#utility.yul\":1571:1916   */\n    tag_29:\n        /* \"#utility.yul\":1638:1644   */\n      0x00\n        /* \"#utility.yul\":1687:1689   */\n      0x20\n        /* \"#utility.yul\":1675:1684   */\n      dup3\n        /* \"#utility.yul\":1666:1673   */\n      dup5\n        /* \"#utility.yul\":1662:1685   */\n      sub\n        /* \"#utility.yul\":1658:1690   */\n      slt\n        /* \"#utility.yul\":1655:1774   */\n      iszero\n      tag_233\n      jumpi\n        /* \"#utility.yul\":1693:1772   */\n      tag_234\n      tag_230\n      jump\t// in\n    tag_234:\n        /* \"#utility.yul\":1655:1774   */\n    tag_233:\n        /* \"#utility.yul\":1813:1814   */\n      0x00\n        /* \"#utility.yul\":1838:1899   */\n      tag_235\n        /* \"#utility.yul\":1891:1898   */\n      dup5\n        /* \"#utility.yul\":1882:1888   */\n      dup3\n        /* \"#utility.yul\":1871:1880   */\n      dup6\n        /* \"#utility.yul\":1867:1889   */\n      add\n        /* \"#utility.yul\":1838:1899   */\n      tag_213\n      jump\t// in\n    tag_235:\n        /* \"#utility.yul\":1828:1899   */\n      swap2\n      pop\n        /* \"#utility.yul\":1784:1909   */\n      pop\n        /* \"#utility.yul\":1571:1916   */\n      swap3\n      swap2\n      pop\n      pop\n      jump\t// out\n        /* \"#utility.yul\":1922:2431   */\n    tag_59:\n        /* \"#utility.yul\":1991:1997   */\n      0x00\n        /* \"#utility.yul\":2040:2042   */\n      0x20\n        /* \"#utility.yul\":2028:2037   */\n      dup3\n        /* \"#utility.yul\":2019:2026   */\n      dup5\n        /* \"#utility.yul\":2015:2038   */\n      sub\n        /* \"#utility.yul\":2011:2043   */\n      slt\n        /* \"#utility.yul\":2008:2127   */\n      iszero\n      tag_237\n      jumpi\n        /* \"#utility.yul\":2046:2125   */\n      tag_238\n      tag_230\n      jump\t// in\n    tag_238:\n        /* \"#utility.yul\":2008:2127   */\n    tag_237:\n        /* \"#utility.yul\":2194:2195   */\n      0x00\n        /* \"#utility.yul\":2183:2192   */\n      dup3\n        /* \"#utility.yul\":2179:2196   */\n      add\n        /* \"#utility.yul\":2166:2197   */\n      calldataload\n        /* \"#utility.yul\":2224:2242   */\n      0xffffffffffffffff\n        /* \"#utility.yul\":2216:2222   */\n      dup2\n        /* \"#utility.yul\":2213:2243   */\n      gt\n        /* \"#utility.yul\":2210:2327   */\n      iszero\n      tag_239\n      jumpi\n        /* \"#utility.yul\":2246:2325   */\n      tag_240\n      tag_241\n      jump\t// in\n    tag_240:\n        /* \"#utility.yul\":2210:2327   */\n    tag_239:\n        /* \"#utility.yul\":2351:2414   */\n      tag_242\n        /* \"#utility.yul\":2406:2413   */\n      dup5\n        /* \"#utility.yul\":2397:2403   */\n      dup3\n        /* \"#utility.yul\":2386:2395   */\n      dup6\n        /* \"#utility.yul\":2382:2404   */\n      add\n        /* \"#utility.yul\":2351:2414   */\n      tag_217\n      jump\t// in\n    tag_242:\n        /* \"#utility.yul\":2341:2414   */\n      swap2\n      pop\n        /* \"#utility.yul\":2137:2424   */\n      pop\n        /* \"#utility.yul\":1922:2431   */\n      swap3\n      swap2\n      pop\n      pop\n      jump\t// out\n        /* \"#utility.yul\":2437:3742   */\n    tag_22:\n        /* \"#utility.yul\":2553:2559   */\n      0x00\n        /* \"#utility.yul\":2561:2567   */\n      dup1\n        /* \"#utility.yul\":2569:2575   */\n      0x00\n        /* \"#utility.yul\":2577:2583   */\n      dup1\n        /* \"#utility.yul\":2626:2629   */\n      0x80\n        /* \"#utility.yul\":2614:2623   */\n      dup6\n        /* \"#utility.yul\":2605:2612   */\n      dup8\n        /* \"#utility.yul\":2601:2624   */\n      sub\n        /* \"#utility.yul\":2597:2630   */\n      slt\n        /* \"#utility.yul\":2594:2714   */\n      iszero\n      tag_244\n      jumpi\n        /* \"#utility.yul\":2633:2712   */\n      tag_245\n      tag_230\n      jump\t// in\n    tag_245:\n        /* \"#utility.yul\":2594:2714   */\n    tag_244:\n        /* \"#utility.yul\":2781:2782   */\n      0x00\n        /* \"#utility.yul\":2770:2779   */\n      dup6\n        /* \"#utility.yul\":2766:2783   */\n      add\n        /* \"#utility.yul\":2753:2784   */\n      calldataload\n        /* \"#utility.yul\":2811:2829   */\n      0xffffffffffffffff\n        /* \"#utility.yul\":2803:2809   */\n      dup2\n        /* \"#utility.yul\":2800:2830   */\n      gt\n        /* \"#utility.yul\":2797:2914   */\n      iszero\n      tag_246\n      jumpi\n        /* \"#utility.yul\":2833:2912   */\n      tag_247\n      tag_241\n      jump\t// in\n    tag_247:\n        /* \"#utility.yul\":2797:2914   */\n    tag_246:\n        /* \"#utility.yul\":2938:3001   */\n      tag_248\n        /* \"#utility.yul\":2993:3000   */\n      dup8\n        /* \"#utility.yul\":2984:2990   */\n      dup3\n        /* \"#utility.yul\":2973:2982   */\n      dup9\n        /* \"#utility.yul\":2969:2991   */\n      add\n        /* \"#utility.yul\":2938:3001   */\n      tag_217\n      jump\t// in\n    tag_248:\n        /* \"#utility.yul\":2928:3001   */\n      swap5\n      pop\n        /* \"#utility.yul\":2724:3011   */\n      pop\n        /* \"#utility.yul\":3078:3080   */\n      0x20\n        /* \"#utility.yul\":3067:3076   */\n      dup6\n        /* \"#utility.yul\":3063:3081   */\n      add\n        /* \"#utility.yul\":3050:3082   */\n      calldataload\n        /* \"#utility.yul\":3109:3127   */\n      0xffffffffffffffff\n        /* \"#utility.yul\":3101:3107   */\n      dup2\n        /* \"#utility.yul\":3098:3128   */\n      gt\n        /* \"#utility.yul\":3095:3212   */\n      iszero\n      tag_249\n      jumpi\n        /* \"#utility.yul\":3131:3210   */\n      tag_250\n      tag_241\n      jump\t// in\n    tag_250:\n        /* \"#utility.yul\":3095:3212   */\n    tag_249:\n        /* \"#utility.yul\":3236:3299   */\n      tag_251\n        /* \"#utility.yul\":3291:3298   */\n      dup8\n        /* \"#utility.yul\":3282:3288   */\n      dup3\n        /* \"#utility.yul\":3271:3280   */\n      dup9\n        /* \"#utility.yul\":3267:3289   */\n      add\n        /* \"#utility.yul\":3236:3299   */\n      tag_217\n      jump\t// in\n    tag_251:\n        /* \"#utility.yul\":3226:3299   */\n      swap4\n      pop\n        /* \"#utility.yul\":3021:3309   */\n      pop\n        /* \"#utility.yul\":3376:3378   */\n      0x40\n        /* \"#utility.yul\":3365:3374   */\n      dup6\n        /* \"#utility.yul\":3361:3379   */\n      add\n        /* \"#utility.yul\":3348:3380   */\n      calldataload\n        /* \"#utility.yul\":3407:3425   */\n      0xffffffffffffffff\n        /* \"#utility.yul\":3399:3405   */\n      dup2\n        /* \"#utility.yul\":3396:3426   */\n      gt\n        /* \"#utility.yul\":3393:3510   */\n      iszero\n      tag_252\n      jumpi\n        /* \"#utility.yul\":3429:3508   */\n      tag_253\n      tag_241\n      jump\t// in\n    tag_253:\n        /* \"#utility.yul\":3393:3510   */\n    tag_252:\n        /* \"#utility.yul\":3534:3597   */\n      tag_254\n        /* \"#utility.yul\":3589:3596   */\n      dup8\n        /* \"#utility.yul\":3580:3586   */\n      dup3\n        /* \"#utility.yul\":3569:3578   */\n      dup9\n        /* \"#utility.yul\":3565:3587   */\n      add\n        /* \"#utility.yul\":3534:3597   */\n      tag_217\n      jump\t// in\n    tag_254:\n        /* \"#utility.yul\":3524:3597   */\n      swap3\n      pop\n        /* \"#utility.yul\":3319:3607   */\n      pop\n        /* \"#utility.yul\":3646:3648   */\n      0x60\n        /* \"#utility.yul\":3672:3725   */\n      tag_255\n        /* \"#utility.yul\":3717:3724   */\n      dup8\n        /* \"#utility.yul\":3708:3714   */\n      dup3\n        /* \"#utility.yul\":3697:3706   */\n      dup9\n        /* \"#utility.yul\":3693:3715   */\n      add\n        /* \"#utility.yul\":3672:3725   */\n      tag_223\n      jump\t// in\n    tag_255:\n        /* \"#utility.yul\":3662:3725   */\n      swap2\n      pop\n        /* \"#utility.yul\":3617:3735   */\n      pop\n        /* \"#utility.yul\":2437:3742   */\n      swap3\n      swap6\n      swap2\n      swap5\n      pop\n      swap3\n      pop\n      jump\t// out\n        /* \"#utility.yul\":3748:4077   */\n    tag_16:\n        /* \"#utility.yul\":3807:3813   */\n      0x00\n        /* \"#utility.yul\":3856:3858   */\n      0x20\n        /* \"#utility.yul\":3844:3853   */\n      dup3\n        /* \"#utility.yul\":3835:3842   */\n      dup5\n        /* \"#utility.yul\":3831:3854   */\n      sub\n        /* \"#utility.yul\":3827:3859   */\n      slt\n        /* \"#utility.yul\":3824:3943   */\n      iszero\n      tag_257\n      jumpi\n        /* \"#utility.yul\":3862:3941   */\n      tag_258\n      tag_230\n      jump\t// in\n    tag_258:\n        /* \"#utility.yul\":3824:3943   */\n    tag_257:\n        /* \"#utility.yul\":3982:3983   */\n      0x00\n        /* \"#utility.yul\":4007:4060   */\n      tag_259\n        /* \"#utility.yul\":4052:4059   */\n      dup5\n        /* \"#utility.yul\":4043:4049   */\n      dup3\n        /* \"#utility.yul\":4032:4041   */\n      dup6\n        /* \"#utility.yul\":4028:4050   */\n      add\n        /* \"#utility.yul\":4007:4060   */\n      tag_223\n      jump\t// in\n    tag_259:\n        /* \"#utility.yul\":3997:4060   */\n      swap2\n      pop\n        /* \"#utility.yul\":3953:4070   */\n      pop\n        /* \"#utility.yul\":3748:4077   */\n      swap3\n      swap2\n      pop\n      pop\n      jump\t// out\n        /* \"#utility.yul\":4083:4279   */\n    tag_260:\n        /* \"#utility.yul\":4172:4182   */\n      0x00\n        /* \"#utility.yul\":4207:4273   */\n      tag_262\n        /* \"#utility.yul\":4269:4272   */\n      dup4\n        /* \"#utility.yul\":4261:4267   */\n      dup4\n        /* \"#utility.yul\":4207:4273   */\n      tag_263\n      jump\t// in\n    tag_262:\n        /* \"#utility.yul\":4193:4273   */\n      swap1\n      pop\n        /* \"#utility.yul\":4083:4279   */\n      swap3\n      swap2\n      pop\n      pop\n      jump\t// out\n        /* \"#utility.yul\":4285:4417   */\n    tag_264:\n        /* \"#utility.yul\":4378:4410   */\n      tag_266\n        /* \"#utility.yul\":4404:4409   */\n      dup2\n        /* \"#utility.yul\":4378:4410   */\n      tag_267\n      jump\t// in\n    tag_266:\n        /* \"#utility.yul\":4373:4376   */\n      dup3\n        /* \"#utility.yul\":4366:4411   */\n      mstore\n        /* \"#utility.yul\":4285:4417   */\n      pop\n      pop\n      jump\t// out\n        /* \"#utility.yul\":4423:4565   */\n    tag_268:\n        /* \"#utility.yul\":4526:4558   */\n      tag_270\n        /* \"#utility.yul\":4552:4557   */\n      dup2\n        /* \"#utility.yul\":4526:4558   */\n      tag_267\n      jump\t// in\n    tag_270:\n        /* \"#utility.yul\":4521:4524   */\n      dup3\n        /* \"#utility.yul\":4514:4559   */\n      mstore\n        /* \"#utility.yul\":4423:4565   */\n      pop\n      pop\n      jump\t// out\n        /* \"#utility.yul\":4599:5570   */\n    tag_271:\n        /* \"#utility.yul\":4728:4731   */\n      0x00\n        /* \"#utility.yul\":4757:4821   */\n      tag_273\n        /* \"#utility.yul\":4815:4820   */\n      dup3\n        /* \"#utility.yul\":4757:4821   */\n      tag_274\n      jump\t// in\n    tag_273:\n        /* \"#utility.yul\":4837:4923   */\n      tag_275\n        /* \"#utility.yul\":4916:4922   */\n      dup2\n        /* \"#utility.yul\":4911:4914   */\n      dup6\n        /* \"#utility.yul\":4837:4923   */\n      tag_276\n      jump\t// in\n    tag_275:\n        /* \"#utility.yul\":4830:4923   */\n      swap4\n      pop\n        /* \"#utility.yul\":4949:4952   */\n      dup4\n        /* \"#utility.yul\":4994:4998   */\n      0x20\n        /* \"#utility.yul\":4986:4992   */\n      dup3\n        /* \"#utility.yul\":4982:4999   */\n      mul\n        /* \"#utility.yul\":4977:4980   */\n      dup6\n        /* \"#utility.yul\":4973:5000   */\n      add\n        /* \"#utility.yul\":5024:5090   */\n      tag_277\n        /* \"#utility.yul\":5084:5089   */\n      dup6\n        /* \"#utility.yul\":5024:5090   */\n      tag_278\n      jump\t// in\n    tag_277:\n        /* \"#utility.yul\":5113:5120   */\n      dup1\n        /* \"#utility.yul\":5144:5145   */\n      0x00\n        /* \"#utility.yul\":5129:5525   */\n    tag_279:\n        /* \"#utility.yul\":5154:5160   */\n      dup6\n        /* \"#utility.yul\":5151:5152   */\n      dup2\n        /* \"#utility.yul\":5148:5161   */\n      lt\n        /* \"#utility.yul\":5129:5525   */\n      iszero\n      tag_281\n      jumpi\n        /* \"#utility.yul\":5225:5234   */\n      dup5\n        /* \"#utility.yul\":5219:5223   */\n      dup5\n        /* \"#utility.yul\":5215:5235   */\n      sub\n        /* \"#utility.yul\":5210:5213   */\n      dup10\n        /* \"#utility.yul\":5203:5236   */\n      mstore\n        /* \"#utility.yul\":5276:5282   */\n      dup2\n        /* \"#utility.yul\":5270:5283   */\n      mload\n        /* \"#utility.yul\":5304:5388   */\n      tag_282\n        /* \"#utility.yul\":5383:5387   */\n      dup6\n        /* \"#utility.yul\":5368:5381   */\n      dup3\n        /* \"#utility.yul\":5304:5388   */\n      tag_260\n      jump\t// in\n    tag_282:\n        /* \"#utility.yul\":5296:5388   */\n      swap5\n      pop\n        /* \"#utility.yul\":5411:5481   */\n      tag_283\n        /* \"#utility.yul\":5474:5480   */\n      dup4\n        /* \"#utility.yul\":5411:5481   */\n      tag_284\n      jump\t// in\n    tag_283:\n        /* \"#utility.yul\":5401:5481   */\n      swap3\n      pop\n        /* \"#utility.yul\":5510:5514   */\n      0x20\n        /* \"#utility.yul\":5505:5508   */\n      dup11\n        /* \"#utility.yul\":5501:5515   */\n      add\n        /* \"#utility.yul\":5494:5515   */\n      swap10\n      pop\n        /* \"#utility.yul\":5189:5525   */\n      pop\n        /* \"#utility.yul\":5176:5177   */\n      0x01\n        /* \"#utility.yul\":5173:5174   */\n      dup2\n        /* \"#utility.yul\":5169:5178   */\n      add\n        /* \"#utility.yul\":5164:5178   */\n      swap1\n      pop\n        /* \"#utility.yul\":5129:5525   */\n      jump(tag_279)\n    tag_281:\n        /* \"#utility.yul\":5133:5147   */\n      pop\n        /* \"#utility.yul\":5541:5545   */\n      dup3\n        /* \"#utility.yul\":5534:5545   */\n      swap8\n      pop\n        /* \"#utility.yul\":5561:5564   */\n      dup8\n        /* \"#utility.yul\":5554:5564   */\n      swap6\n      pop\n        /* \"#utility.yul\":4733:5570   */\n      pop\n      pop\n      pop\n      pop\n      pop\n        /* \"#utility.yul\":4599:5570   */\n      swap3\n      swap2\n      pop\n      pop\n      jump\t// out\n        /* \"#utility.yul\":5576:5707   */\n    tag_285:\n        /* \"#utility.yul\":5658:5700   */\n      tag_287\n        /* \"#utility.yul\":5694:5699   */\n      dup2\n        /* \"#utility.yul\":5658:5700   */\n      tag_288\n      jump\t// in\n    tag_287:\n        /* \"#utility.yul\":5653:5656   */\n      dup3\n        /* \"#utility.yul\":5646:5701   */\n      mstore\n        /* \"#utility.yul\":5576:5707   */\n      pop\n      pop\n      jump\t// out\n        /* \"#utility.yul\":5713:5854   */\n    tag_289:\n        /* \"#utility.yul\":5805:5847   */\n      tag_291\n        /* \"#utility.yul\":5841:5846   */\n      dup2\n        /* \"#utility.yul\":5805:5847   */\n      tag_288\n      jump\t// in\n    tag_291:\n        /* \"#utility.yul\":5800:5803   */\n      dup3\n        /* \"#utility.yul\":5793:5848   */\n      mstore\n        /* \"#utility.yul\":5713:5854   */\n      pop\n      pop\n      jump\t// out\n        /* \"#utility.yul\":5860:6204   */\n    tag_263:\n        /* \"#utility.yul\":5938:5941   */\n      0x00\n        /* \"#utility.yul\":5966:6005   */\n      tag_293\n        /* \"#utility.yul\":5999:6004   */\n      dup3\n        /* \"#utility.yul\":5966:6005   */\n      tag_294\n      jump\t// in\n    tag_293:\n        /* \"#utility.yul\":6021:6082   */\n      tag_295\n        /* \"#utility.yul\":6075:6081   */\n      dup2\n        /* \"#utility.yul\":6070:6073   */\n      dup6\n        /* \"#utility.yul\":6021:6082   */\n      tag_296\n      jump\t// in\n    tag_295:\n        /* \"#utility.yul\":6014:6082   */\n      swap4\n      pop\n        /* \"#utility.yul\":6091:6143   */\n      tag_297\n        /* \"#utility.yul\":6136:6142   */\n      dup2\n        /* \"#utility.yul\":6131:6134   */\n      dup6\n        /* \"#utility.yul\":6124:6128   */\n      0x20\n        /* \"#utility.yul\":6117:6122   */\n      dup7\n        /* \"#utility.yul\":6113:6129   */\n      add\n        /* \"#utility.yul\":6091:6143   */\n      tag_298\n      jump\t// in\n    tag_297:\n        /* \"#utility.yul\":6168:6197   */\n      tag_299\n        /* \"#utility.yul\":6190:6196   */\n      dup2\n        /* \"#utility.yul\":6168:6197   */\n      tag_300\n      jump\t// in\n    tag_299:\n        /* \"#utility.yul\":6163:6166   */\n      dup5\n        /* \"#utility.yul\":6159:6198   */\n      add\n        /* \"#utility.yul\":6152:6198   */\n      swap2\n      pop\n        /* \"#utility.yul\":5942:6204   */\n      pop\n        /* \"#utility.yul\":5860:6204   */\n      swap3\n      swap2\n      pop\n      pop\n      jump\t// out\n        /* \"#utility.yul\":6210:6574   */\n    tag_301:\n        /* \"#utility.yul\":6298:6301   */\n      0x00\n        /* \"#utility.yul\":6326:6365   */\n      tag_303\n        /* \"#utility.yul\":6359:6364   */\n      dup3\n        /* \"#utility.yul\":6326:6365   */\n      tag_294\n      jump\t// in\n    tag_303:\n        /* \"#utility.yul\":6381:6452   */\n      tag_304\n        /* \"#utility.yul\":6445:6451   */\n      dup2\n        /* \"#utility.yul\":6440:6443   */\n      dup6\n        /* \"#utility.yul\":6381:6452   */\n      tag_305\n      jump\t// in\n    tag_304:\n        /* \"#utility.yul\":6374:6452   */\n      swap4\n      pop\n        /* \"#utility.yul\":6461:6513   */\n      tag_306\n        /* \"#utility.yul\":6506:6512   */\n      dup2\n        /* \"#utility.yul\":6501:6504   */\n      dup6\n        /* \"#utility.yul\":6494:6498   */\n      0x20\n        /* \"#utility.yul\":6487:6492   */\n      dup7\n        /* \"#utility.yul\":6483:6499   */\n      add\n        /* \"#utility.yul\":6461:6513   */\n      tag_298\n      jump\t// in\n    tag_306:\n        /* \"#utility.yul\":6538:6567   */\n      tag_307\n        /* \"#utility.yul\":6560:6566   */\n      dup2\n        /* \"#utility.yul\":6538:6567   */\n      tag_300\n      jump\t// in\n    tag_307:\n        /* \"#utility.yul\":6533:6536   */\n      dup5\n        /* \"#utility.yul\":6529:6568   */\n      add\n        /* \"#utility.yul\":6522:6568   */\n      swap2\n      pop\n        /* \"#utility.yul\":6302:6574   */\n      pop\n        /* \"#utility.yul\":6210:6574   */\n      swap3\n      swap2\n      pop\n      pop\n      jump\t// out\n        /* \"#utility.yul\":6630:8228   */\n    tag_308:\n        /* \"#utility.yul\":6743:6746   */\n      0x00\n        /* \"#utility.yul\":6779:6783   */\n      0xc0\n        /* \"#utility.yul\":6774:6777   */\n      dup4\n        /* \"#utility.yul\":6770:6784   */\n      add\n        /* \"#utility.yul\":6866:6870   */\n      0x00\n        /* \"#utility.yul\":6859:6864   */\n      dup4\n        /* \"#utility.yul\":6855:6871   */\n      add\n        /* \"#utility.yul\":6849:6872   */\n      mload\n        /* \"#utility.yul\":6919:6922   */\n      dup5\n        /* \"#utility.yul\":6913:6917   */\n      dup3\n        /* \"#utility.yul\":6909:6923   */\n      sub\n        /* \"#utility.yul\":6902:6906   */\n      0x00\n        /* \"#utility.yul\":6897:6900   */\n      dup7\n        /* \"#utility.yul\":6893:6907   */\n      add\n        /* \"#utility.yul\":6886:6924   */\n      mstore\n        /* \"#utility.yul\":6945:7018   */\n      tag_310\n        /* \"#utility.yul\":7013:7017   */\n      dup3\n        /* \"#utility.yul\":6999:7011   */\n      dup3\n        /* \"#utility.yul\":6945:7018   */\n      tag_263\n      jump\t// in\n    tag_310:\n        /* \"#utility.yul\":6937:7018   */\n      swap2\n      pop\n        /* \"#utility.yul\":6794:7029   */\n      pop\n        /* \"#utility.yul\":7112:7116   */\n      0x20\n        /* \"#utility.yul\":7105:7110   */\n      dup4\n        /* \"#utility.yul\":7101:7117   */\n      add\n        /* \"#utility.yul\":7095:7118   */\n      mload\n        /* \"#utility.yul\":7165:7168   */\n      dup5\n        /* \"#utility.yul\":7159:7163   */\n      dup3\n        /* \"#utility.yul\":7155:7169   */\n      sub\n        /* \"#utility.yul\":7148:7152   */\n      0x20\n        /* \"#utility.yul\":7143:7146   */\n      dup7\n        /* \"#utility.yul\":7139:7153   */\n      add\n        /* \"#utility.yul\":7132:7170   */\n      mstore\n        /* \"#utility.yul\":7191:7264   */\n      tag_311\n        /* \"#utility.yul\":7259:7263   */\n      dup3\n        /* \"#utility.yul\":7245:7257   */\n      dup3\n        /* \"#utility.yul\":7191:7264   */\n      tag_263\n      jump\t// in\n    tag_311:\n        /* \"#utility.yul\":7183:7264   */\n      swap2\n      pop\n        /* \"#utility.yul\":7039:7275   */\n      pop\n        /* \"#utility.yul\":7364:7368   */\n      0x40\n        /* \"#utility.yul\":7357:7362   */\n      dup4\n        /* \"#utility.yul\":7353:7369   */\n      add\n        /* \"#utility.yul\":7347:7370   */\n      mload\n        /* \"#utility.yul\":7417:7420   */\n      dup5\n        /* \"#utility.yul\":7411:7415   */\n      dup3\n        /* \"#utility.yul\":7407:7421   */\n      sub\n        /* \"#utility.yul\":7400:7404   */\n      0x40\n        /* \"#utility.yul\":7395:7398   */\n      dup7\n        /* \"#utility.yul\":7391:7405   */\n      add\n        /* \"#utility.yul\":7384:7422   */\n      mstore\n        /* \"#utility.yul\":7443:7516   */\n      tag_312\n        /* \"#utility.yul\":7511:7515   */\n      dup3\n        /* \"#utility.yul\":7497:7509   */\n      dup3\n        /* \"#utility.yul\":7443:7516   */\n      tag_263\n      jump\t// in\n    tag_312:\n        /* \"#utility.yul\":7435:7516   */\n      swap2\n      pop\n        /* \"#utility.yul\":7285:7527   */\n      pop\n        /* \"#utility.yul\":7618:7622   */\n      0x60\n        /* \"#utility.yul\":7611:7616   */\n      dup4\n        /* \"#utility.yul\":7607:7623   */\n      add\n        /* \"#utility.yul\":7601:7624   */\n      mload\n        /* \"#utility.yul\":7637:7716   */\n      tag_313\n        /* \"#utility.yul\":7710:7714   */\n      0x60\n        /* \"#utility.yul\":7705:7708   */\n      dup7\n        /* \"#utility.yul\":7701:7715   */\n      add\n        /* \"#utility.yul\":7687:7699   */\n      dup3\n        /* \"#utility.yul\":7637:7716   */\n      tag_264\n      jump\t// in\n    tag_313:\n        /* \"#utility.yul\":7537:7726   */\n      pop\n        /* \"#utility.yul\":7809:7813   */\n      0x80\n        /* \"#utility.yul\":7802:7807   */\n      dup4\n        /* \"#utility.yul\":7798:7814   */\n      add\n        /* \"#utility.yul\":7792:7815   */\n      mload\n        /* \"#utility.yul\":7862:7865   */\n      dup5\n        /* \"#utility.yul\":7856:7860   */\n      dup3\n        /* \"#utility.yul\":7852:7866   */\n      sub\n        /* \"#utility.yul\":7845:7849   */\n      0x80\n        /* \"#utility.yul\":7840:7843   */\n      dup7\n        /* \"#utility.yul\":7836:7850   */\n      add\n        /* \"#utility.yul\":7829:7867   */\n      mstore\n        /* \"#utility.yul\":7888:8011   */\n      tag_314\n        /* \"#utility.yul\":8006:8010   */\n      dup3\n        /* \"#utility.yul\":7992:8004   */\n      dup3\n        /* \"#utility.yul\":7888:8011   */\n      tag_271\n      jump\t// in\n    tag_314:\n        /* \"#utility.yul\":7880:8011   */\n      swap2\n      pop\n        /* \"#utility.yul\":7736:8022   */\n      pop\n        /* \"#utility.yul\":8104:8108   */\n      0xa0\n        /* \"#utility.yul\":8097:8102   */\n      dup4\n        /* \"#utility.yul\":8093:8109   */\n      add\n        /* \"#utility.yul\":8087:8110   */\n      mload\n        /* \"#utility.yul\":8123:8191   */\n      tag_315\n        /* \"#utility.yul\":8185:8189   */\n      0xa0\n        /* \"#utility.yul\":8180:8183   */\n      dup7\n        /* \"#utility.yul\":8176:8190   */\n      add\n        /* \"#utility.yul\":8162:8174   */\n      dup3\n        /* \"#utility.yul\":8123:8191   */\n      tag_285\n      jump\t// in\n    tag_315:\n        /* \"#utility.yul\":8032:8201   */\n      pop\n        /* \"#utility.yul\":8218:8222   */\n      dup1\n        /* \"#utility.yul\":8211:8222   */\n      swap2\n      pop\n        /* \"#utility.yul\":6748:8228   */\n      pop\n        /* \"#utility.yul\":6630:8228   */\n      swap3\n      swap2\n      pop\n      pop\n      jump\t// out\n        /* \"#utility.yul\":8290:9897   */\n    tag_316:\n        /* \"#utility.yul\":8409:8412   */\n      0x00\n        /* \"#utility.yul\":8445:8449   */\n      0xc0\n        /* \"#utility.yul\":8440:8443   */\n      dup4\n        /* \"#utility.yul\":8436:8450   */\n      add\n        /* \"#utility.yul\":8532:8536   */\n      0x00\n        /* \"#utility.yul\":8525:8530   */\n      dup4\n        /* \"#utility.yul\":8521:8537   */\n      add\n        /* \"#utility.yul\":8515:8538   */\n      mload\n        /* \"#utility.yul\":8585:8588   */\n      dup5\n        /* \"#utility.yul\":8579:8583   */\n      dup3\n        /* \"#utility.yul\":8575:8589   */\n      sub\n        /* \"#utility.yul\":8568:8572   */\n      0x00\n        /* \"#utility.yul\":8563:8566   */\n      dup7\n        /* \"#utility.yul\":8559:8573   */\n      add\n        /* \"#utility.yul\":8552:8590   */\n      mstore\n        /* \"#utility.yul\":8611:8684   */\n      tag_318\n        /* \"#utility.yul\":8679:8683   */\n      dup3\n        /* \"#utility.yul\":8665:8677   */\n      dup3\n        /* \"#utility.yul\":8611:8684   */\n      tag_263\n      jump\t// in\n    tag_318:\n        /* \"#utility.yul\":8603:8684   */\n      swap2\n      pop\n        /* \"#utility.yul\":8460:8695   */\n      pop\n        /* \"#utility.yul\":8778:8782   */\n      0x20\n        /* \"#utility.yul\":8771:8776   */\n      dup4\n        /* \"#utility.yul\":8767:8783   */\n      add\n        /* \"#utility.yul\":8761:8784   */\n      mload\n        /* \"#utility.yul\":8831:8834   */\n      dup5\n        /* \"#utility.yul\":8825:8829   */\n      dup3\n        /* \"#utility.yul\":8821:8835   */\n      sub\n        /* \"#utility.yul\":8814:8818   */\n      0x20\n        /* \"#utility.yul\":8809:8812   */\n      dup7\n        /* \"#utility.yul\":8805:8819   */\n      add\n        /* \"#utility.yul\":8798:8836   */\n      mstore\n        /* \"#utility.yul\":8857:8930   */\n      tag_319\n        /* \"#utility.yul\":8925:8929   */\n      dup3\n        /* \"#utility.yul\":8911:8923   */\n      dup3\n        /* \"#utility.yul\":8857:8930   */\n      tag_263\n      jump\t// in\n    tag_319:\n        /* \"#utility.yul\":8849:8930   */\n      swap2\n      pop\n        /* \"#utility.yul\":8705:8941   */\n      pop\n        /* \"#utility.yul\":9030:9034   */\n      0x40\n        /* \"#utility.yul\":9023:9028   */\n      dup4\n        /* \"#utility.yul\":9019:9035   */\n      add\n        /* \"#utility.yul\":9013:9036   */\n      mload\n        /* \"#utility.yul\":9083:9086   */\n      dup5\n        /* \"#utility.yul\":9077:9081   */\n      dup3\n        /* \"#utility.yul\":9073:9087   */\n      sub\n        /* \"#utility.yul\":9066:9070   */\n      0x40\n        /* \"#utility.yul\":9061:9064   */\n      dup7\n        /* \"#utility.yul\":9057:9071   */\n      add\n        /* \"#utility.yul\":9050:9088   */\n      mstore\n        /* \"#utility.yul\":9109:9182   */\n      tag_320\n        /* \"#utility.yul\":9177:9181   */\n      dup3\n        /* \"#utility.yul\":9163:9175   */\n      dup3\n        /* \"#utility.yul\":9109:9182   */\n      tag_263\n      jump\t// in\n    tag_320:\n        /* \"#utility.yul\":9101:9182   */\n      swap2\n      pop\n        /* \"#utility.yul\":8951:9193   */\n      pop\n        /* \"#utility.yul\":9287:9291   */\n      0x60\n        /* \"#utility.yul\":9280:9285   */\n      dup4\n        /* \"#utility.yul\":9276:9292   */\n      add\n        /* \"#utility.yul\":9270:9293   */\n      mload\n        /* \"#utility.yul\":9306:9385   */\n      tag_321\n        /* \"#utility.yul\":9379:9383   */\n      0x60\n        /* \"#utility.yul\":9374:9377   */\n      dup7\n        /* \"#utility.yul\":9370:9384   */\n      add\n        /* \"#utility.yul\":9356:9368   */\n      dup3\n        /* \"#utility.yul\":9306:9385   */\n      tag_264\n      jump\t// in\n    tag_321:\n        /* \"#utility.yul\":9203:9395   */\n      pop\n        /* \"#utility.yul\":9478:9482   */\n      0x80\n        /* \"#utility.yul\":9471:9476   */\n      dup4\n        /* \"#utility.yul\":9467:9483   */\n      add\n        /* \"#utility.yul\":9461:9484   */\n      mload\n        /* \"#utility.yul\":9531:9534   */\n      dup5\n        /* \"#utility.yul\":9525:9529   */\n      dup3\n        /* \"#utility.yul\":9521:9535   */\n      sub\n        /* \"#utility.yul\":9514:9518   */\n      0x80\n        /* \"#utility.yul\":9509:9512   */\n      dup7\n        /* \"#utility.yul\":9505:9519   */\n      add\n        /* \"#utility.yul\":9498:9536   */\n      mstore\n        /* \"#utility.yul\":9557:9680   */\n      tag_322\n        /* \"#utility.yul\":9675:9679   */\n      dup3\n        /* \"#utility.yul\":9661:9673   */\n      dup3\n        /* \"#utility.yul\":9557:9680   */\n      tag_271\n      jump\t// in\n    tag_322:\n        /* \"#utility.yul\":9549:9680   */\n      swap2\n      pop\n        /* \"#utility.yul\":9405:9691   */\n      pop\n        /* \"#utility.yul\":9773:9777   */\n      0xa0\n        /* \"#utility.yul\":9766:9771   */\n      dup4\n        /* \"#utility.yul\":9762:9778   */\n      add\n        /* \"#utility.yul\":9756:9779   */\n      mload\n        /* \"#utility.yul\":9792:9860   */\n      tag_323\n        /* \"#utility.yul\":9854:9858   */\n      0xa0\n        /* \"#utility.yul\":9849:9852   */\n      dup7\n        /* \"#utility.yul\":9845:9859   */\n      add\n        /* \"#utility.yul\":9831:9843   */\n      dup3\n        /* \"#utility.yul\":9792:9860   */\n      tag_285\n      jump\t// in\n    tag_323:\n        /* \"#utility.yul\":9701:9870   */\n      pop\n        /* \"#utility.yul\":9887:9891   */\n      dup1\n        /* \"#utility.yul\":9880:9891   */\n      swap2\n      pop\n        /* \"#utility.yul\":8414:9897   */\n      pop\n        /* \"#utility.yul\":8290:9897   */\n      swap3\n      swap2\n      pop\n      pop\n      jump\t// out\n        /* \"#utility.yul\":9903:10021   */\n    tag_324:\n        /* \"#utility.yul\":9990:10014   */\n      tag_326\n        /* \"#utility.yul\":10008:10013   */\n      dup2\n        /* \"#utility.yul\":9990:10014   */\n      tag_327\n      jump\t// in\n    tag_326:\n        /* \"#utility.yul\":9985:9988   */\n      dup3\n        /* \"#utility.yul\":9978:10015   */\n      mstore\n        /* \"#utility.yul\":9903:10021   */\n      pop\n      pop\n      jump\t// out\n        /* \"#utility.yul\":10027:10281   */\n    tag_37:\n        /* \"#utility.yul\":10136:10140   */\n      0x00\n        /* \"#utility.yul\":10174:10176   */\n      0x20\n        /* \"#utility.yul\":10163:10172   */\n      dup3\n        /* \"#utility.yul\":10159:10177   */\n      add\n        /* \"#utility.yul\":10151:10177   */\n      swap1\n      pop\n        /* \"#utility.yul\":10187:10274   */\n      tag_329\n        /* \"#utility.yul\":10271:10272   */\n      0x00\n        /* \"#utility.yul\":10260:10269   */\n      dup4\n        /* \"#utility.yul\":10256:10273   */\n      add\n        /* \"#utility.yul\":10247:10253   */\n      dup5\n        /* \"#utility.yul\":10187:10274   */\n      tag_268\n      jump\t// in\n    tag_329:\n        /* \"#utility.yul\":10027:10281   */\n      swap3\n      swap2\n      pop\n      pop\n      jump\t// out\n        /* \"#utility.yul\":10287:10793   */\n    tag_62:\n        /* \"#utility.yul\":10468:10472   */\n      0x00\n        /* \"#utility.yul\":10506:10508   */\n      0x60\n        /* \"#utility.yul\":10495:10504   */\n      dup3\n        /* \"#utility.yul\":10491:10509   */\n      add\n        /* \"#utility.yul\":10483:10509   */\n      swap1\n      pop\n        /* \"#utility.yul\":10519:10606   */\n      tag_331\n        /* \"#utility.yul\":10603:10604   */\n      0x00\n        /* \"#utility.yul\":10592:10601   */\n      dup4\n        /* \"#utility.yul\":10588:10605   */\n      add\n        /* \"#utility.yul\":10579:10585   */\n      dup7\n        /* \"#utility.yul\":10519:10606   */\n      tag_268\n      jump\t// in\n    tag_331:\n        /* \"#utility.yul\":10616:10704   */\n      tag_332\n        /* \"#utility.yul\":10700:10702   */\n      0x20\n        /* \"#utility.yul\":10689:10698   */\n      dup4\n        /* \"#utility.yul\":10685:10703   */\n      add\n        /* \"#utility.yul\":10676:10682   */\n      dup6\n        /* \"#utility.yul\":10616:10704   */\n      tag_268\n      jump\t// in\n    tag_332:\n        /* \"#utility.yul\":10714:10786   */\n      tag_333\n        /* \"#utility.yul\":10782:10784   */\n      0x40\n        /* \"#utility.yul\":10771:10780   */\n      dup4\n        /* \"#utility.yul\":10767:10785   */\n      add\n        /* \"#utility.yul\":10758:10764   */\n      dup5\n        /* \"#utility.yul\":10714:10786   */\n      tag_324\n      jump\t// in\n    tag_333:\n        /* \"#utility.yul\":10287:10793   */\n      swap5\n      swap4\n      pop\n      pop\n      pop\n      pop\n      jump\t// out\n        /* \"#utility.yul\":10799:11112   */\n    tag_19:\n        /* \"#utility.yul\":10912:10916   */\n      0x00\n        /* \"#utility.yul\":10950:10952   */\n      0x20\n        /* \"#utility.yul\":10939:10948   */\n      dup3\n        /* \"#utility.yul\":10935:10953   */\n      add\n        /* \"#utility.yul\":10927:10953   */\n      swap1\n      pop\n        /* \"#utility.yul\":10999:11008   */\n      dup2\n        /* \"#utility.yul\":10993:10997   */\n      dup2\n        /* \"#utility.yul\":10989:11009   */\n      sub\n        /* \"#utility.yul\":10985:10986   */\n      0x00\n        /* \"#utility.yul\":10974:10983   */\n      dup4\n        /* \"#utility.yul\":10970:10987   */\n      add\n        /* \"#utility.yul\":10963:11010   */\n      mstore\n        /* \"#utility.yul\":11027:11105   */\n      tag_335\n        /* \"#utility.yul\":11100:11104   */\n      dup2\n        /* \"#utility.yul\":11091:11097   */\n      dup5\n        /* \"#utility.yul\":11027:11105   */\n      tag_301\n      jump\t// in\n    tag_335:\n        /* \"#utility.yul\":11019:11105   */\n      swap1\n      pop\n        /* \"#utility.yul\":10799:11112   */\n      swap3\n      swap2\n      pop\n      pop\n      jump\t// out\n        /* \"#utility.yul\":11118:12097   */\n    tag_52:\n        /* \"#utility.yul\":11404:11408   */\n      0x00\n        /* \"#utility.yul\":11442:11445   */\n      0xa0\n        /* \"#utility.yul\":11431:11440   */\n      dup3\n        /* \"#utility.yul\":11427:11446   */\n      add\n        /* \"#utility.yul\":11419:11446   */\n      swap1\n      pop\n        /* \"#utility.yul\":11492:11501   */\n      dup2\n        /* \"#utility.yul\":11486:11490   */\n      dup2\n        /* \"#utility.yul\":11482:11502   */\n      sub\n        /* \"#utility.yul\":11478:11479   */\n      0x00\n        /* \"#utility.yul\":11467:11476   */\n      dup4\n        /* \"#utility.yul\":11463:11480   */\n      add\n        /* \"#utility.yul\":11456:11503   */\n      mstore\n        /* \"#utility.yul\":11520:11598   */\n      tag_337\n        /* \"#utility.yul\":11593:11597   */\n      dup2\n        /* \"#utility.yul\":11584:11590   */\n      dup9\n        /* \"#utility.yul\":11520:11598   */\n      tag_301\n      jump\t// in\n    tag_337:\n        /* \"#utility.yul\":11512:11598   */\n      swap1\n      pop\n        /* \"#utility.yul\":11645:11654   */\n      dup2\n        /* \"#utility.yul\":11639:11643   */\n      dup2\n        /* \"#utility.yul\":11635:11655   */\n      sub\n        /* \"#utility.yul\":11630:11632   */\n      0x20\n        /* \"#utility.yul\":11619:11628   */\n      dup4\n        /* \"#utility.yul\":11615:11633   */\n      add\n        /* \"#utility.yul\":11608:11656   */\n      mstore\n        /* \"#utility.yul\":11673:11751   */\n      tag_338\n        /* \"#utility.yul\":11746:11750   */\n      dup2\n        /* \"#utility.yul\":11737:11743   */\n      dup8\n        /* \"#utility.yul\":11673:11751   */\n      tag_301\n      jump\t// in\n    tag_338:\n        /* \"#utility.yul\":11665:11751   */\n      swap1\n      pop\n        /* \"#utility.yul\":11798:11807   */\n      dup2\n        /* \"#utility.yul\":11792:11796   */\n      dup2\n        /* \"#utility.yul\":11788:11808   */\n      sub\n        /* \"#utility.yul\":11783:11785   */\n      0x40\n        /* \"#utility.yul\":11772:11781   */\n      dup4\n        /* \"#utility.yul\":11768:11786   */\n      add\n        /* \"#utility.yul\":11761:11809   */\n      mstore\n        /* \"#utility.yul\":11826:11904   */\n      tag_339\n        /* \"#utility.yul\":11899:11903   */\n      dup2\n        /* \"#utility.yul\":11890:11896   */\n      dup7\n        /* \"#utility.yul\":11826:11904   */\n      tag_301\n      jump\t// in\n    tag_339:\n        /* \"#utility.yul\":11818:11904   */\n      swap1\n      pop\n        /* \"#utility.yul\":11914:12002   */\n      tag_340\n        /* \"#utility.yul\":11998:12000   */\n      0x60\n        /* \"#utility.yul\":11987:11996   */\n      dup4\n        /* \"#utility.yul\":11983:12001   */\n      add\n        /* \"#utility.yul\":11974:11980   */\n      dup6\n        /* \"#utility.yul\":11914:12002   */\n      tag_268\n      jump\t// in\n    tag_340:\n        /* \"#utility.yul\":12012:12090   */\n      tag_341\n        /* \"#utility.yul\":12085:12088   */\n      0x80\n        /* \"#utility.yul\":12074:12083   */\n      dup4\n        /* \"#utility.yul\":12070:12089   */\n      add\n        /* \"#utility.yul\":12061:12067   */\n      dup5\n        /* \"#utility.yul\":12012:12090   */\n      tag_289\n      jump\t// in\n    tag_341:\n        /* \"#utility.yul\":11118:12097   */\n      swap7\n      swap6\n      pop\n      pop\n      pop\n      pop\n      pop\n      pop\n      jump\t// out\n        /* \"#utility.yul\":12103:12464   */\n    tag_32:\n        /* \"#utility.yul\":12240:12244   */\n      0x00\n        /* \"#utility.yul\":12278:12280   */\n      0x20\n        /* \"#utility.yul\":12267:12276   */\n      dup3\n        /* \"#utility.yul\":12263:12281   */\n      add\n        /* \"#utility.yul\":12255:12281   */\n      swap1\n      pop\n        /* \"#utility.yul\":12327:12336   */\n      dup2\n        /* \"#utility.yul\":12321:12325   */\n      dup2\n        /* \"#utility.yul\":12317:12337   */\n      sub\n        /* \"#utility.yul\":12313:12314   */\n      0x00\n        /* \"#utility.yul\":12302:12311   */\n      dup4\n        /* \"#utility.yul\":12298:12315   */\n      add\n        /* \"#utility.yul\":12291:12338   */\n      mstore\n        /* \"#utility.yul\":12355:12457   */\n      tag_343\n        /* \"#utility.yul\":12452:12456   */\n      dup2\n        /* \"#utility.yul\":12443:12449   */\n      dup5\n        /* \"#utility.yul\":12355:12457   */\n      tag_308\n      jump\t// in\n    tag_343:\n        /* \"#utility.yul\":12347:12457   */\n      swap1\n      pop\n        /* \"#utility.yul\":12103:12464   */\n      swap3\n      swap2\n      pop\n      pop\n      jump\t// out\n        /* \"#utility.yul\":12470:12843   */\n    tag_42:\n        /* \"#utility.yul\":12613:12617   */\n      0x00\n        /* \"#utility.yul\":12651:12653   */\n      0x20\n        /* \"#utility.yul\":12640:12649   */\n      dup3\n        /* \"#utility.yul\":12636:12654   */\n      add\n        /* \"#utility.yul\":12628:12654   */\n      swap1\n      pop\n        /* \"#utility.yul\":12700:12709   */\n      dup2\n        /* \"#utility.yul\":12694:12698   */\n      dup2\n        /* \"#utility.yul\":12690:12710   */\n      sub\n        /* \"#utility.yul\":12686:12687   */\n      0x00\n        /* \"#utility.yul\":12675:12684   */\n      dup4\n        /* \"#utility.yul\":12671:12688   */\n      add\n        /* \"#utility.yul\":12664:12711   */\n      mstore\n        /* \"#utility.yul\":12728:12836   */\n      tag_345\n        /* \"#utility.yul\":12831:12835   */\n      dup2\n        /* \"#utility.yul\":12822:12828   */\n      dup5\n        /* \"#utility.yul\":12728:12836   */\n      tag_316\n      jump\t// in\n    tag_345:\n        /* \"#utility.yul\":12720:12836   */\n      swap1\n      pop\n        /* \"#utility.yul\":12470:12843   */\n      swap3\n      swap2\n      pop\n      pop\n      jump\t// out\n        /* \"#utility.yul\":12849:12978   */\n    tag_203:\n        /* \"#utility.yul\":12883:12889   */\n      0x00\n        /* \"#utility.yul\":12910:12930   */\n      tag_347\n      tag_348\n      jump\t// in\n    tag_347:\n        /* \"#utility.yul\":12900:12930   */\n      swap1\n      pop\n        /* \"#utility.yul\":12939:12972   */\n      tag_349\n        /* \"#utility.yul\":12967:12971   */\n      dup3\n        /* \"#utility.yul\":12959:12965   */\n      dup3\n        /* \"#utility.yul\":12939:12972   */\n      tag_350\n      jump\t// in\n    tag_349:\n        /* \"#utility.yul\":12849:12978   */\n      swap2\n      swap1\n      pop\n      jump\t// out\n        /* \"#utility.yul\":12984:13059   */\n    tag_348:\n        /* \"#utility.yul\":13017:13023   */\n      0x00\n        /* \"#utility.yul\":13050:13052   */\n      0x40\n        /* \"#utility.yul\":13044:13053   */\n      mload\n        /* \"#utility.yul\":13034:13053   */\n      swap1\n      pop\n        /* \"#utility.yul\":12984:13059   */\n      swap1\n      jump\t// out\n        /* \"#utility.yul\":13065:13373   */\n    tag_202:\n        /* \"#utility.yul\":13127:13131   */\n      0x00\n        /* \"#utility.yul\":13217:13235   */\n      0xffffffffffffffff\n        /* \"#utility.yul\":13209:13215   */\n      dup3\n        /* \"#utility.yul\":13206:13236   */\n      gt\n        /* \"#utility.yul\":13203:13259   */\n      iszero\n      tag_353\n      jumpi\n        /* \"#utility.yul\":13239:13257   */\n      tag_354\n      tag_355\n      jump\t// in\n    tag_354:\n        /* \"#utility.yul\":13203:13259   */\n    tag_353:\n        /* \"#utility.yul\":13277:13306   */\n      tag_356\n        /* \"#utility.yul\":13299:13305   */\n      dup3\n        /* \"#utility.yul\":13277:13306   */\n      tag_300\n      jump\t// in\n    tag_356:\n        /* \"#utility.yul\":13269:13306   */\n      swap1\n      pop\n        /* \"#utility.yul\":13361:13365   */\n      0x20\n        /* \"#utility.yul\":13355:13359   */\n      dup2\n        /* \"#utility.yul\":13351:13366   */\n      add\n        /* \"#utility.yul\":13343:13366   */\n      swap1\n      pop\n        /* \"#utility.yul\":13065:13373   */\n      swap2\n      swap1\n      pop\n      jump\t// out\n        /* \"#utility.yul\":13379:13521   */\n    tag_278:\n        /* \"#utility.yul\":13456:13460   */\n      0x00\n        /* \"#utility.yul\":13479:13482   */\n      dup2\n        /* \"#utility.yul\":13471:13482   */\n      swap1\n      pop\n        /* \"#utility.yul\":13509:13513   */\n      0x20\n        /* \"#utility.yul\":13504:13507   */\n      dup3\n        /* \"#utility.yul\":13500:13514   */\n      add\n        /* \"#utility.yul\":13492:13514   */\n      swap1\n      pop\n        /* \"#utility.yul\":13379:13521   */\n      swap2\n      swap1\n      pop\n      jump\t// out\n        /* \"#utility.yul\":13527:13651   */\n    tag_274:\n        /* \"#utility.yul\":13604:13610   */\n      0x00\n        /* \"#utility.yul\":13638:13643   */\n      dup2\n        /* \"#utility.yul\":13632:13644   */\n      mload\n        /* \"#utility.yul\":13622:13644   */\n      swap1\n      pop\n        /* \"#utility.yul\":13527:13651   */\n      swap2\n      swap1\n      pop\n      jump\t// out\n        /* \"#utility.yul\":13657:13756   */\n    tag_294:\n        /* \"#utility.yul\":13709:13715   */\n      0x00\n        /* \"#utility.yul\":13743:13748   */\n      dup2\n        /* \"#utility.yul\":13737:13749   */\n      mload\n        /* \"#utility.yul\":13727:13749   */\n      swap1\n      pop\n        /* \"#utility.yul\":13657:13756   */\n      swap2\n      swap1\n      pop\n      jump\t// out\n        /* \"#utility.yul\":13762:13885   */\n    tag_284:\n        /* \"#utility.yul\":13842:13846   */\n      0x00\n        /* \"#utility.yul\":13874:13878   */\n      0x20\n        /* \"#utility.yul\":13869:13872   */\n      dup3\n        /* \"#utility.yul\":13865:13879   */\n      add\n        /* \"#utility.yul\":13857:13879   */\n      swap1\n      pop\n        /* \"#utility.yul\":13762:13885   */\n      swap2\n      swap1\n      pop\n      jump\t// out\n        /* \"#utility.yul\":13891:14075   */\n    tag_276:\n        /* \"#utility.yul\":13990:14001   */\n      0x00\n        /* \"#utility.yul\":14024:14030   */\n      dup3\n        /* \"#utility.yul\":14019:14022   */\n      dup3\n        /* \"#utility.yul\":14012:14031   */\n      mstore\n        /* \"#utility.yul\":14064:14068   */\n      0x20\n        /* \"#utility.yul\":14059:14062   */\n      dup3\n        /* \"#utility.yul\":14055:14069   */\n      add\n        /* \"#utility.yul\":14040:14069   */\n      swap1\n      pop\n        /* \"#utility.yul\":13891:14075   */\n      swap3\n      swap2\n      pop\n      pop\n      jump\t// out\n        /* \"#utility.yul\":14081:14240   */\n    tag_296:\n        /* \"#utility.yul\":14155:14166   */\n      0x00\n        /* \"#utility.yul\":14189:14195   */\n      dup3\n        /* \"#utility.yul\":14184:14187   */\n      dup3\n        /* \"#utility.yul\":14177:14196   */\n      mstore\n        /* \"#utility.yul\":14229:14233   */\n      0x20\n        /* \"#utility.yul\":14224:14227   */\n      dup3\n        /* \"#utility.yul\":14220:14234   */\n      add\n        /* \"#utility.yul\":14205:14234   */\n      swap1\n      pop\n        /* \"#utility.yul\":14081:14240   */\n      swap3\n      swap2\n      pop\n      pop\n      jump\t// out\n        /* \"#utility.yul\":14246:14415   */\n    tag_305:\n        /* \"#utility.yul\":14330:14341   */\n      0x00\n        /* \"#utility.yul\":14364:14370   */\n      dup3\n        /* \"#utility.yul\":14359:14362   */\n      dup3\n        /* \"#utility.yul\":14352:14371   */\n      mstore\n        /* \"#utility.yul\":14404:14408   */\n      0x20\n        /* \"#utility.yul\":14399:14402   */\n      dup3\n        /* \"#utility.yul\":14395:14409   */\n      add\n        /* \"#utility.yul\":14380:14409   */\n      swap1\n      pop\n        /* \"#utility.yul\":14246:14415   */\n      swap3\n      swap2\n      pop\n      pop\n      jump\t// out\n        /* \"#utility.yul\":14421:14517   */\n    tag_364:\n        /* \"#utility.yul\":14458:14465   */\n      0x00\n        /* \"#utility.yul\":14487:14511   */\n      tag_366\n        /* \"#utility.yul\":14505:14510   */\n      dup3\n        /* \"#utility.yul\":14487:14511   */\n      tag_367\n      jump\t// in\n    tag_366:\n        /* \"#utility.yul\":14476:14511   */\n      swap1\n      pop\n        /* \"#utility.yul\":14421:14517   */\n      swap2\n      swap1\n      pop\n      jump\t// out\n        /* \"#utility.yul\":14523:14627   */\n    tag_267:\n        /* \"#utility.yul\":14568:14575   */\n      0x00\n        /* \"#utility.yul\":14597:14621   */\n      tag_369\n        /* \"#utility.yul\":14615:14620   */\n      dup3\n        /* \"#utility.yul\":14597:14621   */\n      tag_367\n      jump\t// in\n    tag_369:\n        /* \"#utility.yul\":14586:14621   */\n      swap1\n      pop\n        /* \"#utility.yul\":14523:14627   */\n      swap2\n      swap1\n      pop\n      jump\t// out\n        /* \"#utility.yul\":14633:14758   */\n    tag_370:\n        /* \"#utility.yul\":14677:14684   */\n      0x00\n        /* \"#utility.yul\":14706:14711   */\n      dup2\n        /* \"#utility.yul\":14695:14711   */\n      swap1\n      pop\n        /* \"#utility.yul\":14712:14752   */\n      tag_372\n        /* \"#utility.yul\":14746:14751   */\n      dup3\n        /* \"#utility.yul\":14712:14752   */\n      tag_373\n      jump\t// in\n    tag_372:\n        /* \"#utility.yul\":14633:14758   */\n      swap2\n      swap1\n      pop\n      jump\t// out\n        /* \"#utility.yul\":14764:14890   */\n    tag_367:\n        /* \"#utility.yul\":14801:14808   */\n      0x00\n        /* \"#utility.yul\":14841:14883   */\n      0xffffffffffffffffffffffffffffffffffffffff\n        /* \"#utility.yul\":14834:14839   */\n      dup3\n        /* \"#utility.yul\":14830:14884   */\n      and\n        /* \"#utility.yul\":14819:14884   */\n      swap1\n      pop\n        /* \"#utility.yul\":14764:14890   */\n      swap2\n      swap1\n      pop\n      jump\t// out\n        /* \"#utility.yul\":14896:14973   */\n    tag_327:\n        /* \"#utility.yul\":14933:14940   */\n      0x00\n        /* \"#utility.yul\":14962:14967   */\n      dup2\n        /* \"#utility.yul\":14951:14967   */\n      swap1\n      pop\n        /* \"#utility.yul\":14896:14973   */\n      swap2\n      swap1\n      pop\n      jump\t// out\n        /* \"#utility.yul\":14979:15104   */\n    tag_288:\n        /* \"#utility.yul\":15034:15043   */\n      0x00\n        /* \"#utility.yul\":15067:15098   */\n      tag_377\n        /* \"#utility.yul\":15092:15097   */\n      dup3\n        /* \"#utility.yul\":15067:15098   */\n      tag_370\n      jump\t// in\n    tag_377:\n        /* \"#utility.yul\":15054:15098   */\n      swap1\n      pop\n        /* \"#utility.yul\":14979:15104   */\n      swap2\n      swap1\n      pop\n      jump\t// out\n        /* \"#utility.yul\":15110:15264   */\n    tag_208:\n        /* \"#utility.yul\":15194:15200   */\n      dup3\n        /* \"#utility.yul\":15189:15192   */\n      dup2\n        /* \"#utility.yul\":15184:15187   */\n      dup4\n        /* \"#utility.yul\":15171:15201   */\n      calldatacopy\n        /* \"#utility.yul\":15256:15257   */\n      0x00\n        /* \"#utility.yul\":15247:15253   */\n      dup4\n        /* \"#utility.yul\":15242:15245   */\n      dup4\n        /* \"#utility.yul\":15238:15254   */\n      add\n        /* \"#utility.yul\":15231:15258   */\n      mstore\n        /* \"#utility.yul\":15110:15264   */\n      pop\n      pop\n      pop\n      jump\t// out\n        /* \"#utility.yul\":15270:15577   */\n    tag_298:\n        /* \"#utility.yul\":15338:15339   */\n      0x00\n        /* \"#utility.yul\":15348:15461   */\n    tag_380:\n        /* \"#utility.yul\":15362:15368   */\n      dup4\n        /* \"#utility.yul\":15359:15360   */\n      dup2\n        /* \"#utility.yul\":15356:15369   */\n      lt\n        /* \"#utility.yul\":15348:15461   */\n      iszero\n      tag_382\n      jumpi\n        /* \"#utility.yul\":15447:15448   */\n      dup1\n        /* \"#utility.yul\":15442:15445   */\n      dup3\n        /* \"#utility.yul\":15438:15449   */\n      add\n        /* \"#utility.yul\":15432:15450   */\n      mload\n        /* \"#utility.yul\":15428:15429   */\n      dup2\n        /* \"#utility.yul\":15423:15426   */\n      dup5\n        /* \"#utility.yul\":15419:15430   */\n      add\n        /* \"#utility.yul\":15412:15451   */\n      mstore\n        /* \"#utility.yul\":15384:15386   */\n      0x20\n        /* \"#utility.yul\":15381:15382   */\n      dup2\n        /* \"#utility.yul\":15377:15387   */\n      add\n        /* \"#utility.yul\":15372:15387   */\n      swap1\n      pop\n        /* \"#utility.yul\":15348:15461   */\n      jump(tag_380)\n    tag_382:\n        /* \"#utility.yul\":15479:15485   */\n      dup4\n        /* \"#utility.yul\":15476:15477   */\n      dup2\n        /* \"#utility.yul\":15473:15486   */\n      gt\n        /* \"#utility.yul\":15470:15571   */\n      iszero\n      tag_383\n      jumpi\n        /* \"#utility.yul\":15559:15560   */\n      0x00\n        /* \"#utility.yul\":15550:15556   */\n      dup5\n        /* \"#utility.yul\":15545:15548   */\n      dup5\n        /* \"#utility.yul\":15541:15557   */\n      add\n        /* \"#utility.yul\":15534:15561   */\n      mstore\n        /* \"#utility.yul\":15470:15571   */\n    tag_383:\n        /* \"#utility.yul\":15319:15577   */\n      pop\n        /* \"#utility.yul\":15270:15577   */\n      pop\n      pop\n      pop\n      jump\t// out\n        /* \"#utility.yul\":15583:15903   */\n    tag_66:\n        /* \"#utility.yul\":15627:15633   */\n      0x00\n        /* \"#utility.yul\":15664:15665   */\n      0x02\n        /* \"#utility.yul\":15658:15662   */\n      dup3\n        /* \"#utility.yul\":15654:15666   */\n      div\n        /* \"#utility.yul\":15644:15666   */\n      swap1\n      pop\n        /* \"#utility.yul\":15711:15712   */\n      0x01\n        /* \"#utility.yul\":15705:15709   */\n      dup3\n        /* \"#utility.yul\":15701:15713   */\n      and\n        /* \"#utility.yul\":15732:15750   */\n      dup1\n        /* \"#utility.yul\":15722:15803   */\n      tag_385\n      jumpi\n        /* \"#utility.yul\":15788:15792   */\n      0x7f\n        /* \"#utility.yul\":15780:15786   */\n      dup3\n        /* \"#utility.yul\":15776:15793   */\n      and\n        /* \"#utility.yul\":15766:15793   */\n      swap2\n      pop\n        /* \"#utility.yul\":15722:15803   */\n    tag_385:\n        /* \"#utility.yul\":15850:15852   */\n      0x20\n        /* \"#utility.yul\":15842:15848   */\n      dup3\n        /* \"#utility.yul\":15839:15853   */\n      lt\n        /* \"#utility.yul\":15819:15837   */\n      dup2\n        /* \"#utility.yul\":15816:15854   */\n      eq\n        /* \"#utility.yul\":15813:15897   */\n      iszero\n      tag_386\n      jumpi\n        /* \"#utility.yul\":15869:15887   */\n      tag_387\n      tag_388\n      jump\t// in\n    tag_387:\n        /* \"#utility.yul\":15813:15897   */\n    tag_386:\n        /* \"#utility.yul\":15634:15903   */\n      pop\n        /* \"#utility.yul\":15583:15903   */\n      swap2\n      swap1\n      pop\n      jump\t// out\n        /* \"#utility.yul\":15909:16190   */\n    tag_350:\n        /* \"#utility.yul\":15992:16019   */\n      tag_390\n        /* \"#utility.yul\":16014:16018   */\n      dup3\n        /* \"#utility.yul\":15992:16019   */\n      tag_300\n      jump\t// in\n    tag_390:\n        /* \"#utility.yul\":15984:15990   */\n      dup2\n        /* \"#utility.yul\":15980:16020   */\n      add\n        /* \"#utility.yul\":16122:16128   */\n      dup2\n        /* \"#utility.yul\":16110:16120   */\n      dup2\n        /* \"#utility.yul\":16107:16129   */\n      lt\n        /* \"#utility.yul\":16086:16104   */\n      0xffffffffffffffff\n        /* \"#utility.yul\":16074:16084   */\n      dup3\n        /* \"#utility.yul\":16071:16105   */\n      gt\n        /* \"#utility.yul\":16068:16130   */\n      or\n        /* \"#utility.yul\":16065:16153   */\n      iszero\n      tag_391\n      jumpi\n        /* \"#utility.yul\":16133:16151   */\n      tag_392\n      tag_355\n      jump\t// in\n    tag_392:\n        /* \"#utility.yul\":16065:16153   */\n    tag_391:\n        /* \"#utility.yul\":16173:16183   */\n      dup1\n        /* \"#utility.yul\":16169:16171   */\n      0x40\n        /* \"#utility.yul\":16162:16184   */\n      mstore\n        /* \"#utility.yul\":15952:16190   */\n      pop\n        /* \"#utility.yul\":15909:16190   */\n      pop\n      pop\n      jump\t// out\n        /* \"#utility.yul\":16196:16376   */\n    tag_78:\n        /* \"#utility.yul\":16244:16321   */\n      0x4e487b7100000000000000000000000000000000000000000000000000000000\n        /* \"#utility.yul\":16241:16242   */\n      0x00\n        /* \"#utility.yul\":16234:16322   */\n      mstore\n        /* \"#utility.yul\":16341:16345   */\n      0x21\n        /* \"#utility.yul\":16338:16339   */\n      0x04\n        /* \"#utility.yul\":16331:16346   */\n      mstore\n        /* \"#utility.yul\":16365:16369   */\n      0x24\n        /* \"#utility.yul\":16362:16363   */\n      0x00\n        /* \"#utility.yul\":16355:16370   */\n      revert\n        /* \"#utility.yul\":16382:16562   */\n    tag_388:\n        /* \"#utility.yul\":16430:16507   */\n      0x4e487b7100000000000000000000000000000000000000000000000000000000\n        /* \"#utility.yul\":16427:16428   */\n      0x00\n        /* \"#utility.yul\":16420:16508   */\n      mstore\n        /* \"#utility.yul\":16527:16531   */\n      0x22\n        /* \"#utility.yul\":16524:16525   */\n      0x04\n        /* \"#utility.yul\":16517:16532   */\n      mstore\n        /* \"#utility.yul\":16551:16555   */\n      0x24\n        /* \"#utility.yul\":16548:16549   */\n      0x00\n        /* \"#utility.yul\":16541:16556   */\n      revert\n        /* \"#utility.yul\":16568:16748   */\n    tag_355:\n        /* \"#utility.yul\":16616:16693   */\n      0x4e487b7100000000000000000000000000000000000000000000000000000000\n        /* \"#utility.yul\":16613:16614   */\n      0x00\n        /* \"#utility.yul\":16606:16694   */\n      mstore\n        /* \"#utility.yul\":16713:16717   */\n      0x41\n        /* \"#utility.yul\":16710:16711   */\n      0x04\n        /* \"#utility.yul\":16703:16718   */\n      mstore\n        /* \"#utility.yul\":16737:16741   */\n      0x24\n        /* \"#utility.yul\":16734:16735   */\n      0x00\n        /* \"#utility.yul\":16727:16742   */\n      revert\n        /* \"#utility.yul\":16754:16871   */\n    tag_221:\n        /* \"#utility.yul\":16863:16864   */\n      0x00\n        /* \"#utility.yul\":16860:16861   */\n      dup1\n        /* \"#utility.yul\":16853:16865   */\n      revert\n        /* \"#utility.yul\":16877:16994   */\n    tag_206:\n        /* \"#utility.yul\":16986:16987   */\n      0x00\n        /* \"#utility.yul\":16983:16984   */\n      dup1\n        /* \"#utility.yul\":16976:16988   */\n      revert\n        /* \"#utility.yul\":17000:17117   */\n    tag_241:\n        /* \"#utility.yul\":17109:17110   */\n      0x00\n        /* \"#utility.yul\":17106:17107   */\n      dup1\n        /* \"#utility.yul\":17099:17111   */\n      revert\n        /* \"#utility.yul\":17123:17240   */\n    tag_230:\n        /* \"#utility.yul\":17232:17233   */\n      0x00\n        /* \"#utility.yul\":17229:17230   */\n      dup1\n        /* \"#utility.yul\":17222:17234   */\n      revert\n        /* \"#utility.yul\":17246:17348   */\n    tag_300:\n        /* \"#utility.yul\":17287:17293   */\n      0x00\n        /* \"#utility.yul\":17338:17340   */\n      0x1f\n        /* \"#utility.yul\":17334:17341   */\n      not\n        /* \"#utility.yul\":17329:17331   */\n      0x1f\n        /* \"#utility.yul\":17322:17327   */\n      dup4\n        /* \"#utility.yul\":17318:17332   */\n      add\n        /* \"#utility.yul\":17314:17342   */\n      and\n        /* \"#utility.yul\":17304:17342   */\n      swap1\n      pop\n        /* \"#utility.yul\":17246:17348   */\n      swap2\n      swap1\n      pop\n      jump\t// out\n        /* \"#utility.yul\":17354:17466   */\n    tag_373:\n        /* \"#utility.yul\":17434:17435   */\n      0x02\n        /* \"#utility.yul\":17427:17432   */\n      dup2\n        /* \"#utility.yul\":17424:17436   */\n      lt\n        /* \"#utility.yul\":17414:17460   */\n      tag_402\n      jumpi\n        /* \"#utility.yul\":17440:17458   */\n      tag_403\n      tag_78\n      jump\t// in\n    tag_403:\n        /* \"#utility.yul\":17414:17460   */\n    tag_402:\n        /* \"#utility.yul\":17354:17466   */\n      pop\n      jump\t// out\n        /* \"#utility.yul\":17472:17594   */\n    tag_212:\n        /* \"#utility.yul\":17545:17569   */\n      tag_405\n        /* \"#utility.yul\":17563:17568   */\n      dup2\n        /* \"#utility.yul\":17545:17569   */\n      tag_364\n      jump\t// in\n    tag_405:\n        /* \"#utility.yul\":17538:17543   */\n      dup2\n        /* \"#utility.yul\":17535:17570   */\n      eq\n        /* \"#utility.yul\":17525:17588   */\n      tag_406\n      jumpi\n        /* \"#utility.yul\":17584:17585   */\n      0x00\n        /* \"#utility.yul\":17581:17582   */\n      dup1\n        /* \"#utility.yul\":17574:17586   */\n      revert\n        /* \"#utility.yul\":17525:17588   */\n    tag_406:\n        /* \"#utility.yul\":17472:17594   */\n      pop\n      jump\t// out\n        /* \"#utility.yul\":17600:17738   */\n    tag_216:\n        /* \"#utility.yul\":17681:17713   */\n      tag_408\n        /* \"#utility.yul\":17707:17712   */\n      dup2\n        /* \"#utility.yul\":17681:17713   */\n      tag_267\n      jump\t// in\n    tag_408:\n        /* \"#utility.yul\":17674:17679   */\n      dup2\n        /* \"#utility.yul\":17671:17714   */\n      eq\n        /* \"#utility.yul\":17661:17732   */\n      tag_409\n      jumpi\n        /* \"#utility.yul\":17728:17729   */\n      0x00\n        /* \"#utility.yul\":17725:17726   */\n      dup1\n        /* \"#utility.yul\":17718:17730   */\n      revert\n        /* \"#utility.yul\":17661:17732   */\n    tag_409:\n        /* \"#utility.yul\":17600:17738   */\n      pop\n      jump\t// out\n        /* \"#utility.yul\":17744:17866   */\n    tag_226:\n        /* \"#utility.yul\":17817:17841   */\n      tag_411\n        /* \"#utility.yul\":17835:17840   */\n      dup2\n        /* \"#utility.yul\":17817:17841   */\n      tag_327\n      jump\t// in\n    tag_411:\n        /* \"#utility.yul\":17810:17815   */\n      dup2\n        /* \"#utility.yul\":17807:17842   */\n      eq\n        /* \"#utility.yul\":17797:17860   */\n      tag_412\n      jumpi\n        /* \"#utility.yul\":17856:17857   */\n      0x00\n        /* \"#utility.yul\":17853:17854   */\n      dup1\n        /* \"#utility.yul\":17846:17858   */\n      revert\n        /* \"#utility.yul\":17797:17860   */\n    tag_412:\n        /* \"#utility.yul\":17744:17866   */\n      pop\n      jump\t// out\n\n    auxdata: 0xa2646970667358221220793d0c787b24496d90d9e89d9065fd559f0caf8cd617dff70254f6da1acc600a64736f6c63430008070033\n}\n",
				"bytecode": {
					"linkReferences": {},
					"object": "608060405234801561001057600080fd5b50611cdb806100206000396000f3fe608060405234801561001057600080fd5b506004361061009e5760003560e01c8063470240c211610066578063470240c21461016b57806347b399ed1461019b5780634aa60186146101cb578063ce164fdd146101ff578063d4126e6f146102335761009e565b80630294e77f146100a35780630ca0c38b146100d35780631881c5fc146100ef578063219a7f271461010b5780633e4994c91461013b575b600080fd5b6100bd60048036038101906100b891906115f7565b610265565b6040516100ca91906118f8565b60405180910390f35b6100ed60048036038101906100e8919061153c565b610311565b005b6101096004803603810190610104919061153c565b6104db565b005b610125600480360381019061012091906114c6565b6106a5565b6040516101329190611982565b60405180910390f35b610155600480360381019061015091906115f7565b610a1e565b60405161016291906118a6565b60405180910390f35b610185600480360381019061018091906114c6565b610a5d565b60405161019291906119a4565b60405180910390f35b6101b560048036038101906101b091906115f7565b610dd6565b6040516101c291906118a6565b60405180910390f35b6101e560048036038101906101e09190611499565b610e15565b6040516101f695949392919061191a565b60405180910390f35b61021960048036038101906102149190611499565b611010565b60405161022a95949392919061191a565b60405180910390f35b61024d600480360381019061024891906114f3565b61120b565b60405161025c939291906118c1565b60405180910390f35b6006818154811061027557600080fd5b90600052602060002001600091509050805461029090611b37565b80601f01602080910402602001604051908101604052809291908181526020018280546102bc90611b37565b80156103095780601f106102de57610100808354040283529160200191610309565b820191906000526020600020905b8154815290600101906020018083116102ec57829003601f168201915b505050505081565b83600160003373ffffffffffffffffffffffffffffffffffffffff1673ffffffffffffffffffffffffffffffffffffffff168152602001908152602001600020600001908051906020019061036792919061128b565b5082600160003373ffffffffffffffffffffffffffffffffffffffff1673ffffffffffffffffffffffffffffffffffffffff16815260200190815260200160002060010190805190602001906103be92919061128b565b5081600160003373ffffffffffffffffffffffffffffffffffffffff1673ffffffffffffffffffffffffffffffffffffffff168152602001908152602001600020600201908051906020019061041592919061128b565b5080600181111561042957610428611b9a565b5b600160003373ffffffffffffffffffffffffffffffffffffffff1673ffffffffffffffffffffffffffffffffffffffff16815260200190815260200160002060050160006101000a81548160ff0219169083600181111561048d5761048c611b9a565b5b02179055503373ffffffffffffffffffffffffffffffffffffffff167f9b86717872986aab9d78c64f2726b6dae96b25a759ac26ed7adbfffba8d0ce3a60405160405180910390a250505050565b83600360003373ffffffffffffffffffffffffffffffffffffffff1673ffffffffffffffffffffffffffffffffffffffff168152602001908152602001600020600001908051906020019061053192919061128b565b5082600360003373ffffffffffffffffffffffffffffffffffffffff1673ffffffffffffffffffffffffffffffffffffffff168152602001908152602001600020600101908051906020019061058892919061128b565b5081600360003373ffffffffffffffffffffffffffffffffffffffff1673ffffffffffffffffffffffffffffffffffffffff16815260200190815260200160002060020190805190602001906105df92919061128b565b508060018111156105f3576105f2611b9a565b5b600360003373ffffffffffffffffffffffffffffffffffffffff1673ffffffffffffffffffffffffffffffffffffffff16815260200190815260200160002060050160006101000a81548160ff0219169083600181111561065757610656611b9a565b5b02179055503373ffffffffffffffffffffffffffffffffffffffff167f8e8163abfd8af54d75ae372dd0fee97b14b981449bee2aeb55d2de269a9f5a2a60405160405180910390a250505050565b6106ad611311565b600360008373ffffffffffffffffffffffffffffffffffffffff1673ffffffffffffffffffffffffffffffffffffffff1681526020019081526020016000206040518060c001604052908160008201805461070790611b37565b80601f016020809104026020016040519081016040528092919081815260200182805461073390611b37565b80156107805780601f1061075557610100808354040283529160200191610780565b820191906000526020600020905b81548152906001019060200180831161076357829003601f168201915b5050505050815260200160018201805461079990611b37565b80601f01602080910402602001604051908101604052809291908181526020018280546107c590611b37565b80156108125780601f106107e757610100808354040283529160200191610812565b820191906000526020600020905b8154815290600101906020018083116107f557829003601f168201915b5050505050815260200160028201805461082b90611b37565b80601f016020809104026020016040519081016040528092919081815260200182805461085790611b37565b80156108a45780601f10610879576101008083540402835291602001916108a4565b820191906000526020600020905b81548152906001019060200180831161088757829003601f168201915b505050505081526020016003820160009054906101000a900473ffffffffffffffffffffffffffffffffffffffff1673ffffffffffffffffffffffffffffffffffffffff1673ffffffffffffffffffffffffffffffffffffffff16815260200160048201805480602002602001604051908101604052809291908181526020016000905b828210156109d457838290600052602060002001805461094790611b37565b80601f016020809104026020016040519081016040528092919081815260200182805461097390611b37565b80156109c05780601f10610995576101008083540402835291602001916109c0565b820191906000526020600020905b8154815290600101906020018083116109a357829003601f168201915b505050505081526020019060010190610928565b5050505081526020016005820160009054906101000a900460ff166001811115610a0157610a00611b9a565b5b6001811115610a1357610a12611b9a565b5b815250509050919050565b60028181548110610a2e57600080fd5b906000526020600020016000915054906101000a900473ffffffffffffffffffffffffffffffffffffffff1681565b610a6561136f565b600160008373ffffffffffffffffffffffffffffffffffffffff1673ffffffffffffffffffffffffffffffffffffffff1681526020019081526020016000206040518060c0016040529081600082018054610abf90611b37565b80601f0160208091040260200160405190810160405280929190818152602001828054610aeb90611b37565b8015610b385780601f10610b0d57610100808354040283529160200191610b38565b820191906000526020600020905b815481529060010190602001808311610b1b57829003601f168201915b50505050508152602001600182018054610b5190611b37565b80601f0160208091040260200160405190810160405280929190818152602001828054610b7d90611b37565b8015610bca5780601f10610b9f57610100808354040283529160200191610bca565b820191906000526020600020905b815481529060010190602001808311610bad57829003601f168201915b50505050508152602001600282018054610be390611b37565b80601f0160208091040260200160405190810160405280929190818152602001828054610c0f90611b37565b8015610c5c5780601f10610c3157610100808354040283529160200191610c5c565b820191906000526020600020905b815481529060010190602001808311610c3f57829003601f168201915b505050505081526020016003820160009054906101000a900473ffffffffffffffffffffffffffffffffffffffff1673ffffffffffffffffffffffffffffffffffffffff1673ffffffffffffffffffffffffffffffffffffffff16815260200160048201805480602002602001604051908101604052809291908181526020016000905b82821015610d8c578382906000526020600020018054610cff90611b37565b80601f0160208091040260200160405190810160405280929190818152602001828054610d2b90611b37565b8015610d785780601f10610d4d57610100808354040283529160200191610d78565b820191906000526020600020905b815481529060010190602001808311610d5b57829003601f168201915b505050505081526020019060010190610ce0565b5050505081526020016005820160009054906101000a900460ff166001811115610db957610db8611b9a565b5b6001811115610dcb57610dca611b9a565b5b815250509050919050565b60048181548110610de657600080fd5b906000526020600020016000915054906101000a900473ffffffffffffffffffffffffffffffffffffffff1681565b6003602052806000526040600020600091509050806000018054610e3890611b37565b80601f0160208091040260200160405190810160405280929190818152602001828054610e6490611b37565b8015610eb15780601f10610e8657610100808354040283529160200191610eb1565b820191906000526020600020905b815481529060010190602001808311610e9457829003601f168201915b505050505090806001018054610ec690611b37565b80601f0160208091040260200160405190810160405280929190818152602001828054610ef290611b37565b8015610f3f5780601f10610f1457610100808354040283529160200191610f3f565b820191906000526020600020905b815481529060010190602001808311610f2257829003601f168201915b505050505090806002018054610f5490611b37565b80601f0160208091040260200160405190810160405280929190818152602001828054610f8090611b37565b8015610fcd5780601f10610fa257610100808354040283529160200191610fcd565b820191906000526020600020905b815481529060010190602001808311610fb057829003601f168201915b5050505050908060030160009054906101000a900473ffffffffffffffffffffffffffffffffffffffff16908060050160009054906101000a900460ff16905085565b600160205280600052604060002060009150905080600001805461103390611b37565b80601f016020809104026020016040519081016040528092919081815260200182805461105f90611b37565b80156110ac5780601f10611081576101008083540402835291602001916110ac565b820191906000526020600020905b81548152906001019060200180831161108f57829003601f168201915b5050505050908060010180546110c190611b37565b80601f01602080910402602001604051908101604052809291908181526020018280546110ed90611b37565b801561113a5780601f1061110f5761010080835404028352916020019161113a565b820191906000526020600020905b81548152906001019060200180831161111d57829003601f168201915b50505050509080600201805461114f90611b37565b80601f016020809104026020016040519081016040528092919081815260200182805461117b90611b37565b80156111c85780601f1061119d576101008083540402835291602001916111c8565b820191906000526020600020905b8154815290600101906020018083116111ab57829003601f168201915b5050505050908060030160009054906101000a900473ffffffffffffffffffffffffffffffffffffffff16908060050160009054906101000a900460ff16905085565b6005818051602081018201805184825260208301602085012081835280955050505050506000915090508060000160009054906101000a900473ffffffffffffffffffffffffffffffffffffffff16908060010160009054906101000a900473ffffffffffffffffffffffffffffffffffffffff16908060020154905083565b82805461129790611b37565b90600052602060002090601f0160209004810192826112b95760008555611300565b82601f106112d257805160ff1916838001178555611300565b82800160010185558215611300579182015b828111156112ff5782518255916020019190600101906112e4565b5b50905061130d91906113cd565b5090565b6040518060c00160405280606081526020016060815260200160608152602001600073ffffffffffffffffffffffffffffffffffffffff168152602001606081526020016000600181111561136957611368611b9a565b5b81525090565b6040518060c00160405280606081526020016060815260200160608152602001600073ffffffffffffffffffffffffffffffffffffffff16815260200160608152602001600060018111156113c7576113c6611b9a565b5b81525090565b5b808211156113e65760008160009055506001016113ce565b5090565b60006113fd6113f8846119eb565b6119c6565b90508281526020810184848401111561141957611418611c2c565b5b611424848285611af5565b509392505050565b60008135905061143b81611c60565b92915050565b60008135905061145081611c77565b92915050565b600082601f83011261146b5761146a611c27565b5b813561147b8482602086016113ea565b91505092915050565b60008135905061149381611c8e565b92915050565b6000602082840312156114af576114ae611c36565b5b60006114bd8482850161142c565b91505092915050565b6000602082840312156114dc576114db611c36565b5b60006114ea84828501611441565b91505092915050565b60006020828403121561150957611508611c36565b5b600082013567ffffffffffffffff81111561152757611526611c31565b5b61153384828501611456565b91505092915050565b6000806000806080858703121561155657611555611c36565b5b600085013567ffffffffffffffff81111561157457611573611c31565b5b61158087828801611456565b945050602085013567ffffffffffffffff8111156115a1576115a0611c31565b5b6115ad87828801611456565b935050604085013567ffffffffffffffff8111156115ce576115cd611c31565b5b6115da87828801611456565b92505060606115eb87828801611484565b91505092959194509250565b60006020828403121561160d5761160c611c36565b5b600061161b84828501611484565b91505092915050565b600061163083836116e9565b905092915050565b61164181611a94565b82525050565b61165081611a94565b82525050565b600061166182611a2c565b61166b8185611a4f565b93508360208202850161167d85611a1c565b8060005b858110156116b9578484038952815161169a8582611624565b94506116a583611a42565b925060208a01995050600181019050611681565b50829750879550505050505092915050565b6116d481611ae3565b82525050565b6116e381611ae3565b82525050565b60006116f482611a37565b6116fe8185611a60565b935061170e818560208601611b04565b61171781611c3b565b840191505092915050565b600061172d82611a37565b6117378185611a71565b9350611747818560208601611b04565b61175081611c3b565b840191505092915050565b600060c083016000830151848203600086015261177882826116e9565b9150506020830151848203602086015261179282826116e9565b915050604083015184820360408601526117ac82826116e9565b91505060608301516117c16060860182611638565b50608083015184820360808601526117d98282611656565b91505060a08301516117ee60a08601826116cb565b508091505092915050565b600060c083016000830151848203600086015261181682826116e9565b9150506020830151848203602086015261183082826116e9565b9150506040830151848203604086015261184a82826116e9565b915050606083015161185f6060860182611638565b50608083015184820360808601526118778282611656565b91505060a083015161188c60a08601826116cb565b508091505092915050565b6118a081611ad9565b82525050565b60006020820190506118bb6000830184611647565b92915050565b60006060820190506118d66000830186611647565b6118e36020830185611647565b6118f06040830184611897565b949350505050565b600060208201905081810360008301526119128184611722565b905092915050565b600060a08201905081810360008301526119348188611722565b905081810360208301526119488187611722565b9050818103604083015261195c8186611722565b905061196b6060830185611647565b61197860808301846116da565b9695505050505050565b6000602082019050818103600083015261199c818461175b565b905092915050565b600060208201905081810360008301526119be81846117f9565b905092915050565b60006119d06119e1565b90506119dc8282611b69565b919050565b6000604051905090565b600067ffffffffffffffff821115611a0657611a05611bf8565b5b611a0f82611c3b565b9050602081019050919050565b6000819050602082019050919050565b600081519050919050565b600081519050919050565b6000602082019050919050565b600082825260208201905092915050565b600082825260208201905092915050565b600082825260208201905092915050565b6000611a8d82611ab9565b9050919050565b6000611a9f82611ab9565b9050919050565b6000819050611ab482611c4c565b919050565b600073ffffffffffffffffffffffffffffffffffffffff82169050919050565b6000819050919050565b6000611aee82611aa6565b9050919050565b82818337600083830152505050565b60005b83811015611b22578082015181840152602081019050611b07565b83811115611b31576000848401525b50505050565b60006002820490506001821680611b4f57607f821691505b60208210811415611b6357611b62611bc9565b5b50919050565b611b7282611c3b565b810181811067ffffffffffffffff82111715611b9157611b90611bf8565b5b80604052505050565b7f4e487b7100000000000000000000000000000000000000000000000000000000600052602160045260246000fd5b7f4e487b7100000000000000000000000000000000000000000000000000000000600052602260045260246000fd5b7f4e487b7100000000000000000000000000000000000000000000000000000000600052604160045260246000fd5b600080fd5b600080fd5b600080fd5b600080fd5b6000601f19601f8301169050919050565b60028110611c5d57611c5c611b9a565b5b50565b611c6981611a82565b8114611c7457600080fd5b50565b611c8081611a94565b8114611c8b57600080fd5b50565b611c9781611ad9565b8114611ca257600080fd5b5056fea2646970667358221220793d0c787b24496d90d9e89d9065fd559f0caf8cd617dff70254f6da1acc600a64736f6c63430008070033",
					"opcodes": "PUSH1 0x80 PUSH1 0x40 MSTORE CALLVALUE DUP1 ISZERO PUSH2 0x10 JUMPI PUSH1 0x0 DUP1 REVERT JUMPDEST POP PUSH2 0x1CDB DUP1 PUSH2 0x20 PUSH1 0x0 CODECOPY PUSH1 0x0 RETURN INVALID PUSH1 0x80 PUSH1 0x40 MSTORE CALLVALUE DUP1 ISZERO PUSH2 0x10 JUMPI PUSH1 0x0 DUP1 REVERT JUMPDEST POP PUSH1 0x4 CALLDATASIZE LT PUSH2 0x9E JUMPI PUSH1 0x0 CALLDATALOAD PUSH1 0xE0 SHR DUP1 PUSH4 0x470240C2 GT PUSH2 0x66 JUMPI DUP1 PUSH4 0x470240C2 EQ PUSH2 0x16B JUMPI DUP1 PUSH4 0x47B399ED EQ PUSH2 0x19B JUMPI DUP1 PUSH4 0x4AA60186 EQ PUSH2 0x1CB JUMPI DUP1 PUSH4 0xCE164FDD EQ PUSH2 0x1FF JUMPI DUP1 PUSH4 0xD4126E6F EQ PUSH2 0x233 JUMPI PUSH2 0x9E JUMP JUMPDEST DUP1 PUSH4 0x294E77F EQ PUSH2 0xA3 JUMPI DUP1 PUSH4 0xCA0C38B EQ PUSH2 0xD3 JUMPI DUP1 PUSH4 0x1881C5FC EQ PUSH2 0xEF JUMPI DUP1 PUSH4 0x219A7F27 EQ PUSH2 0x10B JUMPI DUP1 PUSH4 0x3E4994C9 EQ PUSH2 0x13B JUMPI JUMPDEST PUSH1 0x0 DUP1 REVERT JUMPDEST PUSH2 0xBD PUSH1 0x4 DUP1 CALLDATASIZE SUB DUP2 ADD SWAP1 PUSH2 0xB8 SWAP2 SWAP1 PUSH2 0x15F7 JUMP JUMPDEST PUSH2 0x265 JUMP JUMPDEST PUSH1 0x40 MLOAD PUSH2 0xCA SWAP2 SWAP1 PUSH2 0x18F8 JUMP JUMPDEST PUSH1 0x40 MLOAD DUP1 SWAP2 SUB SWAP1 RETURN JUMPDEST PUSH2 0xED PUSH1 0x4 DUP1 CALLDATASIZE SUB DUP2 ADD SWAP1 PUSH2 0xE8 SWAP2 SWAP1 PUSH2 0x153C JUMP JUMPDEST PUSH2 0x311 JUMP JUMPDEST STOP JUMPDEST PUSH2 0x109 PUSH1 0x4 DUP1 CALLDATASIZE SUB DUP2 ADD SWAP1 PUSH2 0x104 SWAP2 SWAP1 PUSH2 0x153C JUMP JUMPDEST PUSH2 0x4DB JUMP JUMPDEST STOP JUMPDEST PUSH2 0x125 PUSH1 0x4 DUP1 CALLDATASIZE SUB DUP2 ADD SWAP1 PUSH2 0x120 SWAP2 SWAP1 PUSH2 0x14C6 JUMP JUMPDEST PUSH2 0x6A5 JUMP JUMPDEST PUSH1 0x40 MLOAD PUSH2 0x132 SWAP2 SWAP1 PUSH2 0x1982 JUMP JUMPDEST PUSH1 0x40 MLOAD DUP1 SWAP2 SUB SWAP1 RETURN JUMPDEST PUSH2 0x155 PUSH1 0x4 DUP1 CALLDATASIZE SUB DUP2 ADD SWAP1 PUSH2 0x150 SWAP2 SWAP1 PUSH2 0x15F7 JUMP JUMPDEST PUSH2 0xA1E JUMP JUMPDEST PUSH1 0x40 MLOAD PUSH2 0x162 SWAP2 SWAP1 PUSH2 0x18A6 JUMP JUMPDEST PUSH1 0x40 MLOAD DUP1 SWAP2 SUB SWAP1 RETURN JUMPDEST PUSH2 0x185 PUSH1 0x4 DUP1 CALLDATASIZE SUB DUP2 ADD SWAP1 PUSH2 0x180 SWAP2 SWAP1 PUSH2 0x14C6 JUMP JUMPDEST PUSH2 0xA5D JUMP JUMPDEST PUSH1 0x40 MLOAD PUSH2 0x192 SWAP2 SWAP1 PUSH2 0x19A4 JUMP JUMPDEST PUSH1 0x40 MLOAD DUP1 SWAP2 SUB SWAP1 RETURN JUMPDEST PUSH2 0x1B5 PUSH1 0x4 DUP1 CALLDATASIZE SUB DUP2 ADD SWAP1 PUSH2 0x1B0 SWAP2 SWAP1 PUSH2 0x15F7 JUMP JUMPDEST PUSH2 0xDD6 JUMP JUMPDEST PUSH1 0x40 MLOAD PUSH2 0x1C2 SWAP2 SWAP1 PUSH2 0x18A6 JUMP JUMPDEST PUSH1 0x40 MLOAD DUP1 SWAP2 SUB SWAP1 RETURN JUMPDEST PUSH2 0x1E5 PUSH1 0x4 DUP1 CALLDATASIZE SUB DUP2 ADD SWAP1 PUSH2 0x1E0 SWAP2 SWAP1 PUSH2 0x1499 JUMP JUMPDEST PUSH2 0xE15 JUMP JUMPDEST PUSH1 0x40 MLOAD PUSH2 0x1F6 SWAP6 SWAP5 SWAP4 SWAP3 SWAP2 SWAP1 PUSH2 0x191A JUMP JUMPDEST PUSH1 0x40 MLOAD DUP1 SWAP2 SUB SWAP1 RETURN JUMPDEST PUSH2 0x219 PUSH1 0x4 DUP1 CALLDATASIZE SUB DUP2 ADD SWAP1 PUSH2 0x214 SWAP2 SWAP1 PUSH2 0x1499 JUMP JUMPDEST PUSH2 0x1010 JUMP JUMPDEST PUSH1 0x40 MLOAD PUSH2 0x22A SWAP6 SWAP5 SWAP4 SWAP3 SWAP2 SWAP1 PUSH2 0x191A JUMP JUMPDEST PUSH1 0x40 MLOAD DUP1 SWAP2 SUB SWAP1 RETURN JUMPDEST PUSH2 0x24D PUSH1 0x4 DUP1 CALLDATASIZE SUB DUP2 ADD SWAP1 PUSH2 0x248 SWAP2 SWAP1 PUSH2 0x14F3 JUMP JUMPDEST PUSH2 0x120B JUMP JUMPDEST PUSH1 0x40 MLOAD PUSH2 0x25C SWAP4 SWAP3 SWAP2 SWAP1 PUSH2 0x18C1 JUMP JUMPDEST PUSH1 0x40 MLOAD DUP1 SWAP2 SUB SWAP1 RETURN JUMPDEST PUSH1 0x6 DUP2 DUP2 SLOAD DUP2 LT PUSH2 0x275 JUMPI PUSH1 0x0 DUP1 REVERT JUMPDEST SWAP1 PUSH1 0x0 MSTORE PUSH1 0x20 PUSH1 0x0 KECCAK256 ADD PUSH1 0x0 SWAP2 POP SWAP1 POP DUP1 SLOAD PUSH2 0x290 SWAP1 PUSH2 0x1B37 JUMP JUMPDEST DUP1 PUSH1 0x1F ADD PUSH1 0x20 DUP1 SWAP2 DIV MUL PUSH1 0x20 ADD PUSH1 0x40 MLOAD SWAP1 DUP2 ADD PUSH1 0x40 MSTORE DUP1 SWAP3 SWAP2 SWAP1 DUP2 DUP2 MSTORE PUSH1 0x20 ADD DUP3 DUP1 SLOAD PUSH2 0x2BC SWAP1 PUSH2 0x1B37 JUMP JUMPDEST DUP1 ISZERO PUSH2 0x309 JUMPI DUP1 PUSH1 0x1F LT PUSH2 0x2DE JUMPI PUSH2 0x100 DUP1 DUP4 SLOAD DIV MUL DUP4 MSTORE SWAP2 PUSH1 0x20 ADD SWAP2 PUSH2 0x309 JUMP JUMPDEST DUP3 ADD SWAP2 SWAP1 PUSH1 0x0 MSTORE PUSH1 0x20 PUSH1 0x0 KECCAK256 SWAP1 JUMPDEST DUP2 SLOAD DUP2 MSTORE SWAP1 PUSH1 0x1 ADD SWAP1 PUSH1 0x20 ADD DUP1 DUP4 GT PUSH2 0x2EC JUMPI DUP3 SWAP1 SUB PUSH1 0x1F AND DUP3 ADD SWAP2 JUMPDEST POP POP POP POP POP DUP2 JUMP JUMPDEST DUP4 PUSH1 0x1 PUSH1 0x0 CALLER PUSH20 0xFFFFFFFFFFFFFFFFFFFFFFFFFFFFFFFFFFFFFFFF AND PUSH20 0xFFFFFFFFFFFFFFFFFFFFFFFFFFFFFFFFFFFFFFFF AND DUP2 MSTORE PUSH1 0x20 ADD SWAP1 DUP2 MSTORE PUSH1 0x20 ADD PUSH1 0x0 KECCAK256 PUSH1 0x0 ADD SWAP1 DUP1 MLOAD SWAP1 PUSH1 0x20 ADD SWAP1 PUSH2 0x367 SWAP3 SWAP2 SWAP1 PUSH2 0x128B JUMP JUMPDEST POP DUP3 PUSH1 0x1 PUSH1 0x0 CALLER PUSH20 0xFFFFFFFFFFFFFFFFFFFFFFFFFFFFFFFFFFFFFFFF AND PUSH20 0xFFFFFFFFFFFFFFFFFFFFFFFFFFFFFFFFFFFFFFFF AND DUP2 MSTORE PUSH1 0x20 ADD SWAP1 DUP2 MSTORE PUSH1 0x20 ADD PUSH1 0x0 KECCAK256 PUSH1 0x1 ADD SWAP1 DUP1 MLOAD SWAP1 PUSH1 0x20 ADD SWAP1 PUSH2 0x3BE SWAP3 SWAP2 SWAP1 PUSH2 0x128B JUMP JUMPDEST POP DUP2 PUSH1 0x1 PUSH1 0x0 CALLER PUSH20 0xFFFFFFFFFFFFFFFFFFFFFFFFFFFFFFFFFFFFFFFF AND PUSH20 0xFFFFFFFFFFFFFFFFFFFFFFFFFFFFFFFFFFFFFFFF AND DUP2 MSTORE PUSH1 0x20 ADD SWAP1 DUP2 MSTORE PUSH1 0x20 ADD PUSH1 0x0 KECCAK256 PUSH1 0x2 ADD SWAP1 DUP1 MLOAD SWAP1 PUSH1 0x20 ADD SWAP1 PUSH2 0x415 SWAP3 SWAP2 SWAP1 PUSH2 0x128B JUMP JUMPDEST POP DUP1 PUSH1 0x1 DUP2 GT ISZERO PUSH2 0x429 JUMPI PUSH2 0x428 PUSH2 0x1B9A JUMP JUMPDEST JUMPDEST PUSH1 0x1 PUSH1 0x0 CALLER PUSH20 0xFFFFFFFFFFFFFFFFFFFFFFFFFFFFFFFFFFFFFFFF AND PUSH20 0xFFFFFFFFFFFFFFFFFFFFFFFFFFFFFFFFFFFFFFFF AND DUP2 MSTORE PUSH1 0x20 ADD SWAP1 DUP2 MSTORE PUSH1 0x20 ADD PUSH1 0x0 KECCAK256 PUSH1 0x5 ADD PUSH1 0x0 PUSH2 0x100 EXP DUP2 SLOAD DUP2 PUSH1 0xFF MUL NOT AND SWAP1 DUP4 PUSH1 0x1 DUP2 GT ISZERO PUSH2 0x48D JUMPI PUSH2 0x48C PUSH2 0x1B9A JUMP JUMPDEST JUMPDEST MUL OR SWAP1 SSTORE POP CALLER PUSH20 0xFFFFFFFFFFFFFFFFFFFFFFFFFFFFFFFFFFFFFFFF AND PUSH32 0x9B86717872986AAB9D78C64F2726B6DAE96B25A759AC26ED7ADBFFFBA8D0CE3A PUSH1 0x40 MLOAD PUSH1 0x40 MLOAD DUP1 SWAP2 SUB SWAP1 LOG2 POP POP POP POP JUMP JUMPDEST DUP4 PUSH1 0x3 PUSH1 0x0 CALLER PUSH20 0xFFFFFFFFFFFFFFFFFFFFFFFFFFFFFFFFFFFFFFFF AND PUSH20 0xFFFFFFFFFFFFFFFFFFFFFFFFFFFFFFFFFFFFFFFF AND DUP2 MSTORE PUSH1 0x20 ADD SWAP1 DUP2 MSTORE PUSH1 0x20 ADD PUSH1 0x0 KECCAK256 PUSH1 0x0 ADD SWAP1 DUP1 MLOAD SWAP1 PUSH1 0x20 ADD SWAP1 PUSH2 0x531 SWAP3 SWAP2 SWAP1 PUSH2 0x128B JUMP JUMPDEST POP DUP3 PUSH1 0x3 PUSH1 0x0 CALLER PUSH20 0xFFFFFFFFFFFFFFFFFFFFFFFFFFFFFFFFFFFFFFFF AND PUSH20 0xFFFFFFFFFFFFFFFFFFFFFFFFFFFFFFFFFFFFFFFF AND DUP2 MSTORE PUSH1 0x20 ADD SWAP1 DUP2 MSTORE PUSH1 0x20 ADD PUSH1 0x0 KECCAK256 PUSH1 0x1 ADD SWAP1 DUP1 MLOAD SWAP1 PUSH1 0x20 ADD SWAP1 PUSH2 0x588 SWAP3 SWAP2 SWAP1 PUSH2 0x128B JUMP JUMPDEST POP DUP2 PUSH1 0x3 PUSH1 0x0 CALLER PUSH20 0xFFFFFFFFFFFFFFFFFFFFFFFFFFFFFFFFFFFFFFFF AND PUSH20 0xFFFFFFFFFFFFFFFFFFFFFFFFFFFFFFFFFFFFFFFF AND DUP2 MSTORE PUSH1 0x20 ADD SWAP1 DUP2 MSTORE PUSH1 0x20 ADD PUSH1 0x0 KECCAK256 PUSH1 0x2 ADD SWAP1 DUP1 MLOAD SWAP1 PUSH1 0x20 ADD SWAP1 PUSH2 0x5DF SWAP3 SWAP2 SWAP1 PUSH2 0x128B JUMP JUMPDEST POP DUP1 PUSH1 0x1 DUP2 GT ISZERO PUSH2 0x5F3 JUMPI PUSH2 0x5F2 PUSH2 0x1B9A JUMP JUMPDEST JUMPDEST PUSH1 0x3 PUSH1 0x0 CALLER PUSH20 0xFFFFFFFFFFFFFFFFFFFFFFFFFFFFFFFFFFFFFFFF AND PUSH20 0xFFFFFFFFFFFFFFFFFFFFFFFFFFFFFFFFFFFFFFFF AND DUP2 MSTORE PUSH1 0x20 ADD SWAP1 DUP2 MSTORE PUSH1 0x20 ADD PUSH1 0x0 KECCAK256 PUSH1 0x5 ADD PUSH1 0x0 PUSH2 0x100 EXP DUP2 SLOAD DUP2 PUSH1 0xFF MUL NOT AND SWAP1 DUP4 PUSH1 0x1 DUP2 GT ISZERO PUSH2 0x657 JUMPI PUSH2 0x656 PUSH2 0x1B9A JUMP JUMPDEST JUMPDEST MUL OR SWAP1 SSTORE POP CALLER PUSH20 0xFFFFFFFFFFFFFFFFFFFFFFFFFFFFFFFFFFFFFFFF AND PUSH32 0x8E8163ABFD8AF54D75AE372DD0FEE97B14B981449BEE2AEB55D2DE269A9F5A2A PUSH1 0x40 MLOAD PUSH1 0x40 MLOAD DUP1 SWAP2 SUB SWAP1 LOG2 POP POP POP POP JUMP JUMPDEST PUSH2 0x6AD PUSH2 0x1311 JUMP JUMPDEST PUSH1 0x3 PUSH1 0x0 DUP4 PUSH20 0xFFFFFFFFFFFFFFFFFFFFFFFFFFFFFFFFFFFFFFFF AND PUSH20 0xFFFFFFFFFFFFFFFFFFFFFFFFFFFFFFFFFFFFFFFF AND DUP2 MSTORE PUSH1 0x20 ADD SWAP1 DUP2 MSTORE PUSH1 0x20 ADD PUSH1 0x0 KECCAK256 PUSH1 0x40 MLOAD DUP1 PUSH1 0xC0 ADD PUSH1 0x40 MSTORE SWAP1 DUP2 PUSH1 0x0 DUP3 ADD DUP1 SLOAD PUSH2 0x707 SWAP1 PUSH2 0x1B37 JUMP JUMPDEST DUP1 PUSH1 0x1F ADD PUSH1 0x20 DUP1 SWAP2 DIV MUL PUSH1 0x20 ADD PUSH1 0x40 MLOAD SWAP1 DUP2 ADD PUSH1 0x40 MSTORE DUP1 SWAP3 SWAP2 SWAP1 DUP2 DUP2 MSTORE PUSH1 0x20 ADD DUP3 DUP1 SLOAD PUSH2 0x733 SWAP1 PUSH2 0x1B37 JUMP JUMPDEST DUP1 ISZERO PUSH2 0x780 JUMPI DUP1 PUSH1 0x1F LT PUSH2 0x755 JUMPI PUSH2 0x100 DUP1 DUP4 SLOAD DIV MUL DUP4 MSTORE SWAP2 PUSH1 0x20 ADD SWAP2 PUSH2 0x780 JUMP JUMPDEST DUP3 ADD SWAP2 SWAP1 PUSH1 0x0 MSTORE PUSH1 0x20 PUSH1 0x0 KECCAK256 SWAP1 JUMPDEST DUP2 SLOAD DUP2 MSTORE SWAP1 PUSH1 0x1 ADD SWAP1 PUSH1 0x20 ADD DUP1 DUP4 GT PUSH2 0x763 JUMPI DUP3 SWAP1 SUB PUSH1 0x1F AND DUP3 ADD SWAP2 JUMPDEST POP POP POP POP POP DUP2 MSTORE PUSH1 0x20 ADD PUSH1 0x1 DUP3 ADD DUP1 SLOAD PUSH2 0x799 SWAP1 PUSH2 0x1B37 JUMP JUMPDEST DUP1 PUSH1 0x1F ADD PUSH1 0x20 DUP1 SWAP2 DIV MUL PUSH1 0x20 ADD PUSH1 0x40 MLOAD SWAP1 DUP2 ADD PUSH1 0x40 MSTORE DUP1 SWAP3 SWAP2 SWAP1 DUP2 DUP2 MSTORE PUSH1 0x20 ADD DUP3 DUP1 SLOAD PUSH2 0x7C5 SWAP1 PUSH2 0x1B37 JUMP JUMPDEST DUP1 ISZERO PUSH2 0x812 JUMPI DUP1 PUSH1 0x1F LT PUSH2 0x7E7 JUMPI PUSH2 0x100 DUP1 DUP4 SLOAD DIV MUL DUP4 MSTORE SWAP2 PUSH1 0x20 ADD SWAP2 PUSH2 0x812 JUMP JUMPDEST DUP3 ADD SWAP2 SWAP1 PUSH1 0x0 MSTORE PUSH1 0x20 PUSH1 0x0 KECCAK256 SWAP1 JUMPDEST DUP2 SLOAD DUP2 MSTORE SWAP1 PUSH1 0x1 ADD SWAP1 PUSH1 0x20 ADD DUP1 DUP4 GT PUSH2 0x7F5 JUMPI DUP3 SWAP1 SUB PUSH1 0x1F AND DUP3 ADD SWAP2 JUMPDEST POP POP POP POP POP DUP2 MSTORE PUSH1 0x20 ADD PUSH1 0x2 DUP3 ADD DUP1 SLOAD PUSH2 0x82B SWAP1 PUSH2 0x1B37 JUMP JUMPDEST DUP1 PUSH1 0x1F ADD PUSH1 0x20 DUP1 SWAP2 DIV MUL PUSH1 0x20 ADD PUSH1 0x40 MLOAD SWAP1 DUP2 ADD PUSH1 0x40 MSTORE DUP1 SWAP3 SWAP2 SWAP1 DUP2 DUP2 MSTORE PUSH1 0x20 ADD DUP3 DUP1 SLOAD PUSH2 0x857 SWAP1 PUSH2 0x1B37 JUMP JUMPDEST DUP1 ISZERO PUSH2 0x8A4 JUMPI DUP1 PUSH1 0x1F LT PUSH2 0x879 JUMPI PUSH2 0x100 DUP1 DUP4 SLOAD DIV MUL DUP4 MSTORE SWAP2 PUSH1 0x20 ADD SWAP2 PUSH2 0x8A4 JUMP JUMPDEST DUP3 ADD SWAP2 SWAP1 PUSH1 0x0 MSTORE PUSH1 0x20 PUSH1 0x0 KECCAK256 SWAP1 JUMPDEST DUP2 SLOAD DUP2 MSTORE SWAP1 PUSH1 0x1 ADD SWAP1 PUSH1 0x20 ADD DUP1 DUP4 GT PUSH2 0x887 JUMPI DUP3 SWAP1 SUB PUSH1 0x1F AND DUP3 ADD SWAP2 JUMPDEST POP POP POP POP POP DUP2 MSTORE PUSH1 0x20 ADD PUSH1 0x3 DUP3 ADD PUSH1 0x0 SWAP1 SLOAD SWAP1 PUSH2 0x100 EXP SWAP1 DIV PUSH20 0xFFFFFFFFFFFFFFFFFFFFFFFFFFFFFFFFFFFFFFFF AND PUSH20 0xFFFFFFFFFFFFFFFFFFFFFFFFFFFFFFFFFFFFFFFF AND PUSH20 0xFFFFFFFFFFFFFFFFFFFFFFFFFFFFFFFFFFFFFFFF AND DUP2 MSTORE PUSH1 0x20 ADD PUSH1 0x4 DUP3 ADD DUP1 SLOAD DUP1 PUSH1 0x20 MUL PUSH1 0x20 ADD PUSH1 0x40 MLOAD SWAP1 DUP2 ADD PUSH1 0x40 MSTORE DUP1 SWAP3 SWAP2 SWAP1 DUP2 DUP2 MSTORE PUSH1 0x20 ADD PUSH1 0x0 SWAP1 JUMPDEST DUP3 DUP3 LT ISZERO PUSH2 0x9D4 JUMPI DUP4 DUP3 SWAP1 PUSH1 0x0 MSTORE PUSH1 0x20 PUSH1 0x0 KECCAK256 ADD DUP1 SLOAD PUSH2 0x947 SWAP1 PUSH2 0x1B37 JUMP JUMPDEST DUP1 PUSH1 0x1F ADD PUSH1 0x20 DUP1 SWAP2 DIV MUL PUSH1 0x20 ADD PUSH1 0x40 MLOAD SWAP1 DUP2 ADD PUSH1 0x40 MSTORE DUP1 SWAP3 SWAP2 SWAP1 DUP2 DUP2 MSTORE PUSH1 0x20 ADD DUP3 DUP1 SLOAD PUSH2 0x973 SWAP1 PUSH2 0x1B37 JUMP JUMPDEST DUP1 ISZERO PUSH2 0x9C0 JUMPI DUP1 PUSH1 0x1F LT PUSH2 0x995 JUMPI PUSH2 0x100 DUP1 DUP4 SLOAD DIV MUL DUP4 MSTORE SWAP2 PUSH1 0x20 ADD SWAP2 PUSH2 0x9C0 JUMP JUMPDEST DUP3 ADD SWAP2 SWAP1 PUSH1 0x0 MSTORE PUSH1 0x20 PUSH1 0x0 KECCAK256 SWAP1 JUMPDEST DUP2 SLOAD DUP2 MSTORE SWAP1 PUSH1 0x1 ADD SWAP1 PUSH1 0x20 ADD DUP1 DUP4 GT PUSH2 0x9A3 JUMPI DUP3 SWAP1 SUB PUSH1 0x1F AND DUP3 ADD SWAP2 JUMPDEST POP POP POP POP POP DUP2 MSTORE PUSH1 0x20 ADD SWAP1 PUSH1 0x1 ADD SWAP1 PUSH2 0x928 JUMP JUMPDEST POP POP POP POP DUP2 MSTORE PUSH1 0x20 ADD PUSH1 0x5 DUP3 ADD PUSH1 0x0 SWAP1 SLOAD SWAP1 PUSH2 0x100 EXP SWAP1 DIV PUSH1 0xFF AND PUSH1 0x1 DUP2 GT ISZERO PUSH2 0xA01 JUMPI PUSH2 0xA00 PUSH2 0x1B9A JUMP JUMPDEST JUMPDEST PUSH1 0x1 DUP2 GT ISZERO PUSH2 0xA13 JUMPI PUSH2 0xA12 PUSH2 0x1B9A JUMP JUMPDEST JUMPDEST DUP2 MSTORE POP POP SWAP1 POP SWAP2 SWAP1 POP JUMP JUMPDEST PUSH1 0x2 DUP2 DUP2 SLOAD DUP2 LT PUSH2 0xA2E JUMPI PUSH1 0x0 DUP1 REVERT JUMPDEST SWAP1 PUSH1 0x0 MSTORE PUSH1 0x20 PUSH1 0x0 KECCAK256 ADD PUSH1 0x0 SWAP2 POP SLOAD SWAP1 PUSH2 0x100 EXP SWAP1 DIV PUSH20 0xFFFFFFFFFFFFFFFFFFFFFFFFFFFFFFFFFFFFFFFF AND DUP2 JUMP JUMPDEST PUSH2 0xA65 PUSH2 0x136F JUMP JUMPDEST PUSH1 0x1 PUSH1 0x0 DUP4 PUSH20 0xFFFFFFFFFFFFFFFFFFFFFFFFFFFFFFFFFFFFFFFF AND PUSH20 0xFFFFFFFFFFFFFFFFFFFFFFFFFFFFFFFFFFFFFFFF AND DUP2 MSTORE PUSH1 0x20 ADD SWAP1 DUP2 MSTORE PUSH1 0x20 ADD PUSH1 0x0 KECCAK256 PUSH1 0x40 MLOAD DUP1 PUSH1 0xC0 ADD PUSH1 0x40 MSTORE SWAP1 DUP2 PUSH1 0x0 DUP3 ADD DUP1 SLOAD PUSH2 0xABF SWAP1 PUSH2 0x1B37 JUMP JUMPDEST DUP1 PUSH1 0x1F ADD PUSH1 0x20 DUP1 SWAP2 DIV MUL PUSH1 0x20 ADD PUSH1 0x40 MLOAD SWAP1 DUP2 ADD PUSH1 0x40 MSTORE DUP1 SWAP3 SWAP2 SWAP1 DUP2 DUP2 MSTORE PUSH1 0x20 ADD DUP3 DUP1 SLOAD PUSH2 0xAEB SWAP1 PUSH2 0x1B37 JUMP JUMPDEST DUP1 ISZERO PUSH2 0xB38 JUMPI DUP1 PUSH1 0x1F LT PUSH2 0xB0D JUMPI PUSH2 0x100 DUP1 DUP4 SLOAD DIV MUL DUP4 MSTORE SWAP2 PUSH1 0x20 ADD SWAP2 PUSH2 0xB38 JUMP JUMPDEST DUP3 ADD SWAP2 SWAP1 PUSH1 0x0 MSTORE PUSH1 0x20 PUSH1 0x0 KECCAK256 SWAP1 JUMPDEST DUP2 SLOAD DUP2 MSTORE SWAP1 PUSH1 0x1 ADD SWAP1 PUSH1 0x20 ADD DUP1 DUP4 GT PUSH2 0xB1B JUMPI DUP3 SWAP1 SUB PUSH1 0x1F AND DUP3 ADD SWAP2 JUMPDEST POP POP POP POP POP DUP2 MSTORE PUSH1 0x20 ADD PUSH1 0x1 DUP3 ADD DUP1 SLOAD PUSH2 0xB51 SWAP1 PUSH2 0x1B37 JUMP JUMPDEST DUP1 PUSH1 0x1F ADD PUSH1 0x20 DUP1 SWAP2 DIV MUL PUSH1 0x20 ADD PUSH1 0x40 MLOAD SWAP1 DUP2 ADD PUSH1 0x40 MSTORE DUP1 SWAP3 SWAP2 SWAP1 DUP2 DUP2 MSTORE PUSH1 0x20 ADD DUP3 DUP1 SLOAD PUSH2 0xB7D SWAP1 PUSH2 0x1B37 JUMP JUMPDEST DUP1 ISZERO PUSH2 0xBCA JUMPI DUP1 PUSH1 0x1F LT PUSH2 0xB9F JUMPI PUSH2 0x100 DUP1 DUP4 SLOAD DIV MUL DUP4 MSTORE SWAP2 PUSH1 0x20 ADD SWAP2 PUSH2 0xBCA JUMP JUMPDEST DUP3 ADD SWAP2 SWAP1 PUSH1 0x0 MSTORE PUSH1 0x20 PUSH1 0x0 KECCAK256 SWAP1 JUMPDEST DUP2 SLOAD DUP2 MSTORE SWAP1 PUSH1 0x1 ADD SWAP1 PUSH1 0x20 ADD DUP1 DUP4 GT PUSH2 0xBAD JUMPI DUP3 SWAP1 SUB PUSH1 0x1F AND DUP3 ADD SWAP2 JUMPDEST POP POP POP POP POP DUP2 MSTORE PUSH1 0x20 ADD PUSH1 0x2 DUP3 ADD DUP1 SLOAD PUSH2 0xBE3 SWAP1 PUSH2 0x1B37 JUMP JUMPDEST DUP1 PUSH1 0x1F ADD PUSH1 0x20 DUP1 SWAP2 DIV MUL PUSH1 0x20 ADD PUSH1 0x40 MLOAD SWAP1 DUP2 ADD PUSH1 0x40 MSTORE DUP1 SWAP3 SWAP2 SWAP1 DUP2 DUP2 MSTORE PUSH1 0x20 ADD DUP3 DUP1 SLOAD PUSH2 0xC0F SWAP1 PUSH2 0x1B37 JUMP JUMPDEST DUP1 ISZERO PUSH2 0xC5C JUMPI DUP1 PUSH1 0x1F LT PUSH2 0xC31 JUMPI PUSH2 0x100 DUP1 DUP4 SLOAD DIV MUL DUP4 MSTORE SWAP2 PUSH1 0x20 ADD SWAP2 PUSH2 0xC5C JUMP JUMPDEST DUP3 ADD SWAP2 SWAP1 PUSH1 0x0 MSTORE PUSH1 0x20 PUSH1 0x0 KECCAK256 SWAP1 JUMPDEST DUP2 SLOAD DUP2 MSTORE SWAP1 PUSH1 0x1 ADD SWAP1 PUSH1 0x20 ADD DUP1 DUP4 GT PUSH2 0xC3F JUMPI DUP3 SWAP1 SUB PUSH1 0x1F AND DUP3 ADD SWAP2 JUMPDEST POP POP POP POP POP DUP2 MSTORE PUSH1 0x20 ADD PUSH1 0x3 DUP3 ADD PUSH1 0x0 SWAP1 SLOAD SWAP1 PUSH2 0x100 EXP SWAP1 DIV PUSH20 0xFFFFFFFFFFFFFFFFFFFFFFFFFFFFFFFFFFFFFFFF AND PUSH20 0xFFFFFFFFFFFFFFFFFFFFFFFFFFFFFFFFFFFFFFFF AND PUSH20 0xFFFFFFFFFFFFFFFFFFFFFFFFFFFFFFFFFFFFFFFF AND DUP2 MSTORE PUSH1 0x20 ADD PUSH1 0x4 DUP3 ADD DUP1 SLOAD DUP1 PUSH1 0x20 MUL PUSH1 0x20 ADD PUSH1 0x40 MLOAD SWAP1 DUP2 ADD PUSH1 0x40 MSTORE DUP1 SWAP3 SWAP2 SWAP1 DUP2 DUP2 MSTORE PUSH1 0x20 ADD PUSH1 0x0 SWAP1 JUMPDEST DUP3 DUP3 LT ISZERO PUSH2 0xD8C JUMPI DUP4 DUP3 SWAP1 PUSH1 0x0 MSTORE PUSH1 0x20 PUSH1 0x0 KECCAK256 ADD DUP1 SLOAD PUSH2 0xCFF SWAP1 PUSH2 0x1B37 JUMP JUMPDEST DUP1 PUSH1 0x1F ADD PUSH1 0x20 DUP1 SWAP2 DIV MUL PUSH1 0x20 ADD PUSH1 0x40 MLOAD SWAP1 DUP2 ADD PUSH1 0x40 MSTORE DUP1 SWAP3 SWAP2 SWAP1 DUP2 DUP2 MSTORE PUSH1 0x20 ADD DUP3 DUP1 SLOAD PUSH2 0xD2B SWAP1 PUSH2 0x1B37 JUMP JUMPDEST DUP1 ISZERO PUSH2 0xD78 JUMPI DUP1 PUSH1 0x1F LT PUSH2 0xD4D JUMPI PUSH2 0x100 DUP1 DUP4 SLOAD DIV MUL DUP4 MSTORE SWAP2 PUSH1 0x20 ADD SWAP2 PUSH2 0xD78 JUMP JUMPDEST DUP3 ADD SWAP2 SWAP1 PUSH1 0x0 MSTORE PUSH1 0x20 PUSH1 0x0 KECCAK256 SWAP1 JUMPDEST DUP2 SLOAD DUP2 MSTORE SWAP1 PUSH1 0x1 ADD SWAP1 PUSH1 0x20 ADD DUP1 DUP4 GT PUSH2 0xD5B JUMPI DUP3 SWAP1 SUB PUSH1 0x1F AND DUP3 ADD SWAP2 JUMPDEST POP POP POP POP POP DUP2 MSTORE PUSH1 0x20 ADD SWAP1 PUSH1 0x1 ADD SWAP1 PUSH2 0xCE0 JUMP JUMPDEST POP POP POP POP DUP2 MSTORE PUSH1 0x20 ADD PUSH1 0x5 DUP3 ADD PUSH1 0x0 SWAP1 SLOAD SWAP1 PUSH2 0x100 EXP SWAP1 DIV PUSH1 0xFF AND PUSH1 0x1 DUP2 GT ISZERO PUSH2 0xDB9 JUMPI PUSH2 0xDB8 PUSH2 0x1B9A JUMP JUMPDEST JUMPDEST PUSH1 0x1 DUP2 GT ISZERO PUSH2 0xDCB JUMPI PUSH2 0xDCA PUSH2 0x1B9A JUMP JUMPDEST JUMPDEST DUP2 MSTORE POP POP SWAP1 POP SWAP2 SWAP1 POP JUMP JUMPDEST PUSH1 0x4 DUP2 DUP2 SLOAD DUP2 LT PUSH2 0xDE6 JUMPI PUSH1 0x0 DUP1 REVERT JUMPDEST SWAP1 PUSH1 0x0 MSTORE PUSH1 0x20 PUSH1 0x0 KECCAK256 ADD PUSH1 0x0 SWAP2 POP SLOAD SWAP1 PUSH2 0x100 EXP SWAP1 DIV PUSH20 0xFFFFFFFFFFFFFFFFFFFFFFFFFFFFFFFFFFFFFFFF AND DUP2 JUMP JUMPDEST PUSH1 0x3 PUSH1 0x20 MSTORE DUP1 PUSH1 0x0 MSTORE PUSH1 0x40 PUSH1 0x0 KECCAK256 PUSH1 0x0 SWAP2 POP SWAP1 POP DUP1 PUSH1 0x0 ADD DUP1 SLOAD PUSH2 0xE38 SWAP1 PUSH2 0x1B37 JUMP JUMPDEST DUP1 PUSH1 0x1F ADD PUSH1 0x20 DUP1 SWAP2 DIV MUL PUSH1 0x20 ADD PUSH1 0x40 MLOAD SWAP1 DUP2 ADD PUSH1 0x40 MSTORE DUP1 SWAP3 SWAP2 SWAP1 DUP2 DUP2 MSTORE PUSH1 0x20 ADD DUP3 DUP1 SLOAD PUSH2 0xE64 SWAP1 PUSH2 0x1B37 JUMP JUMPDEST DUP1 ISZERO PUSH2 0xEB1 JUMPI DUP1 PUSH1 0x1F LT PUSH2 0xE86 JUMPI PUSH2 0x100 DUP1 DUP4 SLOAD DIV MUL DUP4 MSTORE SWAP2 PUSH1 0x20 ADD SWAP2 PUSH2 0xEB1 JUMP JUMPDEST DUP3 ADD SWAP2 SWAP1 PUSH1 0x0 MSTORE PUSH1 0x20 PUSH1 0x0 KECCAK256 SWAP1 JUMPDEST DUP2 SLOAD DUP2 MSTORE SWAP1 PUSH1 0x1 ADD SWAP1 PUSH1 0x20 ADD DUP1 DUP4 GT PUSH2 0xE94 JUMPI DUP3 SWAP1 SUB PUSH1 0x1F AND DUP3 ADD SWAP2 JUMPDEST POP POP POP POP POP SWAP1 DUP1 PUSH1 0x1 ADD DUP1 SLOAD PUSH2 0xEC6 SWAP1 PUSH2 0x1B37 JUMP JUMPDEST DUP1 PUSH1 0x1F ADD PUSH1 0x20 DUP1 SWAP2 DIV MUL PUSH1 0x20 ADD PUSH1 0x40 MLOAD SWAP1 DUP2 ADD PUSH1 0x40 MSTORE DUP1 SWAP3 SWAP2 SWAP1 DUP2 DUP2 MSTORE PUSH1 0x20 ADD DUP3 DUP1 SLOAD PUSH2 0xEF2 SWAP1 PUSH2 0x1B37 JUMP JUMPDEST DUP1 ISZERO PUSH2 0xF3F JUMPI DUP1 PUSH1 0x1F LT PUSH2 0xF14 JUMPI PUSH2 0x100 DUP1 DUP4 SLOAD DIV MUL DUP4 MSTORE SWAP2 PUSH1 0x20 ADD SWAP2 PUSH2 0xF3F JUMP JUMPDEST DUP3 ADD SWAP2 SWAP1 PUSH1 0x0 MSTORE PUSH1 0x20 PUSH1 0x0 KECCAK256 SWAP1 JUMPDEST DUP2 SLOAD DUP2 MSTORE SWAP1 PUSH1 0x1 ADD SWAP1 PUSH1 0x20 ADD DUP1 DUP4 GT PUSH2 0xF22 JUMPI DUP3 SWAP1 SUB PUSH1 0x1F AND DUP3 ADD SWAP2 JUMPDEST POP POP POP POP POP SWAP1 DUP1 PUSH1 0x2 ADD DUP1 SLOAD PUSH2 0xF54 SWAP1 PUSH2 0x1B37 JUMP JUMPDEST DUP1 PUSH1 0x1F ADD PUSH1 0x20 DUP1 SWAP2 DIV MUL PUSH1 0x20 ADD PUSH1 0x40 MLOAD SWAP1 DUP2 ADD PUSH1 0x40 MSTORE DUP1 SWAP3 SWAP2 SWAP1 DUP2 DUP2 MSTORE PUSH1 0x20 ADD DUP3 DUP1 SLOAD PUSH2 0xF80 SWAP1 PUSH2 0x1B37 JUMP JUMPDEST DUP1 ISZERO PUSH2 0xFCD JUMPI DUP1 PUSH1 0x1F LT PUSH2 0xFA2 JUMPI PUSH2 0x100 DUP1 DUP4 SLOAD DIV MUL DUP4 MSTORE SWAP2 PUSH1 0x20 ADD SWAP2 PUSH2 0xFCD JUMP JUMPDEST DUP3 ADD SWAP2 SWAP1 PUSH1 0x0 MSTORE PUSH1 0x20 PUSH1 0x0 KECCAK256 SWAP1 JUMPDEST DUP2 SLOAD DUP2 MSTORE SWAP1 PUSH1 0x1 ADD SWAP1 PUSH1 0x20 ADD DUP1 DUP4 GT PUSH2 0xFB0 JUMPI DUP3 SWAP1 SUB PUSH1 0x1F AND DUP3 ADD SWAP2 JUMPDEST POP POP POP POP POP SWAP1 DUP1 PUSH1 0x3 ADD PUSH1 0x0 SWAP1 SLOAD SWAP1 PUSH2 0x100 EXP SWAP1 DIV PUSH20 0xFFFFFFFFFFFFFFFFFFFFFFFFFFFFFFFFFFFFFFFF AND SWAP1 DUP1 PUSH1 0x5 ADD PUSH1 0x0 SWAP1 SLOAD SWAP1 PUSH2 0x100 EXP SWAP1 DIV PUSH1 0xFF AND SWAP1 POP DUP6 JUMP JUMPDEST PUSH1 0x1 PUSH1 0x20 MSTORE DUP1 PUSH1 0x0 MSTORE PUSH1 0x40 PUSH1 0x0 KECCAK256 PUSH1 0x0 SWAP2 POP SWAP1 POP DUP1 PUSH1 0x0 ADD DUP1 SLOAD PUSH2 0x1033 SWAP1 PUSH2 0x1B37 JUMP JUMPDEST DUP1 PUSH1 0x1F ADD PUSH1 0x20 DUP1 SWAP2 DIV MUL PUSH1 0x20 ADD PUSH1 0x40 MLOAD SWAP1 DUP2 ADD PUSH1 0x40 MSTORE DUP1 SWAP3 SWAP2 SWAP1 DUP2 DUP2 MSTORE PUSH1 0x20 ADD DUP3 DUP1 SLOAD PUSH2 0x105F SWAP1 PUSH2 0x1B37 JUMP JUMPDEST DUP1 ISZERO PUSH2 0x10AC JUMPI DUP1 PUSH1 0x1F LT PUSH2 0x1081 JUMPI PUSH2 0x100 DUP1 DUP4 SLOAD DIV MUL DUP4 MSTORE SWAP2 PUSH1 0x20 ADD SWAP2 PUSH2 0x10AC JUMP JUMPDEST DUP3 ADD SWAP2 SWAP1 PUSH1 0x0 MSTORE PUSH1 0x20 PUSH1 0x0 KECCAK256 SWAP1 JUMPDEST DUP2 SLOAD DUP2 MSTORE SWAP1 PUSH1 0x1 ADD SWAP1 PUSH1 0x20 ADD DUP1 DUP4 GT PUSH2 0x108F JUMPI DUP3 SWAP1 SUB PUSH1 0x1F AND DUP3 ADD SWAP2 JUMPDEST POP POP POP POP POP SWAP1 DUP1 PUSH1 0x1 ADD DUP1 SLOAD PUSH2 0x10C1 SWAP1 PUSH2 0x1B37 JUMP JUMPDEST DUP1 PUSH1 0x1F ADD PUSH1 0x20 DUP1 SWAP2 DIV MUL PUSH1 0x20 ADD PUSH1 0x40 MLOAD SWAP1 DUP2 ADD PUSH1 0x40 MSTORE DUP1 SWAP3 SWAP2 SWAP1 DUP2 DUP2 MSTORE PUSH1 0x20 ADD DUP3 DUP1 SLOAD PUSH2 0x10ED SWAP1 PUSH2 0x1B37 JUMP JUMPDEST DUP1 ISZERO PUSH2 0x113A JUMPI DUP1 PUSH1 0x1F LT PUSH2 0x110F JUMPI PUSH2 0x100 DUP1 DUP4 SLOAD DIV MUL DUP4 MSTORE SWAP2 PUSH1 0x20 ADD SWAP2 PUSH2 0x113A JUMP JUMPDEST DUP3 ADD SWAP2 SWAP1 PUSH1 0x0 MSTORE PUSH1 0x20 PUSH1 0x0 KECCAK256 SWAP1 JUMPDEST DUP2 SLOAD DUP2 MSTORE SWAP1 PUSH1 0x1 ADD SWAP1 PUSH1 0x20 ADD DUP1 DUP4 GT PUSH2 0x111D JUMPI DUP3 SWAP1 SUB PUSH1 0x1F AND DUP3 ADD SWAP2 JUMPDEST POP POP POP POP POP SWAP1 DUP1 PUSH1 0x2 ADD DUP1 SLOAD PUSH2 0x114F SWAP1 PUSH2 0x1B37 JUMP JUMPDEST DUP1 PUSH1 0x1F ADD PUSH1 0x20 DUP1 SWAP2 DIV MUL PUSH1 0x20 ADD PUSH1 0x40 MLOAD SWAP1 DUP2 ADD PUSH1 0x40 MSTORE DUP1 SWAP3 SWAP2 SWAP1 DUP2 DUP2 MSTORE PUSH1 0x20 ADD DUP3 DUP1 SLOAD PUSH2 0x117B SWAP1 PUSH2 0x1B37 JUMP JUMPDEST DUP1 ISZERO PUSH2 0x11C8 JUMPI DUP1 PUSH1 0x1F LT PUSH2 0x119D JUMPI PUSH2 0x100 DUP1 DUP4 SLOAD DIV MUL DUP4 MSTORE SWAP2 PUSH1 0x20 ADD SWAP2 PUSH2 0x11C8 JUMP JUMPDEST DUP3 ADD SWAP2 SWAP1 PUSH1 0x0 MSTORE PUSH1 0x20 PUSH1 0x0 KECCAK256 SWAP1 JUMPDEST DUP2 SLOAD DUP2 MSTORE SWAP1 PUSH1 0x1 ADD SWAP1 PUSH1 0x20 ADD DUP1 DUP4 GT PUSH2 0x11AB JUMPI DUP3 SWAP1 SUB PUSH1 0x1F AND DUP3 ADD SWAP2 JUMPDEST POP POP POP POP POP SWAP1 DUP1 PUSH1 0x3 ADD PUSH1 0x0 SWAP1 SLOAD SWAP1 PUSH2 0x100 EXP SWAP1 DIV PUSH20 0xFFFFFFFFFFFFFFFFFFFFFFFFFFFFFFFFFFFFFFFF AND SWAP1 DUP1 PUSH1 0x5 ADD PUSH1 0x0 SWAP1 SLOAD SWAP1 PUSH2 0x100 EXP SWAP1 DIV PUSH1 0xFF AND SWAP1 POP DUP6 JUMP JUMPDEST PUSH1 0x5 DUP2 DUP1 MLOAD PUSH1 0x20 DUP2 ADD DUP3 ADD DUP1 MLOAD DUP5 DUP3 MSTORE PUSH1 0x20 DUP4 ADD PUSH1 0x20 DUP6 ADD KECCAK256 DUP2 DUP4 MSTORE DUP1 SWAP6 POP POP POP POP POP POP PUSH1 0x0 SWAP2 POP SWAP1 POP DUP1 PUSH1 0x0 ADD PUSH1 0x0 SWAP1 SLOAD SWAP1 PUSH2 0x100 EXP SWAP1 DIV PUSH20 0xFFFFFFFFFFFFFFFFFFFFFFFFFFFFFFFFFFFFFFFF AND SWAP1 DUP1 PUSH1 0x1 ADD PUSH1 0x0 SWAP1 SLOAD SWAP1 PUSH2 0x100 EXP SWAP1 DIV PUSH20 0xFFFFFFFFFFFFFFFFFFFFFFFFFFFFFFFFFFFFFFFF AND SWAP1 DUP1 PUSH1 0x2 ADD SLOAD SWAP1 POP DUP4 JUMP JUMPDEST DUP3 DUP1 SLOAD PUSH2 0x1297 SWAP1 PUSH2 0x1B37 JUMP JUMPDEST SWAP1 PUSH1 0x0 MSTORE PUSH1 0x20 PUSH1 0x0 KECCAK256 SWAP1 PUSH1 0x1F ADD PUSH1 0x20 SWAP1 DIV DUP2 ADD SWAP3 DUP3 PUSH2 0x12B9 JUMPI PUSH1 0x0 DUP6 SSTORE PUSH2 0x1300 JUMP JUMPDEST DUP3 PUSH1 0x1F LT PUSH2 0x12D2 JUMPI DUP1 MLOAD PUSH1 0xFF NOT AND DUP4 DUP1 ADD OR DUP6 SSTORE PUSH2 0x1300 JUMP JUMPDEST DUP3 DUP1 ADD PUSH1 0x1 ADD DUP6 SSTORE DUP3 ISZERO PUSH2 0x1300 JUMPI SWAP2 DUP3 ADD JUMPDEST DUP3 DUP2 GT ISZERO PUSH2 0x12FF JUMPI DUP3 MLOAD DUP3 SSTORE SWAP2 PUSH1 0x20 ADD SWAP2 SWAP1 PUSH1 0x1 ADD SWAP1 PUSH2 0x12E4 JUMP JUMPDEST JUMPDEST POP SWAP1 POP PUSH2 0x130D SWAP2 SWAP1 PUSH2 0x13CD JUMP JUMPDEST POP SWAP1 JUMP JUMPDEST PUSH1 0x40 MLOAD DUP1 PUSH1 0xC0 ADD PUSH1 0x40 MSTORE DUP1 PUSH1 0x60 DUP2 MSTORE PUSH1 0x20 ADD PUSH1 0x60 DUP2 MSTORE PUSH1 0x20 ADD PUSH1 0x60 DUP2 MSTORE PUSH1 0x20 ADD PUSH1 0x0 PUSH20 0xFFFFFFFFFFFFFFFFFFFFFFFFFFFFFFFFFFFFFFFF AND DUP2 MSTORE PUSH1 0x20 ADD PUSH1 0x60 DUP2 MSTORE PUSH1 0x20 ADD PUSH1 0x0 PUSH1 0x1 DUP2 GT ISZERO PUSH2 0x1369 JUMPI PUSH2 0x1368 PUSH2 0x1B9A JUMP JUMPDEST JUMPDEST DUP2 MSTORE POP SWAP1 JUMP JUMPDEST PUSH1 0x40 MLOAD DUP1 PUSH1 0xC0 ADD PUSH1 0x40 MSTORE DUP1 PUSH1 0x60 DUP2 MSTORE PUSH1 0x20 ADD PUSH1 0x60 DUP2 MSTORE PUSH1 0x20 ADD PUSH1 0x60 DUP2 MSTORE PUSH1 0x20 ADD PUSH1 0x0 PUSH20 0xFFFFFFFFFFFFFFFFFFFFFFFFFFFFFFFFFFFFFFFF AND DUP2 MSTORE PUSH1 0x20 ADD PUSH1 0x60 DUP2 MSTORE PUSH1 0x20 ADD PUSH1 0x0 PUSH1 0x1 DUP2 GT ISZERO PUSH2 0x13C7 JUMPI PUSH2 0x13C6 PUSH2 0x1B9A JUMP JUMPDEST JUMPDEST DUP2 MSTORE POP SWAP1 JUMP JUMPDEST JUMPDEST DUP1 DUP3 GT ISZERO PUSH2 0x13E6 JUMPI PUSH1 0x0 DUP2 PUSH1 0x0 SWAP1 SSTORE POP PUSH1 0x1 ADD PUSH2 0x13CE JUMP JUMPDEST POP SWAP1 JUMP JUMPDEST PUSH1 0x0 PUSH2 0x13FD PUSH2 0x13F8 DUP5 PUSH2 0x19EB JUMP JUMPDEST PUSH2 0x19C6 JUMP JUMPDEST SWAP1 POP DUP3 DUP2 MSTORE PUSH1 0x20 DUP2 ADD DUP5 DUP5 DUP5 ADD GT ISZERO PUSH2 0x1419 JUMPI PUSH2 0x1418 PUSH2 0x1C2C JUMP JUMPDEST JUMPDEST PUSH2 0x1424 DUP5 DUP3 DUP6 PUSH2 0x1AF5 JUMP JUMPDEST POP SWAP4 SWAP3 POP POP POP JUMP JUMPDEST PUSH1 0x0 DUP2 CALLDATALOAD SWAP1 POP PUSH2 0x143B DUP2 PUSH2 0x1C60 JUMP JUMPDEST SWAP3 SWAP2 POP POP JUMP JUMPDEST PUSH1 0x0 DUP2 CALLDATALOAD SWAP1 POP PUSH2 0x1450 DUP2 PUSH2 0x1C77 JUMP JUMPDEST SWAP3 SWAP2 POP POP JUMP JUMPDEST PUSH1 0x0 DUP3 PUSH1 0x1F DUP4 ADD SLT PUSH2 0x146B JUMPI PUSH2 0x146A PUSH2 0x1C27 JUMP JUMPDEST JUMPDEST DUP2 CALLDATALOAD PUSH2 0x147B DUP5 DUP3 PUSH1 0x20 DUP7 ADD PUSH2 0x13EA JUMP JUMPDEST SWAP2 POP POP SWAP3 SWAP2 POP POP JUMP JUMPDEST PUSH1 0x0 DUP2 CALLDATALOAD SWAP1 POP PUSH2 0x1493 DUP2 PUSH2 0x1C8E JUMP JUMPDEST SWAP3 SWAP2 POP POP JUMP JUMPDEST PUSH1 0x0 PUSH1 0x20 DUP3 DUP5 SUB SLT ISZERO PUSH2 0x14AF JUMPI PUSH2 0x14AE PUSH2 0x1C36 JUMP JUMPDEST JUMPDEST PUSH1 0x0 PUSH2 0x14BD DUP5 DUP3 DUP6 ADD PUSH2 0x142C JUMP JUMPDEST SWAP2 POP POP SWAP3 SWAP2 POP POP JUMP JUMPDEST PUSH1 0x0 PUSH1 0x20 DUP3 DUP5 SUB SLT ISZERO PUSH2 0x14DC JUMPI PUSH2 0x14DB PUSH2 0x1C36 JUMP JUMPDEST JUMPDEST PUSH1 0x0 PUSH2 0x14EA DUP5 DUP3 DUP6 ADD PUSH2 0x1441 JUMP JUMPDEST SWAP2 POP POP SWAP3 SWAP2 POP POP JUMP JUMPDEST PUSH1 0x0 PUSH1 0x20 DUP3 DUP5 SUB SLT ISZERO PUSH2 0x1509 JUMPI PUSH2 0x1508 PUSH2 0x1C36 JUMP JUMPDEST JUMPDEST PUSH1 0x0 DUP3 ADD CALLDATALOAD PUSH8 0xFFFFFFFFFFFFFFFF DUP2 GT ISZERO PUSH2 0x1527 JUMPI PUSH2 0x1526 PUSH2 0x1C31 JUMP JUMPDEST JUMPDEST PUSH2 0x1533 DUP5 DUP3 DUP6 ADD PUSH2 0x1456 JUMP JUMPDEST SWAP2 POP POP SWAP3 SWAP2 POP POP JUMP JUMPDEST PUSH1 0x0 DUP1 PUSH1 0x0 DUP1 PUSH1 0x80 DUP6 DUP8 SUB SLT ISZERO PUSH2 0x1556 JUMPI PUSH2 0x1555 PUSH2 0x1C36 JUMP JUMPDEST JUMPDEST PUSH1 0x0 DUP6 ADD CALLDATALOAD PUSH8 0xFFFFFFFFFFFFFFFF DUP2 GT ISZERO PUSH2 0x1574 JUMPI PUSH2 0x1573 PUSH2 0x1C31 JUMP JUMPDEST JUMPDEST PUSH2 0x1580 DUP8 DUP3 DUP9 ADD PUSH2 0x1456 JUMP JUMPDEST SWAP5 POP POP PUSH1 0x20 DUP6 ADD CALLDATALOAD PUSH8 0xFFFFFFFFFFFFFFFF DUP2 GT ISZERO PUSH2 0x15A1 JUMPI PUSH2 0x15A0 PUSH2 0x1C31 JUMP JUMPDEST JUMPDEST PUSH2 0x15AD DUP8 DUP3 DUP9 ADD PUSH2 0x1456 JUMP JUMPDEST SWAP4 POP POP PUSH1 0x40 DUP6 ADD CALLDATALOAD PUSH8 0xFFFFFFFFFFFFFFFF DUP2 GT ISZERO PUSH2 0x15CE JUMPI PUSH2 0x15CD PUSH2 0x1C31 JUMP JUMPDEST JUMPDEST PUSH2 0x15DA DUP8 DUP3 DUP9 ADD PUSH2 0x1456 JUMP JUMPDEST SWAP3 POP POP PUSH1 0x60 PUSH2 0x15EB DUP8 DUP3 DUP9 ADD PUSH2 0x1484 JUMP JUMPDEST SWAP2 POP POP SWAP3 SWAP6 SWAP2 SWAP5 POP SWAP3 POP JUMP JUMPDEST PUSH1 0x0 PUSH1 0x20 DUP3 DUP5 SUB SLT ISZERO PUSH2 0x160D JUMPI PUSH2 0x160C PUSH2 0x1C36 JUMP JUMPDEST JUMPDEST PUSH1 0x0 PUSH2 0x161B DUP5 DUP3 DUP6 ADD PUSH2 0x1484 JUMP JUMPDEST SWAP2 POP POP SWAP3 SWAP2 POP POP JUMP JUMPDEST PUSH1 0x0 PUSH2 0x1630 DUP4 DUP4 PUSH2 0x16E9 JUMP JUMPDEST SWAP1 POP SWAP3 SWAP2 POP POP JUMP JUMPDEST PUSH2 0x1641 DUP2 PUSH2 0x1A94 JUMP JUMPDEST DUP3 MSTORE POP POP JUMP JUMPDEST PUSH2 0x1650 DUP2 PUSH2 0x1A94 JUMP JUMPDEST DUP3 MSTORE POP POP JUMP JUMPDEST PUSH1 0x0 PUSH2 0x1661 DUP3 PUSH2 0x1A2C JUMP JUMPDEST PUSH2 0x166B DUP2 DUP6 PUSH2 0x1A4F JUMP JUMPDEST SWAP4 POP DUP4 PUSH1 0x20 DUP3 MUL DUP6 ADD PUSH2 0x167D DUP6 PUSH2 0x1A1C JUMP JUMPDEST DUP1 PUSH1 0x0 JUMPDEST DUP6 DUP2 LT ISZERO PUSH2 0x16B9 JUMPI DUP5 DUP5 SUB DUP10 MSTORE DUP2 MLOAD PUSH2 0x169A DUP6 DUP3 PUSH2 0x1624 JUMP JUMPDEST SWAP5 POP PUSH2 0x16A5 DUP4 PUSH2 0x1A42 JUMP JUMPDEST SWAP3 POP PUSH1 0x20 DUP11 ADD SWAP10 POP POP PUSH1 0x1 DUP2 ADD SWAP1 POP PUSH2 0x1681 JUMP JUMPDEST POP DUP3 SWAP8 POP DUP8 SWAP6 POP POP POP POP POP POP SWAP3 SWAP2 POP POP JUMP JUMPDEST PUSH2 0x16D4 DUP2 PUSH2 0x1AE3 JUMP JUMPDEST DUP3 MSTORE POP POP JUMP JUMPDEST PUSH2 0x16E3 DUP2 PUSH2 0x1AE3 JUMP JUMPDEST DUP3 MSTORE POP POP JUMP JUMPDEST PUSH1 0x0 PUSH2 0x16F4 DUP3 PUSH2 0x1A37 JUMP JUMPDEST PUSH2 0x16FE DUP2 DUP6 PUSH2 0x1A60 JUMP JUMPDEST SWAP4 POP PUSH2 0x170E DUP2 DUP6 PUSH1 0x20 DUP7 ADD PUSH2 0x1B04 JUMP JUMPDEST PUSH2 0x1717 DUP2 PUSH2 0x1C3B JUMP JUMPDEST DUP5 ADD SWAP2 POP POP SWAP3 SWAP2 POP POP JUMP JUMPDEST PUSH1 0x0 PUSH2 0x172D DUP3 PUSH2 0x1A37 JUMP JUMPDEST PUSH2 0x1737 DUP2 DUP6 PUSH2 0x1A71 JUMP JUMPDEST SWAP4 POP PUSH2 0x1747 DUP2 DUP6 PUSH1 0x20 DUP7 ADD PUSH2 0x1B04 JUMP JUMPDEST PUSH2 0x1750 DUP2 PUSH2 0x1C3B JUMP JUMPDEST DUP5 ADD SWAP2 POP POP SWAP3 SWAP2 POP POP JUMP JUMPDEST PUSH1 0x0 PUSH1 0xC0 DUP4 ADD PUSH1 0x0 DUP4 ADD MLOAD DUP5 DUP3 SUB PUSH1 0x0 DUP7 ADD MSTORE PUSH2 0x1778 DUP3 DUP3 PUSH2 0x16E9 JUMP JUMPDEST SWAP2 POP POP PUSH1 0x20 DUP4 ADD MLOAD DUP5 DUP3 SUB PUSH1 0x20 DUP7 ADD MSTORE PUSH2 0x1792 DUP3 DUP3 PUSH2 0x16E9 JUMP JUMPDEST SWAP2 POP POP PUSH1 0x40 DUP4 ADD MLOAD DUP5 DUP3 SUB PUSH1 0x40 DUP7 ADD MSTORE PUSH2 0x17AC DUP3 DUP3 PUSH2 0x16E9 JUMP JUMPDEST SWAP2 POP POP PUSH1 0x60 DUP4 ADD MLOAD PUSH2 0x17C1 PUSH1 0x60 DUP7 ADD DUP3 PUSH2 0x1638 JUMP JUMPDEST POP PUSH1 0x80 DUP4 ADD MLOAD DUP5 DUP3 SUB PUSH1 0x80 DUP7 ADD MSTORE PUSH2 0x17D9 DUP3 DUP3 PUSH2 0x1656 JUMP JUMPDEST SWAP2 POP POP PUSH1 0xA0 DUP4 ADD MLOAD PUSH2 0x17EE PUSH1 0xA0 DUP7 ADD DUP3 PUSH2 0x16CB JUMP JUMPDEST POP DUP1 SWAP2 POP POP SWAP3 SWAP2 POP POP JUMP JUMPDEST PUSH1 0x0 PUSH1 0xC0 DUP4 ADD PUSH1 0x0 DUP4 ADD MLOAD DUP5 DUP3 SUB PUSH1 0x0 DUP7 ADD MSTORE PUSH2 0x1816 DUP3 DUP3 PUSH2 0x16E9 JUMP JUMPDEST SWAP2 POP POP PUSH1 0x20 DUP4 ADD MLOAD DUP5 DUP3 SUB PUSH1 0x20 DUP7 ADD MSTORE PUSH2 0x1830 DUP3 DUP3 PUSH2 0x16E9 JUMP JUMPDEST SWAP2 POP POP PUSH1 0x40 DUP4 ADD MLOAD DUP5 DUP3 SUB PUSH1 0x40 DUP7 ADD MSTORE PUSH2 0x184A DUP3 DUP3 PUSH2 0x16E9 JUMP JUMPDEST SWAP2 POP POP PUSH1 0x60 DUP4 ADD MLOAD PUSH2 0x185F PUSH1 0x60 DUP7 ADD DUP3 PUSH2 0x1638 JUMP JUMPDEST POP PUSH1 0x80 DUP4 ADD MLOAD DUP5 DUP3 SUB PUSH1 0x80 DUP7 ADD MSTORE PUSH2 0x1877 DUP3 DUP3 PUSH2 0x1656 JUMP JUMPDEST SWAP2 POP POP PUSH1 0xA0 DUP4 ADD MLOAD PUSH2 0x188C PUSH1 0xA0 DUP7 ADD DUP3 PUSH2 0x16CB JUMP JUMPDEST POP DUP1 SWAP2 POP POP SWAP3 SWAP2 POP POP JUMP JUMPDEST PUSH2 0x18A0 DUP2 PUSH2 0x1AD9 JUMP JUMPDEST DUP3 MSTORE POP POP JUMP JUMPDEST PUSH1 0x0 PUSH1 0x20 DUP3 ADD SWAP1 POP PUSH2 0x18BB PUSH1 0x0 DUP4 ADD DUP5 PUSH2 0x1647 JUMP JUMPDEST SWAP3 SWAP2 POP POP JUMP JUMPDEST PUSH1 0x0 PUSH1 0x60 DUP3 ADD SWAP1 POP PUSH2 0x18D6 PUSH1 0x0 DUP4 ADD DUP7 PUSH2 0x1647 JUMP JUMPDEST PUSH2 0x18E3 PUSH1 0x20 DUP4 ADD DUP6 PUSH2 0x1647 JUMP JUMPDEST PUSH2 0x18F0 PUSH1 0x40 DUP4 ADD DUP5 PUSH2 0x1897 JUMP JUMPDEST SWAP5 SWAP4 POP POP POP POP JUMP JUMPDEST PUSH1 0x0 PUSH1 0x20 DUP3 ADD SWAP1 POP DUP2 DUP2 SUB PUSH1 0x0 DUP4 ADD MSTORE PUSH2 0x1912 DUP2 DUP5 PUSH2 0x1722 JUMP JUMPDEST SWAP1 POP SWAP3 SWAP2 POP POP JUMP JUMPDEST PUSH1 0x0 PUSH1 0xA0 DUP3 ADD SWAP1 POP DUP2 DUP2 SUB PUSH1 0x0 DUP4 ADD MSTORE PUSH2 0x1934 DUP2 DUP9 PUSH2 0x1722 JUMP JUMPDEST SWAP1 POP DUP2 DUP2 SUB PUSH1 0x20 DUP4 ADD MSTORE PUSH2 0x1948 DUP2 DUP8 PUSH2 0x1722 JUMP JUMPDEST SWAP1 POP DUP2 DUP2 SUB PUSH1 0x40 DUP4 ADD MSTORE PUSH2 0x195C DUP2 DUP7 PUSH2 0x1722 JUMP JUMPDEST SWAP1 POP PUSH2 0x196B PUSH1 0x60 DUP4 ADD DUP6 PUSH2 0x1647 JUMP JUMPDEST PUSH2 0x1978 PUSH1 0x80 DUP4 ADD DUP5 PUSH2 0x16DA JUMP JUMPDEST SWAP7 SWAP6 POP POP POP POP POP POP JUMP JUMPDEST PUSH1 0x0 PUSH1 0x20 DUP3 ADD SWAP1 POP DUP2 DUP2 SUB PUSH1 0x0 DUP4 ADD MSTORE PUSH2 0x199C DUP2 DUP5 PUSH2 0x175B JUMP JUMPDEST SWAP1 POP SWAP3 SWAP2 POP POP JUMP JUMPDEST PUSH1 0x0 PUSH1 0x20 DUP3 ADD SWAP1 POP DUP2 DUP2 SUB PUSH1 0x0 DUP4 ADD MSTORE PUSH2 0x19BE DUP2 DUP5 PUSH2 0x17F9 JUMP JUMPDEST SWAP1 POP SWAP3 SWAP2 POP POP JUMP JUMPDEST PUSH1 0x0 PUSH2 0x19D0 PUSH2 0x19E1 JUMP JUMPDEST SWAP1 POP PUSH2 0x19DC DUP3 DUP3 PUSH2 0x1B69 JUMP JUMPDEST SWAP2 SWAP1 POP JUMP JUMPDEST PUSH1 0x0 PUSH1 0x40 MLOAD SWAP1 POP SWAP1 JUMP JUMPDEST PUSH1 0x0 PUSH8 0xFFFFFFFFFFFFFFFF DUP3 GT ISZERO PUSH2 0x1A06 JUMPI PUSH2 0x1A05 PUSH2 0x1BF8 JUMP JUMPDEST JUMPDEST PUSH2 0x1A0F DUP3 PUSH2 0x1C3B JUMP JUMPDEST SWAP1 POP PUSH1 0x20 DUP2 ADD SWAP1 POP SWAP2 SWAP1 POP JUMP JUMPDEST PUSH1 0x0 DUP2 SWAP1 POP PUSH1 0x20 DUP3 ADD SWAP1 POP SWAP2 SWAP1 POP JUMP JUMPDEST PUSH1 0x0 DUP2 MLOAD SWAP1 POP SWAP2 SWAP1 POP JUMP JUMPDEST PUSH1 0x0 DUP2 MLOAD SWAP1 POP SWAP2 SWAP1 POP JUMP JUMPDEST PUSH1 0x0 PUSH1 0x20 DUP3 ADD SWAP1 POP SWAP2 SWAP1 POP JUMP JUMPDEST PUSH1 0x0 DUP3 DUP3 MSTORE PUSH1 0x20 DUP3 ADD SWAP1 POP SWAP3 SWAP2 POP POP JUMP JUMPDEST PUSH1 0x0 DUP3 DUP3 MSTORE PUSH1 0x20 DUP3 ADD SWAP1 POP SWAP3 SWAP2 POP POP JUMP JUMPDEST PUSH1 0x0 DUP3 DUP3 MSTORE PUSH1 0x20 DUP3 ADD SWAP1 POP SWAP3 SWAP2 POP POP JUMP JUMPDEST PUSH1 0x0 PUSH2 0x1A8D DUP3 PUSH2 0x1AB9 JUMP JUMPDEST SWAP1 POP SWAP2 SWAP1 POP JUMP JUMPDEST PUSH1 0x0 PUSH2 0x1A9F DUP3 PUSH2 0x1AB9 JUMP JUMPDEST SWAP1 POP SWAP2 SWAP1 POP JUMP JUMPDEST PUSH1 0x0 DUP2 SWAP1 POP PUSH2 0x1AB4 DUP3 PUSH2 0x1C4C JUMP JUMPDEST SWAP2 SWAP1 POP JUMP JUMPDEST PUSH1 0x0 PUSH20 0xFFFFFFFFFFFFFFFFFFFFFFFFFFFFFFFFFFFFFFFF DUP3 AND SWAP1 POP SWAP2 SWAP1 POP JUMP JUMPDEST PUSH1 0x0 DUP2 SWAP1 POP SWAP2 SWAP1 POP JUMP JUMPDEST PUSH1 0x0 PUSH2 0x1AEE DUP3 PUSH2 0x1AA6 JUMP JUMPDEST SWAP1 POP SWAP2 SWAP1 POP JUMP JUMPDEST DUP3 DUP2 DUP4 CALLDATACOPY PUSH1 0x0 DUP4 DUP4 ADD MSTORE POP POP POP JUMP JUMPDEST PUSH1 0x0 JUMPDEST DUP4 DUP2 LT ISZERO PUSH2 0x1B22 JUMPI DUP1 DUP3 ADD MLOAD DUP2 DUP5 ADD MSTORE PUSH1 0x20 DUP2 ADD SWAP1 POP PUSH2 0x1B07 JUMP JUMPDEST DUP4 DUP2 GT ISZERO PUSH2 0x1B31 JUMPI PUSH1 0x0 DUP5 DUP5 ADD MSTORE JUMPDEST POP POP POP POP JUMP JUMPDEST PUSH1 0x0 PUSH1 0x2 DUP3 DIV SWAP1 POP PUSH1 0x1 DUP3 AND DUP1 PUSH2 0x1B4F JUMPI PUSH1 0x7F DUP3 AND SWAP2 POP JUMPDEST PUSH1 0x20 DUP3 LT DUP2 EQ ISZERO PUSH2 0x1B63 JUMPI PUSH2 0x1B62 PUSH2 0x1BC9 JUMP JUMPDEST JUMPDEST POP SWAP2 SWAP1 POP JUMP JUMPDEST PUSH2 0x1B72 DUP3 PUSH2 0x1C3B JUMP JUMPDEST DUP2 ADD DUP2 DUP2 LT PUSH8 0xFFFFFFFFFFFFFFFF DUP3 GT OR ISZERO PUSH2 0x1B91 JUMPI PUSH2 0x1B90 PUSH2 0x1BF8 JUMP JUMPDEST JUMPDEST DUP1 PUSH1 0x40 MSTORE POP POP POP JUMP JUMPDEST PUSH32 0x4E487B7100000000000000000000000000000000000000000000000000000000 PUSH1 0x0 MSTORE PUSH1 0x21 PUSH1 0x4 MSTORE PUSH1 0x24 PUSH1 0x0 REVERT JUMPDEST PUSH32 0x4E487B7100000000000000000000000000000000000000000000000000000000 PUSH1 0x0 MSTORE PUSH1 0x22 PUSH1 0x4 MSTORE PUSH1 0x24 PUSH1 0x0 REVERT JUMPDEST PUSH32 0x4E487B7100000000000000000000000000000000000000000000000000000000 PUSH1 0x0 MSTORE PUSH1 0x41 PUSH1 0x4 MSTORE PUSH1 0x24 PUSH1 0x0 REVERT JUMPDEST PUSH1 0x0 DUP1 REVERT JUMPDEST PUSH1 0x0 DUP1 REVERT JUMPDEST PUSH1 0x0 DUP1 REVERT JUMPDEST PUSH1 0x0 DUP1 REVERT JUMPDEST PUSH1 0x0 PUSH1 0x1F NOT PUSH1 0x1F DUP4 ADD AND SWAP1 POP SWAP2 SWAP1 POP JUMP JUMPDEST PUSH1 0x2 DUP2 LT PUSH2 0x1C5D JUMPI PUSH2 0x1C5C PUSH2 0x1B9A JUMP JUMPDEST JUMPDEST POP JUMP JUMPDEST PUSH2 0x1C69 DUP2 PUSH2 0x1A82 JUMP JUMPDEST DUP2 EQ PUSH2 0x1C74 JUMPI PUSH1 0x0 DUP1 REVERT JUMPDEST POP JUMP JUMPDEST PUSH2 0x1C80 DUP2 PUSH2 0x1A94 JUMP JUMPDEST DUP2 EQ PUSH2 0x1C8B JUMPI PUSH1 0x0 DUP1 REVERT JUMPDEST POP JUMP JUMPDEST PUSH2 0x1C97 DUP2 PUSH2 0x1AD9 JUMP JUMPDEST DUP2 EQ PUSH2 0x1CA2 JUMPI PUSH1 0x0 DUP1 REVERT JUMPDEST POP JUMP INVALID LOG2 PUSH5 0x6970667358 0x22 SLT KECCAK256 PUSH26 0x3D0C787B24496D90D9E89D9065FD559F0CAF8CD617DFF70254F6 0xDA BYTE 0xCC PUSH1 0xA PUSH5 0x736F6C6343 STOP ADDMOD SMOD STOP CALLER "
				},
				"gasEstimates": {
					"creation": {
						"codeDepositCost": "1477400",
						"executionCost": "1541",
						"totalCost": "1478941"
					},
					"external": {
						"driverKeys(uint256)": "4978",
						"drivers(address)": "infinite",
						"getDriverInfo(address)": "infinite",
						"getPassengerInfo(address)": "infinite",
						"passengerKeys(uint256)": "5045",
						"passengers(address)": "infinite",
						"registerDriver(string,string,string,uint256)": "infinite",
						"registerPassenger(string,string,string,uint256)": "infinite",
						"rideKeys(uint256)": "infinite",
						"rides(string)": "infinite"
					}
				},
				"methodIdentifiers": {
					"driverKeys(uint256)": "47b399ed",
					"drivers(address)": "4aa60186",
					"getDriverInfo(address)": "219a7f27",
					"getPassengerInfo(address)": "470240c2",
					"passengerKeys(uint256)": "3e4994c9",
					"passengers(address)": "ce164fdd",
					"registerDriver(string,string,string,uint256)": "1881c5fc",
					"registerPassenger(string,string,string,uint256)": "0ca0c38b",
					"rideKeys(uint256)": "0294e77f",
					"rides(string)": "d4126e6f"
				}
			},
			"storageLayout": {
				"storage": [
					{
						"astId": 21,
						"contract": "contracts/rides.sol:Rides",
						"label": "location",
						"offset": 0,
						"slot": "0",
						"type": "t_string_storage"
					},
					{
						"astId": 26,
						"contract": "contracts/rides.sol:Rides",
						"label": "passengers",
						"offset": 0,
						"slot": "1",
						"type": "t_mapping(t_address,t_struct(passenger)19_storage)"
					},
					{
						"astId": 29,
						"contract": "contracts/rides.sol:Rides",
						"label": "passengerKeys",
						"offset": 0,
						"slot": "2",
						"type": "t_array(t_address_payable)dyn_storage"
					},
					{
						"astId": 49,
						"contract": "contracts/rides.sol:Rides",
						"label": "drivers",
						"offset": 0,
						"slot": "3",
						"type": "t_mapping(t_address,t_struct(driver)44_storage)"
					},
					{
						"astId": 52,
						"contract": "contracts/rides.sol:Rides",
						"label": "driverKeys",
						"offset": 0,
						"slot": "4",
						"type": "t_array(t_address_payable)dyn_storage"
					},
					{
						"astId": 200,
						"contract": "contracts/rides.sol:Rides",
						"label": "rides",
						"offset": 0,
						"slot": "5",
						"type": "t_mapping(t_string_memory_ptr,t_struct(ride)195_storage)"
					},
					{
						"astId": 203,
						"contract": "contracts/rides.sol:Rides",
						"label": "rideKeys",
						"offset": 0,
						"slot": "6",
						"type": "t_array(t_string_storage)dyn_storage"
					},
					{
						"astId": 205,
						"contract": "contracts/rides.sol:Rides",
						"label": "rideAmount",
						"offset": 0,
						"slot": "7",
						"type": "t_uint256"
					}
				],
				"types": {
					"t_address": {
						"encoding": "inplace",
						"label": "address",
						"numberOfBytes": "20"
					},
					"t_address_payable": {
						"encoding": "inplace",
						"label": "address payable",
						"numberOfBytes": "20"
					},
					"t_array(t_address_payable)dyn_storage": {
						"base": "t_address_payable",
						"encoding": "dynamic_array",
						"label": "address payable[]",
						"numberOfBytes": "32"
					},
					"t_array(t_string_storage)dyn_storage": {
						"base": "t_string_storage",
						"encoding": "dynamic_array",
						"label": "string[]",
						"numberOfBytes": "32"
					},
					"t_enum(Users)4": {
						"encoding": "inplace",
						"label": "enum Rides.Users",
						"numberOfBytes": "1"
					},
					"t_mapping(t_address,t_struct(driver)44_storage)": {
						"encoding": "mapping",
						"key": "t_address",
						"label": "mapping(address => struct Rides.driver)",
						"numberOfBytes": "32",
						"value": "t_struct(driver)44_storage"
					},
					"t_mapping(t_address,t_struct(passenger)19_storage)": {
						"encoding": "mapping",
						"key": "t_address",
						"label": "mapping(address => struct Rides.passenger)",
						"numberOfBytes": "32",
						"value": "t_struct(passenger)19_storage"
					},
					"t_mapping(t_string_memory_ptr,t_struct(ride)195_storage)": {
						"encoding": "mapping",
						"key": "t_string_memory_ptr",
						"label": "mapping(string => struct Rides.ride)",
						"numberOfBytes": "32",
						"value": "t_struct(ride)195_storage"
					},
					"t_string_memory_ptr": {
						"encoding": "bytes",
						"label": "string",
						"numberOfBytes": "32"
					},
					"t_string_storage": {
						"encoding": "bytes",
						"label": "string",
						"numberOfBytes": "32"
					},
					"t_struct(driver)44_storage": {
						"encoding": "inplace",
						"label": "struct Rides.driver",
						"members": [
							{
								"astId": 31,
								"contract": "contracts/rides.sol:Rides",
								"label": "name",
								"offset": 0,
								"slot": "0",
								"type": "t_string_storage"
							},
							{
								"astId": 33,
								"contract": "contracts/rides.sol:Rides",
								"label": "email",
								"offset": 0,
								"slot": "1",
								"type": "t_string_storage"
							},
							{
								"astId": 35,
								"contract": "contracts/rides.sol:Rides",
								"label": "phoneNumber",
								"offset": 0,
								"slot": "2",
								"type": "t_string_storage"
							},
							{
								"astId": 37,
								"contract": "contracts/rides.sol:Rides",
								"label": "driverAddress",
								"offset": 0,
								"slot": "3",
								"type": "t_address_payable"
							},
							{
								"astId": 40,
								"contract": "contracts/rides.sol:Rides",
								"label": "rides",
								"offset": 0,
								"slot": "4",
								"type": "t_array(t_string_storage)dyn_storage"
							},
							{
								"astId": 43,
								"contract": "contracts/rides.sol:Rides",
								"label": "user",
								"offset": 0,
								"slot": "5",
								"type": "t_enum(Users)4"
							}
						],
						"numberOfBytes": "192"
					},
					"t_struct(passenger)19_storage": {
						"encoding": "inplace",
						"label": "struct Rides.passenger",
						"members": [
							{
								"astId": 6,
								"contract": "contracts/rides.sol:Rides",
								"label": "name",
								"offset": 0,
								"slot": "0",
								"type": "t_string_storage"
							},
							{
								"astId": 8,
								"contract": "contracts/rides.sol:Rides",
								"label": "email",
								"offset": 0,
								"slot": "1",
								"type": "t_string_storage"
							},
							{
								"astId": 10,
								"contract": "contracts/rides.sol:Rides",
								"label": "phoneNumber",
								"offset": 0,
								"slot": "2",
								"type": "t_string_storage"
							},
							{
								"astId": 12,
								"contract": "contracts/rides.sol:Rides",
								"label": "passengerAddress",
								"offset": 0,
								"slot": "3",
								"type": "t_address_payable"
							},
							{
								"astId": 15,
								"contract": "contracts/rides.sol:Rides",
								"label": "rides",
								"offset": 0,
								"slot": "4",
								"type": "t_array(t_string_storage)dyn_storage"
							},
							{
								"astId": 18,
								"contract": "contracts/rides.sol:Rides",
								"label": "user",
								"offset": 0,
								"slot": "5",
								"type": "t_enum(Users)4"
							}
						],
						"numberOfBytes": "192"
					},
					"t_struct(ride)195_storage": {
						"encoding": "inplace",
						"label": "struct Rides.ride",
						"members": [
							{
								"astId": 190,
								"contract": "contracts/rides.sol:Rides",
								"label": "passengerAddress",
								"offset": 0,
								"slot": "0",
								"type": "t_address_payable"
							},
							{
								"astId": 192,
								"contract": "contracts/rides.sol:Rides",
								"label": "driverAddress",
								"offset": 0,
								"slot": "1",
								"type": "t_address_payable"
							},
							{
								"astId": 194,
								"contract": "contracts/rides.sol:Rides",
								"label": "amount",
								"offset": 0,
								"slot": "2",
								"type": "t_uint256"
							}
						],
						"numberOfBytes": "96"
					},
					"t_uint256": {
						"encoding": "inplace",
						"label": "uint256",
						"numberOfBytes": "32"
					}
				}
			},
			"userdoc": {
				"kind": "user",
				"methods": {},
				"version": 1
			}
		}
	}
}