{
	"contracts/rides.sol": {
		"Rides": {
			"abi": [
				{
					"anonymous": false,
					"inputs": [
						{
							"indexed": true,
							"internalType": "address",
							"name": "_address",
							"type": "address"
						}
					],
					"name": "driverRegistration",
					"type": "event"
				},
				{
					"anonymous": false,
					"inputs": [
						{
							"indexed": true,
							"internalType": "address",
							"name": "_address",
							"type": "address"
						}
					],
					"name": "passengerRegistration",
					"type": "event"
				},
				{
					"inputs": [
						{
							"internalType": "uint256",
							"name": "",
							"type": "uint256"
						}
					],
					"name": "driverKeys",
					"outputs": [
						{
							"internalType": "address payable",
							"name": "",
							"type": "address"
						}
					],
					"stateMutability": "view",
					"type": "function"
				},
				{
					"inputs": [
						{
							"internalType": "address",
							"name": "",
							"type": "address"
						}
					],
					"name": "drivers",
					"outputs": [
						{
							"internalType": "string",
							"name": "name",
							"type": "string"
						},
						{
							"internalType": "string",
							"name": "email",
							"type": "string"
						},
						{
							"internalType": "string",
							"name": "phoneNumber",
							"type": "string"
						},
						{
							"internalType": "address payable",
							"name": "driverAddress",
							"type": "address"
						},
						{
							"internalType": "enum Rides.Users",
							"name": "user",
							"type": "uint8"
						}
					],
					"stateMutability": "view",
					"type": "function"
				},
				{
					"inputs": [
						{
							"internalType": "address payable",
							"name": "driverAddress",
							"type": "address"
						}
					],
					"name": "getDriverInfo",
					"outputs": [
						{
							"components": [
								{
									"internalType": "string",
									"name": "name",
									"type": "string"
								},
								{
									"internalType": "string",
									"name": "email",
									"type": "string"
								},
								{
									"internalType": "string",
									"name": "phoneNumber",
									"type": "string"
								},
								{
									"internalType": "address payable",
									"name": "driverAddress",
									"type": "address"
								},
								{
									"internalType": "string[]",
									"name": "rides",
									"type": "string[]"
								},
								{
									"internalType": "enum Rides.Users",
									"name": "user",
									"type": "uint8"
								}
							],
							"internalType": "struct Rides.driver",
							"name": "",
							"type": "tuple"
						}
					],
					"stateMutability": "view",
					"type": "function"
				},
				{
					"inputs": [
						{
							"internalType": "address payable",
							"name": "passengerAddress",
							"type": "address"
						}
					],
					"name": "getPassengerInfo",
					"outputs": [
						{
							"components": [
								{
									"internalType": "string",
									"name": "name",
									"type": "string"
								},
								{
									"internalType": "string",
									"name": "email",
									"type": "string"
								},
								{
									"internalType": "string",
									"name": "phoneNumber",
									"type": "string"
								},
								{
									"internalType": "address payable",
									"name": "passengerAddress",
									"type": "address"
								},
								{
									"internalType": "string[]",
									"name": "rides",
									"type": "string[]"
								},
								{
									"internalType": "enum Rides.Users",
									"name": "user",
									"type": "uint8"
								}
							],
							"internalType": "struct Rides.passenger",
							"name": "",
							"type": "tuple"
						}
					],
					"stateMutability": "view",
					"type": "function"
				},
				{
					"inputs": [
						{
							"internalType": "uint256",
							"name": "",
							"type": "uint256"
						}
					],
					"name": "passengerKeys",
					"outputs": [
						{
							"internalType": "address payable",
							"name": "",
							"type": "address"
						}
					],
					"stateMutability": "view",
					"type": "function"
				},
				{
					"inputs": [
						{
							"internalType": "address",
							"name": "",
							"type": "address"
						}
					],
					"name": "passengers",
					"outputs": [
						{
							"internalType": "string",
							"name": "name",
							"type": "string"
						},
						{
							"internalType": "string",
							"name": "email",
							"type": "string"
						},
						{
							"internalType": "string",
							"name": "phoneNumber",
							"type": "string"
						},
						{
							"internalType": "address payable",
							"name": "passengerAddress",
							"type": "address"
						},
						{
							"internalType": "enum Rides.Users",
							"name": "user",
							"type": "uint8"
						}
					],
					"stateMutability": "view",
					"type": "function"
				},
				{
					"inputs": [
						{
							"internalType": "string",
							"name": "name",
							"type": "string"
						},
						{
							"internalType": "string",
							"name": "email",
							"type": "string"
						},
						{
							"internalType": "string",
							"name": "phoneNumber",
							"type": "string"
						},
						{
							"internalType": "uint256",
							"name": "user",
							"type": "uint256"
						}
					],
					"name": "registerDriver",
					"outputs": [],
					"stateMutability": "nonpayable",
					"type": "function"
				},
				{
					"inputs": [
						{
							"internalType": "string",
							"name": "name",
							"type": "string"
						},
						{
							"internalType": "string",
							"name": "email",
							"type": "string"
						},
						{
							"internalType": "string",
							"name": "phoneNumber",
							"type": "string"
						},
						{
							"internalType": "uint256",
							"name": "user",
							"type": "uint256"
						}
					],
					"name": "registerPassenger",
					"outputs": [],
					"stateMutability": "nonpayable",
					"type": "function"
				},
				{
					"inputs": [
						{
							"internalType": "uint256",
							"name": "",
							"type": "uint256"
						}
					],
					"name": "rideKeys",
					"outputs": [
						{
							"internalType": "string",
							"name": "",
							"type": "string"
						}
					],
					"stateMutability": "view",
					"type": "function"
				},
				{
					"inputs": [
						{
							"internalType": "string",
							"name": "",
							"type": "string"
						}
					],
					"name": "rides",
					"outputs": [
						{
							"internalType": "address payable",
							"name": "passengerAddress",
							"type": "address"
						},
						{
							"internalType": "address payable",
							"name": "driverAddress",
							"type": "address"
						},
						{
							"internalType": "string",
							"name": "to",
							"type": "string"
						},
						{
							"internalType": "string",
							"name": "from",
							"type": "string"
						},
						{
							"internalType": "uint256",
							"name": "amount",
							"type": "uint256"
						}
					],
					"stateMutability": "view",
					"type": "function"
				}
			],
			"devdoc": {
				"kind": "dev",
				"methods": {},
				"version": 1
			},
			"evm": {
				"assembly": "    /* \"contracts/rides.sol\":64:2200  contract Rides {\r... */\n  mstore(0x40, 0x80)\n  callvalue\n  dup1\n  iszero\n  tag_1\n  jumpi\n  0x00\n  dup1\n  revert\ntag_1:\n  pop\n  dataSize(sub_0)\n  dup1\n  dataOffset(sub_0)\n  0x00\n  codecopy\n  0x00\n  return\nstop\n\nsub_0: assembly {\n        /* \"contracts/rides.sol\":64:2200  contract Rides {\r... */\n      mstore(0x40, 0x80)\n      callvalue\n      dup1\n      iszero\n      tag_1\n      jumpi\n      0x00\n      dup1\n      revert\n    tag_1:\n      pop\n      jumpi(tag_2, lt(calldatasize, 0x04))\n      shr(0xe0, calldataload(0x00))\n      dup1\n      0x470240c2\n      gt\n      tag_13\n      jumpi\n      dup1\n      0x470240c2\n      eq\n      tag_8\n      jumpi\n      dup1\n      0x47b399ed\n      eq\n      tag_9\n      jumpi\n      dup1\n      0x4aa60186\n      eq\n      tag_10\n      jumpi\n      dup1\n      0xce164fdd\n      eq\n      tag_11\n      jumpi\n      dup1\n      0xd4126e6f\n      eq\n      tag_12\n      jumpi\n      jump(tag_2)\n    tag_13:\n      dup1\n      0x0294e77f\n      eq\n      tag_3\n      jumpi\n      dup1\n      0x0ca0c38b\n      eq\n      tag_4\n      jumpi\n      dup1\n      0x1881c5fc\n      eq\n      tag_5\n      jumpi\n      dup1\n      0x219a7f27\n      eq\n      tag_6\n      jumpi\n      dup1\n      0x3e4994c9\n      eq\n      tag_7\n      jumpi\n    tag_2:\n      0x00\n      dup1\n      revert\n        /* \"contracts/rides.sol\":2170:2194  string[] public rideKeys */\n    tag_3:\n      tag_14\n      0x04\n      dup1\n      calldatasize\n      sub\n      dup2\n      add\n      swap1\n      tag_15\n      swap2\n      swap1\n      tag_16\n      jump\t// in\n    tag_15:\n      tag_17\n      jump\t// in\n    tag_14:\n      mload(0x40)\n      tag_18\n      swap2\n      swap1\n      tag_19\n      jump\t// in\n    tag_18:\n      mload(0x40)\n      dup1\n      swap2\n      sub\n      swap1\n      return\n        /* \"contracts/rides.sol\":822:1202  function registerPassenger(string memory name, string memory email, string memory phoneNumber, uint256 user) external {\r... */\n    tag_4:\n      tag_20\n      0x04\n      dup1\n      calldatasize\n      sub\n      dup2\n      add\n      swap1\n      tag_21\n      swap2\n      swap1\n      tag_22\n      jump\t// in\n    tag_21:\n      tag_23\n      jump\t// in\n    tag_20:\n      stop\n        /* \"contracts/rides.sol\":1431:1793  function registerDriver(string memory name, string memory email, string memory phoneNumber, uint256 user) external {\r... */\n    tag_5:\n      tag_24\n      0x04\n      dup1\n      calldatasize\n      sub\n      dup2\n      add\n      swap1\n      tag_25\n      swap2\n      swap1\n      tag_22\n      jump\t// in\n    tag_25:\n      tag_26\n      jump\t// in\n    tag_24:\n      stop\n        /* \"contracts/rides.sol\":1801:1941  function getDriverInfo(address payable driverAddress) external view returns (driver memory) {\r... */\n    tag_6:\n      tag_27\n      0x04\n      dup1\n      calldatasize\n      sub\n      dup2\n      add\n      swap1\n      tag_28\n      swap2\n      swap1\n      tag_29\n      jump\t// in\n    tag_28:\n      tag_30\n      jump\t// in\n    tag_27:\n      mload(0x40)\n      tag_31\n      swap2\n      swap1\n      tag_32\n      jump\t// in\n    tag_31:\n      mload(0x40)\n      dup1\n      swap2\n      sub\n      swap1\n      return\n        /* \"contracts/rides.sol\":431:469  address payable[] public passengerKeys */\n    tag_7:\n      tag_33\n      0x04\n      dup1\n      calldatasize\n      sub\n      dup2\n      add\n      swap1\n      tag_34\n      swap2\n      swap1\n      tag_16\n      jump\t// in\n    tag_34:\n      tag_35\n      jump\t// in\n    tag_33:\n      mload(0x40)\n      tag_36\n      swap2\n      swap1\n      tag_37\n      jump\t// in\n    tag_36:\n      mload(0x40)\n      dup1\n      swap2\n      sub\n      swap1\n      return\n        /* \"contracts/rides.sol\":1210:1364  function getPassengerInfo(address payable passengerAddress) external view returns(passenger memory) {\r... */\n    tag_8:\n      tag_38\n      0x04\n      dup1\n      calldatasize\n      sub\n      dup2\n      add\n      swap1\n      tag_39\n      swap2\n      swap1\n      tag_29\n      jump\t// in\n    tag_39:\n      tag_40\n      jump\t// in\n    tag_38:\n      mload(0x40)\n      tag_41\n      swap2\n      swap1\n      tag_42\n      jump\t// in\n    tag_41:\n      mload(0x40)\n      dup1\n      swap2\n      sub\n      swap1\n      return\n        /* \"contracts/rides.sol\":716:751  address payable[] public driverKeys */\n    tag_9:\n      tag_43\n      0x04\n      dup1\n      calldatasize\n      sub\n      dup2\n      add\n      swap1\n      tag_44\n      swap2\n      swap1\n      tag_16\n      jump\t// in\n    tag_44:\n      tag_45\n      jump\t// in\n    tag_43:\n      mload(0x40)\n      tag_46\n      swap2\n      swap1\n      tag_37\n      jump\t// in\n    tag_46:\n      mload(0x40)\n      dup1\n      swap2\n      sub\n      swap1\n      return\n        /* \"contracts/rides.sol\":668:709  mapping(address => driver) public drivers */\n    tag_10:\n      tag_47\n      0x04\n      dup1\n      calldatasize\n      sub\n      dup2\n      add\n      swap1\n      tag_48\n      swap2\n      swap1\n      tag_49\n      jump\t// in\n    tag_48:\n      tag_50\n      jump\t// in\n    tag_47:\n      mload(0x40)\n      tag_51\n      swap6\n      swap5\n      swap4\n      swap3\n      swap2\n      swap1\n      tag_52\n      jump\t// in\n    tag_51:\n      mload(0x40)\n      dup1\n      swap2\n      sub\n      swap1\n      return\n        /* \"contracts/rides.sol\":377:424  mapping(address => passenger) public passengers */\n    tag_11:\n      tag_53\n      0x04\n      dup1\n      calldatasize\n      sub\n      dup2\n      add\n      swap1\n      tag_54\n      swap2\n      swap1\n      tag_49\n      jump\t// in\n    tag_54:\n      tag_55\n      jump\t// in\n    tag_53:\n      mload(0x40)\n      tag_56\n      swap6\n      swap5\n      swap4\n      swap3\n      swap2\n      swap1\n      tag_52\n      jump\t// in\n    tag_56:\n      mload(0x40)\n      dup1\n      swap2\n      sub\n      swap1\n      return\n        /* \"contracts/rides.sol\":2127:2163  mapping(string => ride) public rides */\n    tag_12:\n      tag_57\n      0x04\n      dup1\n      calldatasize\n      sub\n      dup2\n      add\n      swap1\n      tag_58\n      swap2\n      swap1\n      tag_59\n      jump\t// in\n    tag_58:\n      tag_60\n      jump\t// in\n    tag_57:\n      mload(0x40)\n      tag_61\n      swap6\n      swap5\n      swap4\n      swap3\n      swap2\n      swap1\n      tag_62\n      jump\t// in\n    tag_61:\n      mload(0x40)\n      dup1\n      swap2\n      sub\n      swap1\n      return\n        /* \"contracts/rides.sol\":2170:2194  string[] public rideKeys */\n    tag_17:\n      0x05\n      dup2\n      dup2\n      sload\n      dup2\n      lt\n      tag_63\n      jumpi\n      0x00\n      dup1\n      revert\n    tag_63:\n      swap1\n      0x00\n      mstore\n      keccak256(0x00, 0x20)\n      add\n      0x00\n      swap2\n      pop\n      swap1\n      pop\n      dup1\n      sload\n      tag_65\n      swap1\n      tag_66\n      jump\t// in\n    tag_65:\n      dup1\n      0x1f\n      add\n      0x20\n      dup1\n      swap2\n      div\n      mul\n      0x20\n      add\n      mload(0x40)\n      swap1\n      dup2\n      add\n      0x40\n      mstore\n      dup1\n      swap3\n      swap2\n      swap1\n      dup2\n      dup2\n      mstore\n      0x20\n      add\n      dup3\n      dup1\n      sload\n      tag_67\n      swap1\n      tag_66\n      jump\t// in\n    tag_67:\n      dup1\n      iszero\n      tag_68\n      jumpi\n      dup1\n      0x1f\n      lt\n      tag_69\n      jumpi\n      0x0100\n      dup1\n      dup4\n      sload\n      div\n      mul\n      dup4\n      mstore\n      swap2\n      0x20\n      add\n      swap2\n      jump(tag_68)\n    tag_69:\n      dup3\n      add\n      swap2\n      swap1\n      0x00\n      mstore\n      keccak256(0x00, 0x20)\n      swap1\n    tag_70:\n      dup2\n      sload\n      dup2\n      mstore\n      swap1\n      0x01\n      add\n      swap1\n      0x20\n      add\n      dup1\n      dup4\n      gt\n      tag_70\n      jumpi\n      dup3\n      swap1\n      sub\n      0x1f\n      and\n      dup3\n      add\n      swap2\n    tag_68:\n      pop\n      pop\n      pop\n      pop\n      pop\n      dup2\n      jump\t// out\n        /* \"contracts/rides.sol\":822:1202  function registerPassenger(string memory name, string memory email, string memory phoneNumber, uint256 user) external {\r... */\n    tag_23:\n        /* \"contracts/rides.sol\":981:985  name */\n      dup4\n        /* \"contracts/rides.sol\":951:961  passengers */\n      0x00\n        /* \"contracts/rides.sol\":951:973  passengers[msg.sender] */\n      dup1\n        /* \"contracts/rides.sol\":962:972  msg.sender */\n      caller\n        /* \"contracts/rides.sol\":951:973  passengers[msg.sender] */\n      0xffffffffffffffffffffffffffffffffffffffff\n      and\n      0xffffffffffffffffffffffffffffffffffffffff\n      and\n      dup2\n      mstore\n      0x20\n      add\n      swap1\n      dup2\n      mstore\n      0x20\n      add\n      0x00\n      keccak256\n        /* \"contracts/rides.sol\":951:978  passengers[msg.sender].name */\n      0x00\n      add\n        /* \"contracts/rides.sol\":951:985  passengers[msg.sender].name = name */\n      swap1\n      dup1\n      mload\n      swap1\n      0x20\n      add\n      swap1\n      tag_72\n      swap3\n      swap2\n      swap1\n      tag_73\n      jump\t// in\n    tag_72:\n      pop\n        /* \"contracts/rides.sol\":1027:1032  email */\n      dup3\n        /* \"contracts/rides.sol\":996:1006  passengers */\n      0x00\n        /* \"contracts/rides.sol\":996:1018  passengers[msg.sender] */\n      dup1\n        /* \"contracts/rides.sol\":1007:1017  msg.sender */\n      caller\n        /* \"contracts/rides.sol\":996:1018  passengers[msg.sender] */\n      0xffffffffffffffffffffffffffffffffffffffff\n      and\n      0xffffffffffffffffffffffffffffffffffffffff\n      and\n      dup2\n      mstore\n      0x20\n      add\n      swap1\n      dup2\n      mstore\n      0x20\n      add\n      0x00\n      keccak256\n        /* \"contracts/rides.sol\":996:1024  passengers[msg.sender].email */\n      0x01\n      add\n        /* \"contracts/rides.sol\":996:1032  passengers[msg.sender].email = email */\n      swap1\n      dup1\n      mload\n      swap1\n      0x20\n      add\n      swap1\n      tag_74\n      swap3\n      swap2\n      swap1\n      tag_73\n      jump\t// in\n    tag_74:\n      pop\n        /* \"contracts/rides.sol\":1080:1091  phoneNumber */\n      dup2\n        /* \"contracts/rides.sol\":1043:1053  passengers */\n      0x00\n        /* \"contracts/rides.sol\":1043:1065  passengers[msg.sender] */\n      dup1\n        /* \"contracts/rides.sol\":1054:1064  msg.sender */\n      caller\n        /* \"contracts/rides.sol\":1043:1065  passengers[msg.sender] */\n      0xffffffffffffffffffffffffffffffffffffffff\n      and\n      0xffffffffffffffffffffffffffffffffffffffff\n      and\n      dup2\n      mstore\n      0x20\n      add\n      swap1\n      dup2\n      mstore\n      0x20\n      add\n      0x00\n      keccak256\n        /* \"contracts/rides.sol\":1043:1077  passengers[msg.sender].phoneNumber */\n      0x02\n      add\n        /* \"contracts/rides.sol\":1043:1091  passengers[msg.sender].phoneNumber = phoneNumber */\n      swap1\n      dup1\n      mload\n      swap1\n      0x20\n      add\n      swap1\n      tag_75\n      swap3\n      swap2\n      swap1\n      tag_73\n      jump\t// in\n    tag_75:\n      pop\n        /* \"contracts/rides.sol\":1138:1142  user */\n      dup1\n        /* \"contracts/rides.sol\":1132:1143  Users(user) */\n      0x01\n      dup2\n      gt\n      iszero\n      tag_76\n      jumpi\n      tag_77\n      tag_78\n      jump\t// in\n    tag_77:\n    tag_76:\n        /* \"contracts/rides.sol\":1102:1112  passengers */\n      0x00\n        /* \"contracts/rides.sol\":1102:1124  passengers[msg.sender] */\n      dup1\n        /* \"contracts/rides.sol\":1113:1123  msg.sender */\n      caller\n        /* \"contracts/rides.sol\":1102:1124  passengers[msg.sender] */\n      0xffffffffffffffffffffffffffffffffffffffff\n      and\n      0xffffffffffffffffffffffffffffffffffffffff\n      and\n      dup2\n      mstore\n      0x20\n      add\n      swap1\n      dup2\n      mstore\n      0x20\n      add\n      0x00\n      keccak256\n        /* \"contracts/rides.sol\":1102:1129  passengers[msg.sender].user */\n      0x05\n      add\n      0x00\n        /* \"contracts/rides.sol\":1102:1143  passengers[msg.sender].user = Users(user) */\n      0x0100\n      exp\n      dup2\n      sload\n      dup2\n      0xff\n      mul\n      not\n      and\n      swap1\n      dup4\n      0x01\n      dup2\n      gt\n      iszero\n      tag_79\n      jumpi\n      tag_80\n      tag_78\n      jump\t// in\n    tag_80:\n    tag_79:\n      mul\n      or\n      swap1\n      sstore\n      pop\n        /* \"contracts/rides.sol\":1183:1193  msg.sender */\n      caller\n        /* \"contracts/rides.sol\":1161:1194  passengerRegistration(msg.sender) */\n      0xffffffffffffffffffffffffffffffffffffffff\n      and\n      0x9b86717872986aab9d78c64f2726b6dae96b25a759ac26ed7adbfffba8d0ce3a\n      mload(0x40)\n      mload(0x40)\n      dup1\n      swap2\n      sub\n      swap1\n      log2\n        /* \"contracts/rides.sol\":822:1202  function registerPassenger(string memory name, string memory email, string memory phoneNumber, uint256 user) external {\r... */\n      pop\n      pop\n      pop\n      pop\n      jump\t// out\n        /* \"contracts/rides.sol\":1431:1793  function registerDriver(string memory name, string memory email, string memory phoneNumber, uint256 user) external {\r... */\n    tag_26:\n        /* \"contracts/rides.sol\":1584:1588  name */\n      dup4\n        /* \"contracts/rides.sol\":1557:1564  drivers */\n      0x02\n        /* \"contracts/rides.sol\":1557:1576  drivers[msg.sender] */\n      0x00\n        /* \"contracts/rides.sol\":1565:1575  msg.sender */\n      caller\n        /* \"contracts/rides.sol\":1557:1576  drivers[msg.sender] */\n      0xffffffffffffffffffffffffffffffffffffffff\n      and\n      0xffffffffffffffffffffffffffffffffffffffff\n      and\n      dup2\n      mstore\n      0x20\n      add\n      swap1\n      dup2\n      mstore\n      0x20\n      add\n      0x00\n      keccak256\n        /* \"contracts/rides.sol\":1557:1581  drivers[msg.sender].name */\n      0x00\n      add\n        /* \"contracts/rides.sol\":1557:1588  drivers[msg.sender].name = name */\n      swap1\n      dup1\n      mload\n      swap1\n      0x20\n      add\n      swap1\n      tag_82\n      swap3\n      swap2\n      swap1\n      tag_73\n      jump\t// in\n    tag_82:\n      pop\n        /* \"contracts/rides.sol\":1627:1632  email */\n      dup3\n        /* \"contracts/rides.sol\":1599:1606  drivers */\n      0x02\n        /* \"contracts/rides.sol\":1599:1618  drivers[msg.sender] */\n      0x00\n        /* \"contracts/rides.sol\":1607:1617  msg.sender */\n      caller\n        /* \"contracts/rides.sol\":1599:1618  drivers[msg.sender] */\n      0xffffffffffffffffffffffffffffffffffffffff\n      and\n      0xffffffffffffffffffffffffffffffffffffffff\n      and\n      dup2\n      mstore\n      0x20\n      add\n      swap1\n      dup2\n      mstore\n      0x20\n      add\n      0x00\n      keccak256\n        /* \"contracts/rides.sol\":1599:1624  drivers[msg.sender].email */\n      0x01\n      add\n        /* \"contracts/rides.sol\":1599:1632  drivers[msg.sender].email = email */\n      swap1\n      dup1\n      mload\n      swap1\n      0x20\n      add\n      swap1\n      tag_83\n      swap3\n      swap2\n      swap1\n      tag_73\n      jump\t// in\n    tag_83:\n      pop\n        /* \"contracts/rides.sol\":1677:1688  phoneNumber */\n      dup2\n        /* \"contracts/rides.sol\":1643:1650  drivers */\n      0x02\n        /* \"contracts/rides.sol\":1643:1662  drivers[msg.sender] */\n      0x00\n        /* \"contracts/rides.sol\":1651:1661  msg.sender */\n      caller\n        /* \"contracts/rides.sol\":1643:1662  drivers[msg.sender] */\n      0xffffffffffffffffffffffffffffffffffffffff\n      and\n      0xffffffffffffffffffffffffffffffffffffffff\n      and\n      dup2\n      mstore\n      0x20\n      add\n      swap1\n      dup2\n      mstore\n      0x20\n      add\n      0x00\n      keccak256\n        /* \"contracts/rides.sol\":1643:1674  drivers[msg.sender].phoneNumber */\n      0x02\n      add\n        /* \"contracts/rides.sol\":1643:1688  drivers[msg.sender].phoneNumber = phoneNumber */\n      swap1\n      dup1\n      mload\n      swap1\n      0x20\n      add\n      swap1\n      tag_84\n      swap3\n      swap2\n      swap1\n      tag_73\n      jump\t// in\n    tag_84:\n      pop\n        /* \"contracts/rides.sol\":1732:1736  user */\n      dup1\n        /* \"contracts/rides.sol\":1726:1737  Users(user) */\n      0x01\n      dup2\n      gt\n      iszero\n      tag_85\n      jumpi\n      tag_86\n      tag_78\n      jump\t// in\n    tag_86:\n    tag_85:\n        /* \"contracts/rides.sol\":1699:1706  drivers */\n      0x02\n        /* \"contracts/rides.sol\":1699:1718  drivers[msg.sender] */\n      0x00\n        /* \"contracts/rides.sol\":1707:1717  msg.sender */\n      caller\n        /* \"contracts/rides.sol\":1699:1718  drivers[msg.sender] */\n      0xffffffffffffffffffffffffffffffffffffffff\n      and\n      0xffffffffffffffffffffffffffffffffffffffff\n      and\n      dup2\n      mstore\n      0x20\n      add\n      swap1\n      dup2\n      mstore\n      0x20\n      add\n      0x00\n      keccak256\n        /* \"contracts/rides.sol\":1699:1723  drivers[msg.sender].user */\n      0x05\n      add\n      0x00\n        /* \"contracts/rides.sol\":1699:1737  drivers[msg.sender].user = Users(user) */\n      0x0100\n      exp\n      dup2\n      sload\n      dup2\n      0xff\n      mul\n      not\n      and\n      swap1\n      dup4\n      0x01\n      dup2\n      gt\n      iszero\n      tag_87\n      jumpi\n      tag_88\n      tag_78\n      jump\t// in\n    tag_88:\n    tag_87:\n      mul\n      or\n      swap1\n      sstore\n      pop\n        /* \"contracts/rides.sol\":1774:1784  msg.sender */\n      caller\n        /* \"contracts/rides.sol\":1755:1785  driverRegistration(msg.sender) */\n      0xffffffffffffffffffffffffffffffffffffffff\n      and\n      0x8e8163abfd8af54d75ae372dd0fee97b14b981449bee2aeb55d2de269a9f5a2a\n      mload(0x40)\n      mload(0x40)\n      dup1\n      swap2\n      sub\n      swap1\n      log2\n        /* \"contracts/rides.sol\":1431:1793  function registerDriver(string memory name, string memory email, string memory phoneNumber, uint256 user) external {\r... */\n      pop\n      pop\n      pop\n      pop\n      jump\t// out\n        /* \"contracts/rides.sol\":1801:1941  function getDriverInfo(address payable driverAddress) external view returns (driver memory) {\r... */\n    tag_30:\n        /* \"contracts/rides.sol\":1878:1891  driver memory */\n      tag_89\n      tag_90\n      jump\t// in\n    tag_89:\n        /* \"contracts/rides.sol\":1911:1918  drivers */\n      0x02\n        /* \"contracts/rides.sol\":1911:1933  drivers[driverAddress] */\n      0x00\n        /* \"contracts/rides.sol\":1919:1932  driverAddress */\n      dup4\n        /* \"contracts/rides.sol\":1911:1933  drivers[driverAddress] */\n      0xffffffffffffffffffffffffffffffffffffffff\n      and\n      0xffffffffffffffffffffffffffffffffffffffff\n      and\n      dup2\n      mstore\n      0x20\n      add\n      swap1\n      dup2\n      mstore\n      0x20\n      add\n      0x00\n      keccak256\n        /* \"contracts/rides.sol\":1904:1933  return drivers[driverAddress] */\n      mload(0x40)\n      dup1\n      0xc0\n      add\n      0x40\n      mstore\n      swap1\n      dup2\n      0x00\n      dup3\n      add\n      dup1\n      sload\n      tag_92\n      swap1\n      tag_66\n      jump\t// in\n    tag_92:\n      dup1\n      0x1f\n      add\n      0x20\n      dup1\n      swap2\n      div\n      mul\n      0x20\n      add\n      mload(0x40)\n      swap1\n      dup2\n      add\n      0x40\n      mstore\n      dup1\n      swap3\n      swap2\n      swap1\n      dup2\n      dup2\n      mstore\n      0x20\n      add\n      dup3\n      dup1\n      sload\n      tag_93\n      swap1\n      tag_66\n      jump\t// in\n    tag_93:\n      dup1\n      iszero\n      tag_94\n      jumpi\n      dup1\n      0x1f\n      lt\n      tag_95\n      jumpi\n      0x0100\n      dup1\n      dup4\n      sload\n      div\n      mul\n      dup4\n      mstore\n      swap2\n      0x20\n      add\n      swap2\n      jump(tag_94)\n    tag_95:\n      dup3\n      add\n      swap2\n      swap1\n      0x00\n      mstore\n      keccak256(0x00, 0x20)\n      swap1\n    tag_96:\n      dup2\n      sload\n      dup2\n      mstore\n      swap1\n      0x01\n      add\n      swap1\n      0x20\n      add\n      dup1\n      dup4\n      gt\n      tag_96\n      jumpi\n      dup3\n      swap1\n      sub\n      0x1f\n      and\n      dup3\n      add\n      swap2\n    tag_94:\n      pop\n      pop\n      pop\n      pop\n      pop\n      dup2\n      mstore\n      0x20\n      add\n      0x01\n      dup3\n      add\n      dup1\n      sload\n      tag_97\n      swap1\n      tag_66\n      jump\t// in\n    tag_97:\n      dup1\n      0x1f\n      add\n      0x20\n      dup1\n      swap2\n      div\n      mul\n      0x20\n      add\n      mload(0x40)\n      swap1\n      dup2\n      add\n      0x40\n      mstore\n      dup1\n      swap3\n      swap2\n      swap1\n      dup2\n      dup2\n      mstore\n      0x20\n      add\n      dup3\n      dup1\n      sload\n      tag_98\n      swap1\n      tag_66\n      jump\t// in\n    tag_98:\n      dup1\n      iszero\n      tag_99\n      jumpi\n      dup1\n      0x1f\n      lt\n      tag_100\n      jumpi\n      0x0100\n      dup1\n      dup4\n      sload\n      div\n      mul\n      dup4\n      mstore\n      swap2\n      0x20\n      add\n      swap2\n      jump(tag_99)\n    tag_100:\n      dup3\n      add\n      swap2\n      swap1\n      0x00\n      mstore\n      keccak256(0x00, 0x20)\n      swap1\n    tag_101:\n      dup2\n      sload\n      dup2\n      mstore\n      swap1\n      0x01\n      add\n      swap1\n      0x20\n      add\n      dup1\n      dup4\n      gt\n      tag_101\n      jumpi\n      dup3\n      swap1\n      sub\n      0x1f\n      and\n      dup3\n      add\n      swap2\n    tag_99:\n      pop\n      pop\n      pop\n      pop\n      pop\n      dup2\n      mstore\n      0x20\n      add\n      0x02\n      dup3\n      add\n      dup1\n      sload\n      tag_102\n      swap1\n      tag_66\n      jump\t// in\n    tag_102:\n      dup1\n      0x1f\n      add\n      0x20\n      dup1\n      swap2\n      div\n      mul\n      0x20\n      add\n      mload(0x40)\n      swap1\n      dup2\n      add\n      0x40\n      mstore\n      dup1\n      swap3\n      swap2\n      swap1\n      dup2\n      dup2\n      mstore\n      0x20\n      add\n      dup3\n      dup1\n      sload\n      tag_103\n      swap1\n      tag_66\n      jump\t// in\n    tag_103:\n      dup1\n      iszero\n      tag_104\n      jumpi\n      dup1\n      0x1f\n      lt\n      tag_105\n      jumpi\n      0x0100\n      dup1\n      dup4\n      sload\n      div\n      mul\n      dup4\n      mstore\n      swap2\n      0x20\n      add\n      swap2\n      jump(tag_104)\n    tag_105:\n      dup3\n      add\n      swap2\n      swap1\n      0x00\n      mstore\n      keccak256(0x00, 0x20)\n      swap1\n    tag_106:\n      dup2\n      sload\n      dup2\n      mstore\n      swap1\n      0x01\n      add\n      swap1\n      0x20\n      add\n      dup1\n      dup4\n      gt\n      tag_106\n      jumpi\n      dup3\n      swap1\n      sub\n      0x1f\n      and\n      dup3\n      add\n      swap2\n    tag_104:\n      pop\n      pop\n      pop\n      pop\n      pop\n      dup2\n      mstore\n      0x20\n      add\n      0x03\n      dup3\n      add\n      0x00\n      swap1\n      sload\n      swap1\n      0x0100\n      exp\n      swap1\n      div\n      0xffffffffffffffffffffffffffffffffffffffff\n      and\n      0xffffffffffffffffffffffffffffffffffffffff\n      and\n      0xffffffffffffffffffffffffffffffffffffffff\n      and\n      dup2\n      mstore\n      0x20\n      add\n      0x04\n      dup3\n      add\n      dup1\n      sload\n      dup1\n      0x20\n      mul\n      0x20\n      add\n      mload(0x40)\n      swap1\n      dup2\n      add\n      0x40\n      mstore\n      dup1\n      swap3\n      swap2\n      swap1\n      dup2\n      dup2\n      mstore\n      0x20\n      add\n      0x00\n      swap1\n    tag_107:\n      dup3\n      dup3\n      lt\n      iszero\n      tag_108\n      jumpi\n      dup4\n      dup3\n      swap1\n      0x00\n      mstore\n      keccak256(0x00, 0x20)\n      add\n      dup1\n      sload\n      tag_110\n      swap1\n      tag_66\n      jump\t// in\n    tag_110:\n      dup1\n      0x1f\n      add\n      0x20\n      dup1\n      swap2\n      div\n      mul\n      0x20\n      add\n      mload(0x40)\n      swap1\n      dup2\n      add\n      0x40\n      mstore\n      dup1\n      swap3\n      swap2\n      swap1\n      dup2\n      dup2\n      mstore\n      0x20\n      add\n      dup3\n      dup1\n      sload\n      tag_111\n      swap1\n      tag_66\n      jump\t// in\n    tag_111:\n      dup1\n      iszero\n      tag_112\n      jumpi\n      dup1\n      0x1f\n      lt\n      tag_113\n      jumpi\n      0x0100\n      dup1\n      dup4\n      sload\n      div\n      mul\n      dup4\n      mstore\n      swap2\n      0x20\n      add\n      swap2\n      jump(tag_112)\n    tag_113:\n      dup3\n      add\n      swap2\n      swap1\n      0x00\n      mstore\n      keccak256(0x00, 0x20)\n      swap1\n    tag_114:\n      dup2\n      sload\n      dup2\n      mstore\n      swap1\n      0x01\n      add\n      swap1\n      0x20\n      add\n      dup1\n      dup4\n      gt\n      tag_114\n      jumpi\n      dup3\n      swap1\n      sub\n      0x1f\n      and\n      dup3\n      add\n      swap2\n    tag_112:\n      pop\n      pop\n      pop\n      pop\n      pop\n      dup2\n      mstore\n      0x20\n      add\n      swap1\n      0x01\n      add\n      swap1\n      jump(tag_107)\n    tag_108:\n      pop\n      pop\n      pop\n      pop\n      dup2\n      mstore\n      0x20\n      add\n      0x05\n      dup3\n      add\n      0x00\n      swap1\n      sload\n      swap1\n      0x0100\n      exp\n      swap1\n      div\n      0xff\n      and\n      0x01\n      dup2\n      gt\n      iszero\n      tag_115\n      jumpi\n      tag_116\n      tag_78\n      jump\t// in\n    tag_116:\n    tag_115:\n      0x01\n      dup2\n      gt\n      iszero\n      tag_117\n      jumpi\n      tag_118\n      tag_78\n      jump\t// in\n    tag_118:\n    tag_117:\n      dup2\n      mstore\n      pop\n      pop\n      swap1\n      pop\n        /* \"contracts/rides.sol\":1801:1941  function getDriverInfo(address payable driverAddress) external view returns (driver memory) {\r... */\n      swap2\n      swap1\n      pop\n      jump\t// out\n        /* \"contracts/rides.sol\":431:469  address payable[] public passengerKeys */\n    tag_35:\n      0x01\n      dup2\n      dup2\n      sload\n      dup2\n      lt\n      tag_119\n      jumpi\n      0x00\n      dup1\n      revert\n    tag_119:\n      swap1\n      0x00\n      mstore\n      keccak256(0x00, 0x20)\n      add\n      0x00\n      swap2\n      pop\n      sload\n      swap1\n      0x0100\n      exp\n      swap1\n      div\n      0xffffffffffffffffffffffffffffffffffffffff\n      and\n      dup2\n      jump\t// out\n        /* \"contracts/rides.sol\":1210:1364  function getPassengerInfo(address payable passengerAddress) external view returns(passenger memory) {\r... */\n    tag_40:\n        /* \"contracts/rides.sol\":1292:1308  passenger memory */\n      tag_121\n      tag_122\n      jump\t// in\n    tag_121:\n        /* \"contracts/rides.sol\":1328:1338  passengers */\n      0x00\n        /* \"contracts/rides.sol\":1328:1356  passengers[passengerAddress] */\n      dup1\n        /* \"contracts/rides.sol\":1339:1355  passengerAddress */\n      dup4\n        /* \"contracts/rides.sol\":1328:1356  passengers[passengerAddress] */\n      0xffffffffffffffffffffffffffffffffffffffff\n      and\n      0xffffffffffffffffffffffffffffffffffffffff\n      and\n      dup2\n      mstore\n      0x20\n      add\n      swap1\n      dup2\n      mstore\n      0x20\n      add\n      0x00\n      keccak256\n        /* \"contracts/rides.sol\":1321:1356  return passengers[passengerAddress] */\n      mload(0x40)\n      dup1\n      0xc0\n      add\n      0x40\n      mstore\n      swap1\n      dup2\n      0x00\n      dup3\n      add\n      dup1\n      sload\n      tag_124\n      swap1\n      tag_66\n      jump\t// in\n    tag_124:\n      dup1\n      0x1f\n      add\n      0x20\n      dup1\n      swap2\n      div\n      mul\n      0x20\n      add\n      mload(0x40)\n      swap1\n      dup2\n      add\n      0x40\n      mstore\n      dup1\n      swap3\n      swap2\n      swap1\n      dup2\n      dup2\n      mstore\n      0x20\n      add\n      dup3\n      dup1\n      sload\n      tag_125\n      swap1\n      tag_66\n      jump\t// in\n    tag_125:\n      dup1\n      iszero\n      tag_126\n      jumpi\n      dup1\n      0x1f\n      lt\n      tag_127\n      jumpi\n      0x0100\n      dup1\n      dup4\n      sload\n      div\n      mul\n      dup4\n      mstore\n      swap2\n      0x20\n      add\n      swap2\n      jump(tag_126)\n    tag_127:\n      dup3\n      add\n      swap2\n      swap1\n      0x00\n      mstore\n      keccak256(0x00, 0x20)\n      swap1\n    tag_128:\n      dup2\n      sload\n      dup2\n      mstore\n      swap1\n      0x01\n      add\n      swap1\n      0x20\n      add\n      dup1\n      dup4\n      gt\n      tag_128\n      jumpi\n      dup3\n      swap1\n      sub\n      0x1f\n      and\n      dup3\n      add\n      swap2\n    tag_126:\n      pop\n      pop\n      pop\n      pop\n      pop\n      dup2\n      mstore\n      0x20\n      add\n      0x01\n      dup3\n      add\n      dup1\n      sload\n      tag_129\n      swap1\n      tag_66\n      jump\t// in\n    tag_129:\n      dup1\n      0x1f\n      add\n      0x20\n      dup1\n      swap2\n      div\n      mul\n      0x20\n      add\n      mload(0x40)\n      swap1\n      dup2\n      add\n      0x40\n      mstore\n      dup1\n      swap3\n      swap2\n      swap1\n      dup2\n      dup2\n      mstore\n      0x20\n      add\n      dup3\n      dup1\n      sload\n      tag_130\n      swap1\n      tag_66\n      jump\t// in\n    tag_130:\n      dup1\n      iszero\n      tag_131\n      jumpi\n      dup1\n      0x1f\n      lt\n      tag_132\n      jumpi\n      0x0100\n      dup1\n      dup4\n      sload\n      div\n      mul\n      dup4\n      mstore\n      swap2\n      0x20\n      add\n      swap2\n      jump(tag_131)\n    tag_132:\n      dup3\n      add\n      swap2\n      swap1\n      0x00\n      mstore\n      keccak256(0x00, 0x20)\n      swap1\n    tag_133:\n      dup2\n      sload\n      dup2\n      mstore\n      swap1\n      0x01\n      add\n      swap1\n      0x20\n      add\n      dup1\n      dup4\n      gt\n      tag_133\n      jumpi\n      dup3\n      swap1\n      sub\n      0x1f\n      and\n      dup3\n      add\n      swap2\n    tag_131:\n      pop\n      pop\n      pop\n      pop\n      pop\n      dup2\n      mstore\n      0x20\n      add\n      0x02\n      dup3\n      add\n      dup1\n      sload\n      tag_134\n      swap1\n      tag_66\n      jump\t// in\n    tag_134:\n      dup1\n      0x1f\n      add\n      0x20\n      dup1\n      swap2\n      div\n      mul\n      0x20\n      add\n      mload(0x40)\n      swap1\n      dup2\n      add\n      0x40\n      mstore\n      dup1\n      swap3\n      swap2\n      swap1\n      dup2\n      dup2\n      mstore\n      0x20\n      add\n      dup3\n      dup1\n      sload\n      tag_135\n      swap1\n      tag_66\n      jump\t// in\n    tag_135:\n      dup1\n      iszero\n      tag_136\n      jumpi\n      dup1\n      0x1f\n      lt\n      tag_137\n      jumpi\n      0x0100\n      dup1\n      dup4\n      sload\n      div\n      mul\n      dup4\n      mstore\n      swap2\n      0x20\n      add\n      swap2\n      jump(tag_136)\n    tag_137:\n      dup3\n      add\n      swap2\n      swap1\n      0x00\n      mstore\n      keccak256(0x00, 0x20)\n      swap1\n    tag_138:\n      dup2\n      sload\n      dup2\n      mstore\n      swap1\n      0x01\n      add\n      swap1\n      0x20\n      add\n      dup1\n      dup4\n      gt\n      tag_138\n      jumpi\n      dup3\n      swap1\n      sub\n      0x1f\n      and\n      dup3\n      add\n      swap2\n    tag_136:\n      pop\n      pop\n      pop\n      pop\n      pop\n      dup2\n      mstore\n      0x20\n      add\n      0x03\n      dup3\n      add\n      0x00\n      swap1\n      sload\n      swap1\n      0x0100\n      exp\n      swap1\n      div\n      0xffffffffffffffffffffffffffffffffffffffff\n      and\n      0xffffffffffffffffffffffffffffffffffffffff\n      and\n      0xffffffffffffffffffffffffffffffffffffffff\n      and\n      dup2\n      mstore\n      0x20\n      add\n      0x04\n      dup3\n      add\n      dup1\n      sload\n      dup1\n      0x20\n      mul\n      0x20\n      add\n      mload(0x40)\n      swap1\n      dup2\n      add\n      0x40\n      mstore\n      dup1\n      swap3\n      swap2\n      swap1\n      dup2\n      dup2\n      mstore\n      0x20\n      add\n      0x00\n      swap1\n    tag_139:\n      dup3\n      dup3\n      lt\n      iszero\n      tag_140\n      jumpi\n      dup4\n      dup3\n      swap1\n      0x00\n      mstore\n      keccak256(0x00, 0x20)\n      add\n      dup1\n      sload\n      tag_142\n      swap1\n      tag_66\n      jump\t// in\n    tag_142:\n      dup1\n      0x1f\n      add\n      0x20\n      dup1\n      swap2\n      div\n      mul\n      0x20\n      add\n      mload(0x40)\n      swap1\n      dup2\n      add\n      0x40\n      mstore\n      dup1\n      swap3\n      swap2\n      swap1\n      dup2\n      dup2\n      mstore\n      0x20\n      add\n      dup3\n      dup1\n      sload\n      tag_143\n      swap1\n      tag_66\n      jump\t// in\n    tag_143:\n      dup1\n      iszero\n      tag_144\n      jumpi\n      dup1\n      0x1f\n      lt\n      tag_145\n      jumpi\n      0x0100\n      dup1\n      dup4\n      sload\n      div\n      mul\n      dup4\n      mstore\n      swap2\n      0x20\n      add\n      swap2\n      jump(tag_144)\n    tag_145:\n      dup3\n      add\n      swap2\n      swap1\n      0x00\n      mstore\n      keccak256(0x00, 0x20)\n      swap1\n    tag_146:\n      dup2\n      sload\n      dup2\n      mstore\n      swap1\n      0x01\n      add\n      swap1\n      0x20\n      add\n      dup1\n      dup4\n      gt\n      tag_146\n      jumpi\n      dup3\n      swap1\n      sub\n      0x1f\n      and\n      dup3\n      add\n      swap2\n    tag_144:\n      pop\n      pop\n      pop\n      pop\n      pop\n      dup2\n      mstore\n      0x20\n      add\n      swap1\n      0x01\n      add\n      swap1\n      jump(tag_139)\n    tag_140:\n      pop\n      pop\n      pop\n      pop\n      dup2\n      mstore\n      0x20\n      add\n      0x05\n      dup3\n      add\n      0x00\n      swap1\n      sload\n      swap1\n      0x0100\n      exp\n      swap1\n      div\n      0xff\n      and\n      0x01\n      dup2\n      gt\n      iszero\n      tag_147\n      jumpi\n      tag_148\n      tag_78\n      jump\t// in\n    tag_148:\n    tag_147:\n      0x01\n      dup2\n      gt\n      iszero\n      tag_149\n      jumpi\n      tag_150\n      tag_78\n      jump\t// in\n    tag_150:\n    tag_149:\n      dup2\n      mstore\n      pop\n      pop\n      swap1\n      pop\n        /* \"contracts/rides.sol\":1210:1364  function getPassengerInfo(address payable passengerAddress) external view returns(passenger memory) {\r... */\n      swap2\n      swap1\n      pop\n      jump\t// out\n        /* \"contracts/rides.sol\":716:751  address payable[] public driverKeys */\n    tag_45:\n      0x03\n      dup2\n      dup2\n      sload\n      dup2\n      lt\n      tag_151\n      jumpi\n      0x00\n      dup1\n      revert\n    tag_151:\n      swap1\n      0x00\n      mstore\n      keccak256(0x00, 0x20)\n      add\n      0x00\n      swap2\n      pop\n      sload\n      swap1\n      0x0100\n      exp\n      swap1\n      div\n      0xffffffffffffffffffffffffffffffffffffffff\n      and\n      dup2\n      jump\t// out\n        /* \"contracts/rides.sol\":668:709  mapping(address => driver) public drivers */\n    tag_50:\n      mstore(0x20, 0x02)\n      dup1\n      0x00\n      mstore\n      keccak256(0x00, 0x40)\n      0x00\n      swap2\n      pop\n      swap1\n      pop\n      dup1\n      0x00\n      add\n      dup1\n      sload\n      tag_153\n      swap1\n      tag_66\n      jump\t// in\n    tag_153:\n      dup1\n      0x1f\n      add\n      0x20\n      dup1\n      swap2\n      div\n      mul\n      0x20\n      add\n      mload(0x40)\n      swap1\n      dup2\n      add\n      0x40\n      mstore\n      dup1\n      swap3\n      swap2\n      swap1\n      dup2\n      dup2\n      mstore\n      0x20\n      add\n      dup3\n      dup1\n      sload\n      tag_154\n      swap1\n      tag_66\n      jump\t// in\n    tag_154:\n      dup1\n      iszero\n      tag_155\n      jumpi\n      dup1\n      0x1f\n      lt\n      tag_156\n      jumpi\n      0x0100\n      dup1\n      dup4\n      sload\n      div\n      mul\n      dup4\n      mstore\n      swap2\n      0x20\n      add\n      swap2\n      jump(tag_155)\n    tag_156:\n      dup3\n      add\n      swap2\n      swap1\n      0x00\n      mstore\n      keccak256(0x00, 0x20)\n      swap1\n    tag_157:\n      dup2\n      sload\n      dup2\n      mstore\n      swap1\n      0x01\n      add\n      swap1\n      0x20\n      add\n      dup1\n      dup4\n      gt\n      tag_157\n      jumpi\n      dup3\n      swap1\n      sub\n      0x1f\n      and\n      dup3\n      add\n      swap2\n    tag_155:\n      pop\n      pop\n      pop\n      pop\n      pop\n      swap1\n      dup1\n      0x01\n      add\n      dup1\n      sload\n      tag_158\n      swap1\n      tag_66\n      jump\t// in\n    tag_158:\n      dup1\n      0x1f\n      add\n      0x20\n      dup1\n      swap2\n      div\n      mul\n      0x20\n      add\n      mload(0x40)\n      swap1\n      dup2\n      add\n      0x40\n      mstore\n      dup1\n      swap3\n      swap2\n      swap1\n      dup2\n      dup2\n      mstore\n      0x20\n      add\n      dup3\n      dup1\n      sload\n      tag_159\n      swap1\n      tag_66\n      jump\t// in\n    tag_159:\n      dup1\n      iszero\n      tag_160\n      jumpi\n      dup1\n      0x1f\n      lt\n      tag_161\n      jumpi\n      0x0100\n      dup1\n      dup4\n      sload\n      div\n      mul\n      dup4\n      mstore\n      swap2\n      0x20\n      add\n      swap2\n      jump(tag_160)\n    tag_161:\n      dup3\n      add\n      swap2\n      swap1\n      0x00\n      mstore\n      keccak256(0x00, 0x20)\n      swap1\n    tag_162:\n      dup2\n      sload\n      dup2\n      mstore\n      swap1\n      0x01\n      add\n      swap1\n      0x20\n      add\n      dup1\n      dup4\n      gt\n      tag_162\n      jumpi\n      dup3\n      swap1\n      sub\n      0x1f\n      and\n      dup3\n      add\n      swap2\n    tag_160:\n      pop\n      pop\n      pop\n      pop\n      pop\n      swap1\n      dup1\n      0x02\n      add\n      dup1\n      sload\n      tag_163\n      swap1\n      tag_66\n      jump\t// in\n    tag_163:\n      dup1\n      0x1f\n      add\n      0x20\n      dup1\n      swap2\n      div\n      mul\n      0x20\n      add\n      mload(0x40)\n      swap1\n      dup2\n      add\n      0x40\n      mstore\n      dup1\n      swap3\n      swap2\n      swap1\n      dup2\n      dup2\n      mstore\n      0x20\n      add\n      dup3\n      dup1\n      sload\n      tag_164\n      swap1\n      tag_66\n      jump\t// in\n    tag_164:\n      dup1\n      iszero\n      tag_165\n      jumpi\n      dup1\n      0x1f\n      lt\n      tag_166\n      jumpi\n      0x0100\n      dup1\n      dup4\n      sload\n      div\n      mul\n      dup4\n      mstore\n      swap2\n      0x20\n      add\n      swap2\n      jump(tag_165)\n    tag_166:\n      dup3\n      add\n      swap2\n      swap1\n      0x00\n      mstore\n      keccak256(0x00, 0x20)\n      swap1\n    tag_167:\n      dup2\n      sload\n      dup2\n      mstore\n      swap1\n      0x01\n      add\n      swap1\n      0x20\n      add\n      dup1\n      dup4\n      gt\n      tag_167\n      jumpi\n      dup3\n      swap1\n      sub\n      0x1f\n      and\n      dup3\n      add\n      swap2\n    tag_165:\n      pop\n      pop\n      pop\n      pop\n      pop\n      swap1\n      dup1\n      0x03\n      add\n      0x00\n      swap1\n      sload\n      swap1\n      0x0100\n      exp\n      swap1\n      div\n      0xffffffffffffffffffffffffffffffffffffffff\n      and\n      swap1\n      dup1\n      0x05\n      add\n      0x00\n      swap1\n      sload\n      swap1\n      0x0100\n      exp\n      swap1\n      div\n      0xff\n      and\n      swap1\n      pop\n      dup6\n      jump\t// out\n        /* \"contracts/rides.sol\":377:424  mapping(address => passenger) public passengers */\n    tag_55:\n      mstore(0x20, 0x00)\n      dup1\n      0x00\n      mstore\n      keccak256(0x00, 0x40)\n      0x00\n      swap2\n      pop\n      swap1\n      pop\n      dup1\n      0x00\n      add\n      dup1\n      sload\n      tag_168\n      swap1\n      tag_66\n      jump\t// in\n    tag_168:\n      dup1\n      0x1f\n      add\n      0x20\n      dup1\n      swap2\n      div\n      mul\n      0x20\n      add\n      mload(0x40)\n      swap1\n      dup2\n      add\n      0x40\n      mstore\n      dup1\n      swap3\n      swap2\n      swap1\n      dup2\n      dup2\n      mstore\n      0x20\n      add\n      dup3\n      dup1\n      sload\n      tag_169\n      swap1\n      tag_66\n      jump\t// in\n    tag_169:\n      dup1\n      iszero\n      tag_170\n      jumpi\n      dup1\n      0x1f\n      lt\n      tag_171\n      jumpi\n      0x0100\n      dup1\n      dup4\n      sload\n      div\n      mul\n      dup4\n      mstore\n      swap2\n      0x20\n      add\n      swap2\n      jump(tag_170)\n    tag_171:\n      dup3\n      add\n      swap2\n      swap1\n      0x00\n      mstore\n      keccak256(0x00, 0x20)\n      swap1\n    tag_172:\n      dup2\n      sload\n      dup2\n      mstore\n      swap1\n      0x01\n      add\n      swap1\n      0x20\n      add\n      dup1\n      dup4\n      gt\n      tag_172\n      jumpi\n      dup3\n      swap1\n      sub\n      0x1f\n      and\n      dup3\n      add\n      swap2\n    tag_170:\n      pop\n      pop\n      pop\n      pop\n      pop\n      swap1\n      dup1\n      0x01\n      add\n      dup1\n      sload\n      tag_173\n      swap1\n      tag_66\n      jump\t// in\n    tag_173:\n      dup1\n      0x1f\n      add\n      0x20\n      dup1\n      swap2\n      div\n      mul\n      0x20\n      add\n      mload(0x40)\n      swap1\n      dup2\n      add\n      0x40\n      mstore\n      dup1\n      swap3\n      swap2\n      swap1\n      dup2\n      dup2\n      mstore\n      0x20\n      add\n      dup3\n      dup1\n      sload\n      tag_174\n      swap1\n      tag_66\n      jump\t// in\n    tag_174:\n      dup1\n      iszero\n      tag_175\n      jumpi\n      dup1\n      0x1f\n      lt\n      tag_176\n      jumpi\n      0x0100\n      dup1\n      dup4\n      sload\n      div\n      mul\n      dup4\n      mstore\n      swap2\n      0x20\n      add\n      swap2\n      jump(tag_175)\n    tag_176:\n      dup3\n      add\n      swap2\n      swap1\n      0x00\n      mstore\n      keccak256(0x00, 0x20)\n      swap1\n    tag_177:\n      dup2\n      sload\n      dup2\n      mstore\n      swap1\n      0x01\n      add\n      swap1\n      0x20\n      add\n      dup1\n      dup4\n      gt\n      tag_177\n      jumpi\n      dup3\n      swap1\n      sub\n      0x1f\n      and\n      dup3\n      add\n      swap2\n    tag_175:\n      pop\n      pop\n      pop\n      pop\n      pop\n      swap1\n      dup1\n      0x02\n      add\n      dup1\n      sload\n      tag_178\n      swap1\n      tag_66\n      jump\t// in\n    tag_178:\n      dup1\n      0x1f\n      add\n      0x20\n      dup1\n      swap2\n      div\n      mul\n      0x20\n      add\n      mload(0x40)\n      swap1\n      dup2\n      add\n      0x40\n      mstore\n      dup1\n      swap3\n      swap2\n      swap1\n      dup2\n      dup2\n      mstore\n      0x20\n      add\n      dup3\n      dup1\n      sload\n      tag_179\n      swap1\n      tag_66\n      jump\t// in\n    tag_179:\n      dup1\n      iszero\n      tag_180\n      jumpi\n      dup1\n      0x1f\n      lt\n      tag_181\n      jumpi\n      0x0100\n      dup1\n      dup4\n      sload\n      div\n      mul\n      dup4\n      mstore\n      swap2\n      0x20\n      add\n      swap2\n      jump(tag_180)\n    tag_181:\n      dup3\n      add\n      swap2\n      swap1\n      0x00\n      mstore\n      keccak256(0x00, 0x20)\n      swap1\n    tag_182:\n      dup2\n      sload\n      dup2\n      mstore\n      swap1\n      0x01\n      add\n      swap1\n      0x20\n      add\n      dup1\n      dup4\n      gt\n      tag_182\n      jumpi\n      dup3\n      swap1\n      sub\n      0x1f\n      and\n      dup3\n      add\n      swap2\n    tag_180:\n      pop\n      pop\n      pop\n      pop\n      pop\n      swap1\n      dup1\n      0x03\n      add\n      0x00\n      swap1\n      sload\n      swap1\n      0x0100\n      exp\n      swap1\n      div\n      0xffffffffffffffffffffffffffffffffffffffff\n      and\n      swap1\n      dup1\n      0x05\n      add\n      0x00\n      swap1\n      sload\n      swap1\n      0x0100\n      exp\n      swap1\n      div\n      0xff\n      and\n      swap1\n      pop\n      dup6\n      jump\t// out\n        /* \"contracts/rides.sol\":2127:2163  mapping(string => ride) public rides */\n    tag_60:\n      0x04\n      dup2\n      dup1\n      mload\n      0x20\n      dup2\n      add\n      dup3\n      add\n      dup1\n      mload\n      dup5\n      dup3\n      mstore\n      0x20\n      dup4\n      add\n      0x20\n      dup6\n      add\n      keccak256\n      dup2\n      dup4\n      mstore\n      dup1\n      swap6\n      pop\n      pop\n      pop\n      pop\n      pop\n      pop\n      0x00\n      swap2\n      pop\n      swap1\n      pop\n      dup1\n      0x00\n      add\n      0x00\n      swap1\n      sload\n      swap1\n      0x0100\n      exp\n      swap1\n      div\n      0xffffffffffffffffffffffffffffffffffffffff\n      and\n      swap1\n      dup1\n      0x01\n      add\n      0x00\n      swap1\n      sload\n      swap1\n      0x0100\n      exp\n      swap1\n      div\n      0xffffffffffffffffffffffffffffffffffffffff\n      and\n      swap1\n      dup1\n      0x02\n      add\n      dup1\n      sload\n      tag_183\n      swap1\n      tag_66\n      jump\t// in\n    tag_183:\n      dup1\n      0x1f\n      add\n      0x20\n      dup1\n      swap2\n      div\n      mul\n      0x20\n      add\n      mload(0x40)\n      swap1\n      dup2\n      add\n      0x40\n      mstore\n      dup1\n      swap3\n      swap2\n      swap1\n      dup2\n      dup2\n      mstore\n      0x20\n      add\n      dup3\n      dup1\n      sload\n      tag_184\n      swap1\n      tag_66\n      jump\t// in\n    tag_184:\n      dup1\n      iszero\n      tag_185\n      jumpi\n      dup1\n      0x1f\n      lt\n      tag_186\n      jumpi\n      0x0100\n      dup1\n      dup4\n      sload\n      div\n      mul\n      dup4\n      mstore\n      swap2\n      0x20\n      add\n      swap2\n      jump(tag_185)\n    tag_186:\n      dup3\n      add\n      swap2\n      swap1\n      0x00\n      mstore\n      keccak256(0x00, 0x20)\n      swap1\n    tag_187:\n      dup2\n      sload\n      dup2\n      mstore\n      swap1\n      0x01\n      add\n      swap1\n      0x20\n      add\n      dup1\n      dup4\n      gt\n      tag_187\n      jumpi\n      dup3\n      swap1\n      sub\n      0x1f\n      and\n      dup3\n      add\n      swap2\n    tag_185:\n      pop\n      pop\n      pop\n      pop\n      pop\n      swap1\n      dup1\n      0x03\n      add\n      dup1\n      sload\n      tag_188\n      swap1\n      tag_66\n      jump\t// in\n    tag_188:\n      dup1\n      0x1f\n      add\n      0x20\n      dup1\n      swap2\n      div\n      mul\n      0x20\n      add\n      mload(0x40)\n      swap1\n      dup2\n      add\n      0x40\n      mstore\n      dup1\n      swap3\n      swap2\n      swap1\n      dup2\n      dup2\n      mstore\n      0x20\n      add\n      dup3\n      dup1\n      sload\n      tag_189\n      swap1\n      tag_66\n      jump\t// in\n    tag_189:\n      dup1\n      iszero\n      tag_190\n      jumpi\n      dup1\n      0x1f\n      lt\n      tag_191\n      jumpi\n      0x0100\n      dup1\n      dup4\n      sload\n      div\n      mul\n      dup4\n      mstore\n      swap2\n      0x20\n      add\n      swap2\n      jump(tag_190)\n    tag_191:\n      dup3\n      add\n      swap2\n      swap1\n      0x00\n      mstore\n      keccak256(0x00, 0x20)\n      swap1\n    tag_192:\n      dup2\n      sload\n      dup2\n      mstore\n      swap1\n      0x01\n      add\n      swap1\n      0x20\n      add\n      dup1\n      dup4\n      gt\n      tag_192\n      jumpi\n      dup3\n      swap1\n      sub\n      0x1f\n      and\n      dup3\n      add\n      swap2\n    tag_190:\n      pop\n      pop\n      pop\n      pop\n      pop\n      swap1\n      dup1\n      0x04\n      add\n      sload\n      swap1\n      pop\n      dup6\n      jump\t// out\n    tag_73:\n      dup3\n      dup1\n      sload\n      tag_193\n      swap1\n      tag_66\n      jump\t// in\n    tag_193:\n      swap1\n      0x00\n      mstore\n      keccak256(0x00, 0x20)\n      swap1\n      0x1f\n      add\n      0x20\n      swap1\n      div\n      dup2\n      add\n      swap3\n      dup3\n      tag_195\n      jumpi\n      0x00\n      dup6\n      sstore\n      jump(tag_194)\n    tag_195:\n      dup3\n      0x1f\n      lt\n      tag_196\n      jumpi\n      dup1\n      mload\n      not(0xff)\n      and\n      dup4\n      dup1\n      add\n      or\n      dup6\n      sstore\n      jump(tag_194)\n    tag_196:\n      dup3\n      dup1\n      add\n      0x01\n      add\n      dup6\n      sstore\n      dup3\n      iszero\n      tag_194\n      jumpi\n      swap2\n      dup3\n      add\n    tag_197:\n      dup3\n      dup2\n      gt\n      iszero\n      tag_198\n      jumpi\n      dup3\n      mload\n      dup3\n      sstore\n      swap2\n      0x20\n      add\n      swap2\n      swap1\n      0x01\n      add\n      swap1\n      jump(tag_197)\n    tag_198:\n    tag_194:\n      pop\n      swap1\n      pop\n      tag_199\n      swap2\n      swap1\n      tag_200\n      jump\t// in\n    tag_199:\n      pop\n      swap1\n      jump\t// out\n    tag_90:\n      mload(0x40)\n      dup1\n      0xc0\n      add\n      0x40\n      mstore\n      dup1\n      0x60\n      dup2\n      mstore\n      0x20\n      add\n      0x60\n      dup2\n      mstore\n      0x20\n      add\n      0x60\n      dup2\n      mstore\n      0x20\n      add\n      and(0xffffffffffffffffffffffffffffffffffffffff, 0x00)\n      dup2\n      mstore\n      0x20\n      add\n      0x60\n      dup2\n      mstore\n      0x20\n      add\n      0x00\n      0x01\n      dup2\n      gt\n      iszero\n      tag_201\n      jumpi\n      tag_202\n      tag_78\n      jump\t// in\n    tag_202:\n    tag_201:\n      dup2\n      mstore\n      pop\n      swap1\n      jump\t// out\n    tag_122:\n      mload(0x40)\n      dup1\n      0xc0\n      add\n      0x40\n      mstore\n      dup1\n      0x60\n      dup2\n      mstore\n      0x20\n      add\n      0x60\n      dup2\n      mstore\n      0x20\n      add\n      0x60\n      dup2\n      mstore\n      0x20\n      add\n      and(0xffffffffffffffffffffffffffffffffffffffff, 0x00)\n      dup2\n      mstore\n      0x20\n      add\n      0x60\n      dup2\n      mstore\n      0x20\n      add\n      0x00\n      0x01\n      dup2\n      gt\n      iszero\n      tag_203\n      jumpi\n      tag_204\n      tag_78\n      jump\t// in\n    tag_204:\n    tag_203:\n      dup2\n      mstore\n      pop\n      swap1\n      jump\t// out\n    tag_200:\n    tag_205:\n      dup1\n      dup3\n      gt\n      iszero\n      tag_206\n      jumpi\n      0x00\n      dup2\n      0x00\n      swap1\n      sstore\n      pop\n      0x01\n      add\n      jump(tag_205)\n    tag_206:\n      pop\n      swap1\n      jump\t// out\n        /* \"#utility.yul\":7:419   */\n    tag_208:\n        /* \"#utility.yul\":85:90   */\n      0x00\n        /* \"#utility.yul\":110:176   */\n      tag_210\n        /* \"#utility.yul\":126:175   */\n      tag_211\n        /* \"#utility.yul\":168:174   */\n      dup5\n        /* \"#utility.yul\":126:175   */\n      tag_212\n      jump\t// in\n    tag_211:\n        /* \"#utility.yul\":110:176   */\n      tag_213\n      jump\t// in\n    tag_210:\n        /* \"#utility.yul\":101:176   */\n      swap1\n      pop\n        /* \"#utility.yul\":199:205   */\n      dup3\n        /* \"#utility.yul\":192:197   */\n      dup2\n        /* \"#utility.yul\":185:206   */\n      mstore\n        /* \"#utility.yul\":237:241   */\n      0x20\n        /* \"#utility.yul\":230:235   */\n      dup2\n        /* \"#utility.yul\":226:242   */\n      add\n        /* \"#utility.yul\":275:278   */\n      dup5\n        /* \"#utility.yul\":266:272   */\n      dup5\n        /* \"#utility.yul\":261:264   */\n      dup5\n        /* \"#utility.yul\":257:273   */\n      add\n        /* \"#utility.yul\":254:279   */\n      gt\n        /* \"#utility.yul\":251:363   */\n      iszero\n      tag_214\n      jumpi\n        /* \"#utility.yul\":282:361   */\n      tag_215\n      tag_216\n      jump\t// in\n    tag_215:\n        /* \"#utility.yul\":251:363   */\n    tag_214:\n        /* \"#utility.yul\":372:413   */\n      tag_217\n        /* \"#utility.yul\":406:412   */\n      dup5\n        /* \"#utility.yul\":401:404   */\n      dup3\n        /* \"#utility.yul\":396:399   */\n      dup6\n        /* \"#utility.yul\":372:413   */\n      tag_218\n      jump\t// in\n    tag_217:\n        /* \"#utility.yul\":91:419   */\n      pop\n        /* \"#utility.yul\":7:419   */\n      swap4\n      swap3\n      pop\n      pop\n      pop\n      jump\t// out\n        /* \"#utility.yul\":425:564   */\n    tag_219:\n        /* \"#utility.yul\":471:476   */\n      0x00\n        /* \"#utility.yul\":509:515   */\n      dup2\n        /* \"#utility.yul\":496:516   */\n      calldataload\n        /* \"#utility.yul\":487:516   */\n      swap1\n      pop\n        /* \"#utility.yul\":525:558   */\n      tag_221\n        /* \"#utility.yul\":552:557   */\n      dup2\n        /* \"#utility.yul\":525:558   */\n      tag_222\n      jump\t// in\n    tag_221:\n        /* \"#utility.yul\":425:564   */\n      swap3\n      swap2\n      pop\n      pop\n      jump\t// out\n        /* \"#utility.yul\":570:725   */\n    tag_223:\n        /* \"#utility.yul\":624:629   */\n      0x00\n        /* \"#utility.yul\":662:668   */\n      dup2\n        /* \"#utility.yul\":649:669   */\n      calldataload\n        /* \"#utility.yul\":640:669   */\n      swap1\n      pop\n        /* \"#utility.yul\":678:719   */\n      tag_225\n        /* \"#utility.yul\":713:718   */\n      dup2\n        /* \"#utility.yul\":678:719   */\n      tag_226\n      jump\t// in\n    tag_225:\n        /* \"#utility.yul\":570:725   */\n      swap3\n      swap2\n      pop\n      pop\n      jump\t// out\n        /* \"#utility.yul\":745:1085   */\n    tag_227:\n        /* \"#utility.yul\":801:806   */\n      0x00\n        /* \"#utility.yul\":850:853   */\n      dup3\n        /* \"#utility.yul\":843:847   */\n      0x1f\n        /* \"#utility.yul\":835:841   */\n      dup4\n        /* \"#utility.yul\":831:848   */\n      add\n        /* \"#utility.yul\":827:854   */\n      slt\n        /* \"#utility.yul\":817:939   */\n      tag_229\n      jumpi\n        /* \"#utility.yul\":858:937   */\n      tag_230\n      tag_231\n      jump\t// in\n    tag_230:\n        /* \"#utility.yul\":817:939   */\n    tag_229:\n        /* \"#utility.yul\":975:981   */\n      dup2\n        /* \"#utility.yul\":962:982   */\n      calldataload\n        /* \"#utility.yul\":1000:1079   */\n      tag_232\n        /* \"#utility.yul\":1075:1078   */\n      dup5\n        /* \"#utility.yul\":1067:1073   */\n      dup3\n        /* \"#utility.yul\":1060:1064   */\n      0x20\n        /* \"#utility.yul\":1052:1058   */\n      dup7\n        /* \"#utility.yul\":1048:1065   */\n      add\n        /* \"#utility.yul\":1000:1079   */\n      tag_208\n      jump\t// in\n    tag_232:\n        /* \"#utility.yul\":991:1079   */\n      swap2\n      pop\n        /* \"#utility.yul\":807:1085   */\n      pop\n        /* \"#utility.yul\":745:1085   */\n      swap3\n      swap2\n      pop\n      pop\n      jump\t// out\n        /* \"#utility.yul\":1091:1230   */\n    tag_233:\n        /* \"#utility.yul\":1137:1142   */\n      0x00\n        /* \"#utility.yul\":1175:1181   */\n      dup2\n        /* \"#utility.yul\":1162:1182   */\n      calldataload\n        /* \"#utility.yul\":1153:1182   */\n      swap1\n      pop\n        /* \"#utility.yul\":1191:1224   */\n      tag_235\n        /* \"#utility.yul\":1218:1223   */\n      dup2\n        /* \"#utility.yul\":1191:1224   */\n      tag_236\n      jump\t// in\n    tag_235:\n        /* \"#utility.yul\":1091:1230   */\n      swap3\n      swap2\n      pop\n      pop\n      jump\t// out\n        /* \"#utility.yul\":1236:1565   */\n    tag_49:\n        /* \"#utility.yul\":1295:1301   */\n      0x00\n        /* \"#utility.yul\":1344:1346   */\n      0x20\n        /* \"#utility.yul\":1332:1341   */\n      dup3\n        /* \"#utility.yul\":1323:1330   */\n      dup5\n        /* \"#utility.yul\":1319:1342   */\n      sub\n        /* \"#utility.yul\":1315:1347   */\n      slt\n        /* \"#utility.yul\":1312:1431   */\n      iszero\n      tag_238\n      jumpi\n        /* \"#utility.yul\":1350:1429   */\n      tag_239\n      tag_240\n      jump\t// in\n    tag_239:\n        /* \"#utility.yul\":1312:1431   */\n    tag_238:\n        /* \"#utility.yul\":1470:1471   */\n      0x00\n        /* \"#utility.yul\":1495:1548   */\n      tag_241\n        /* \"#utility.yul\":1540:1547   */\n      dup5\n        /* \"#utility.yul\":1531:1537   */\n      dup3\n        /* \"#utility.yul\":1520:1529   */\n      dup6\n        /* \"#utility.yul\":1516:1538   */\n      add\n        /* \"#utility.yul\":1495:1548   */\n      tag_219\n      jump\t// in\n    tag_241:\n        /* \"#utility.yul\":1485:1548   */\n      swap2\n      pop\n        /* \"#utility.yul\":1441:1558   */\n      pop\n        /* \"#utility.yul\":1236:1565   */\n      swap3\n      swap2\n      pop\n      pop\n      jump\t// out\n        /* \"#utility.yul\":1571:1916   */\n    tag_29:\n        /* \"#utility.yul\":1638:1644   */\n      0x00\n        /* \"#utility.yul\":1687:1689   */\n      0x20\n        /* \"#utility.yul\":1675:1684   */\n      dup3\n        /* \"#utility.yul\":1666:1673   */\n      dup5\n        /* \"#utility.yul\":1662:1685   */\n      sub\n        /* \"#utility.yul\":1658:1690   */\n      slt\n        /* \"#utility.yul\":1655:1774   */\n      iszero\n      tag_243\n      jumpi\n        /* \"#utility.yul\":1693:1772   */\n      tag_244\n      tag_240\n      jump\t// in\n    tag_244:\n        /* \"#utility.yul\":1655:1774   */\n    tag_243:\n        /* \"#utility.yul\":1813:1814   */\n      0x00\n        /* \"#utility.yul\":1838:1899   */\n      tag_245\n        /* \"#utility.yul\":1891:1898   */\n      dup5\n        /* \"#utility.yul\":1882:1888   */\n      dup3\n        /* \"#utility.yul\":1871:1880   */\n      dup6\n        /* \"#utility.yul\":1867:1889   */\n      add\n        /* \"#utility.yul\":1838:1899   */\n      tag_223\n      jump\t// in\n    tag_245:\n        /* \"#utility.yul\":1828:1899   */\n      swap2\n      pop\n        /* \"#utility.yul\":1784:1909   */\n      pop\n        /* \"#utility.yul\":1571:1916   */\n      swap3\n      swap2\n      pop\n      pop\n      jump\t// out\n        /* \"#utility.yul\":1922:2431   */\n    tag_59:\n        /* \"#utility.yul\":1991:1997   */\n      0x00\n        /* \"#utility.yul\":2040:2042   */\n      0x20\n        /* \"#utility.yul\":2028:2037   */\n      dup3\n        /* \"#utility.yul\":2019:2026   */\n      dup5\n        /* \"#utility.yul\":2015:2038   */\n      sub\n        /* \"#utility.yul\":2011:2043   */\n      slt\n        /* \"#utility.yul\":2008:2127   */\n      iszero\n      tag_247\n      jumpi\n        /* \"#utility.yul\":2046:2125   */\n      tag_248\n      tag_240\n      jump\t// in\n    tag_248:\n        /* \"#utility.yul\":2008:2127   */\n    tag_247:\n        /* \"#utility.yul\":2194:2195   */\n      0x00\n        /* \"#utility.yul\":2183:2192   */\n      dup3\n        /* \"#utility.yul\":2179:2196   */\n      add\n        /* \"#utility.yul\":2166:2197   */\n      calldataload\n        /* \"#utility.yul\":2224:2242   */\n      0xffffffffffffffff\n        /* \"#utility.yul\":2216:2222   */\n      dup2\n        /* \"#utility.yul\":2213:2243   */\n      gt\n        /* \"#utility.yul\":2210:2327   */\n      iszero\n      tag_249\n      jumpi\n        /* \"#utility.yul\":2246:2325   */\n      tag_250\n      tag_251\n      jump\t// in\n    tag_250:\n        /* \"#utility.yul\":2210:2327   */\n    tag_249:\n        /* \"#utility.yul\":2351:2414   */\n      tag_252\n        /* \"#utility.yul\":2406:2413   */\n      dup5\n        /* \"#utility.yul\":2397:2403   */\n      dup3\n        /* \"#utility.yul\":2386:2395   */\n      dup6\n        /* \"#utility.yul\":2382:2404   */\n      add\n        /* \"#utility.yul\":2351:2414   */\n      tag_227\n      jump\t// in\n    tag_252:\n        /* \"#utility.yul\":2341:2414   */\n      swap2\n      pop\n        /* \"#utility.yul\":2137:2424   */\n      pop\n        /* \"#utility.yul\":1922:2431   */\n      swap3\n      swap2\n      pop\n      pop\n      jump\t// out\n        /* \"#utility.yul\":2437:3742   */\n    tag_22:\n        /* \"#utility.yul\":2553:2559   */\n      0x00\n        /* \"#utility.yul\":2561:2567   */\n      dup1\n        /* \"#utility.yul\":2569:2575   */\n      0x00\n        /* \"#utility.yul\":2577:2583   */\n      dup1\n        /* \"#utility.yul\":2626:2629   */\n      0x80\n        /* \"#utility.yul\":2614:2623   */\n      dup6\n        /* \"#utility.yul\":2605:2612   */\n      dup8\n        /* \"#utility.yul\":2601:2624   */\n      sub\n        /* \"#utility.yul\":2597:2630   */\n      slt\n        /* \"#utility.yul\":2594:2714   */\n      iszero\n      tag_254\n      jumpi\n        /* \"#utility.yul\":2633:2712   */\n      tag_255\n      tag_240\n      jump\t// in\n    tag_255:\n        /* \"#utility.yul\":2594:2714   */\n    tag_254:\n        /* \"#utility.yul\":2781:2782   */\n      0x00\n        /* \"#utility.yul\":2770:2779   */\n      dup6\n        /* \"#utility.yul\":2766:2783   */\n      add\n        /* \"#utility.yul\":2753:2784   */\n      calldataload\n        /* \"#utility.yul\":2811:2829   */\n      0xffffffffffffffff\n        /* \"#utility.yul\":2803:2809   */\n      dup2\n        /* \"#utility.yul\":2800:2830   */\n      gt\n        /* \"#utility.yul\":2797:2914   */\n      iszero\n      tag_256\n      jumpi\n        /* \"#utility.yul\":2833:2912   */\n      tag_257\n      tag_251\n      jump\t// in\n    tag_257:\n        /* \"#utility.yul\":2797:2914   */\n    tag_256:\n        /* \"#utility.yul\":2938:3001   */\n      tag_258\n        /* \"#utility.yul\":2993:3000   */\n      dup8\n        /* \"#utility.yul\":2984:2990   */\n      dup3\n        /* \"#utility.yul\":2973:2982   */\n      dup9\n        /* \"#utility.yul\":2969:2991   */\n      add\n        /* \"#utility.yul\":2938:3001   */\n      tag_227\n      jump\t// in\n    tag_258:\n        /* \"#utility.yul\":2928:3001   */\n      swap5\n      pop\n        /* \"#utility.yul\":2724:3011   */\n      pop\n        /* \"#utility.yul\":3078:3080   */\n      0x20\n        /* \"#utility.yul\":3067:3076   */\n      dup6\n        /* \"#utility.yul\":3063:3081   */\n      add\n        /* \"#utility.yul\":3050:3082   */\n      calldataload\n        /* \"#utility.yul\":3109:3127   */\n      0xffffffffffffffff\n        /* \"#utility.yul\":3101:3107   */\n      dup2\n        /* \"#utility.yul\":3098:3128   */\n      gt\n        /* \"#utility.yul\":3095:3212   */\n      iszero\n      tag_259\n      jumpi\n        /* \"#utility.yul\":3131:3210   */\n      tag_260\n      tag_251\n      jump\t// in\n    tag_260:\n        /* \"#utility.yul\":3095:3212   */\n    tag_259:\n        /* \"#utility.yul\":3236:3299   */\n      tag_261\n        /* \"#utility.yul\":3291:3298   */\n      dup8\n        /* \"#utility.yul\":3282:3288   */\n      dup3\n        /* \"#utility.yul\":3271:3280   */\n      dup9\n        /* \"#utility.yul\":3267:3289   */\n      add\n        /* \"#utility.yul\":3236:3299   */\n      tag_227\n      jump\t// in\n    tag_261:\n        /* \"#utility.yul\":3226:3299   */\n      swap4\n      pop\n        /* \"#utility.yul\":3021:3309   */\n      pop\n        /* \"#utility.yul\":3376:3378   */\n      0x40\n        /* \"#utility.yul\":3365:3374   */\n      dup6\n        /* \"#utility.yul\":3361:3379   */\n      add\n        /* \"#utility.yul\":3348:3380   */\n      calldataload\n        /* \"#utility.yul\":3407:3425   */\n      0xffffffffffffffff\n        /* \"#utility.yul\":3399:3405   */\n      dup2\n        /* \"#utility.yul\":3396:3426   */\n      gt\n        /* \"#utility.yul\":3393:3510   */\n      iszero\n      tag_262\n      jumpi\n        /* \"#utility.yul\":3429:3508   */\n      tag_263\n      tag_251\n      jump\t// in\n    tag_263:\n        /* \"#utility.yul\":3393:3510   */\n    tag_262:\n        /* \"#utility.yul\":3534:3597   */\n      tag_264\n        /* \"#utility.yul\":3589:3596   */\n      dup8\n        /* \"#utility.yul\":3580:3586   */\n      dup3\n        /* \"#utility.yul\":3569:3578   */\n      dup9\n        /* \"#utility.yul\":3565:3587   */\n      add\n        /* \"#utility.yul\":3534:3597   */\n      tag_227\n      jump\t// in\n    tag_264:\n        /* \"#utility.yul\":3524:3597   */\n      swap3\n      pop\n        /* \"#utility.yul\":3319:3607   */\n      pop\n        /* \"#utility.yul\":3646:3648   */\n      0x60\n        /* \"#utility.yul\":3672:3725   */\n      tag_265\n        /* \"#utility.yul\":3717:3724   */\n      dup8\n        /* \"#utility.yul\":3708:3714   */\n      dup3\n        /* \"#utility.yul\":3697:3706   */\n      dup9\n        /* \"#utility.yul\":3693:3715   */\n      add\n        /* \"#utility.yul\":3672:3725   */\n      tag_233\n      jump\t// in\n    tag_265:\n        /* \"#utility.yul\":3662:3725   */\n      swap2\n      pop\n        /* \"#utility.yul\":3617:3735   */\n      pop\n        /* \"#utility.yul\":2437:3742   */\n      swap3\n      swap6\n      swap2\n      swap5\n      pop\n      swap3\n      pop\n      jump\t// out\n        /* \"#utility.yul\":3748:4077   */\n    tag_16:\n        /* \"#utility.yul\":3807:3813   */\n      0x00\n        /* \"#utility.yul\":3856:3858   */\n      0x20\n        /* \"#utility.yul\":3844:3853   */\n      dup3\n        /* \"#utility.yul\":3835:3842   */\n      dup5\n        /* \"#utility.yul\":3831:3854   */\n      sub\n        /* \"#utility.yul\":3827:3859   */\n      slt\n        /* \"#utility.yul\":3824:3943   */\n      iszero\n      tag_267\n      jumpi\n        /* \"#utility.yul\":3862:3941   */\n      tag_268\n      tag_240\n      jump\t// in\n    tag_268:\n        /* \"#utility.yul\":3824:3943   */\n    tag_267:\n        /* \"#utility.yul\":3982:3983   */\n      0x00\n        /* \"#utility.yul\":4007:4060   */\n      tag_269\n        /* \"#utility.yul\":4052:4059   */\n      dup5\n        /* \"#utility.yul\":4043:4049   */\n      dup3\n        /* \"#utility.yul\":4032:4041   */\n      dup6\n        /* \"#utility.yul\":4028:4050   */\n      add\n        /* \"#utility.yul\":4007:4060   */\n      tag_233\n      jump\t// in\n    tag_269:\n        /* \"#utility.yul\":3997:4060   */\n      swap2\n      pop\n        /* \"#utility.yul\":3953:4070   */\n      pop\n        /* \"#utility.yul\":3748:4077   */\n      swap3\n      swap2\n      pop\n      pop\n      jump\t// out\n        /* \"#utility.yul\":4083:4279   */\n    tag_270:\n        /* \"#utility.yul\":4172:4182   */\n      0x00\n        /* \"#utility.yul\":4207:4273   */\n      tag_272\n        /* \"#utility.yul\":4269:4272   */\n      dup4\n        /* \"#utility.yul\":4261:4267   */\n      dup4\n        /* \"#utility.yul\":4207:4273   */\n      tag_273\n      jump\t// in\n    tag_272:\n        /* \"#utility.yul\":4193:4273   */\n      swap1\n      pop\n        /* \"#utility.yul\":4083:4279   */\n      swap3\n      swap2\n      pop\n      pop\n      jump\t// out\n        /* \"#utility.yul\":4285:4417   */\n    tag_274:\n        /* \"#utility.yul\":4378:4410   */\n      tag_276\n        /* \"#utility.yul\":4404:4409   */\n      dup2\n        /* \"#utility.yul\":4378:4410   */\n      tag_277\n      jump\t// in\n    tag_276:\n        /* \"#utility.yul\":4373:4376   */\n      dup3\n        /* \"#utility.yul\":4366:4411   */\n      mstore\n        /* \"#utility.yul\":4285:4417   */\n      pop\n      pop\n      jump\t// out\n        /* \"#utility.yul\":4423:4565   */\n    tag_278:\n        /* \"#utility.yul\":4526:4558   */\n      tag_280\n        /* \"#utility.yul\":4552:4557   */\n      dup2\n        /* \"#utility.yul\":4526:4558   */\n      tag_277\n      jump\t// in\n    tag_280:\n        /* \"#utility.yul\":4521:4524   */\n      dup3\n        /* \"#utility.yul\":4514:4559   */\n      mstore\n        /* \"#utility.yul\":4423:4565   */\n      pop\n      pop\n      jump\t// out\n        /* \"#utility.yul\":4599:5570   */\n    tag_281:\n        /* \"#utility.yul\":4728:4731   */\n      0x00\n        /* \"#utility.yul\":4757:4821   */\n      tag_283\n        /* \"#utility.yul\":4815:4820   */\n      dup3\n        /* \"#utility.yul\":4757:4821   */\n      tag_284\n      jump\t// in\n    tag_283:\n        /* \"#utility.yul\":4837:4923   */\n      tag_285\n        /* \"#utility.yul\":4916:4922   */\n      dup2\n        /* \"#utility.yul\":4911:4914   */\n      dup6\n        /* \"#utility.yul\":4837:4923   */\n      tag_286\n      jump\t// in\n    tag_285:\n        /* \"#utility.yul\":4830:4923   */\n      swap4\n      pop\n        /* \"#utility.yul\":4949:4952   */\n      dup4\n        /* \"#utility.yul\":4994:4998   */\n      0x20\n        /* \"#utility.yul\":4986:4992   */\n      dup3\n        /* \"#utility.yul\":4982:4999   */\n      mul\n        /* \"#utility.yul\":4977:4980   */\n      dup6\n        /* \"#utility.yul\":4973:5000   */\n      add\n        /* \"#utility.yul\":5024:5090   */\n      tag_287\n        /* \"#utility.yul\":5084:5089   */\n      dup6\n        /* \"#utility.yul\":5024:5090   */\n      tag_288\n      jump\t// in\n    tag_287:\n        /* \"#utility.yul\":5113:5120   */\n      dup1\n        /* \"#utility.yul\":5144:5145   */\n      0x00\n        /* \"#utility.yul\":5129:5525   */\n    tag_289:\n        /* \"#utility.yul\":5154:5160   */\n      dup6\n        /* \"#utility.yul\":5151:5152   */\n      dup2\n        /* \"#utility.yul\":5148:5161   */\n      lt\n        /* \"#utility.yul\":5129:5525   */\n      iszero\n      tag_291\n      jumpi\n        /* \"#utility.yul\":5225:5234   */\n      dup5\n        /* \"#utility.yul\":5219:5223   */\n      dup5\n        /* \"#utility.yul\":5215:5235   */\n      sub\n        /* \"#utility.yul\":5210:5213   */\n      dup10\n        /* \"#utility.yul\":5203:5236   */\n      mstore\n        /* \"#utility.yul\":5276:5282   */\n      dup2\n        /* \"#utility.yul\":5270:5283   */\n      mload\n        /* \"#utility.yul\":5304:5388   */\n      tag_292\n        /* \"#utility.yul\":5383:5387   */\n      dup6\n        /* \"#utility.yul\":5368:5381   */\n      dup3\n        /* \"#utility.yul\":5304:5388   */\n      tag_270\n      jump\t// in\n    tag_292:\n        /* \"#utility.yul\":5296:5388   */\n      swap5\n      pop\n        /* \"#utility.yul\":5411:5481   */\n      tag_293\n        /* \"#utility.yul\":5474:5480   */\n      dup4\n        /* \"#utility.yul\":5411:5481   */\n      tag_294\n      jump\t// in\n    tag_293:\n        /* \"#utility.yul\":5401:5481   */\n      swap3\n      pop\n        /* \"#utility.yul\":5510:5514   */\n      0x20\n        /* \"#utility.yul\":5505:5508   */\n      dup11\n        /* \"#utility.yul\":5501:5515   */\n      add\n        /* \"#utility.yul\":5494:5515   */\n      swap10\n      pop\n        /* \"#utility.yul\":5189:5525   */\n      pop\n        /* \"#utility.yul\":5176:5177   */\n      0x01\n        /* \"#utility.yul\":5173:5174   */\n      dup2\n        /* \"#utility.yul\":5169:5178   */\n      add\n        /* \"#utility.yul\":5164:5178   */\n      swap1\n      pop\n        /* \"#utility.yul\":5129:5525   */\n      jump(tag_289)\n    tag_291:\n        /* \"#utility.yul\":5133:5147   */\n      pop\n        /* \"#utility.yul\":5541:5545   */\n      dup3\n        /* \"#utility.yul\":5534:5545   */\n      swap8\n      pop\n        /* \"#utility.yul\":5561:5564   */\n      dup8\n        /* \"#utility.yul\":5554:5564   */\n      swap6\n      pop\n        /* \"#utility.yul\":4733:5570   */\n      pop\n      pop\n      pop\n      pop\n      pop\n        /* \"#utility.yul\":4599:5570   */\n      swap3\n      swap2\n      pop\n      pop\n      jump\t// out\n        /* \"#utility.yul\":5576:5711   */\n    tag_295:\n        /* \"#utility.yul\":5660:5704   */\n      tag_297\n        /* \"#utility.yul\":5698:5703   */\n      dup2\n        /* \"#utility.yul\":5660:5704   */\n      tag_298\n      jump\t// in\n    tag_297:\n        /* \"#utility.yul\":5655:5658   */\n      dup3\n        /* \"#utility.yul\":5648:5705   */\n      mstore\n        /* \"#utility.yul\":5576:5711   */\n      pop\n      pop\n      jump\t// out\n        /* \"#utility.yul\":5717:5862   */\n    tag_299:\n        /* \"#utility.yul\":5811:5855   */\n      tag_301\n        /* \"#utility.yul\":5849:5854   */\n      dup2\n        /* \"#utility.yul\":5811:5855   */\n      tag_298\n      jump\t// in\n    tag_301:\n        /* \"#utility.yul\":5806:5809   */\n      dup3\n        /* \"#utility.yul\":5799:5856   */\n      mstore\n        /* \"#utility.yul\":5717:5862   */\n      pop\n      pop\n      jump\t// out\n        /* \"#utility.yul\":5868:6212   */\n    tag_273:\n        /* \"#utility.yul\":5946:5949   */\n      0x00\n        /* \"#utility.yul\":5974:6013   */\n      tag_303\n        /* \"#utility.yul\":6007:6012   */\n      dup3\n        /* \"#utility.yul\":5974:6013   */\n      tag_304\n      jump\t// in\n    tag_303:\n        /* \"#utility.yul\":6029:6090   */\n      tag_305\n        /* \"#utility.yul\":6083:6089   */\n      dup2\n        /* \"#utility.yul\":6078:6081   */\n      dup6\n        /* \"#utility.yul\":6029:6090   */\n      tag_306\n      jump\t// in\n    tag_305:\n        /* \"#utility.yul\":6022:6090   */\n      swap4\n      pop\n        /* \"#utility.yul\":6099:6151   */\n      tag_307\n        /* \"#utility.yul\":6144:6150   */\n      dup2\n        /* \"#utility.yul\":6139:6142   */\n      dup6\n        /* \"#utility.yul\":6132:6136   */\n      0x20\n        /* \"#utility.yul\":6125:6130   */\n      dup7\n        /* \"#utility.yul\":6121:6137   */\n      add\n        /* \"#utility.yul\":6099:6151   */\n      tag_308\n      jump\t// in\n    tag_307:\n        /* \"#utility.yul\":6176:6205   */\n      tag_309\n        /* \"#utility.yul\":6198:6204   */\n      dup2\n        /* \"#utility.yul\":6176:6205   */\n      tag_310\n      jump\t// in\n    tag_309:\n        /* \"#utility.yul\":6171:6174   */\n      dup5\n        /* \"#utility.yul\":6167:6206   */\n      add\n        /* \"#utility.yul\":6160:6206   */\n      swap2\n      pop\n        /* \"#utility.yul\":5950:6212   */\n      pop\n        /* \"#utility.yul\":5868:6212   */\n      swap3\n      swap2\n      pop\n      pop\n      jump\t// out\n        /* \"#utility.yul\":6218:6582   */\n    tag_311:\n        /* \"#utility.yul\":6306:6309   */\n      0x00\n        /* \"#utility.yul\":6334:6373   */\n      tag_313\n        /* \"#utility.yul\":6367:6372   */\n      dup3\n        /* \"#utility.yul\":6334:6373   */\n      tag_304\n      jump\t// in\n    tag_313:\n        /* \"#utility.yul\":6389:6460   */\n      tag_314\n        /* \"#utility.yul\":6453:6459   */\n      dup2\n        /* \"#utility.yul\":6448:6451   */\n      dup6\n        /* \"#utility.yul\":6389:6460   */\n      tag_315\n      jump\t// in\n    tag_314:\n        /* \"#utility.yul\":6382:6460   */\n      swap4\n      pop\n        /* \"#utility.yul\":6469:6521   */\n      tag_316\n        /* \"#utility.yul\":6514:6520   */\n      dup2\n        /* \"#utility.yul\":6509:6512   */\n      dup6\n        /* \"#utility.yul\":6502:6506   */\n      0x20\n        /* \"#utility.yul\":6495:6500   */\n      dup7\n        /* \"#utility.yul\":6491:6507   */\n      add\n        /* \"#utility.yul\":6469:6521   */\n      tag_308\n      jump\t// in\n    tag_316:\n        /* \"#utility.yul\":6546:6575   */\n      tag_317\n        /* \"#utility.yul\":6568:6574   */\n      dup2\n        /* \"#utility.yul\":6546:6575   */\n      tag_310\n      jump\t// in\n    tag_317:\n        /* \"#utility.yul\":6541:6544   */\n      dup5\n        /* \"#utility.yul\":6537:6576   */\n      add\n        /* \"#utility.yul\":6530:6576   */\n      swap2\n      pop\n        /* \"#utility.yul\":6310:6582   */\n      pop\n        /* \"#utility.yul\":6218:6582   */\n      swap3\n      swap2\n      pop\n      pop\n      jump\t// out\n        /* \"#utility.yul\":6638:8240   */\n    tag_318:\n        /* \"#utility.yul\":6753:6756   */\n      0x00\n        /* \"#utility.yul\":6789:6793   */\n      0xc0\n        /* \"#utility.yul\":6784:6787   */\n      dup4\n        /* \"#utility.yul\":6780:6794   */\n      add\n        /* \"#utility.yul\":6876:6880   */\n      0x00\n        /* \"#utility.yul\":6869:6874   */\n      dup4\n        /* \"#utility.yul\":6865:6881   */\n      add\n        /* \"#utility.yul\":6859:6882   */\n      mload\n        /* \"#utility.yul\":6929:6932   */\n      dup5\n        /* \"#utility.yul\":6923:6927   */\n      dup3\n        /* \"#utility.yul\":6919:6933   */\n      sub\n        /* \"#utility.yul\":6912:6916   */\n      0x00\n        /* \"#utility.yul\":6907:6910   */\n      dup7\n        /* \"#utility.yul\":6903:6917   */\n      add\n        /* \"#utility.yul\":6896:6934   */\n      mstore\n        /* \"#utility.yul\":6955:7028   */\n      tag_320\n        /* \"#utility.yul\":7023:7027   */\n      dup3\n        /* \"#utility.yul\":7009:7021   */\n      dup3\n        /* \"#utility.yul\":6955:7028   */\n      tag_273\n      jump\t// in\n    tag_320:\n        /* \"#utility.yul\":6947:7028   */\n      swap2\n      pop\n        /* \"#utility.yul\":6804:7039   */\n      pop\n        /* \"#utility.yul\":7122:7126   */\n      0x20\n        /* \"#utility.yul\":7115:7120   */\n      dup4\n        /* \"#utility.yul\":7111:7127   */\n      add\n        /* \"#utility.yul\":7105:7128   */\n      mload\n        /* \"#utility.yul\":7175:7178   */\n      dup5\n        /* \"#utility.yul\":7169:7173   */\n      dup3\n        /* \"#utility.yul\":7165:7179   */\n      sub\n        /* \"#utility.yul\":7158:7162   */\n      0x20\n        /* \"#utility.yul\":7153:7156   */\n      dup7\n        /* \"#utility.yul\":7149:7163   */\n      add\n        /* \"#utility.yul\":7142:7180   */\n      mstore\n        /* \"#utility.yul\":7201:7274   */\n      tag_321\n        /* \"#utility.yul\":7269:7273   */\n      dup3\n        /* \"#utility.yul\":7255:7267   */\n      dup3\n        /* \"#utility.yul\":7201:7274   */\n      tag_273\n      jump\t// in\n    tag_321:\n        /* \"#utility.yul\":7193:7274   */\n      swap2\n      pop\n        /* \"#utility.yul\":7049:7285   */\n      pop\n        /* \"#utility.yul\":7374:7378   */\n      0x40\n        /* \"#utility.yul\":7367:7372   */\n      dup4\n        /* \"#utility.yul\":7363:7379   */\n      add\n        /* \"#utility.yul\":7357:7380   */\n      mload\n        /* \"#utility.yul\":7427:7430   */\n      dup5\n        /* \"#utility.yul\":7421:7425   */\n      dup3\n        /* \"#utility.yul\":7417:7431   */\n      sub\n        /* \"#utility.yul\":7410:7414   */\n      0x40\n        /* \"#utility.yul\":7405:7408   */\n      dup7\n        /* \"#utility.yul\":7401:7415   */\n      add\n        /* \"#utility.yul\":7394:7432   */\n      mstore\n        /* \"#utility.yul\":7453:7526   */\n      tag_322\n        /* \"#utility.yul\":7521:7525   */\n      dup3\n        /* \"#utility.yul\":7507:7519   */\n      dup3\n        /* \"#utility.yul\":7453:7526   */\n      tag_273\n      jump\t// in\n    tag_322:\n        /* \"#utility.yul\":7445:7526   */\n      swap2\n      pop\n        /* \"#utility.yul\":7295:7537   */\n      pop\n        /* \"#utility.yul\":7628:7632   */\n      0x60\n        /* \"#utility.yul\":7621:7626   */\n      dup4\n        /* \"#utility.yul\":7617:7633   */\n      add\n        /* \"#utility.yul\":7611:7634   */\n      mload\n        /* \"#utility.yul\":7647:7726   */\n      tag_323\n        /* \"#utility.yul\":7720:7724   */\n      0x60\n        /* \"#utility.yul\":7715:7718   */\n      dup7\n        /* \"#utility.yul\":7711:7725   */\n      add\n        /* \"#utility.yul\":7697:7709   */\n      dup3\n        /* \"#utility.yul\":7647:7726   */\n      tag_274\n      jump\t// in\n    tag_323:\n        /* \"#utility.yul\":7547:7736   */\n      pop\n        /* \"#utility.yul\":7819:7823   */\n      0x80\n        /* \"#utility.yul\":7812:7817   */\n      dup4\n        /* \"#utility.yul\":7808:7824   */\n      add\n        /* \"#utility.yul\":7802:7825   */\n      mload\n        /* \"#utility.yul\":7872:7875   */\n      dup5\n        /* \"#utility.yul\":7866:7870   */\n      dup3\n        /* \"#utility.yul\":7862:7876   */\n      sub\n        /* \"#utility.yul\":7855:7859   */\n      0x80\n        /* \"#utility.yul\":7850:7853   */\n      dup7\n        /* \"#utility.yul\":7846:7860   */\n      add\n        /* \"#utility.yul\":7839:7877   */\n      mstore\n        /* \"#utility.yul\":7898:8021   */\n      tag_324\n        /* \"#utility.yul\":8016:8020   */\n      dup3\n        /* \"#utility.yul\":8002:8014   */\n      dup3\n        /* \"#utility.yul\":7898:8021   */\n      tag_281\n      jump\t// in\n    tag_324:\n        /* \"#utility.yul\":7890:8021   */\n      swap2\n      pop\n        /* \"#utility.yul\":7746:8032   */\n      pop\n        /* \"#utility.yul\":8114:8118   */\n      0xa0\n        /* \"#utility.yul\":8107:8112   */\n      dup4\n        /* \"#utility.yul\":8103:8119   */\n      add\n        /* \"#utility.yul\":8097:8120   */\n      mload\n        /* \"#utility.yul\":8133:8203   */\n      tag_325\n        /* \"#utility.yul\":8197:8201   */\n      0xa0\n        /* \"#utility.yul\":8192:8195   */\n      dup7\n        /* \"#utility.yul\":8188:8202   */\n      add\n        /* \"#utility.yul\":8174:8186   */\n      dup3\n        /* \"#utility.yul\":8133:8203   */\n      tag_295\n      jump\t// in\n    tag_325:\n        /* \"#utility.yul\":8042:8213   */\n      pop\n        /* \"#utility.yul\":8230:8234   */\n      dup1\n        /* \"#utility.yul\":8223:8234   */\n      swap2\n      pop\n        /* \"#utility.yul\":6758:8240   */\n      pop\n        /* \"#utility.yul\":6638:8240   */\n      swap3\n      swap2\n      pop\n      pop\n      jump\t// out\n        /* \"#utility.yul\":8302:9913   */\n    tag_326:\n        /* \"#utility.yul\":8423:8426   */\n      0x00\n        /* \"#utility.yul\":8459:8463   */\n      0xc0\n        /* \"#utility.yul\":8454:8457   */\n      dup4\n        /* \"#utility.yul\":8450:8464   */\n      add\n        /* \"#utility.yul\":8546:8550   */\n      0x00\n        /* \"#utility.yul\":8539:8544   */\n      dup4\n        /* \"#utility.yul\":8535:8551   */\n      add\n        /* \"#utility.yul\":8529:8552   */\n      mload\n        /* \"#utility.yul\":8599:8602   */\n      dup5\n        /* \"#utility.yul\":8593:8597   */\n      dup3\n        /* \"#utility.yul\":8589:8603   */\n      sub\n        /* \"#utility.yul\":8582:8586   */\n      0x00\n        /* \"#utility.yul\":8577:8580   */\n      dup7\n        /* \"#utility.yul\":8573:8587   */\n      add\n        /* \"#utility.yul\":8566:8604   */\n      mstore\n        /* \"#utility.yul\":8625:8698   */\n      tag_328\n        /* \"#utility.yul\":8693:8697   */\n      dup3\n        /* \"#utility.yul\":8679:8691   */\n      dup3\n        /* \"#utility.yul\":8625:8698   */\n      tag_273\n      jump\t// in\n    tag_328:\n        /* \"#utility.yul\":8617:8698   */\n      swap2\n      pop\n        /* \"#utility.yul\":8474:8709   */\n      pop\n        /* \"#utility.yul\":8792:8796   */\n      0x20\n        /* \"#utility.yul\":8785:8790   */\n      dup4\n        /* \"#utility.yul\":8781:8797   */\n      add\n        /* \"#utility.yul\":8775:8798   */\n      mload\n        /* \"#utility.yul\":8845:8848   */\n      dup5\n        /* \"#utility.yul\":8839:8843   */\n      dup3\n        /* \"#utility.yul\":8835:8849   */\n      sub\n        /* \"#utility.yul\":8828:8832   */\n      0x20\n        /* \"#utility.yul\":8823:8826   */\n      dup7\n        /* \"#utility.yul\":8819:8833   */\n      add\n        /* \"#utility.yul\":8812:8850   */\n      mstore\n        /* \"#utility.yul\":8871:8944   */\n      tag_329\n        /* \"#utility.yul\":8939:8943   */\n      dup3\n        /* \"#utility.yul\":8925:8937   */\n      dup3\n        /* \"#utility.yul\":8871:8944   */\n      tag_273\n      jump\t// in\n    tag_329:\n        /* \"#utility.yul\":8863:8944   */\n      swap2\n      pop\n        /* \"#utility.yul\":8719:8955   */\n      pop\n        /* \"#utility.yul\":9044:9048   */\n      0x40\n        /* \"#utility.yul\":9037:9042   */\n      dup4\n        /* \"#utility.yul\":9033:9049   */\n      add\n        /* \"#utility.yul\":9027:9050   */\n      mload\n        /* \"#utility.yul\":9097:9100   */\n      dup5\n        /* \"#utility.yul\":9091:9095   */\n      dup3\n        /* \"#utility.yul\":9087:9101   */\n      sub\n        /* \"#utility.yul\":9080:9084   */\n      0x40\n        /* \"#utility.yul\":9075:9078   */\n      dup7\n        /* \"#utility.yul\":9071:9085   */\n      add\n        /* \"#utility.yul\":9064:9102   */\n      mstore\n        /* \"#utility.yul\":9123:9196   */\n      tag_330\n        /* \"#utility.yul\":9191:9195   */\n      dup3\n        /* \"#utility.yul\":9177:9189   */\n      dup3\n        /* \"#utility.yul\":9123:9196   */\n      tag_273\n      jump\t// in\n    tag_330:\n        /* \"#utility.yul\":9115:9196   */\n      swap2\n      pop\n        /* \"#utility.yul\":8965:9207   */\n      pop\n        /* \"#utility.yul\":9301:9305   */\n      0x60\n        /* \"#utility.yul\":9294:9299   */\n      dup4\n        /* \"#utility.yul\":9290:9306   */\n      add\n        /* \"#utility.yul\":9284:9307   */\n      mload\n        /* \"#utility.yul\":9320:9399   */\n      tag_331\n        /* \"#utility.yul\":9393:9397   */\n      0x60\n        /* \"#utility.yul\":9388:9391   */\n      dup7\n        /* \"#utility.yul\":9384:9398   */\n      add\n        /* \"#utility.yul\":9370:9382   */\n      dup3\n        /* \"#utility.yul\":9320:9399   */\n      tag_274\n      jump\t// in\n    tag_331:\n        /* \"#utility.yul\":9217:9409   */\n      pop\n        /* \"#utility.yul\":9492:9496   */\n      0x80\n        /* \"#utility.yul\":9485:9490   */\n      dup4\n        /* \"#utility.yul\":9481:9497   */\n      add\n        /* \"#utility.yul\":9475:9498   */\n      mload\n        /* \"#utility.yul\":9545:9548   */\n      dup5\n        /* \"#utility.yul\":9539:9543   */\n      dup3\n        /* \"#utility.yul\":9535:9549   */\n      sub\n        /* \"#utility.yul\":9528:9532   */\n      0x80\n        /* \"#utility.yul\":9523:9526   */\n      dup7\n        /* \"#utility.yul\":9519:9533   */\n      add\n        /* \"#utility.yul\":9512:9550   */\n      mstore\n        /* \"#utility.yul\":9571:9694   */\n      tag_332\n        /* \"#utility.yul\":9689:9693   */\n      dup3\n        /* \"#utility.yul\":9675:9687   */\n      dup3\n        /* \"#utility.yul\":9571:9694   */\n      tag_281\n      jump\t// in\n    tag_332:\n        /* \"#utility.yul\":9563:9694   */\n      swap2\n      pop\n        /* \"#utility.yul\":9419:9705   */\n      pop\n        /* \"#utility.yul\":9787:9791   */\n      0xa0\n        /* \"#utility.yul\":9780:9785   */\n      dup4\n        /* \"#utility.yul\":9776:9792   */\n      add\n        /* \"#utility.yul\":9770:9793   */\n      mload\n        /* \"#utility.yul\":9806:9876   */\n      tag_333\n        /* \"#utility.yul\":9870:9874   */\n      0xa0\n        /* \"#utility.yul\":9865:9868   */\n      dup7\n        /* \"#utility.yul\":9861:9875   */\n      add\n        /* \"#utility.yul\":9847:9859   */\n      dup3\n        /* \"#utility.yul\":9806:9876   */\n      tag_295\n      jump\t// in\n    tag_333:\n        /* \"#utility.yul\":9715:9886   */\n      pop\n        /* \"#utility.yul\":9903:9907   */\n      dup1\n        /* \"#utility.yul\":9896:9907   */\n      swap2\n      pop\n        /* \"#utility.yul\":8428:9913   */\n      pop\n        /* \"#utility.yul\":8302:9913   */\n      swap3\n      swap2\n      pop\n      pop\n      jump\t// out\n        /* \"#utility.yul\":9919:10037   */\n    tag_334:\n        /* \"#utility.yul\":10006:10030   */\n      tag_336\n        /* \"#utility.yul\":10024:10029   */\n      dup2\n        /* \"#utility.yul\":10006:10030   */\n      tag_337\n      jump\t// in\n    tag_336:\n        /* \"#utility.yul\":10001:10004   */\n      dup3\n        /* \"#utility.yul\":9994:10031   */\n      mstore\n        /* \"#utility.yul\":9919:10037   */\n      pop\n      pop\n      jump\t// out\n        /* \"#utility.yul\":10043:10297   */\n    tag_37:\n        /* \"#utility.yul\":10152:10156   */\n      0x00\n        /* \"#utility.yul\":10190:10192   */\n      0x20\n        /* \"#utility.yul\":10179:10188   */\n      dup3\n        /* \"#utility.yul\":10175:10193   */\n      add\n        /* \"#utility.yul\":10167:10193   */\n      swap1\n      pop\n        /* \"#utility.yul\":10203:10290   */\n      tag_339\n        /* \"#utility.yul\":10287:10288   */\n      0x00\n        /* \"#utility.yul\":10276:10285   */\n      dup4\n        /* \"#utility.yul\":10272:10289   */\n      add\n        /* \"#utility.yul\":10263:10269   */\n      dup5\n        /* \"#utility.yul\":10203:10290   */\n      tag_278\n      jump\t// in\n    tag_339:\n        /* \"#utility.yul\":10043:10297   */\n      swap3\n      swap2\n      pop\n      pop\n      jump\t// out\n        /* \"#utility.yul\":10303:11213   */\n    tag_62:\n        /* \"#utility.yul\":10580:10584   */\n      0x00\n        /* \"#utility.yul\":10618:10621   */\n      0xa0\n        /* \"#utility.yul\":10607:10616   */\n      dup3\n        /* \"#utility.yul\":10603:10622   */\n      add\n        /* \"#utility.yul\":10595:10622   */\n      swap1\n      pop\n        /* \"#utility.yul\":10632:10719   */\n      tag_341\n        /* \"#utility.yul\":10716:10717   */\n      0x00\n        /* \"#utility.yul\":10705:10714   */\n      dup4\n        /* \"#utility.yul\":10701:10718   */\n      add\n        /* \"#utility.yul\":10692:10698   */\n      dup9\n        /* \"#utility.yul\":10632:10719   */\n      tag_278\n      jump\t// in\n    tag_341:\n        /* \"#utility.yul\":10729:10817   */\n      tag_342\n        /* \"#utility.yul\":10813:10815   */\n      0x20\n        /* \"#utility.yul\":10802:10811   */\n      dup4\n        /* \"#utility.yul\":10798:10816   */\n      add\n        /* \"#utility.yul\":10789:10795   */\n      dup8\n        /* \"#utility.yul\":10729:10817   */\n      tag_278\n      jump\t// in\n    tag_342:\n        /* \"#utility.yul\":10864:10873   */\n      dup2\n        /* \"#utility.yul\":10858:10862   */\n      dup2\n        /* \"#utility.yul\":10854:10874   */\n      sub\n        /* \"#utility.yul\":10849:10851   */\n      0x40\n        /* \"#utility.yul\":10838:10847   */\n      dup4\n        /* \"#utility.yul\":10834:10852   */\n      add\n        /* \"#utility.yul\":10827:10875   */\n      mstore\n        /* \"#utility.yul\":10892:10970   */\n      tag_343\n        /* \"#utility.yul\":10965:10969   */\n      dup2\n        /* \"#utility.yul\":10956:10962   */\n      dup7\n        /* \"#utility.yul\":10892:10970   */\n      tag_311\n      jump\t// in\n    tag_343:\n        /* \"#utility.yul\":10884:10970   */\n      swap1\n      pop\n        /* \"#utility.yul\":11017:11026   */\n      dup2\n        /* \"#utility.yul\":11011:11015   */\n      dup2\n        /* \"#utility.yul\":11007:11027   */\n      sub\n        /* \"#utility.yul\":11002:11004   */\n      0x60\n        /* \"#utility.yul\":10991:11000   */\n      dup4\n        /* \"#utility.yul\":10987:11005   */\n      add\n        /* \"#utility.yul\":10980:11028   */\n      mstore\n        /* \"#utility.yul\":11045:11123   */\n      tag_344\n        /* \"#utility.yul\":11118:11122   */\n      dup2\n        /* \"#utility.yul\":11109:11115   */\n      dup6\n        /* \"#utility.yul\":11045:11123   */\n      tag_311\n      jump\t// in\n    tag_344:\n        /* \"#utility.yul\":11037:11123   */\n      swap1\n      pop\n        /* \"#utility.yul\":11133:11206   */\n      tag_345\n        /* \"#utility.yul\":11201:11204   */\n      0x80\n        /* \"#utility.yul\":11190:11199   */\n      dup4\n        /* \"#utility.yul\":11186:11205   */\n      add\n        /* \"#utility.yul\":11177:11183   */\n      dup5\n        /* \"#utility.yul\":11133:11206   */\n      tag_334\n      jump\t// in\n    tag_345:\n        /* \"#utility.yul\":10303:11213   */\n      swap7\n      swap6\n      pop\n      pop\n      pop\n      pop\n      pop\n      pop\n      jump\t// out\n        /* \"#utility.yul\":11219:11532   */\n    tag_19:\n        /* \"#utility.yul\":11332:11336   */\n      0x00\n        /* \"#utility.yul\":11370:11372   */\n      0x20\n        /* \"#utility.yul\":11359:11368   */\n      dup3\n        /* \"#utility.yul\":11355:11373   */\n      add\n        /* \"#utility.yul\":11347:11373   */\n      swap1\n      pop\n        /* \"#utility.yul\":11419:11428   */\n      dup2\n        /* \"#utility.yul\":11413:11417   */\n      dup2\n        /* \"#utility.yul\":11409:11429   */\n      sub\n        /* \"#utility.yul\":11405:11406   */\n      0x00\n        /* \"#utility.yul\":11394:11403   */\n      dup4\n        /* \"#utility.yul\":11390:11407   */\n      add\n        /* \"#utility.yul\":11383:11430   */\n      mstore\n        /* \"#utility.yul\":11447:11525   */\n      tag_347\n        /* \"#utility.yul\":11520:11524   */\n      dup2\n        /* \"#utility.yul\":11511:11517   */\n      dup5\n        /* \"#utility.yul\":11447:11525   */\n      tag_311\n      jump\t// in\n    tag_347:\n        /* \"#utility.yul\":11439:11525   */\n      swap1\n      pop\n        /* \"#utility.yul\":11219:11532   */\n      swap3\n      swap2\n      pop\n      pop\n      jump\t// out\n        /* \"#utility.yul\":11538:12521   */\n    tag_52:\n        /* \"#utility.yul\":11826:11830   */\n      0x00\n        /* \"#utility.yul\":11864:11867   */\n      0xa0\n        /* \"#utility.yul\":11853:11862   */\n      dup3\n        /* \"#utility.yul\":11849:11868   */\n      add\n        /* \"#utility.yul\":11841:11868   */\n      swap1\n      pop\n        /* \"#utility.yul\":11914:11923   */\n      dup2\n        /* \"#utility.yul\":11908:11912   */\n      dup2\n        /* \"#utility.yul\":11904:11924   */\n      sub\n        /* \"#utility.yul\":11900:11901   */\n      0x00\n        /* \"#utility.yul\":11889:11898   */\n      dup4\n        /* \"#utility.yul\":11885:11902   */\n      add\n        /* \"#utility.yul\":11878:11925   */\n      mstore\n        /* \"#utility.yul\":11942:12020   */\n      tag_349\n        /* \"#utility.yul\":12015:12019   */\n      dup2\n        /* \"#utility.yul\":12006:12012   */\n      dup9\n        /* \"#utility.yul\":11942:12020   */\n      tag_311\n      jump\t// in\n    tag_349:\n        /* \"#utility.yul\":11934:12020   */\n      swap1\n      pop\n        /* \"#utility.yul\":12067:12076   */\n      dup2\n        /* \"#utility.yul\":12061:12065   */\n      dup2\n        /* \"#utility.yul\":12057:12077   */\n      sub\n        /* \"#utility.yul\":12052:12054   */\n      0x20\n        /* \"#utility.yul\":12041:12050   */\n      dup4\n        /* \"#utility.yul\":12037:12055   */\n      add\n        /* \"#utility.yul\":12030:12078   */\n      mstore\n        /* \"#utility.yul\":12095:12173   */\n      tag_350\n        /* \"#utility.yul\":12168:12172   */\n      dup2\n        /* \"#utility.yul\":12159:12165   */\n      dup8\n        /* \"#utility.yul\":12095:12173   */\n      tag_311\n      jump\t// in\n    tag_350:\n        /* \"#utility.yul\":12087:12173   */\n      swap1\n      pop\n        /* \"#utility.yul\":12220:12229   */\n      dup2\n        /* \"#utility.yul\":12214:12218   */\n      dup2\n        /* \"#utility.yul\":12210:12230   */\n      sub\n        /* \"#utility.yul\":12205:12207   */\n      0x40\n        /* \"#utility.yul\":12194:12203   */\n      dup4\n        /* \"#utility.yul\":12190:12208   */\n      add\n        /* \"#utility.yul\":12183:12231   */\n      mstore\n        /* \"#utility.yul\":12248:12326   */\n      tag_351\n        /* \"#utility.yul\":12321:12325   */\n      dup2\n        /* \"#utility.yul\":12312:12318   */\n      dup7\n        /* \"#utility.yul\":12248:12326   */\n      tag_311\n      jump\t// in\n    tag_351:\n        /* \"#utility.yul\":12240:12326   */\n      swap1\n      pop\n        /* \"#utility.yul\":12336:12424   */\n      tag_352\n        /* \"#utility.yul\":12420:12422   */\n      0x60\n        /* \"#utility.yul\":12409:12418   */\n      dup4\n        /* \"#utility.yul\":12405:12423   */\n      add\n        /* \"#utility.yul\":12396:12402   */\n      dup6\n        /* \"#utility.yul\":12336:12424   */\n      tag_278\n      jump\t// in\n    tag_352:\n        /* \"#utility.yul\":12434:12514   */\n      tag_353\n        /* \"#utility.yul\":12509:12512   */\n      0x80\n        /* \"#utility.yul\":12498:12507   */\n      dup4\n        /* \"#utility.yul\":12494:12513   */\n      add\n        /* \"#utility.yul\":12485:12491   */\n      dup5\n        /* \"#utility.yul\":12434:12514   */\n      tag_299\n      jump\t// in\n    tag_353:\n        /* \"#utility.yul\":11538:12521   */\n      swap7\n      swap6\n      pop\n      pop\n      pop\n      pop\n      pop\n      pop\n      jump\t// out\n        /* \"#utility.yul\":12527:12892   */\n    tag_32:\n        /* \"#utility.yul\":12666:12670   */\n      0x00\n        /* \"#utility.yul\":12704:12706   */\n      0x20\n        /* \"#utility.yul\":12693:12702   */\n      dup3\n        /* \"#utility.yul\":12689:12707   */\n      add\n        /* \"#utility.yul\":12681:12707   */\n      swap1\n      pop\n        /* \"#utility.yul\":12753:12762   */\n      dup2\n        /* \"#utility.yul\":12747:12751   */\n      dup2\n        /* \"#utility.yul\":12743:12763   */\n      sub\n        /* \"#utility.yul\":12739:12740   */\n      0x00\n        /* \"#utility.yul\":12728:12737   */\n      dup4\n        /* \"#utility.yul\":12724:12741   */\n      add\n        /* \"#utility.yul\":12717:12764   */\n      mstore\n        /* \"#utility.yul\":12781:12885   */\n      tag_355\n        /* \"#utility.yul\":12880:12884   */\n      dup2\n        /* \"#utility.yul\":12871:12877   */\n      dup5\n        /* \"#utility.yul\":12781:12885   */\n      tag_318\n      jump\t// in\n    tag_355:\n        /* \"#utility.yul\":12773:12885   */\n      swap1\n      pop\n        /* \"#utility.yul\":12527:12892   */\n      swap3\n      swap2\n      pop\n      pop\n      jump\t// out\n        /* \"#utility.yul\":12898:13275   */\n    tag_42:\n        /* \"#utility.yul\":13043:13047   */\n      0x00\n        /* \"#utility.yul\":13081:13083   */\n      0x20\n        /* \"#utility.yul\":13070:13079   */\n      dup3\n        /* \"#utility.yul\":13066:13084   */\n      add\n        /* \"#utility.yul\":13058:13084   */\n      swap1\n      pop\n        /* \"#utility.yul\":13130:13139   */\n      dup2\n        /* \"#utility.yul\":13124:13128   */\n      dup2\n        /* \"#utility.yul\":13120:13140   */\n      sub\n        /* \"#utility.yul\":13116:13117   */\n      0x00\n        /* \"#utility.yul\":13105:13114   */\n      dup4\n        /* \"#utility.yul\":13101:13118   */\n      add\n        /* \"#utility.yul\":13094:13141   */\n      mstore\n        /* \"#utility.yul\":13158:13268   */\n      tag_357\n        /* \"#utility.yul\":13263:13267   */\n      dup2\n        /* \"#utility.yul\":13254:13260   */\n      dup5\n        /* \"#utility.yul\":13158:13268   */\n      tag_326\n      jump\t// in\n    tag_357:\n        /* \"#utility.yul\":13150:13268   */\n      swap1\n      pop\n        /* \"#utility.yul\":12898:13275   */\n      swap3\n      swap2\n      pop\n      pop\n      jump\t// out\n        /* \"#utility.yul\":13281:13410   */\n    tag_213:\n        /* \"#utility.yul\":13315:13321   */\n      0x00\n        /* \"#utility.yul\":13342:13362   */\n      tag_359\n      tag_360\n      jump\t// in\n    tag_359:\n        /* \"#utility.yul\":13332:13362   */\n      swap1\n      pop\n        /* \"#utility.yul\":13371:13404   */\n      tag_361\n        /* \"#utility.yul\":13399:13403   */\n      dup3\n        /* \"#utility.yul\":13391:13397   */\n      dup3\n        /* \"#utility.yul\":13371:13404   */\n      tag_362\n      jump\t// in\n    tag_361:\n        /* \"#utility.yul\":13281:13410   */\n      swap2\n      swap1\n      pop\n      jump\t// out\n        /* \"#utility.yul\":13416:13491   */\n    tag_360:\n        /* \"#utility.yul\":13449:13455   */\n      0x00\n        /* \"#utility.yul\":13482:13484   */\n      0x40\n        /* \"#utility.yul\":13476:13485   */\n      mload\n        /* \"#utility.yul\":13466:13485   */\n      swap1\n      pop\n        /* \"#utility.yul\":13416:13491   */\n      swap1\n      jump\t// out\n        /* \"#utility.yul\":13497:13805   */\n    tag_212:\n        /* \"#utility.yul\":13559:13563   */\n      0x00\n        /* \"#utility.yul\":13649:13667   */\n      0xffffffffffffffff\n        /* \"#utility.yul\":13641:13647   */\n      dup3\n        /* \"#utility.yul\":13638:13668   */\n      gt\n        /* \"#utility.yul\":13635:13691   */\n      iszero\n      tag_365\n      jumpi\n        /* \"#utility.yul\":13671:13689   */\n      tag_366\n      tag_367\n      jump\t// in\n    tag_366:\n        /* \"#utility.yul\":13635:13691   */\n    tag_365:\n        /* \"#utility.yul\":13709:13738   */\n      tag_368\n        /* \"#utility.yul\":13731:13737   */\n      dup3\n        /* \"#utility.yul\":13709:13738   */\n      tag_310\n      jump\t// in\n    tag_368:\n        /* \"#utility.yul\":13701:13738   */\n      swap1\n      pop\n        /* \"#utility.yul\":13793:13797   */\n      0x20\n        /* \"#utility.yul\":13787:13791   */\n      dup2\n        /* \"#utility.yul\":13783:13798   */\n      add\n        /* \"#utility.yul\":13775:13798   */\n      swap1\n      pop\n        /* \"#utility.yul\":13497:13805   */\n      swap2\n      swap1\n      pop\n      jump\t// out\n        /* \"#utility.yul\":13811:13953   */\n    tag_288:\n        /* \"#utility.yul\":13888:13892   */\n      0x00\n        /* \"#utility.yul\":13911:13914   */\n      dup2\n        /* \"#utility.yul\":13903:13914   */\n      swap1\n      pop\n        /* \"#utility.yul\":13941:13945   */\n      0x20\n        /* \"#utility.yul\":13936:13939   */\n      dup3\n        /* \"#utility.yul\":13932:13946   */\n      add\n        /* \"#utility.yul\":13924:13946   */\n      swap1\n      pop\n        /* \"#utility.yul\":13811:13953   */\n      swap2\n      swap1\n      pop\n      jump\t// out\n        /* \"#utility.yul\":13959:14083   */\n    tag_284:\n        /* \"#utility.yul\":14036:14042   */\n      0x00\n        /* \"#utility.yul\":14070:14075   */\n      dup2\n        /* \"#utility.yul\":14064:14076   */\n      mload\n        /* \"#utility.yul\":14054:14076   */\n      swap1\n      pop\n        /* \"#utility.yul\":13959:14083   */\n      swap2\n      swap1\n      pop\n      jump\t// out\n        /* \"#utility.yul\":14089:14188   */\n    tag_304:\n        /* \"#utility.yul\":14141:14147   */\n      0x00\n        /* \"#utility.yul\":14175:14180   */\n      dup2\n        /* \"#utility.yul\":14169:14181   */\n      mload\n        /* \"#utility.yul\":14159:14181   */\n      swap1\n      pop\n        /* \"#utility.yul\":14089:14188   */\n      swap2\n      swap1\n      pop\n      jump\t// out\n        /* \"#utility.yul\":14194:14317   */\n    tag_294:\n        /* \"#utility.yul\":14274:14278   */\n      0x00\n        /* \"#utility.yul\":14306:14310   */\n      0x20\n        /* \"#utility.yul\":14301:14304   */\n      dup3\n        /* \"#utility.yul\":14297:14311   */\n      add\n        /* \"#utility.yul\":14289:14311   */\n      swap1\n      pop\n        /* \"#utility.yul\":14194:14317   */\n      swap2\n      swap1\n      pop\n      jump\t// out\n        /* \"#utility.yul\":14323:14507   */\n    tag_286:\n        /* \"#utility.yul\":14422:14433   */\n      0x00\n        /* \"#utility.yul\":14456:14462   */\n      dup3\n        /* \"#utility.yul\":14451:14454   */\n      dup3\n        /* \"#utility.yul\":14444:14463   */\n      mstore\n        /* \"#utility.yul\":14496:14500   */\n      0x20\n        /* \"#utility.yul\":14491:14494   */\n      dup3\n        /* \"#utility.yul\":14487:14501   */\n      add\n        /* \"#utility.yul\":14472:14501   */\n      swap1\n      pop\n        /* \"#utility.yul\":14323:14507   */\n      swap3\n      swap2\n      pop\n      pop\n      jump\t// out\n        /* \"#utility.yul\":14513:14672   */\n    tag_306:\n        /* \"#utility.yul\":14587:14598   */\n      0x00\n        /* \"#utility.yul\":14621:14627   */\n      dup3\n        /* \"#utility.yul\":14616:14619   */\n      dup3\n        /* \"#utility.yul\":14609:14628   */\n      mstore\n        /* \"#utility.yul\":14661:14665   */\n      0x20\n        /* \"#utility.yul\":14656:14659   */\n      dup3\n        /* \"#utility.yul\":14652:14666   */\n      add\n        /* \"#utility.yul\":14637:14666   */\n      swap1\n      pop\n        /* \"#utility.yul\":14513:14672   */\n      swap3\n      swap2\n      pop\n      pop\n      jump\t// out\n        /* \"#utility.yul\":14678:14847   */\n    tag_315:\n        /* \"#utility.yul\":14762:14773   */\n      0x00\n        /* \"#utility.yul\":14796:14802   */\n      dup3\n        /* \"#utility.yul\":14791:14794   */\n      dup3\n        /* \"#utility.yul\":14784:14803   */\n      mstore\n        /* \"#utility.yul\":14836:14840   */\n      0x20\n        /* \"#utility.yul\":14831:14834   */\n      dup3\n        /* \"#utility.yul\":14827:14841   */\n      add\n        /* \"#utility.yul\":14812:14841   */\n      swap1\n      pop\n        /* \"#utility.yul\":14678:14847   */\n      swap3\n      swap2\n      pop\n      pop\n      jump\t// out\n        /* \"#utility.yul\":14853:14949   */\n    tag_376:\n        /* \"#utility.yul\":14890:14897   */\n      0x00\n        /* \"#utility.yul\":14919:14943   */\n      tag_378\n        /* \"#utility.yul\":14937:14942   */\n      dup3\n        /* \"#utility.yul\":14919:14943   */\n      tag_379\n      jump\t// in\n    tag_378:\n        /* \"#utility.yul\":14908:14943   */\n      swap1\n      pop\n        /* \"#utility.yul\":14853:14949   */\n      swap2\n      swap1\n      pop\n      jump\t// out\n        /* \"#utility.yul\":14955:15059   */\n    tag_277:\n        /* \"#utility.yul\":15000:15007   */\n      0x00\n        /* \"#utility.yul\":15029:15053   */\n      tag_381\n        /* \"#utility.yul\":15047:15052   */\n      dup3\n        /* \"#utility.yul\":15029:15053   */\n      tag_379\n      jump\t// in\n    tag_381:\n        /* \"#utility.yul\":15018:15053   */\n      swap1\n      pop\n        /* \"#utility.yul\":14955:15059   */\n      swap2\n      swap1\n      pop\n      jump\t// out\n        /* \"#utility.yul\":15065:15194   */\n    tag_382:\n        /* \"#utility.yul\":15111:15118   */\n      0x00\n        /* \"#utility.yul\":15140:15145   */\n      dup2\n        /* \"#utility.yul\":15129:15145   */\n      swap1\n      pop\n        /* \"#utility.yul\":15146:15188   */\n      tag_384\n        /* \"#utility.yul\":15182:15187   */\n      dup3\n        /* \"#utility.yul\":15146:15188   */\n      tag_385\n      jump\t// in\n    tag_384:\n        /* \"#utility.yul\":15065:15194   */\n      swap2\n      swap1\n      pop\n      jump\t// out\n        /* \"#utility.yul\":15200:15326   */\n    tag_379:\n        /* \"#utility.yul\":15237:15244   */\n      0x00\n        /* \"#utility.yul\":15277:15319   */\n      0xffffffffffffffffffffffffffffffffffffffff\n        /* \"#utility.yul\":15270:15275   */\n      dup3\n        /* \"#utility.yul\":15266:15320   */\n      and\n        /* \"#utility.yul\":15255:15320   */\n      swap1\n      pop\n        /* \"#utility.yul\":15200:15326   */\n      swap2\n      swap1\n      pop\n      jump\t// out\n        /* \"#utility.yul\":15332:15409   */\n    tag_337:\n        /* \"#utility.yul\":15369:15376   */\n      0x00\n        /* \"#utility.yul\":15398:15403   */\n      dup2\n        /* \"#utility.yul\":15387:15403   */\n      swap1\n      pop\n        /* \"#utility.yul\":15332:15409   */\n      swap2\n      swap1\n      pop\n      jump\t// out\n        /* \"#utility.yul\":15415:15544   */\n    tag_298:\n        /* \"#utility.yul\":15472:15481   */\n      0x00\n        /* \"#utility.yul\":15505:15538   */\n      tag_389\n        /* \"#utility.yul\":15532:15537   */\n      dup3\n        /* \"#utility.yul\":15505:15538   */\n      tag_382\n      jump\t// in\n    tag_389:\n        /* \"#utility.yul\":15492:15538   */\n      swap1\n      pop\n        /* \"#utility.yul\":15415:15544   */\n      swap2\n      swap1\n      pop\n      jump\t// out\n        /* \"#utility.yul\":15550:15704   */\n    tag_218:\n        /* \"#utility.yul\":15634:15640   */\n      dup3\n        /* \"#utility.yul\":15629:15632   */\n      dup2\n        /* \"#utility.yul\":15624:15627   */\n      dup4\n        /* \"#utility.yul\":15611:15641   */\n      calldatacopy\n        /* \"#utility.yul\":15696:15697   */\n      0x00\n        /* \"#utility.yul\":15687:15693   */\n      dup4\n        /* \"#utility.yul\":15682:15685   */\n      dup4\n        /* \"#utility.yul\":15678:15694   */\n      add\n        /* \"#utility.yul\":15671:15698   */\n      mstore\n        /* \"#utility.yul\":15550:15704   */\n      pop\n      pop\n      pop\n      jump\t// out\n        /* \"#utility.yul\":15710:16017   */\n    tag_308:\n        /* \"#utility.yul\":15778:15779   */\n      0x00\n        /* \"#utility.yul\":15788:15901   */\n    tag_392:\n        /* \"#utility.yul\":15802:15808   */\n      dup4\n        /* \"#utility.yul\":15799:15800   */\n      dup2\n        /* \"#utility.yul\":15796:15809   */\n      lt\n        /* \"#utility.yul\":15788:15901   */\n      iszero\n      tag_394\n      jumpi\n        /* \"#utility.yul\":15887:15888   */\n      dup1\n        /* \"#utility.yul\":15882:15885   */\n      dup3\n        /* \"#utility.yul\":15878:15889   */\n      add\n        /* \"#utility.yul\":15872:15890   */\n      mload\n        /* \"#utility.yul\":15868:15869   */\n      dup2\n        /* \"#utility.yul\":15863:15866   */\n      dup5\n        /* \"#utility.yul\":15859:15870   */\n      add\n        /* \"#utility.yul\":15852:15891   */\n      mstore\n        /* \"#utility.yul\":15824:15826   */\n      0x20\n        /* \"#utility.yul\":15821:15822   */\n      dup2\n        /* \"#utility.yul\":15817:15827   */\n      add\n        /* \"#utility.yul\":15812:15827   */\n      swap1\n      pop\n        /* \"#utility.yul\":15788:15901   */\n      jump(tag_392)\n    tag_394:\n        /* \"#utility.yul\":15919:15925   */\n      dup4\n        /* \"#utility.yul\":15916:15917   */\n      dup2\n        /* \"#utility.yul\":15913:15926   */\n      gt\n        /* \"#utility.yul\":15910:16011   */\n      iszero\n      tag_395\n      jumpi\n        /* \"#utility.yul\":15999:16000   */\n      0x00\n        /* \"#utility.yul\":15990:15996   */\n      dup5\n        /* \"#utility.yul\":15985:15988   */\n      dup5\n        /* \"#utility.yul\":15981:15997   */\n      add\n        /* \"#utility.yul\":15974:16001   */\n      mstore\n        /* \"#utility.yul\":15910:16011   */\n    tag_395:\n        /* \"#utility.yul\":15759:16017   */\n      pop\n        /* \"#utility.yul\":15710:16017   */\n      pop\n      pop\n      pop\n      jump\t// out\n        /* \"#utility.yul\":16023:16343   */\n    tag_66:\n        /* \"#utility.yul\":16067:16073   */\n      0x00\n        /* \"#utility.yul\":16104:16105   */\n      0x02\n        /* \"#utility.yul\":16098:16102   */\n      dup3\n        /* \"#utility.yul\":16094:16106   */\n      div\n        /* \"#utility.yul\":16084:16106   */\n      swap1\n      pop\n        /* \"#utility.yul\":16151:16152   */\n      0x01\n        /* \"#utility.yul\":16145:16149   */\n      dup3\n        /* \"#utility.yul\":16141:16153   */\n      and\n        /* \"#utility.yul\":16172:16190   */\n      dup1\n        /* \"#utility.yul\":16162:16243   */\n      tag_397\n      jumpi\n        /* \"#utility.yul\":16228:16232   */\n      0x7f\n        /* \"#utility.yul\":16220:16226   */\n      dup3\n        /* \"#utility.yul\":16216:16233   */\n      and\n        /* \"#utility.yul\":16206:16233   */\n      swap2\n      pop\n        /* \"#utility.yul\":16162:16243   */\n    tag_397:\n        /* \"#utility.yul\":16290:16292   */\n      0x20\n        /* \"#utility.yul\":16282:16288   */\n      dup3\n        /* \"#utility.yul\":16279:16293   */\n      lt\n        /* \"#utility.yul\":16259:16277   */\n      dup2\n        /* \"#utility.yul\":16256:16294   */\n      eq\n        /* \"#utility.yul\":16253:16337   */\n      iszero\n      tag_398\n      jumpi\n        /* \"#utility.yul\":16309:16327   */\n      tag_399\n      tag_400\n      jump\t// in\n    tag_399:\n        /* \"#utility.yul\":16253:16337   */\n    tag_398:\n        /* \"#utility.yul\":16074:16343   */\n      pop\n        /* \"#utility.yul\":16023:16343   */\n      swap2\n      swap1\n      pop\n      jump\t// out\n        /* \"#utility.yul\":16349:16630   */\n    tag_362:\n        /* \"#utility.yul\":16432:16459   */\n      tag_402\n        /* \"#utility.yul\":16454:16458   */\n      dup3\n        /* \"#utility.yul\":16432:16459   */\n      tag_310\n      jump\t// in\n    tag_402:\n        /* \"#utility.yul\":16424:16430   */\n      dup2\n        /* \"#utility.yul\":16420:16460   */\n      add\n        /* \"#utility.yul\":16562:16568   */\n      dup2\n        /* \"#utility.yul\":16550:16560   */\n      dup2\n        /* \"#utility.yul\":16547:16569   */\n      lt\n        /* \"#utility.yul\":16526:16544   */\n      0xffffffffffffffff\n        /* \"#utility.yul\":16514:16524   */\n      dup3\n        /* \"#utility.yul\":16511:16545   */\n      gt\n        /* \"#utility.yul\":16508:16570   */\n      or\n        /* \"#utility.yul\":16505:16593   */\n      iszero\n      tag_403\n      jumpi\n        /* \"#utility.yul\":16573:16591   */\n      tag_404\n      tag_367\n      jump\t// in\n    tag_404:\n        /* \"#utility.yul\":16505:16593   */\n    tag_403:\n        /* \"#utility.yul\":16613:16623   */\n      dup1\n        /* \"#utility.yul\":16609:16611   */\n      0x40\n        /* \"#utility.yul\":16602:16624   */\n      mstore\n        /* \"#utility.yul\":16392:16630   */\n      pop\n        /* \"#utility.yul\":16349:16630   */\n      pop\n      pop\n      jump\t// out\n        /* \"#utility.yul\":16636:16816   */\n    tag_78:\n        /* \"#utility.yul\":16684:16761   */\n      0x4e487b7100000000000000000000000000000000000000000000000000000000\n        /* \"#utility.yul\":16681:16682   */\n      0x00\n        /* \"#utility.yul\":16674:16762   */\n      mstore\n        /* \"#utility.yul\":16781:16785   */\n      0x21\n        /* \"#utility.yul\":16778:16779   */\n      0x04\n        /* \"#utility.yul\":16771:16786   */\n      mstore\n        /* \"#utility.yul\":16805:16809   */\n      0x24\n        /* \"#utility.yul\":16802:16803   */\n      0x00\n        /* \"#utility.yul\":16795:16810   */\n      revert\n        /* \"#utility.yul\":16822:17002   */\n    tag_400:\n        /* \"#utility.yul\":16870:16947   */\n      0x4e487b7100000000000000000000000000000000000000000000000000000000\n        /* \"#utility.yul\":16867:16868   */\n      0x00\n        /* \"#utility.yul\":16860:16948   */\n      mstore\n        /* \"#utility.yul\":16967:16971   */\n      0x22\n        /* \"#utility.yul\":16964:16965   */\n      0x04\n        /* \"#utility.yul\":16957:16972   */\n      mstore\n        /* \"#utility.yul\":16991:16995   */\n      0x24\n        /* \"#utility.yul\":16988:16989   */\n      0x00\n        /* \"#utility.yul\":16981:16996   */\n      revert\n        /* \"#utility.yul\":17008:17188   */\n    tag_367:\n        /* \"#utility.yul\":17056:17133   */\n      0x4e487b7100000000000000000000000000000000000000000000000000000000\n        /* \"#utility.yul\":17053:17054   */\n      0x00\n        /* \"#utility.yul\":17046:17134   */\n      mstore\n        /* \"#utility.yul\":17153:17157   */\n      0x41\n        /* \"#utility.yul\":17150:17151   */\n      0x04\n        /* \"#utility.yul\":17143:17158   */\n      mstore\n        /* \"#utility.yul\":17177:17181   */\n      0x24\n        /* \"#utility.yul\":17174:17175   */\n      0x00\n        /* \"#utility.yul\":17167:17182   */\n      revert\n        /* \"#utility.yul\":17194:17311   */\n    tag_231:\n        /* \"#utility.yul\":17303:17304   */\n      0x00\n        /* \"#utility.yul\":17300:17301   */\n      dup1\n        /* \"#utility.yul\":17293:17305   */\n      revert\n        /* \"#utility.yul\":17317:17434   */\n    tag_216:\n        /* \"#utility.yul\":17426:17427   */\n      0x00\n        /* \"#utility.yul\":17423:17424   */\n      dup1\n        /* \"#utility.yul\":17416:17428   */\n      revert\n        /* \"#utility.yul\":17440:17557   */\n    tag_251:\n        /* \"#utility.yul\":17549:17550   */\n      0x00\n        /* \"#utility.yul\":17546:17547   */\n      dup1\n        /* \"#utility.yul\":17539:17551   */\n      revert\n        /* \"#utility.yul\":17563:17680   */\n    tag_240:\n        /* \"#utility.yul\":17672:17673   */\n      0x00\n        /* \"#utility.yul\":17669:17670   */\n      dup1\n        /* \"#utility.yul\":17662:17674   */\n      revert\n        /* \"#utility.yul\":17686:17788   */\n    tag_310:\n        /* \"#utility.yul\":17727:17733   */\n      0x00\n        /* \"#utility.yul\":17778:17780   */\n      0x1f\n        /* \"#utility.yul\":17774:17781   */\n      not\n        /* \"#utility.yul\":17769:17771   */\n      0x1f\n        /* \"#utility.yul\":17762:17767   */\n      dup4\n        /* \"#utility.yul\":17758:17772   */\n      add\n        /* \"#utility.yul\":17754:17782   */\n      and\n        /* \"#utility.yul\":17744:17782   */\n      swap1\n      pop\n        /* \"#utility.yul\":17686:17788   */\n      swap2\n      swap1\n      pop\n      jump\t// out\n        /* \"#utility.yul\":17794:17908   */\n    tag_385:\n        /* \"#utility.yul\":17876:17877   */\n      0x02\n        /* \"#utility.yul\":17869:17874   */\n      dup2\n        /* \"#utility.yul\":17866:17878   */\n      lt\n        /* \"#utility.yul\":17856:17902   */\n      tag_414\n      jumpi\n        /* \"#utility.yul\":17882:17900   */\n      tag_415\n      tag_78\n      jump\t// in\n    tag_415:\n        /* \"#utility.yul\":17856:17902   */\n    tag_414:\n        /* \"#utility.yul\":17794:17908   */\n      pop\n      jump\t// out\n        /* \"#utility.yul\":17914:18036   */\n    tag_222:\n        /* \"#utility.yul\":17987:18011   */\n      tag_417\n        /* \"#utility.yul\":18005:18010   */\n      dup2\n        /* \"#utility.yul\":17987:18011   */\n      tag_376\n      jump\t// in\n    tag_417:\n        /* \"#utility.yul\":17980:17985   */\n      dup2\n        /* \"#utility.yul\":17977:18012   */\n      eq\n        /* \"#utility.yul\":17967:18030   */\n      tag_418\n      jumpi\n        /* \"#utility.yul\":18026:18027   */\n      0x00\n        /* \"#utility.yul\":18023:18024   */\n      dup1\n        /* \"#utility.yul\":18016:18028   */\n      revert\n        /* \"#utility.yul\":17967:18030   */\n    tag_418:\n        /* \"#utility.yul\":17914:18036   */\n      pop\n      jump\t// out\n        /* \"#utility.yul\":18042:18180   */\n    tag_226:\n        /* \"#utility.yul\":18123:18155   */\n      tag_420\n        /* \"#utility.yul\":18149:18154   */\n      dup2\n        /* \"#utility.yul\":18123:18155   */\n      tag_277\n      jump\t// in\n    tag_420:\n        /* \"#utility.yul\":18116:18121   */\n      dup2\n        /* \"#utility.yul\":18113:18156   */\n      eq\n        /* \"#utility.yul\":18103:18174   */\n      tag_421\n      jumpi\n        /* \"#utility.yul\":18170:18171   */\n      0x00\n        /* \"#utility.yul\":18167:18168   */\n      dup1\n        /* \"#utility.yul\":18160:18172   */\n      revert\n        /* \"#utility.yul\":18103:18174   */\n    tag_421:\n        /* \"#utility.yul\":18042:18180   */\n      pop\n      jump\t// out\n        /* \"#utility.yul\":18186:18308   */\n    tag_236:\n        /* \"#utility.yul\":18259:18283   */\n      tag_423\n        /* \"#utility.yul\":18277:18282   */\n      dup2\n        /* \"#utility.yul\":18259:18283   */\n      tag_337\n      jump\t// in\n    tag_423:\n        /* \"#utility.yul\":18252:18257   */\n      dup2\n        /* \"#utility.yul\":18249:18284   */\n      eq\n        /* \"#utility.yul\":18239:18302   */\n      tag_424\n      jumpi\n        /* \"#utility.yul\":18298:18299   */\n      0x00\n        /* \"#utility.yul\":18295:18296   */\n      dup1\n        /* \"#utility.yul\":18288:18300   */\n      revert\n        /* \"#utility.yul\":18239:18302   */\n    tag_424:\n        /* \"#utility.yul\":18186:18308   */\n      pop\n      jump\t// out\n\n    auxdata: 0xa264697066735822122059d178a093f1c39a7ffe5f1098906ba9d95aeef438a6df580440bf9a3cd051be64736f6c63430008070033\n}\n",
				"bytecode": {
					"linkReferences": {},
					"object": "608060405234801561001057600080fd5b50611e1e806100206000396000f3fe608060405234801561001057600080fd5b506004361061009e5760003560e01c8063470240c211610066578063470240c21461016b57806347b399ed1461019b5780634aa60186146101cb578063ce164fdd146101ff578063d4126e6f146102335761009e565b80630294e77f146100a35780630ca0c38b146100d35780631881c5fc146100ef578063219a7f271461010b5780633e4994c91461013b575b600080fd5b6100bd60048036038101906100b89190611710565b610267565b6040516100ca9190611a3b565b60405180910390f35b6100ed60048036038101906100e89190611655565b610313565b005b61010960048036038101906101049190611655565b6104d9565b005b610125600480360381019061012091906115df565b6106a3565b6040516101329190611ac5565b60405180910390f35b61015560048036038101906101509190611710565b610a1c565b60405161016291906119bf565b60405180910390f35b610185600480360381019061018091906115df565b610a5b565b6040516101929190611ae7565b60405180910390f35b6101b560048036038101906101b09190611710565b610dd3565b6040516101c291906119bf565b60405180910390f35b6101e560048036038101906101e091906115b2565b610e12565b6040516101f6959493929190611a5d565b60405180910390f35b610219600480360381019061021491906115b2565b61100d565b60405161022a959493929190611a5d565b60405180910390f35b61024d6004803603810190610248919061160c565b611208565b60405161025e9594939291906119da565b60405180910390f35b6005818154811061027757600080fd5b90600052602060002001600091509050805461029290611c7a565b80601f01602080910402602001604051908101604052809291908181526020018280546102be90611c7a565b801561030b5780601f106102e05761010080835404028352916020019161030b565b820191906000526020600020905b8154815290600101906020018083116102ee57829003601f168201915b505050505081565b836000803373ffffffffffffffffffffffffffffffffffffffff1673ffffffffffffffffffffffffffffffffffffffff16815260200190815260200160002060000190805190602001906103689291906113a4565b50826000803373ffffffffffffffffffffffffffffffffffffffff1673ffffffffffffffffffffffffffffffffffffffff16815260200190815260200160002060010190805190602001906103be9291906113a4565b50816000803373ffffffffffffffffffffffffffffffffffffffff1673ffffffffffffffffffffffffffffffffffffffff16815260200190815260200160002060020190805190602001906104149291906113a4565b5080600181111561042857610427611cdd565b5b6000803373ffffffffffffffffffffffffffffffffffffffff1673ffffffffffffffffffffffffffffffffffffffff16815260200190815260200160002060050160006101000a81548160ff0219169083600181111561048b5761048a611cdd565b5b02179055503373ffffffffffffffffffffffffffffffffffffffff167f9b86717872986aab9d78c64f2726b6dae96b25a759ac26ed7adbfffba8d0ce3a60405160405180910390a250505050565b83600260003373ffffffffffffffffffffffffffffffffffffffff1673ffffffffffffffffffffffffffffffffffffffff168152602001908152602001600020600001908051906020019061052f9291906113a4565b5082600260003373ffffffffffffffffffffffffffffffffffffffff1673ffffffffffffffffffffffffffffffffffffffff16815260200190815260200160002060010190805190602001906105869291906113a4565b5081600260003373ffffffffffffffffffffffffffffffffffffffff1673ffffffffffffffffffffffffffffffffffffffff16815260200190815260200160002060020190805190602001906105dd9291906113a4565b508060018111156105f1576105f0611cdd565b5b600260003373ffffffffffffffffffffffffffffffffffffffff1673ffffffffffffffffffffffffffffffffffffffff16815260200190815260200160002060050160006101000a81548160ff0219169083600181111561065557610654611cdd565b5b02179055503373ffffffffffffffffffffffffffffffffffffffff167f8e8163abfd8af54d75ae372dd0fee97b14b981449bee2aeb55d2de269a9f5a2a60405160405180910390a250505050565b6106ab61142a565b600260008373ffffffffffffffffffffffffffffffffffffffff1673ffffffffffffffffffffffffffffffffffffffff1681526020019081526020016000206040518060c001604052908160008201805461070590611c7a565b80601f016020809104026020016040519081016040528092919081815260200182805461073190611c7a565b801561077e5780601f106107535761010080835404028352916020019161077e565b820191906000526020600020905b81548152906001019060200180831161076157829003601f168201915b5050505050815260200160018201805461079790611c7a565b80601f01602080910402602001604051908101604052809291908181526020018280546107c390611c7a565b80156108105780601f106107e557610100808354040283529160200191610810565b820191906000526020600020905b8154815290600101906020018083116107f357829003601f168201915b5050505050815260200160028201805461082990611c7a565b80601f016020809104026020016040519081016040528092919081815260200182805461085590611c7a565b80156108a25780601f10610877576101008083540402835291602001916108a2565b820191906000526020600020905b81548152906001019060200180831161088557829003601f168201915b505050505081526020016003820160009054906101000a900473ffffffffffffffffffffffffffffffffffffffff1673ffffffffffffffffffffffffffffffffffffffff1673ffffffffffffffffffffffffffffffffffffffff16815260200160048201805480602002602001604051908101604052809291908181526020016000905b828210156109d257838290600052602060002001805461094590611c7a565b80601f016020809104026020016040519081016040528092919081815260200182805461097190611c7a565b80156109be5780601f10610993576101008083540402835291602001916109be565b820191906000526020600020905b8154815290600101906020018083116109a157829003601f168201915b505050505081526020019060010190610926565b5050505081526020016005820160009054906101000a900460ff1660018111156109ff576109fe611cdd565b5b6001811115610a1157610a10611cdd565b5b815250509050919050565b60018181548110610a2c57600080fd5b906000526020600020016000915054906101000a900473ffffffffffffffffffffffffffffffffffffffff1681565b610a63611488565b6000808373ffffffffffffffffffffffffffffffffffffffff1673ffffffffffffffffffffffffffffffffffffffff1681526020019081526020016000206040518060c0016040529081600082018054610abc90611c7a565b80601f0160208091040260200160405190810160405280929190818152602001828054610ae890611c7a565b8015610b355780601f10610b0a57610100808354040283529160200191610b35565b820191906000526020600020905b815481529060010190602001808311610b1857829003601f168201915b50505050508152602001600182018054610b4e90611c7a565b80601f0160208091040260200160405190810160405280929190818152602001828054610b7a90611c7a565b8015610bc75780601f10610b9c57610100808354040283529160200191610bc7565b820191906000526020600020905b815481529060010190602001808311610baa57829003601f168201915b50505050508152602001600282018054610be090611c7a565b80601f0160208091040260200160405190810160405280929190818152602001828054610c0c90611c7a565b8015610c595780601f10610c2e57610100808354040283529160200191610c59565b820191906000526020600020905b815481529060010190602001808311610c3c57829003601f168201915b505050505081526020016003820160009054906101000a900473ffffffffffffffffffffffffffffffffffffffff1673ffffffffffffffffffffffffffffffffffffffff1673ffffffffffffffffffffffffffffffffffffffff16815260200160048201805480602002602001604051908101604052809291908181526020016000905b82821015610d89578382906000526020600020018054610cfc90611c7a565b80601f0160208091040260200160405190810160405280929190818152602001828054610d2890611c7a565b8015610d755780601f10610d4a57610100808354040283529160200191610d75565b820191906000526020600020905b815481529060010190602001808311610d5857829003601f168201915b505050505081526020019060010190610cdd565b5050505081526020016005820160009054906101000a900460ff166001811115610db657610db5611cdd565b5b6001811115610dc857610dc7611cdd565b5b815250509050919050565b60038181548110610de357600080fd5b906000526020600020016000915054906101000a900473ffffffffffffffffffffffffffffffffffffffff1681565b6002602052806000526040600020600091509050806000018054610e3590611c7a565b80601f0160208091040260200160405190810160405280929190818152602001828054610e6190611c7a565b8015610eae5780601f10610e8357610100808354040283529160200191610eae565b820191906000526020600020905b815481529060010190602001808311610e9157829003601f168201915b505050505090806001018054610ec390611c7a565b80601f0160208091040260200160405190810160405280929190818152602001828054610eef90611c7a565b8015610f3c5780601f10610f1157610100808354040283529160200191610f3c565b820191906000526020600020905b815481529060010190602001808311610f1f57829003601f168201915b505050505090806002018054610f5190611c7a565b80601f0160208091040260200160405190810160405280929190818152602001828054610f7d90611c7a565b8015610fca5780601f10610f9f57610100808354040283529160200191610fca565b820191906000526020600020905b815481529060010190602001808311610fad57829003601f168201915b5050505050908060030160009054906101000a900473ffffffffffffffffffffffffffffffffffffffff16908060050160009054906101000a900460ff16905085565b600060205280600052604060002060009150905080600001805461103090611c7a565b80601f016020809104026020016040519081016040528092919081815260200182805461105c90611c7a565b80156110a95780601f1061107e576101008083540402835291602001916110a9565b820191906000526020600020905b81548152906001019060200180831161108c57829003601f168201915b5050505050908060010180546110be90611c7a565b80601f01602080910402602001604051908101604052809291908181526020018280546110ea90611c7a565b80156111375780601f1061110c57610100808354040283529160200191611137565b820191906000526020600020905b81548152906001019060200180831161111a57829003601f168201915b50505050509080600201805461114c90611c7a565b80601f016020809104026020016040519081016040528092919081815260200182805461117890611c7a565b80156111c55780601f1061119a576101008083540402835291602001916111c5565b820191906000526020600020905b8154815290600101906020018083116111a857829003601f168201915b5050505050908060030160009054906101000a900473ffffffffffffffffffffffffffffffffffffffff16908060050160009054906101000a900460ff16905085565b6004818051602081018201805184825260208301602085012081835280955050505050506000915090508060000160009054906101000a900473ffffffffffffffffffffffffffffffffffffffff16908060010160009054906101000a900473ffffffffffffffffffffffffffffffffffffffff169080600201805461128d90611c7a565b80601f01602080910402602001604051908101604052809291908181526020018280546112b990611c7a565b80156113065780601f106112db57610100808354040283529160200191611306565b820191906000526020600020905b8154815290600101906020018083116112e957829003601f168201915b50505050509080600301805461131b90611c7a565b80601f016020809104026020016040519081016040528092919081815260200182805461134790611c7a565b80156113945780601f1061136957610100808354040283529160200191611394565b820191906000526020600020905b81548152906001019060200180831161137757829003601f168201915b5050505050908060040154905085565b8280546113b090611c7a565b90600052602060002090601f0160209004810192826113d25760008555611419565b82601f106113eb57805160ff1916838001178555611419565b82800160010185558215611419579182015b828111156114185782518255916020019190600101906113fd565b5b50905061142691906114e6565b5090565b6040518060c00160405280606081526020016060815260200160608152602001600073ffffffffffffffffffffffffffffffffffffffff168152602001606081526020016000600181111561148257611481611cdd565b5b81525090565b6040518060c00160405280606081526020016060815260200160608152602001600073ffffffffffffffffffffffffffffffffffffffff16815260200160608152602001600060018111156114e0576114df611cdd565b5b81525090565b5b808211156114ff5760008160009055506001016114e7565b5090565b600061151661151184611b2e565b611b09565b90508281526020810184848401111561153257611531611d6f565b5b61153d848285611c38565b509392505050565b60008135905061155481611da3565b92915050565b60008135905061156981611dba565b92915050565b600082601f83011261158457611583611d6a565b5b8135611594848260208601611503565b91505092915050565b6000813590506115ac81611dd1565b92915050565b6000602082840312156115c8576115c7611d79565b5b60006115d684828501611545565b91505092915050565b6000602082840312156115f5576115f4611d79565b5b60006116038482850161155a565b91505092915050565b60006020828403121561162257611621611d79565b5b600082013567ffffffffffffffff8111156116405761163f611d74565b5b61164c8482850161156f565b91505092915050565b6000806000806080858703121561166f5761166e611d79565b5b600085013567ffffffffffffffff81111561168d5761168c611d74565b5b6116998782880161156f565b945050602085013567ffffffffffffffff8111156116ba576116b9611d74565b5b6116c68782880161156f565b935050604085013567ffffffffffffffff8111156116e7576116e6611d74565b5b6116f38782880161156f565b92505060606117048782880161159d565b91505092959194509250565b60006020828403121561172657611725611d79565b5b60006117348482850161159d565b91505092915050565b60006117498383611802565b905092915050565b61175a81611bd7565b82525050565b61176981611bd7565b82525050565b600061177a82611b6f565b6117848185611b92565b93508360208202850161179685611b5f565b8060005b858110156117d257848403895281516117b3858261173d565b94506117be83611b85565b925060208a0199505060018101905061179a565b50829750879550505050505092915050565b6117ed81611c26565b82525050565b6117fc81611c26565b82525050565b600061180d82611b7a565b6118178185611ba3565b9350611827818560208601611c47565b61183081611d7e565b840191505092915050565b600061184682611b7a565b6118508185611bb4565b9350611860818560208601611c47565b61186981611d7e565b840191505092915050565b600060c08301600083015184820360008601526118918282611802565b915050602083015184820360208601526118ab8282611802565b915050604083015184820360408601526118c58282611802565b91505060608301516118da6060860182611751565b50608083015184820360808601526118f2828261176f565b91505060a083015161190760a08601826117e4565b508091505092915050565b600060c083016000830151848203600086015261192f8282611802565b915050602083015184820360208601526119498282611802565b915050604083015184820360408601526119638282611802565b91505060608301516119786060860182611751565b5060808301518482036080860152611990828261176f565b91505060a08301516119a560a08601826117e4565b508091505092915050565b6119b981611c1c565b82525050565b60006020820190506119d46000830184611760565b92915050565b600060a0820190506119ef6000830188611760565b6119fc6020830187611760565b8181036040830152611a0e818661183b565b90508181036060830152611a22818561183b565b9050611a3160808301846119b0565b9695505050505050565b60006020820190508181036000830152611a55818461183b565b905092915050565b600060a0820190508181036000830152611a77818861183b565b90508181036020830152611a8b818761183b565b90508181036040830152611a9f818661183b565b9050611aae6060830185611760565b611abb60808301846117f3565b9695505050505050565b60006020820190508181036000830152611adf8184611874565b905092915050565b60006020820190508181036000830152611b018184611912565b905092915050565b6000611b13611b24565b9050611b1f8282611cac565b919050565b6000604051905090565b600067ffffffffffffffff821115611b4957611b48611d3b565b5b611b5282611d7e565b9050602081019050919050565b6000819050602082019050919050565b600081519050919050565b600081519050919050565b6000602082019050919050565b600082825260208201905092915050565b600082825260208201905092915050565b600082825260208201905092915050565b6000611bd082611bfc565b9050919050565b6000611be282611bfc565b9050919050565b6000819050611bf782611d8f565b919050565b600073ffffffffffffffffffffffffffffffffffffffff82169050919050565b6000819050919050565b6000611c3182611be9565b9050919050565b82818337600083830152505050565b60005b83811015611c65578082015181840152602081019050611c4a565b83811115611c74576000848401525b50505050565b60006002820490506001821680611c9257607f821691505b60208210811415611ca657611ca5611d0c565b5b50919050565b611cb582611d7e565b810181811067ffffffffffffffff82111715611cd457611cd3611d3b565b5b80604052505050565b7f4e487b7100000000000000000000000000000000000000000000000000000000600052602160045260246000fd5b7f4e487b7100000000000000000000000000000000000000000000000000000000600052602260045260246000fd5b7f4e487b7100000000000000000000000000000000000000000000000000000000600052604160045260246000fd5b600080fd5b600080fd5b600080fd5b600080fd5b6000601f19601f8301169050919050565b60028110611da057611d9f611cdd565b5b50565b611dac81611bc5565b8114611db757600080fd5b50565b611dc381611bd7565b8114611dce57600080fd5b50565b611dda81611c1c565b8114611de557600080fd5b5056fea264697066735822122059d178a093f1c39a7ffe5f1098906ba9d95aeef438a6df580440bf9a3cd051be64736f6c63430008070033",
					"opcodes": "PUSH1 0x80 PUSH1 0x40 MSTORE CALLVALUE DUP1 ISZERO PUSH2 0x10 JUMPI PUSH1 0x0 DUP1 REVERT JUMPDEST POP PUSH2 0x1E1E DUP1 PUSH2 0x20 PUSH1 0x0 CODECOPY PUSH1 0x0 RETURN INVALID PUSH1 0x80 PUSH1 0x40 MSTORE CALLVALUE DUP1 ISZERO PUSH2 0x10 JUMPI PUSH1 0x0 DUP1 REVERT JUMPDEST POP PUSH1 0x4 CALLDATASIZE LT PUSH2 0x9E JUMPI PUSH1 0x0 CALLDATALOAD PUSH1 0xE0 SHR DUP1 PUSH4 0x470240C2 GT PUSH2 0x66 JUMPI DUP1 PUSH4 0x470240C2 EQ PUSH2 0x16B JUMPI DUP1 PUSH4 0x47B399ED EQ PUSH2 0x19B JUMPI DUP1 PUSH4 0x4AA60186 EQ PUSH2 0x1CB JUMPI DUP1 PUSH4 0xCE164FDD EQ PUSH2 0x1FF JUMPI DUP1 PUSH4 0xD4126E6F EQ PUSH2 0x233 JUMPI PUSH2 0x9E JUMP JUMPDEST DUP1 PUSH4 0x294E77F EQ PUSH2 0xA3 JUMPI DUP1 PUSH4 0xCA0C38B EQ PUSH2 0xD3 JUMPI DUP1 PUSH4 0x1881C5FC EQ PUSH2 0xEF JUMPI DUP1 PUSH4 0x219A7F27 EQ PUSH2 0x10B JUMPI DUP1 PUSH4 0x3E4994C9 EQ PUSH2 0x13B JUMPI JUMPDEST PUSH1 0x0 DUP1 REVERT JUMPDEST PUSH2 0xBD PUSH1 0x4 DUP1 CALLDATASIZE SUB DUP2 ADD SWAP1 PUSH2 0xB8 SWAP2 SWAP1 PUSH2 0x1710 JUMP JUMPDEST PUSH2 0x267 JUMP JUMPDEST PUSH1 0x40 MLOAD PUSH2 0xCA SWAP2 SWAP1 PUSH2 0x1A3B JUMP JUMPDEST PUSH1 0x40 MLOAD DUP1 SWAP2 SUB SWAP1 RETURN JUMPDEST PUSH2 0xED PUSH1 0x4 DUP1 CALLDATASIZE SUB DUP2 ADD SWAP1 PUSH2 0xE8 SWAP2 SWAP1 PUSH2 0x1655 JUMP JUMPDEST PUSH2 0x313 JUMP JUMPDEST STOP JUMPDEST PUSH2 0x109 PUSH1 0x4 DUP1 CALLDATASIZE SUB DUP2 ADD SWAP1 PUSH2 0x104 SWAP2 SWAP1 PUSH2 0x1655 JUMP JUMPDEST PUSH2 0x4D9 JUMP JUMPDEST STOP JUMPDEST PUSH2 0x125 PUSH1 0x4 DUP1 CALLDATASIZE SUB DUP2 ADD SWAP1 PUSH2 0x120 SWAP2 SWAP1 PUSH2 0x15DF JUMP JUMPDEST PUSH2 0x6A3 JUMP JUMPDEST PUSH1 0x40 MLOAD PUSH2 0x132 SWAP2 SWAP1 PUSH2 0x1AC5 JUMP JUMPDEST PUSH1 0x40 MLOAD DUP1 SWAP2 SUB SWAP1 RETURN JUMPDEST PUSH2 0x155 PUSH1 0x4 DUP1 CALLDATASIZE SUB DUP2 ADD SWAP1 PUSH2 0x150 SWAP2 SWAP1 PUSH2 0x1710 JUMP JUMPDEST PUSH2 0xA1C JUMP JUMPDEST PUSH1 0x40 MLOAD PUSH2 0x162 SWAP2 SWAP1 PUSH2 0x19BF JUMP JUMPDEST PUSH1 0x40 MLOAD DUP1 SWAP2 SUB SWAP1 RETURN JUMPDEST PUSH2 0x185 PUSH1 0x4 DUP1 CALLDATASIZE SUB DUP2 ADD SWAP1 PUSH2 0x180 SWAP2 SWAP1 PUSH2 0x15DF JUMP JUMPDEST PUSH2 0xA5B JUMP JUMPDEST PUSH1 0x40 MLOAD PUSH2 0x192 SWAP2 SWAP1 PUSH2 0x1AE7 JUMP JUMPDEST PUSH1 0x40 MLOAD DUP1 SWAP2 SUB SWAP1 RETURN JUMPDEST PUSH2 0x1B5 PUSH1 0x4 DUP1 CALLDATASIZE SUB DUP2 ADD SWAP1 PUSH2 0x1B0 SWAP2 SWAP1 PUSH2 0x1710 JUMP JUMPDEST PUSH2 0xDD3 JUMP JUMPDEST PUSH1 0x40 MLOAD PUSH2 0x1C2 SWAP2 SWAP1 PUSH2 0x19BF JUMP JUMPDEST PUSH1 0x40 MLOAD DUP1 SWAP2 SUB SWAP1 RETURN JUMPDEST PUSH2 0x1E5 PUSH1 0x4 DUP1 CALLDATASIZE SUB DUP2 ADD SWAP1 PUSH2 0x1E0 SWAP2 SWAP1 PUSH2 0x15B2 JUMP JUMPDEST PUSH2 0xE12 JUMP JUMPDEST PUSH1 0x40 MLOAD PUSH2 0x1F6 SWAP6 SWAP5 SWAP4 SWAP3 SWAP2 SWAP1 PUSH2 0x1A5D JUMP JUMPDEST PUSH1 0x40 MLOAD DUP1 SWAP2 SUB SWAP1 RETURN JUMPDEST PUSH2 0x219 PUSH1 0x4 DUP1 CALLDATASIZE SUB DUP2 ADD SWAP1 PUSH2 0x214 SWAP2 SWAP1 PUSH2 0x15B2 JUMP JUMPDEST PUSH2 0x100D JUMP JUMPDEST PUSH1 0x40 MLOAD PUSH2 0x22A SWAP6 SWAP5 SWAP4 SWAP3 SWAP2 SWAP1 PUSH2 0x1A5D JUMP JUMPDEST PUSH1 0x40 MLOAD DUP1 SWAP2 SUB SWAP1 RETURN JUMPDEST PUSH2 0x24D PUSH1 0x4 DUP1 CALLDATASIZE SUB DUP2 ADD SWAP1 PUSH2 0x248 SWAP2 SWAP1 PUSH2 0x160C JUMP JUMPDEST PUSH2 0x1208 JUMP JUMPDEST PUSH1 0x40 MLOAD PUSH2 0x25E SWAP6 SWAP5 SWAP4 SWAP3 SWAP2 SWAP1 PUSH2 0x19DA JUMP JUMPDEST PUSH1 0x40 MLOAD DUP1 SWAP2 SUB SWAP1 RETURN JUMPDEST PUSH1 0x5 DUP2 DUP2 SLOAD DUP2 LT PUSH2 0x277 JUMPI PUSH1 0x0 DUP1 REVERT JUMPDEST SWAP1 PUSH1 0x0 MSTORE PUSH1 0x20 PUSH1 0x0 KECCAK256 ADD PUSH1 0x0 SWAP2 POP SWAP1 POP DUP1 SLOAD PUSH2 0x292 SWAP1 PUSH2 0x1C7A JUMP JUMPDEST DUP1 PUSH1 0x1F ADD PUSH1 0x20 DUP1 SWAP2 DIV MUL PUSH1 0x20 ADD PUSH1 0x40 MLOAD SWAP1 DUP2 ADD PUSH1 0x40 MSTORE DUP1 SWAP3 SWAP2 SWAP1 DUP2 DUP2 MSTORE PUSH1 0x20 ADD DUP3 DUP1 SLOAD PUSH2 0x2BE SWAP1 PUSH2 0x1C7A JUMP JUMPDEST DUP1 ISZERO PUSH2 0x30B JUMPI DUP1 PUSH1 0x1F LT PUSH2 0x2E0 JUMPI PUSH2 0x100 DUP1 DUP4 SLOAD DIV MUL DUP4 MSTORE SWAP2 PUSH1 0x20 ADD SWAP2 PUSH2 0x30B JUMP JUMPDEST DUP3 ADD SWAP2 SWAP1 PUSH1 0x0 MSTORE PUSH1 0x20 PUSH1 0x0 KECCAK256 SWAP1 JUMPDEST DUP2 SLOAD DUP2 MSTORE SWAP1 PUSH1 0x1 ADD SWAP1 PUSH1 0x20 ADD DUP1 DUP4 GT PUSH2 0x2EE JUMPI DUP3 SWAP1 SUB PUSH1 0x1F AND DUP3 ADD SWAP2 JUMPDEST POP POP POP POP POP DUP2 JUMP JUMPDEST DUP4 PUSH1 0x0 DUP1 CALLER PUSH20 0xFFFFFFFFFFFFFFFFFFFFFFFFFFFFFFFFFFFFFFFF AND PUSH20 0xFFFFFFFFFFFFFFFFFFFFFFFFFFFFFFFFFFFFFFFF AND DUP2 MSTORE PUSH1 0x20 ADD SWAP1 DUP2 MSTORE PUSH1 0x20 ADD PUSH1 0x0 KECCAK256 PUSH1 0x0 ADD SWAP1 DUP1 MLOAD SWAP1 PUSH1 0x20 ADD SWAP1 PUSH2 0x368 SWAP3 SWAP2 SWAP1 PUSH2 0x13A4 JUMP JUMPDEST POP DUP3 PUSH1 0x0 DUP1 CALLER PUSH20 0xFFFFFFFFFFFFFFFFFFFFFFFFFFFFFFFFFFFFFFFF AND PUSH20 0xFFFFFFFFFFFFFFFFFFFFFFFFFFFFFFFFFFFFFFFF AND DUP2 MSTORE PUSH1 0x20 ADD SWAP1 DUP2 MSTORE PUSH1 0x20 ADD PUSH1 0x0 KECCAK256 PUSH1 0x1 ADD SWAP1 DUP1 MLOAD SWAP1 PUSH1 0x20 ADD SWAP1 PUSH2 0x3BE SWAP3 SWAP2 SWAP1 PUSH2 0x13A4 JUMP JUMPDEST POP DUP2 PUSH1 0x0 DUP1 CALLER PUSH20 0xFFFFFFFFFFFFFFFFFFFFFFFFFFFFFFFFFFFFFFFF AND PUSH20 0xFFFFFFFFFFFFFFFFFFFFFFFFFFFFFFFFFFFFFFFF AND DUP2 MSTORE PUSH1 0x20 ADD SWAP1 DUP2 MSTORE PUSH1 0x20 ADD PUSH1 0x0 KECCAK256 PUSH1 0x2 ADD SWAP1 DUP1 MLOAD SWAP1 PUSH1 0x20 ADD SWAP1 PUSH2 0x414 SWAP3 SWAP2 SWAP1 PUSH2 0x13A4 JUMP JUMPDEST POP DUP1 PUSH1 0x1 DUP2 GT ISZERO PUSH2 0x428 JUMPI PUSH2 0x427 PUSH2 0x1CDD JUMP JUMPDEST JUMPDEST PUSH1 0x0 DUP1 CALLER PUSH20 0xFFFFFFFFFFFFFFFFFFFFFFFFFFFFFFFFFFFFFFFF AND PUSH20 0xFFFFFFFFFFFFFFFFFFFFFFFFFFFFFFFFFFFFFFFF AND DUP2 MSTORE PUSH1 0x20 ADD SWAP1 DUP2 MSTORE PUSH1 0x20 ADD PUSH1 0x0 KECCAK256 PUSH1 0x5 ADD PUSH1 0x0 PUSH2 0x100 EXP DUP2 SLOAD DUP2 PUSH1 0xFF MUL NOT AND SWAP1 DUP4 PUSH1 0x1 DUP2 GT ISZERO PUSH2 0x48B JUMPI PUSH2 0x48A PUSH2 0x1CDD JUMP JUMPDEST JUMPDEST MUL OR SWAP1 SSTORE POP CALLER PUSH20 0xFFFFFFFFFFFFFFFFFFFFFFFFFFFFFFFFFFFFFFFF AND PUSH32 0x9B86717872986AAB9D78C64F2726B6DAE96B25A759AC26ED7ADBFFFBA8D0CE3A PUSH1 0x40 MLOAD PUSH1 0x40 MLOAD DUP1 SWAP2 SUB SWAP1 LOG2 POP POP POP POP JUMP JUMPDEST DUP4 PUSH1 0x2 PUSH1 0x0 CALLER PUSH20 0xFFFFFFFFFFFFFFFFFFFFFFFFFFFFFFFFFFFFFFFF AND PUSH20 0xFFFFFFFFFFFFFFFFFFFFFFFFFFFFFFFFFFFFFFFF AND DUP2 MSTORE PUSH1 0x20 ADD SWAP1 DUP2 MSTORE PUSH1 0x20 ADD PUSH1 0x0 KECCAK256 PUSH1 0x0 ADD SWAP1 DUP1 MLOAD SWAP1 PUSH1 0x20 ADD SWAP1 PUSH2 0x52F SWAP3 SWAP2 SWAP1 PUSH2 0x13A4 JUMP JUMPDEST POP DUP3 PUSH1 0x2 PUSH1 0x0 CALLER PUSH20 0xFFFFFFFFFFFFFFFFFFFFFFFFFFFFFFFFFFFFFFFF AND PUSH20 0xFFFFFFFFFFFFFFFFFFFFFFFFFFFFFFFFFFFFFFFF AND DUP2 MSTORE PUSH1 0x20 ADD SWAP1 DUP2 MSTORE PUSH1 0x20 ADD PUSH1 0x0 KECCAK256 PUSH1 0x1 ADD SWAP1 DUP1 MLOAD SWAP1 PUSH1 0x20 ADD SWAP1 PUSH2 0x586 SWAP3 SWAP2 SWAP1 PUSH2 0x13A4 JUMP JUMPDEST POP DUP2 PUSH1 0x2 PUSH1 0x0 CALLER PUSH20 0xFFFFFFFFFFFFFFFFFFFFFFFFFFFFFFFFFFFFFFFF AND PUSH20 0xFFFFFFFFFFFFFFFFFFFFFFFFFFFFFFFFFFFFFFFF AND DUP2 MSTORE PUSH1 0x20 ADD SWAP1 DUP2 MSTORE PUSH1 0x20 ADD PUSH1 0x0 KECCAK256 PUSH1 0x2 ADD SWAP1 DUP1 MLOAD SWAP1 PUSH1 0x20 ADD SWAP1 PUSH2 0x5DD SWAP3 SWAP2 SWAP1 PUSH2 0x13A4 JUMP JUMPDEST POP DUP1 PUSH1 0x1 DUP2 GT ISZERO PUSH2 0x5F1 JUMPI PUSH2 0x5F0 PUSH2 0x1CDD JUMP JUMPDEST JUMPDEST PUSH1 0x2 PUSH1 0x0 CALLER PUSH20 0xFFFFFFFFFFFFFFFFFFFFFFFFFFFFFFFFFFFFFFFF AND PUSH20 0xFFFFFFFFFFFFFFFFFFFFFFFFFFFFFFFFFFFFFFFF AND DUP2 MSTORE PUSH1 0x20 ADD SWAP1 DUP2 MSTORE PUSH1 0x20 ADD PUSH1 0x0 KECCAK256 PUSH1 0x5 ADD PUSH1 0x0 PUSH2 0x100 EXP DUP2 SLOAD DUP2 PUSH1 0xFF MUL NOT AND SWAP1 DUP4 PUSH1 0x1 DUP2 GT ISZERO PUSH2 0x655 JUMPI PUSH2 0x654 PUSH2 0x1CDD JUMP JUMPDEST JUMPDEST MUL OR SWAP1 SSTORE POP CALLER PUSH20 0xFFFFFFFFFFFFFFFFFFFFFFFFFFFFFFFFFFFFFFFF AND PUSH32 0x8E8163ABFD8AF54D75AE372DD0FEE97B14B981449BEE2AEB55D2DE269A9F5A2A PUSH1 0x40 MLOAD PUSH1 0x40 MLOAD DUP1 SWAP2 SUB SWAP1 LOG2 POP POP POP POP JUMP JUMPDEST PUSH2 0x6AB PUSH2 0x142A JUMP JUMPDEST PUSH1 0x2 PUSH1 0x0 DUP4 PUSH20 0xFFFFFFFFFFFFFFFFFFFFFFFFFFFFFFFFFFFFFFFF AND PUSH20 0xFFFFFFFFFFFFFFFFFFFFFFFFFFFFFFFFFFFFFFFF AND DUP2 MSTORE PUSH1 0x20 ADD SWAP1 DUP2 MSTORE PUSH1 0x20 ADD PUSH1 0x0 KECCAK256 PUSH1 0x40 MLOAD DUP1 PUSH1 0xC0 ADD PUSH1 0x40 MSTORE SWAP1 DUP2 PUSH1 0x0 DUP3 ADD DUP1 SLOAD PUSH2 0x705 SWAP1 PUSH2 0x1C7A JUMP JUMPDEST DUP1 PUSH1 0x1F ADD PUSH1 0x20 DUP1 SWAP2 DIV MUL PUSH1 0x20 ADD PUSH1 0x40 MLOAD SWAP1 DUP2 ADD PUSH1 0x40 MSTORE DUP1 SWAP3 SWAP2 SWAP1 DUP2 DUP2 MSTORE PUSH1 0x20 ADD DUP3 DUP1 SLOAD PUSH2 0x731 SWAP1 PUSH2 0x1C7A JUMP JUMPDEST DUP1 ISZERO PUSH2 0x77E JUMPI DUP1 PUSH1 0x1F LT PUSH2 0x753 JUMPI PUSH2 0x100 DUP1 DUP4 SLOAD DIV MUL DUP4 MSTORE SWAP2 PUSH1 0x20 ADD SWAP2 PUSH2 0x77E JUMP JUMPDEST DUP3 ADD SWAP2 SWAP1 PUSH1 0x0 MSTORE PUSH1 0x20 PUSH1 0x0 KECCAK256 SWAP1 JUMPDEST DUP2 SLOAD DUP2 MSTORE SWAP1 PUSH1 0x1 ADD SWAP1 PUSH1 0x20 ADD DUP1 DUP4 GT PUSH2 0x761 JUMPI DUP3 SWAP1 SUB PUSH1 0x1F AND DUP3 ADD SWAP2 JUMPDEST POP POP POP POP POP DUP2 MSTORE PUSH1 0x20 ADD PUSH1 0x1 DUP3 ADD DUP1 SLOAD PUSH2 0x797 SWAP1 PUSH2 0x1C7A JUMP JUMPDEST DUP1 PUSH1 0x1F ADD PUSH1 0x20 DUP1 SWAP2 DIV MUL PUSH1 0x20 ADD PUSH1 0x40 MLOAD SWAP1 DUP2 ADD PUSH1 0x40 MSTORE DUP1 SWAP3 SWAP2 SWAP1 DUP2 DUP2 MSTORE PUSH1 0x20 ADD DUP3 DUP1 SLOAD PUSH2 0x7C3 SWAP1 PUSH2 0x1C7A JUMP JUMPDEST DUP1 ISZERO PUSH2 0x810 JUMPI DUP1 PUSH1 0x1F LT PUSH2 0x7E5 JUMPI PUSH2 0x100 DUP1 DUP4 SLOAD DIV MUL DUP4 MSTORE SWAP2 PUSH1 0x20 ADD SWAP2 PUSH2 0x810 JUMP JUMPDEST DUP3 ADD SWAP2 SWAP1 PUSH1 0x0 MSTORE PUSH1 0x20 PUSH1 0x0 KECCAK256 SWAP1 JUMPDEST DUP2 SLOAD DUP2 MSTORE SWAP1 PUSH1 0x1 ADD SWAP1 PUSH1 0x20 ADD DUP1 DUP4 GT PUSH2 0x7F3 JUMPI DUP3 SWAP1 SUB PUSH1 0x1F AND DUP3 ADD SWAP2 JUMPDEST POP POP POP POP POP DUP2 MSTORE PUSH1 0x20 ADD PUSH1 0x2 DUP3 ADD DUP1 SLOAD PUSH2 0x829 SWAP1 PUSH2 0x1C7A JUMP JUMPDEST DUP1 PUSH1 0x1F ADD PUSH1 0x20 DUP1 SWAP2 DIV MUL PUSH1 0x20 ADD PUSH1 0x40 MLOAD SWAP1 DUP2 ADD PUSH1 0x40 MSTORE DUP1 SWAP3 SWAP2 SWAP1 DUP2 DUP2 MSTORE PUSH1 0x20 ADD DUP3 DUP1 SLOAD PUSH2 0x855 SWAP1 PUSH2 0x1C7A JUMP JUMPDEST DUP1 ISZERO PUSH2 0x8A2 JUMPI DUP1 PUSH1 0x1F LT PUSH2 0x877 JUMPI PUSH2 0x100 DUP1 DUP4 SLOAD DIV MUL DUP4 MSTORE SWAP2 PUSH1 0x20 ADD SWAP2 PUSH2 0x8A2 JUMP JUMPDEST DUP3 ADD SWAP2 SWAP1 PUSH1 0x0 MSTORE PUSH1 0x20 PUSH1 0x0 KECCAK256 SWAP1 JUMPDEST DUP2 SLOAD DUP2 MSTORE SWAP1 PUSH1 0x1 ADD SWAP1 PUSH1 0x20 ADD DUP1 DUP4 GT PUSH2 0x885 JUMPI DUP3 SWAP1 SUB PUSH1 0x1F AND DUP3 ADD SWAP2 JUMPDEST POP POP POP POP POP DUP2 MSTORE PUSH1 0x20 ADD PUSH1 0x3 DUP3 ADD PUSH1 0x0 SWAP1 SLOAD SWAP1 PUSH2 0x100 EXP SWAP1 DIV PUSH20 0xFFFFFFFFFFFFFFFFFFFFFFFFFFFFFFFFFFFFFFFF AND PUSH20 0xFFFFFFFFFFFFFFFFFFFFFFFFFFFFFFFFFFFFFFFF AND PUSH20 0xFFFFFFFFFFFFFFFFFFFFFFFFFFFFFFFFFFFFFFFF AND DUP2 MSTORE PUSH1 0x20 ADD PUSH1 0x4 DUP3 ADD DUP1 SLOAD DUP1 PUSH1 0x20 MUL PUSH1 0x20 ADD PUSH1 0x40 MLOAD SWAP1 DUP2 ADD PUSH1 0x40 MSTORE DUP1 SWAP3 SWAP2 SWAP1 DUP2 DUP2 MSTORE PUSH1 0x20 ADD PUSH1 0x0 SWAP1 JUMPDEST DUP3 DUP3 LT ISZERO PUSH2 0x9D2 JUMPI DUP4 DUP3 SWAP1 PUSH1 0x0 MSTORE PUSH1 0x20 PUSH1 0x0 KECCAK256 ADD DUP1 SLOAD PUSH2 0x945 SWAP1 PUSH2 0x1C7A JUMP JUMPDEST DUP1 PUSH1 0x1F ADD PUSH1 0x20 DUP1 SWAP2 DIV MUL PUSH1 0x20 ADD PUSH1 0x40 MLOAD SWAP1 DUP2 ADD PUSH1 0x40 MSTORE DUP1 SWAP3 SWAP2 SWAP1 DUP2 DUP2 MSTORE PUSH1 0x20 ADD DUP3 DUP1 SLOAD PUSH2 0x971 SWAP1 PUSH2 0x1C7A JUMP JUMPDEST DUP1 ISZERO PUSH2 0x9BE JUMPI DUP1 PUSH1 0x1F LT PUSH2 0x993 JUMPI PUSH2 0x100 DUP1 DUP4 SLOAD DIV MUL DUP4 MSTORE SWAP2 PUSH1 0x20 ADD SWAP2 PUSH2 0x9BE JUMP JUMPDEST DUP3 ADD SWAP2 SWAP1 PUSH1 0x0 MSTORE PUSH1 0x20 PUSH1 0x0 KECCAK256 SWAP1 JUMPDEST DUP2 SLOAD DUP2 MSTORE SWAP1 PUSH1 0x1 ADD SWAP1 PUSH1 0x20 ADD DUP1 DUP4 GT PUSH2 0x9A1 JUMPI DUP3 SWAP1 SUB PUSH1 0x1F AND DUP3 ADD SWAP2 JUMPDEST POP POP POP POP POP DUP2 MSTORE PUSH1 0x20 ADD SWAP1 PUSH1 0x1 ADD SWAP1 PUSH2 0x926 JUMP JUMPDEST POP POP POP POP DUP2 MSTORE PUSH1 0x20 ADD PUSH1 0x5 DUP3 ADD PUSH1 0x0 SWAP1 SLOAD SWAP1 PUSH2 0x100 EXP SWAP1 DIV PUSH1 0xFF AND PUSH1 0x1 DUP2 GT ISZERO PUSH2 0x9FF JUMPI PUSH2 0x9FE PUSH2 0x1CDD JUMP JUMPDEST JUMPDEST PUSH1 0x1 DUP2 GT ISZERO PUSH2 0xA11 JUMPI PUSH2 0xA10 PUSH2 0x1CDD JUMP JUMPDEST JUMPDEST DUP2 MSTORE POP POP SWAP1 POP SWAP2 SWAP1 POP JUMP JUMPDEST PUSH1 0x1 DUP2 DUP2 SLOAD DUP2 LT PUSH2 0xA2C JUMPI PUSH1 0x0 DUP1 REVERT JUMPDEST SWAP1 PUSH1 0x0 MSTORE PUSH1 0x20 PUSH1 0x0 KECCAK256 ADD PUSH1 0x0 SWAP2 POP SLOAD SWAP1 PUSH2 0x100 EXP SWAP1 DIV PUSH20 0xFFFFFFFFFFFFFFFFFFFFFFFFFFFFFFFFFFFFFFFF AND DUP2 JUMP JUMPDEST PUSH2 0xA63 PUSH2 0x1488 JUMP JUMPDEST PUSH1 0x0 DUP1 DUP4 PUSH20 0xFFFFFFFFFFFFFFFFFFFFFFFFFFFFFFFFFFFFFFFF AND PUSH20 0xFFFFFFFFFFFFFFFFFFFFFFFFFFFFFFFFFFFFFFFF AND DUP2 MSTORE PUSH1 0x20 ADD SWAP1 DUP2 MSTORE PUSH1 0x20 ADD PUSH1 0x0 KECCAK256 PUSH1 0x40 MLOAD DUP1 PUSH1 0xC0 ADD PUSH1 0x40 MSTORE SWAP1 DUP2 PUSH1 0x0 DUP3 ADD DUP1 SLOAD PUSH2 0xABC SWAP1 PUSH2 0x1C7A JUMP JUMPDEST DUP1 PUSH1 0x1F ADD PUSH1 0x20 DUP1 SWAP2 DIV MUL PUSH1 0x20 ADD PUSH1 0x40 MLOAD SWAP1 DUP2 ADD PUSH1 0x40 MSTORE DUP1 SWAP3 SWAP2 SWAP1 DUP2 DUP2 MSTORE PUSH1 0x20 ADD DUP3 DUP1 SLOAD PUSH2 0xAE8 SWAP1 PUSH2 0x1C7A JUMP JUMPDEST DUP1 ISZERO PUSH2 0xB35 JUMPI DUP1 PUSH1 0x1F LT PUSH2 0xB0A JUMPI PUSH2 0x100 DUP1 DUP4 SLOAD DIV MUL DUP4 MSTORE SWAP2 PUSH1 0x20 ADD SWAP2 PUSH2 0xB35 JUMP JUMPDEST DUP3 ADD SWAP2 SWAP1 PUSH1 0x0 MSTORE PUSH1 0x20 PUSH1 0x0 KECCAK256 SWAP1 JUMPDEST DUP2 SLOAD DUP2 MSTORE SWAP1 PUSH1 0x1 ADD SWAP1 PUSH1 0x20 ADD DUP1 DUP4 GT PUSH2 0xB18 JUMPI DUP3 SWAP1 SUB PUSH1 0x1F AND DUP3 ADD SWAP2 JUMPDEST POP POP POP POP POP DUP2 MSTORE PUSH1 0x20 ADD PUSH1 0x1 DUP3 ADD DUP1 SLOAD PUSH2 0xB4E SWAP1 PUSH2 0x1C7A JUMP JUMPDEST DUP1 PUSH1 0x1F ADD PUSH1 0x20 DUP1 SWAP2 DIV MUL PUSH1 0x20 ADD PUSH1 0x40 MLOAD SWAP1 DUP2 ADD PUSH1 0x40 MSTORE DUP1 SWAP3 SWAP2 SWAP1 DUP2 DUP2 MSTORE PUSH1 0x20 ADD DUP3 DUP1 SLOAD PUSH2 0xB7A SWAP1 PUSH2 0x1C7A JUMP JUMPDEST DUP1 ISZERO PUSH2 0xBC7 JUMPI DUP1 PUSH1 0x1F LT PUSH2 0xB9C JUMPI PUSH2 0x100 DUP1 DUP4 SLOAD DIV MUL DUP4 MSTORE SWAP2 PUSH1 0x20 ADD SWAP2 PUSH2 0xBC7 JUMP JUMPDEST DUP3 ADD SWAP2 SWAP1 PUSH1 0x0 MSTORE PUSH1 0x20 PUSH1 0x0 KECCAK256 SWAP1 JUMPDEST DUP2 SLOAD DUP2 MSTORE SWAP1 PUSH1 0x1 ADD SWAP1 PUSH1 0x20 ADD DUP1 DUP4 GT PUSH2 0xBAA JUMPI DUP3 SWAP1 SUB PUSH1 0x1F AND DUP3 ADD SWAP2 JUMPDEST POP POP POP POP POP DUP2 MSTORE PUSH1 0x20 ADD PUSH1 0x2 DUP3 ADD DUP1 SLOAD PUSH2 0xBE0 SWAP1 PUSH2 0x1C7A JUMP JUMPDEST DUP1 PUSH1 0x1F ADD PUSH1 0x20 DUP1 SWAP2 DIV MUL PUSH1 0x20 ADD PUSH1 0x40 MLOAD SWAP1 DUP2 ADD PUSH1 0x40 MSTORE DUP1 SWAP3 SWAP2 SWAP1 DUP2 DUP2 MSTORE PUSH1 0x20 ADD DUP3 DUP1 SLOAD PUSH2 0xC0C SWAP1 PUSH2 0x1C7A JUMP JUMPDEST DUP1 ISZERO PUSH2 0xC59 JUMPI DUP1 PUSH1 0x1F LT PUSH2 0xC2E JUMPI PUSH2 0x100 DUP1 DUP4 SLOAD DIV MUL DUP4 MSTORE SWAP2 PUSH1 0x20 ADD SWAP2 PUSH2 0xC59 JUMP JUMPDEST DUP3 ADD SWAP2 SWAP1 PUSH1 0x0 MSTORE PUSH1 0x20 PUSH1 0x0 KECCAK256 SWAP1 JUMPDEST DUP2 SLOAD DUP2 MSTORE SWAP1 PUSH1 0x1 ADD SWAP1 PUSH1 0x20 ADD DUP1 DUP4 GT PUSH2 0xC3C JUMPI DUP3 SWAP1 SUB PUSH1 0x1F AND DUP3 ADD SWAP2 JUMPDEST POP POP POP POP POP DUP2 MSTORE PUSH1 0x20 ADD PUSH1 0x3 DUP3 ADD PUSH1 0x0 SWAP1 SLOAD SWAP1 PUSH2 0x100 EXP SWAP1 DIV PUSH20 0xFFFFFFFFFFFFFFFFFFFFFFFFFFFFFFFFFFFFFFFF AND PUSH20 0xFFFFFFFFFFFFFFFFFFFFFFFFFFFFFFFFFFFFFFFF AND PUSH20 0xFFFFFFFFFFFFFFFFFFFFFFFFFFFFFFFFFFFFFFFF AND DUP2 MSTORE PUSH1 0x20 ADD PUSH1 0x4 DUP3 ADD DUP1 SLOAD DUP1 PUSH1 0x20 MUL PUSH1 0x20 ADD PUSH1 0x40 MLOAD SWAP1 DUP2 ADD PUSH1 0x40 MSTORE DUP1 SWAP3 SWAP2 SWAP1 DUP2 DUP2 MSTORE PUSH1 0x20 ADD PUSH1 0x0 SWAP1 JUMPDEST DUP3 DUP3 LT ISZERO PUSH2 0xD89 JUMPI DUP4 DUP3 SWAP1 PUSH1 0x0 MSTORE PUSH1 0x20 PUSH1 0x0 KECCAK256 ADD DUP1 SLOAD PUSH2 0xCFC SWAP1 PUSH2 0x1C7A JUMP JUMPDEST DUP1 PUSH1 0x1F ADD PUSH1 0x20 DUP1 SWAP2 DIV MUL PUSH1 0x20 ADD PUSH1 0x40 MLOAD SWAP1 DUP2 ADD PUSH1 0x40 MSTORE DUP1 SWAP3 SWAP2 SWAP1 DUP2 DUP2 MSTORE PUSH1 0x20 ADD DUP3 DUP1 SLOAD PUSH2 0xD28 SWAP1 PUSH2 0x1C7A JUMP JUMPDEST DUP1 ISZERO PUSH2 0xD75 JUMPI DUP1 PUSH1 0x1F LT PUSH2 0xD4A JUMPI PUSH2 0x100 DUP1 DUP4 SLOAD DIV MUL DUP4 MSTORE SWAP2 PUSH1 0x20 ADD SWAP2 PUSH2 0xD75 JUMP JUMPDEST DUP3 ADD SWAP2 SWAP1 PUSH1 0x0 MSTORE PUSH1 0x20 PUSH1 0x0 KECCAK256 SWAP1 JUMPDEST DUP2 SLOAD DUP2 MSTORE SWAP1 PUSH1 0x1 ADD SWAP1 PUSH1 0x20 ADD DUP1 DUP4 GT PUSH2 0xD58 JUMPI DUP3 SWAP1 SUB PUSH1 0x1F AND DUP3 ADD SWAP2 JUMPDEST POP POP POP POP POP DUP2 MSTORE PUSH1 0x20 ADD SWAP1 PUSH1 0x1 ADD SWAP1 PUSH2 0xCDD JUMP JUMPDEST POP POP POP POP DUP2 MSTORE PUSH1 0x20 ADD PUSH1 0x5 DUP3 ADD PUSH1 0x0 SWAP1 SLOAD SWAP1 PUSH2 0x100 EXP SWAP1 DIV PUSH1 0xFF AND PUSH1 0x1 DUP2 GT ISZERO PUSH2 0xDB6 JUMPI PUSH2 0xDB5 PUSH2 0x1CDD JUMP JUMPDEST JUMPDEST PUSH1 0x1 DUP2 GT ISZERO PUSH2 0xDC8 JUMPI PUSH2 0xDC7 PUSH2 0x1CDD JUMP JUMPDEST JUMPDEST DUP2 MSTORE POP POP SWAP1 POP SWAP2 SWAP1 POP JUMP JUMPDEST PUSH1 0x3 DUP2 DUP2 SLOAD DUP2 LT PUSH2 0xDE3 JUMPI PUSH1 0x0 DUP1 REVERT JUMPDEST SWAP1 PUSH1 0x0 MSTORE PUSH1 0x20 PUSH1 0x0 KECCAK256 ADD PUSH1 0x0 SWAP2 POP SLOAD SWAP1 PUSH2 0x100 EXP SWAP1 DIV PUSH20 0xFFFFFFFFFFFFFFFFFFFFFFFFFFFFFFFFFFFFFFFF AND DUP2 JUMP JUMPDEST PUSH1 0x2 PUSH1 0x20 MSTORE DUP1 PUSH1 0x0 MSTORE PUSH1 0x40 PUSH1 0x0 KECCAK256 PUSH1 0x0 SWAP2 POP SWAP1 POP DUP1 PUSH1 0x0 ADD DUP1 SLOAD PUSH2 0xE35 SWAP1 PUSH2 0x1C7A JUMP JUMPDEST DUP1 PUSH1 0x1F ADD PUSH1 0x20 DUP1 SWAP2 DIV MUL PUSH1 0x20 ADD PUSH1 0x40 MLOAD SWAP1 DUP2 ADD PUSH1 0x40 MSTORE DUP1 SWAP3 SWAP2 SWAP1 DUP2 DUP2 MSTORE PUSH1 0x20 ADD DUP3 DUP1 SLOAD PUSH2 0xE61 SWAP1 PUSH2 0x1C7A JUMP JUMPDEST DUP1 ISZERO PUSH2 0xEAE JUMPI DUP1 PUSH1 0x1F LT PUSH2 0xE83 JUMPI PUSH2 0x100 DUP1 DUP4 SLOAD DIV MUL DUP4 MSTORE SWAP2 PUSH1 0x20 ADD SWAP2 PUSH2 0xEAE JUMP JUMPDEST DUP3 ADD SWAP2 SWAP1 PUSH1 0x0 MSTORE PUSH1 0x20 PUSH1 0x0 KECCAK256 SWAP1 JUMPDEST DUP2 SLOAD DUP2 MSTORE SWAP1 PUSH1 0x1 ADD SWAP1 PUSH1 0x20 ADD DUP1 DUP4 GT PUSH2 0xE91 JUMPI DUP3 SWAP1 SUB PUSH1 0x1F AND DUP3 ADD SWAP2 JUMPDEST POP POP POP POP POP SWAP1 DUP1 PUSH1 0x1 ADD DUP1 SLOAD PUSH2 0xEC3 SWAP1 PUSH2 0x1C7A JUMP JUMPDEST DUP1 PUSH1 0x1F ADD PUSH1 0x20 DUP1 SWAP2 DIV MUL PUSH1 0x20 ADD PUSH1 0x40 MLOAD SWAP1 DUP2 ADD PUSH1 0x40 MSTORE DUP1 SWAP3 SWAP2 SWAP1 DUP2 DUP2 MSTORE PUSH1 0x20 ADD DUP3 DUP1 SLOAD PUSH2 0xEEF SWAP1 PUSH2 0x1C7A JUMP JUMPDEST DUP1 ISZERO PUSH2 0xF3C JUMPI DUP1 PUSH1 0x1F LT PUSH2 0xF11 JUMPI PUSH2 0x100 DUP1 DUP4 SLOAD DIV MUL DUP4 MSTORE SWAP2 PUSH1 0x20 ADD SWAP2 PUSH2 0xF3C JUMP JUMPDEST DUP3 ADD SWAP2 SWAP1 PUSH1 0x0 MSTORE PUSH1 0x20 PUSH1 0x0 KECCAK256 SWAP1 JUMPDEST DUP2 SLOAD DUP2 MSTORE SWAP1 PUSH1 0x1 ADD SWAP1 PUSH1 0x20 ADD DUP1 DUP4 GT PUSH2 0xF1F JUMPI DUP3 SWAP1 SUB PUSH1 0x1F AND DUP3 ADD SWAP2 JUMPDEST POP POP POP POP POP SWAP1 DUP1 PUSH1 0x2 ADD DUP1 SLOAD PUSH2 0xF51 SWAP1 PUSH2 0x1C7A JUMP JUMPDEST DUP1 PUSH1 0x1F ADD PUSH1 0x20 DUP1 SWAP2 DIV MUL PUSH1 0x20 ADD PUSH1 0x40 MLOAD SWAP1 DUP2 ADD PUSH1 0x40 MSTORE DUP1 SWAP3 SWAP2 SWAP1 DUP2 DUP2 MSTORE PUSH1 0x20 ADD DUP3 DUP1 SLOAD PUSH2 0xF7D SWAP1 PUSH2 0x1C7A JUMP JUMPDEST DUP1 ISZERO PUSH2 0xFCA JUMPI DUP1 PUSH1 0x1F LT PUSH2 0xF9F JUMPI PUSH2 0x100 DUP1 DUP4 SLOAD DIV MUL DUP4 MSTORE SWAP2 PUSH1 0x20 ADD SWAP2 PUSH2 0xFCA JUMP JUMPDEST DUP3 ADD SWAP2 SWAP1 PUSH1 0x0 MSTORE PUSH1 0x20 PUSH1 0x0 KECCAK256 SWAP1 JUMPDEST DUP2 SLOAD DUP2 MSTORE SWAP1 PUSH1 0x1 ADD SWAP1 PUSH1 0x20 ADD DUP1 DUP4 GT PUSH2 0xFAD JUMPI DUP3 SWAP1 SUB PUSH1 0x1F AND DUP3 ADD SWAP2 JUMPDEST POP POP POP POP POP SWAP1 DUP1 PUSH1 0x3 ADD PUSH1 0x0 SWAP1 SLOAD SWAP1 PUSH2 0x100 EXP SWAP1 DIV PUSH20 0xFFFFFFFFFFFFFFFFFFFFFFFFFFFFFFFFFFFFFFFF AND SWAP1 DUP1 PUSH1 0x5 ADD PUSH1 0x0 SWAP1 SLOAD SWAP1 PUSH2 0x100 EXP SWAP1 DIV PUSH1 0xFF AND SWAP1 POP DUP6 JUMP JUMPDEST PUSH1 0x0 PUSH1 0x20 MSTORE DUP1 PUSH1 0x0 MSTORE PUSH1 0x40 PUSH1 0x0 KECCAK256 PUSH1 0x0 SWAP2 POP SWAP1 POP DUP1 PUSH1 0x0 ADD DUP1 SLOAD PUSH2 0x1030 SWAP1 PUSH2 0x1C7A JUMP JUMPDEST DUP1 PUSH1 0x1F ADD PUSH1 0x20 DUP1 SWAP2 DIV MUL PUSH1 0x20 ADD PUSH1 0x40 MLOAD SWAP1 DUP2 ADD PUSH1 0x40 MSTORE DUP1 SWAP3 SWAP2 SWAP1 DUP2 DUP2 MSTORE PUSH1 0x20 ADD DUP3 DUP1 SLOAD PUSH2 0x105C SWAP1 PUSH2 0x1C7A JUMP JUMPDEST DUP1 ISZERO PUSH2 0x10A9 JUMPI DUP1 PUSH1 0x1F LT PUSH2 0x107E JUMPI PUSH2 0x100 DUP1 DUP4 SLOAD DIV MUL DUP4 MSTORE SWAP2 PUSH1 0x20 ADD SWAP2 PUSH2 0x10A9 JUMP JUMPDEST DUP3 ADD SWAP2 SWAP1 PUSH1 0x0 MSTORE PUSH1 0x20 PUSH1 0x0 KECCAK256 SWAP1 JUMPDEST DUP2 SLOAD DUP2 MSTORE SWAP1 PUSH1 0x1 ADD SWAP1 PUSH1 0x20 ADD DUP1 DUP4 GT PUSH2 0x108C JUMPI DUP3 SWAP1 SUB PUSH1 0x1F AND DUP3 ADD SWAP2 JUMPDEST POP POP POP POP POP SWAP1 DUP1 PUSH1 0x1 ADD DUP1 SLOAD PUSH2 0x10BE SWAP1 PUSH2 0x1C7A JUMP JUMPDEST DUP1 PUSH1 0x1F ADD PUSH1 0x20 DUP1 SWAP2 DIV MUL PUSH1 0x20 ADD PUSH1 0x40 MLOAD SWAP1 DUP2 ADD PUSH1 0x40 MSTORE DUP1 SWAP3 SWAP2 SWAP1 DUP2 DUP2 MSTORE PUSH1 0x20 ADD DUP3 DUP1 SLOAD PUSH2 0x10EA SWAP1 PUSH2 0x1C7A JUMP JUMPDEST DUP1 ISZERO PUSH2 0x1137 JUMPI DUP1 PUSH1 0x1F LT PUSH2 0x110C JUMPI PUSH2 0x100 DUP1 DUP4 SLOAD DIV MUL DUP4 MSTORE SWAP2 PUSH1 0x20 ADD SWAP2 PUSH2 0x1137 JUMP JUMPDEST DUP3 ADD SWAP2 SWAP1 PUSH1 0x0 MSTORE PUSH1 0x20 PUSH1 0x0 KECCAK256 SWAP1 JUMPDEST DUP2 SLOAD DUP2 MSTORE SWAP1 PUSH1 0x1 ADD SWAP1 PUSH1 0x20 ADD DUP1 DUP4 GT PUSH2 0x111A JUMPI DUP3 SWAP1 SUB PUSH1 0x1F AND DUP3 ADD SWAP2 JUMPDEST POP POP POP POP POP SWAP1 DUP1 PUSH1 0x2 ADD DUP1 SLOAD PUSH2 0x114C SWAP1 PUSH2 0x1C7A JUMP JUMPDEST DUP1 PUSH1 0x1F ADD PUSH1 0x20 DUP1 SWAP2 DIV MUL PUSH1 0x20 ADD PUSH1 0x40 MLOAD SWAP1 DUP2 ADD PUSH1 0x40 MSTORE DUP1 SWAP3 SWAP2 SWAP1 DUP2 DUP2 MSTORE PUSH1 0x20 ADD DUP3 DUP1 SLOAD PUSH2 0x1178 SWAP1 PUSH2 0x1C7A JUMP JUMPDEST DUP1 ISZERO PUSH2 0x11C5 JUMPI DUP1 PUSH1 0x1F LT PUSH2 0x119A JUMPI PUSH2 0x100 DUP1 DUP4 SLOAD DIV MUL DUP4 MSTORE SWAP2 PUSH1 0x20 ADD SWAP2 PUSH2 0x11C5 JUMP JUMPDEST DUP3 ADD SWAP2 SWAP1 PUSH1 0x0 MSTORE PUSH1 0x20 PUSH1 0x0 KECCAK256 SWAP1 JUMPDEST DUP2 SLOAD DUP2 MSTORE SWAP1 PUSH1 0x1 ADD SWAP1 PUSH1 0x20 ADD DUP1 DUP4 GT PUSH2 0x11A8 JUMPI DUP3 SWAP1 SUB PUSH1 0x1F AND DUP3 ADD SWAP2 JUMPDEST POP POP POP POP POP SWAP1 DUP1 PUSH1 0x3 ADD PUSH1 0x0 SWAP1 SLOAD SWAP1 PUSH2 0x100 EXP SWAP1 DIV PUSH20 0xFFFFFFFFFFFFFFFFFFFFFFFFFFFFFFFFFFFFFFFF AND SWAP1 DUP1 PUSH1 0x5 ADD PUSH1 0x0 SWAP1 SLOAD SWAP1 PUSH2 0x100 EXP SWAP1 DIV PUSH1 0xFF AND SWAP1 POP DUP6 JUMP JUMPDEST PUSH1 0x4 DUP2 DUP1 MLOAD PUSH1 0x20 DUP2 ADD DUP3 ADD DUP1 MLOAD DUP5 DUP3 MSTORE PUSH1 0x20 DUP4 ADD PUSH1 0x20 DUP6 ADD KECCAK256 DUP2 DUP4 MSTORE DUP1 SWAP6 POP POP POP POP POP POP PUSH1 0x0 SWAP2 POP SWAP1 POP DUP1 PUSH1 0x0 ADD PUSH1 0x0 SWAP1 SLOAD SWAP1 PUSH2 0x100 EXP SWAP1 DIV PUSH20 0xFFFFFFFFFFFFFFFFFFFFFFFFFFFFFFFFFFFFFFFF AND SWAP1 DUP1 PUSH1 0x1 ADD PUSH1 0x0 SWAP1 SLOAD SWAP1 PUSH2 0x100 EXP SWAP1 DIV PUSH20 0xFFFFFFFFFFFFFFFFFFFFFFFFFFFFFFFFFFFFFFFF AND SWAP1 DUP1 PUSH1 0x2 ADD DUP1 SLOAD PUSH2 0x128D SWAP1 PUSH2 0x1C7A JUMP JUMPDEST DUP1 PUSH1 0x1F ADD PUSH1 0x20 DUP1 SWAP2 DIV MUL PUSH1 0x20 ADD PUSH1 0x40 MLOAD SWAP1 DUP2 ADD PUSH1 0x40 MSTORE DUP1 SWAP3 SWAP2 SWAP1 DUP2 DUP2 MSTORE PUSH1 0x20 ADD DUP3 DUP1 SLOAD PUSH2 0x12B9 SWAP1 PUSH2 0x1C7A JUMP JUMPDEST DUP1 ISZERO PUSH2 0x1306 JUMPI DUP1 PUSH1 0x1F LT PUSH2 0x12DB JUMPI PUSH2 0x100 DUP1 DUP4 SLOAD DIV MUL DUP4 MSTORE SWAP2 PUSH1 0x20 ADD SWAP2 PUSH2 0x1306 JUMP JUMPDEST DUP3 ADD SWAP2 SWAP1 PUSH1 0x0 MSTORE PUSH1 0x20 PUSH1 0x0 KECCAK256 SWAP1 JUMPDEST DUP2 SLOAD DUP2 MSTORE SWAP1 PUSH1 0x1 ADD SWAP1 PUSH1 0x20 ADD DUP1 DUP4 GT PUSH2 0x12E9 JUMPI DUP3 SWAP1 SUB PUSH1 0x1F AND DUP3 ADD SWAP2 JUMPDEST POP POP POP POP POP SWAP1 DUP1 PUSH1 0x3 ADD DUP1 SLOAD PUSH2 0x131B SWAP1 PUSH2 0x1C7A JUMP JUMPDEST DUP1 PUSH1 0x1F ADD PUSH1 0x20 DUP1 SWAP2 DIV MUL PUSH1 0x20 ADD PUSH1 0x40 MLOAD SWAP1 DUP2 ADD PUSH1 0x40 MSTORE DUP1 SWAP3 SWAP2 SWAP1 DUP2 DUP2 MSTORE PUSH1 0x20 ADD DUP3 DUP1 SLOAD PUSH2 0x1347 SWAP1 PUSH2 0x1C7A JUMP JUMPDEST DUP1 ISZERO PUSH2 0x1394 JUMPI DUP1 PUSH1 0x1F LT PUSH2 0x1369 JUMPI PUSH2 0x100 DUP1 DUP4 SLOAD DIV MUL DUP4 MSTORE SWAP2 PUSH1 0x20 ADD SWAP2 PUSH2 0x1394 JUMP JUMPDEST DUP3 ADD SWAP2 SWAP1 PUSH1 0x0 MSTORE PUSH1 0x20 PUSH1 0x0 KECCAK256 SWAP1 JUMPDEST DUP2 SLOAD DUP2 MSTORE SWAP1 PUSH1 0x1 ADD SWAP1 PUSH1 0x20 ADD DUP1 DUP4 GT PUSH2 0x1377 JUMPI DUP3 SWAP1 SUB PUSH1 0x1F AND DUP3 ADD SWAP2 JUMPDEST POP POP POP POP POP SWAP1 DUP1 PUSH1 0x4 ADD SLOAD SWAP1 POP DUP6 JUMP JUMPDEST DUP3 DUP1 SLOAD PUSH2 0x13B0 SWAP1 PUSH2 0x1C7A JUMP JUMPDEST SWAP1 PUSH1 0x0 MSTORE PUSH1 0x20 PUSH1 0x0 KECCAK256 SWAP1 PUSH1 0x1F ADD PUSH1 0x20 SWAP1 DIV DUP2 ADD SWAP3 DUP3 PUSH2 0x13D2 JUMPI PUSH1 0x0 DUP6 SSTORE PUSH2 0x1419 JUMP JUMPDEST DUP3 PUSH1 0x1F LT PUSH2 0x13EB JUMPI DUP1 MLOAD PUSH1 0xFF NOT AND DUP4 DUP1 ADD OR DUP6 SSTORE PUSH2 0x1419 JUMP JUMPDEST DUP3 DUP1 ADD PUSH1 0x1 ADD DUP6 SSTORE DUP3 ISZERO PUSH2 0x1419 JUMPI SWAP2 DUP3 ADD JUMPDEST DUP3 DUP2 GT ISZERO PUSH2 0x1418 JUMPI DUP3 MLOAD DUP3 SSTORE SWAP2 PUSH1 0x20 ADD SWAP2 SWAP1 PUSH1 0x1 ADD SWAP1 PUSH2 0x13FD JUMP JUMPDEST JUMPDEST POP SWAP1 POP PUSH2 0x1426 SWAP2 SWAP1 PUSH2 0x14E6 JUMP JUMPDEST POP SWAP1 JUMP JUMPDEST PUSH1 0x40 MLOAD DUP1 PUSH1 0xC0 ADD PUSH1 0x40 MSTORE DUP1 PUSH1 0x60 DUP2 MSTORE PUSH1 0x20 ADD PUSH1 0x60 DUP2 MSTORE PUSH1 0x20 ADD PUSH1 0x60 DUP2 MSTORE PUSH1 0x20 ADD PUSH1 0x0 PUSH20 0xFFFFFFFFFFFFFFFFFFFFFFFFFFFFFFFFFFFFFFFF AND DUP2 MSTORE PUSH1 0x20 ADD PUSH1 0x60 DUP2 MSTORE PUSH1 0x20 ADD PUSH1 0x0 PUSH1 0x1 DUP2 GT ISZERO PUSH2 0x1482 JUMPI PUSH2 0x1481 PUSH2 0x1CDD JUMP JUMPDEST JUMPDEST DUP2 MSTORE POP SWAP1 JUMP JUMPDEST PUSH1 0x40 MLOAD DUP1 PUSH1 0xC0 ADD PUSH1 0x40 MSTORE DUP1 PUSH1 0x60 DUP2 MSTORE PUSH1 0x20 ADD PUSH1 0x60 DUP2 MSTORE PUSH1 0x20 ADD PUSH1 0x60 DUP2 MSTORE PUSH1 0x20 ADD PUSH1 0x0 PUSH20 0xFFFFFFFFFFFFFFFFFFFFFFFFFFFFFFFFFFFFFFFF AND DUP2 MSTORE PUSH1 0x20 ADD PUSH1 0x60 DUP2 MSTORE PUSH1 0x20 ADD PUSH1 0x0 PUSH1 0x1 DUP2 GT ISZERO PUSH2 0x14E0 JUMPI PUSH2 0x14DF PUSH2 0x1CDD JUMP JUMPDEST JUMPDEST DUP2 MSTORE POP SWAP1 JUMP JUMPDEST JUMPDEST DUP1 DUP3 GT ISZERO PUSH2 0x14FF JUMPI PUSH1 0x0 DUP2 PUSH1 0x0 SWAP1 SSTORE POP PUSH1 0x1 ADD PUSH2 0x14E7 JUMP JUMPDEST POP SWAP1 JUMP JUMPDEST PUSH1 0x0 PUSH2 0x1516 PUSH2 0x1511 DUP5 PUSH2 0x1B2E JUMP JUMPDEST PUSH2 0x1B09 JUMP JUMPDEST SWAP1 POP DUP3 DUP2 MSTORE PUSH1 0x20 DUP2 ADD DUP5 DUP5 DUP5 ADD GT ISZERO PUSH2 0x1532 JUMPI PUSH2 0x1531 PUSH2 0x1D6F JUMP JUMPDEST JUMPDEST PUSH2 0x153D DUP5 DUP3 DUP6 PUSH2 0x1C38 JUMP JUMPDEST POP SWAP4 SWAP3 POP POP POP JUMP JUMPDEST PUSH1 0x0 DUP2 CALLDATALOAD SWAP1 POP PUSH2 0x1554 DUP2 PUSH2 0x1DA3 JUMP JUMPDEST SWAP3 SWAP2 POP POP JUMP JUMPDEST PUSH1 0x0 DUP2 CALLDATALOAD SWAP1 POP PUSH2 0x1569 DUP2 PUSH2 0x1DBA JUMP JUMPDEST SWAP3 SWAP2 POP POP JUMP JUMPDEST PUSH1 0x0 DUP3 PUSH1 0x1F DUP4 ADD SLT PUSH2 0x1584 JUMPI PUSH2 0x1583 PUSH2 0x1D6A JUMP JUMPDEST JUMPDEST DUP2 CALLDATALOAD PUSH2 0x1594 DUP5 DUP3 PUSH1 0x20 DUP7 ADD PUSH2 0x1503 JUMP JUMPDEST SWAP2 POP POP SWAP3 SWAP2 POP POP JUMP JUMPDEST PUSH1 0x0 DUP2 CALLDATALOAD SWAP1 POP PUSH2 0x15AC DUP2 PUSH2 0x1DD1 JUMP JUMPDEST SWAP3 SWAP2 POP POP JUMP JUMPDEST PUSH1 0x0 PUSH1 0x20 DUP3 DUP5 SUB SLT ISZERO PUSH2 0x15C8 JUMPI PUSH2 0x15C7 PUSH2 0x1D79 JUMP JUMPDEST JUMPDEST PUSH1 0x0 PUSH2 0x15D6 DUP5 DUP3 DUP6 ADD PUSH2 0x1545 JUMP JUMPDEST SWAP2 POP POP SWAP3 SWAP2 POP POP JUMP JUMPDEST PUSH1 0x0 PUSH1 0x20 DUP3 DUP5 SUB SLT ISZERO PUSH2 0x15F5 JUMPI PUSH2 0x15F4 PUSH2 0x1D79 JUMP JUMPDEST JUMPDEST PUSH1 0x0 PUSH2 0x1603 DUP5 DUP3 DUP6 ADD PUSH2 0x155A JUMP JUMPDEST SWAP2 POP POP SWAP3 SWAP2 POP POP JUMP JUMPDEST PUSH1 0x0 PUSH1 0x20 DUP3 DUP5 SUB SLT ISZERO PUSH2 0x1622 JUMPI PUSH2 0x1621 PUSH2 0x1D79 JUMP JUMPDEST JUMPDEST PUSH1 0x0 DUP3 ADD CALLDATALOAD PUSH8 0xFFFFFFFFFFFFFFFF DUP2 GT ISZERO PUSH2 0x1640 JUMPI PUSH2 0x163F PUSH2 0x1D74 JUMP JUMPDEST JUMPDEST PUSH2 0x164C DUP5 DUP3 DUP6 ADD PUSH2 0x156F JUMP JUMPDEST SWAP2 POP POP SWAP3 SWAP2 POP POP JUMP JUMPDEST PUSH1 0x0 DUP1 PUSH1 0x0 DUP1 PUSH1 0x80 DUP6 DUP8 SUB SLT ISZERO PUSH2 0x166F JUMPI PUSH2 0x166E PUSH2 0x1D79 JUMP JUMPDEST JUMPDEST PUSH1 0x0 DUP6 ADD CALLDATALOAD PUSH8 0xFFFFFFFFFFFFFFFF DUP2 GT ISZERO PUSH2 0x168D JUMPI PUSH2 0x168C PUSH2 0x1D74 JUMP JUMPDEST JUMPDEST PUSH2 0x1699 DUP8 DUP3 DUP9 ADD PUSH2 0x156F JUMP JUMPDEST SWAP5 POP POP PUSH1 0x20 DUP6 ADD CALLDATALOAD PUSH8 0xFFFFFFFFFFFFFFFF DUP2 GT ISZERO PUSH2 0x16BA JUMPI PUSH2 0x16B9 PUSH2 0x1D74 JUMP JUMPDEST JUMPDEST PUSH2 0x16C6 DUP8 DUP3 DUP9 ADD PUSH2 0x156F JUMP JUMPDEST SWAP4 POP POP PUSH1 0x40 DUP6 ADD CALLDATALOAD PUSH8 0xFFFFFFFFFFFFFFFF DUP2 GT ISZERO PUSH2 0x16E7 JUMPI PUSH2 0x16E6 PUSH2 0x1D74 JUMP JUMPDEST JUMPDEST PUSH2 0x16F3 DUP8 DUP3 DUP9 ADD PUSH2 0x156F JUMP JUMPDEST SWAP3 POP POP PUSH1 0x60 PUSH2 0x1704 DUP8 DUP3 DUP9 ADD PUSH2 0x159D JUMP JUMPDEST SWAP2 POP POP SWAP3 SWAP6 SWAP2 SWAP5 POP SWAP3 POP JUMP JUMPDEST PUSH1 0x0 PUSH1 0x20 DUP3 DUP5 SUB SLT ISZERO PUSH2 0x1726 JUMPI PUSH2 0x1725 PUSH2 0x1D79 JUMP JUMPDEST JUMPDEST PUSH1 0x0 PUSH2 0x1734 DUP5 DUP3 DUP6 ADD PUSH2 0x159D JUMP JUMPDEST SWAP2 POP POP SWAP3 SWAP2 POP POP JUMP JUMPDEST PUSH1 0x0 PUSH2 0x1749 DUP4 DUP4 PUSH2 0x1802 JUMP JUMPDEST SWAP1 POP SWAP3 SWAP2 POP POP JUMP JUMPDEST PUSH2 0x175A DUP2 PUSH2 0x1BD7 JUMP JUMPDEST DUP3 MSTORE POP POP JUMP JUMPDEST PUSH2 0x1769 DUP2 PUSH2 0x1BD7 JUMP JUMPDEST DUP3 MSTORE POP POP JUMP JUMPDEST PUSH1 0x0 PUSH2 0x177A DUP3 PUSH2 0x1B6F JUMP JUMPDEST PUSH2 0x1784 DUP2 DUP6 PUSH2 0x1B92 JUMP JUMPDEST SWAP4 POP DUP4 PUSH1 0x20 DUP3 MUL DUP6 ADD PUSH2 0x1796 DUP6 PUSH2 0x1B5F JUMP JUMPDEST DUP1 PUSH1 0x0 JUMPDEST DUP6 DUP2 LT ISZERO PUSH2 0x17D2 JUMPI DUP5 DUP5 SUB DUP10 MSTORE DUP2 MLOAD PUSH2 0x17B3 DUP6 DUP3 PUSH2 0x173D JUMP JUMPDEST SWAP5 POP PUSH2 0x17BE DUP4 PUSH2 0x1B85 JUMP JUMPDEST SWAP3 POP PUSH1 0x20 DUP11 ADD SWAP10 POP POP PUSH1 0x1 DUP2 ADD SWAP1 POP PUSH2 0x179A JUMP JUMPDEST POP DUP3 SWAP8 POP DUP8 SWAP6 POP POP POP POP POP POP SWAP3 SWAP2 POP POP JUMP JUMPDEST PUSH2 0x17ED DUP2 PUSH2 0x1C26 JUMP JUMPDEST DUP3 MSTORE POP POP JUMP JUMPDEST PUSH2 0x17FC DUP2 PUSH2 0x1C26 JUMP JUMPDEST DUP3 MSTORE POP POP JUMP JUMPDEST PUSH1 0x0 PUSH2 0x180D DUP3 PUSH2 0x1B7A JUMP JUMPDEST PUSH2 0x1817 DUP2 DUP6 PUSH2 0x1BA3 JUMP JUMPDEST SWAP4 POP PUSH2 0x1827 DUP2 DUP6 PUSH1 0x20 DUP7 ADD PUSH2 0x1C47 JUMP JUMPDEST PUSH2 0x1830 DUP2 PUSH2 0x1D7E JUMP JUMPDEST DUP5 ADD SWAP2 POP POP SWAP3 SWAP2 POP POP JUMP JUMPDEST PUSH1 0x0 PUSH2 0x1846 DUP3 PUSH2 0x1B7A JUMP JUMPDEST PUSH2 0x1850 DUP2 DUP6 PUSH2 0x1BB4 JUMP JUMPDEST SWAP4 POP PUSH2 0x1860 DUP2 DUP6 PUSH1 0x20 DUP7 ADD PUSH2 0x1C47 JUMP JUMPDEST PUSH2 0x1869 DUP2 PUSH2 0x1D7E JUMP JUMPDEST DUP5 ADD SWAP2 POP POP SWAP3 SWAP2 POP POP JUMP JUMPDEST PUSH1 0x0 PUSH1 0xC0 DUP4 ADD PUSH1 0x0 DUP4 ADD MLOAD DUP5 DUP3 SUB PUSH1 0x0 DUP7 ADD MSTORE PUSH2 0x1891 DUP3 DUP3 PUSH2 0x1802 JUMP JUMPDEST SWAP2 POP POP PUSH1 0x20 DUP4 ADD MLOAD DUP5 DUP3 SUB PUSH1 0x20 DUP7 ADD MSTORE PUSH2 0x18AB DUP3 DUP3 PUSH2 0x1802 JUMP JUMPDEST SWAP2 POP POP PUSH1 0x40 DUP4 ADD MLOAD DUP5 DUP3 SUB PUSH1 0x40 DUP7 ADD MSTORE PUSH2 0x18C5 DUP3 DUP3 PUSH2 0x1802 JUMP JUMPDEST SWAP2 POP POP PUSH1 0x60 DUP4 ADD MLOAD PUSH2 0x18DA PUSH1 0x60 DUP7 ADD DUP3 PUSH2 0x1751 JUMP JUMPDEST POP PUSH1 0x80 DUP4 ADD MLOAD DUP5 DUP3 SUB PUSH1 0x80 DUP7 ADD MSTORE PUSH2 0x18F2 DUP3 DUP3 PUSH2 0x176F JUMP JUMPDEST SWAP2 POP POP PUSH1 0xA0 DUP4 ADD MLOAD PUSH2 0x1907 PUSH1 0xA0 DUP7 ADD DUP3 PUSH2 0x17E4 JUMP JUMPDEST POP DUP1 SWAP2 POP POP SWAP3 SWAP2 POP POP JUMP JUMPDEST PUSH1 0x0 PUSH1 0xC0 DUP4 ADD PUSH1 0x0 DUP4 ADD MLOAD DUP5 DUP3 SUB PUSH1 0x0 DUP7 ADD MSTORE PUSH2 0x192F DUP3 DUP3 PUSH2 0x1802 JUMP JUMPDEST SWAP2 POP POP PUSH1 0x20 DUP4 ADD MLOAD DUP5 DUP3 SUB PUSH1 0x20 DUP7 ADD MSTORE PUSH2 0x1949 DUP3 DUP3 PUSH2 0x1802 JUMP JUMPDEST SWAP2 POP POP PUSH1 0x40 DUP4 ADD MLOAD DUP5 DUP3 SUB PUSH1 0x40 DUP7 ADD MSTORE PUSH2 0x1963 DUP3 DUP3 PUSH2 0x1802 JUMP JUMPDEST SWAP2 POP POP PUSH1 0x60 DUP4 ADD MLOAD PUSH2 0x1978 PUSH1 0x60 DUP7 ADD DUP3 PUSH2 0x1751 JUMP JUMPDEST POP PUSH1 0x80 DUP4 ADD MLOAD DUP5 DUP3 SUB PUSH1 0x80 DUP7 ADD MSTORE PUSH2 0x1990 DUP3 DUP3 PUSH2 0x176F JUMP JUMPDEST SWAP2 POP POP PUSH1 0xA0 DUP4 ADD MLOAD PUSH2 0x19A5 PUSH1 0xA0 DUP7 ADD DUP3 PUSH2 0x17E4 JUMP JUMPDEST POP DUP1 SWAP2 POP POP SWAP3 SWAP2 POP POP JUMP JUMPDEST PUSH2 0x19B9 DUP2 PUSH2 0x1C1C JUMP JUMPDEST DUP3 MSTORE POP POP JUMP JUMPDEST PUSH1 0x0 PUSH1 0x20 DUP3 ADD SWAP1 POP PUSH2 0x19D4 PUSH1 0x0 DUP4 ADD DUP5 PUSH2 0x1760 JUMP JUMPDEST SWAP3 SWAP2 POP POP JUMP JUMPDEST PUSH1 0x0 PUSH1 0xA0 DUP3 ADD SWAP1 POP PUSH2 0x19EF PUSH1 0x0 DUP4 ADD DUP9 PUSH2 0x1760 JUMP JUMPDEST PUSH2 0x19FC PUSH1 0x20 DUP4 ADD DUP8 PUSH2 0x1760 JUMP JUMPDEST DUP2 DUP2 SUB PUSH1 0x40 DUP4 ADD MSTORE PUSH2 0x1A0E DUP2 DUP7 PUSH2 0x183B JUMP JUMPDEST SWAP1 POP DUP2 DUP2 SUB PUSH1 0x60 DUP4 ADD MSTORE PUSH2 0x1A22 DUP2 DUP6 PUSH2 0x183B JUMP JUMPDEST SWAP1 POP PUSH2 0x1A31 PUSH1 0x80 DUP4 ADD DUP5 PUSH2 0x19B0 JUMP JUMPDEST SWAP7 SWAP6 POP POP POP POP POP POP JUMP JUMPDEST PUSH1 0x0 PUSH1 0x20 DUP3 ADD SWAP1 POP DUP2 DUP2 SUB PUSH1 0x0 DUP4 ADD MSTORE PUSH2 0x1A55 DUP2 DUP5 PUSH2 0x183B JUMP JUMPDEST SWAP1 POP SWAP3 SWAP2 POP POP JUMP JUMPDEST PUSH1 0x0 PUSH1 0xA0 DUP3 ADD SWAP1 POP DUP2 DUP2 SUB PUSH1 0x0 DUP4 ADD MSTORE PUSH2 0x1A77 DUP2 DUP9 PUSH2 0x183B JUMP JUMPDEST SWAP1 POP DUP2 DUP2 SUB PUSH1 0x20 DUP4 ADD MSTORE PUSH2 0x1A8B DUP2 DUP8 PUSH2 0x183B JUMP JUMPDEST SWAP1 POP DUP2 DUP2 SUB PUSH1 0x40 DUP4 ADD MSTORE PUSH2 0x1A9F DUP2 DUP7 PUSH2 0x183B JUMP JUMPDEST SWAP1 POP PUSH2 0x1AAE PUSH1 0x60 DUP4 ADD DUP6 PUSH2 0x1760 JUMP JUMPDEST PUSH2 0x1ABB PUSH1 0x80 DUP4 ADD DUP5 PUSH2 0x17F3 JUMP JUMPDEST SWAP7 SWAP6 POP POP POP POP POP POP JUMP JUMPDEST PUSH1 0x0 PUSH1 0x20 DUP3 ADD SWAP1 POP DUP2 DUP2 SUB PUSH1 0x0 DUP4 ADD MSTORE PUSH2 0x1ADF DUP2 DUP5 PUSH2 0x1874 JUMP JUMPDEST SWAP1 POP SWAP3 SWAP2 POP POP JUMP JUMPDEST PUSH1 0x0 PUSH1 0x20 DUP3 ADD SWAP1 POP DUP2 DUP2 SUB PUSH1 0x0 DUP4 ADD MSTORE PUSH2 0x1B01 DUP2 DUP5 PUSH2 0x1912 JUMP JUMPDEST SWAP1 POP SWAP3 SWAP2 POP POP JUMP JUMPDEST PUSH1 0x0 PUSH2 0x1B13 PUSH2 0x1B24 JUMP JUMPDEST SWAP1 POP PUSH2 0x1B1F DUP3 DUP3 PUSH2 0x1CAC JUMP JUMPDEST SWAP2 SWAP1 POP JUMP JUMPDEST PUSH1 0x0 PUSH1 0x40 MLOAD SWAP1 POP SWAP1 JUMP JUMPDEST PUSH1 0x0 PUSH8 0xFFFFFFFFFFFFFFFF DUP3 GT ISZERO PUSH2 0x1B49 JUMPI PUSH2 0x1B48 PUSH2 0x1D3B JUMP JUMPDEST JUMPDEST PUSH2 0x1B52 DUP3 PUSH2 0x1D7E JUMP JUMPDEST SWAP1 POP PUSH1 0x20 DUP2 ADD SWAP1 POP SWAP2 SWAP1 POP JUMP JUMPDEST PUSH1 0x0 DUP2 SWAP1 POP PUSH1 0x20 DUP3 ADD SWAP1 POP SWAP2 SWAP1 POP JUMP JUMPDEST PUSH1 0x0 DUP2 MLOAD SWAP1 POP SWAP2 SWAP1 POP JUMP JUMPDEST PUSH1 0x0 DUP2 MLOAD SWAP1 POP SWAP2 SWAP1 POP JUMP JUMPDEST PUSH1 0x0 PUSH1 0x20 DUP3 ADD SWAP1 POP SWAP2 SWAP1 POP JUMP JUMPDEST PUSH1 0x0 DUP3 DUP3 MSTORE PUSH1 0x20 DUP3 ADD SWAP1 POP SWAP3 SWAP2 POP POP JUMP JUMPDEST PUSH1 0x0 DUP3 DUP3 MSTORE PUSH1 0x20 DUP3 ADD SWAP1 POP SWAP3 SWAP2 POP POP JUMP JUMPDEST PUSH1 0x0 DUP3 DUP3 MSTORE PUSH1 0x20 DUP3 ADD SWAP1 POP SWAP3 SWAP2 POP POP JUMP JUMPDEST PUSH1 0x0 PUSH2 0x1BD0 DUP3 PUSH2 0x1BFC JUMP JUMPDEST SWAP1 POP SWAP2 SWAP1 POP JUMP JUMPDEST PUSH1 0x0 PUSH2 0x1BE2 DUP3 PUSH2 0x1BFC JUMP JUMPDEST SWAP1 POP SWAP2 SWAP1 POP JUMP JUMPDEST PUSH1 0x0 DUP2 SWAP1 POP PUSH2 0x1BF7 DUP3 PUSH2 0x1D8F JUMP JUMPDEST SWAP2 SWAP1 POP JUMP JUMPDEST PUSH1 0x0 PUSH20 0xFFFFFFFFFFFFFFFFFFFFFFFFFFFFFFFFFFFFFFFF DUP3 AND SWAP1 POP SWAP2 SWAP1 POP JUMP JUMPDEST PUSH1 0x0 DUP2 SWAP1 POP SWAP2 SWAP1 POP JUMP JUMPDEST PUSH1 0x0 PUSH2 0x1C31 DUP3 PUSH2 0x1BE9 JUMP JUMPDEST SWAP1 POP SWAP2 SWAP1 POP JUMP JUMPDEST DUP3 DUP2 DUP4 CALLDATACOPY PUSH1 0x0 DUP4 DUP4 ADD MSTORE POP POP POP JUMP JUMPDEST PUSH1 0x0 JUMPDEST DUP4 DUP2 LT ISZERO PUSH2 0x1C65 JUMPI DUP1 DUP3 ADD MLOAD DUP2 DUP5 ADD MSTORE PUSH1 0x20 DUP2 ADD SWAP1 POP PUSH2 0x1C4A JUMP JUMPDEST DUP4 DUP2 GT ISZERO PUSH2 0x1C74 JUMPI PUSH1 0x0 DUP5 DUP5 ADD MSTORE JUMPDEST POP POP POP POP JUMP JUMPDEST PUSH1 0x0 PUSH1 0x2 DUP3 DIV SWAP1 POP PUSH1 0x1 DUP3 AND DUP1 PUSH2 0x1C92 JUMPI PUSH1 0x7F DUP3 AND SWAP2 POP JUMPDEST PUSH1 0x20 DUP3 LT DUP2 EQ ISZERO PUSH2 0x1CA6 JUMPI PUSH2 0x1CA5 PUSH2 0x1D0C JUMP JUMPDEST JUMPDEST POP SWAP2 SWAP1 POP JUMP JUMPDEST PUSH2 0x1CB5 DUP3 PUSH2 0x1D7E JUMP JUMPDEST DUP2 ADD DUP2 DUP2 LT PUSH8 0xFFFFFFFFFFFFFFFF DUP3 GT OR ISZERO PUSH2 0x1CD4 JUMPI PUSH2 0x1CD3 PUSH2 0x1D3B JUMP JUMPDEST JUMPDEST DUP1 PUSH1 0x40 MSTORE POP POP POP JUMP JUMPDEST PUSH32 0x4E487B7100000000000000000000000000000000000000000000000000000000 PUSH1 0x0 MSTORE PUSH1 0x21 PUSH1 0x4 MSTORE PUSH1 0x24 PUSH1 0x0 REVERT JUMPDEST PUSH32 0x4E487B7100000000000000000000000000000000000000000000000000000000 PUSH1 0x0 MSTORE PUSH1 0x22 PUSH1 0x4 MSTORE PUSH1 0x24 PUSH1 0x0 REVERT JUMPDEST PUSH32 0x4E487B7100000000000000000000000000000000000000000000000000000000 PUSH1 0x0 MSTORE PUSH1 0x41 PUSH1 0x4 MSTORE PUSH1 0x24 PUSH1 0x0 REVERT JUMPDEST PUSH1 0x0 DUP1 REVERT JUMPDEST PUSH1 0x0 DUP1 REVERT JUMPDEST PUSH1 0x0 DUP1 REVERT JUMPDEST PUSH1 0x0 DUP1 REVERT JUMPDEST PUSH1 0x0 PUSH1 0x1F NOT PUSH1 0x1F DUP4 ADD AND SWAP1 POP SWAP2 SWAP1 POP JUMP JUMPDEST PUSH1 0x2 DUP2 LT PUSH2 0x1DA0 JUMPI PUSH2 0x1D9F PUSH2 0x1CDD JUMP JUMPDEST JUMPDEST POP JUMP JUMPDEST PUSH2 0x1DAC DUP2 PUSH2 0x1BC5 JUMP JUMPDEST DUP2 EQ PUSH2 0x1DB7 JUMPI PUSH1 0x0 DUP1 REVERT JUMPDEST POP JUMP JUMPDEST PUSH2 0x1DC3 DUP2 PUSH2 0x1BD7 JUMP JUMPDEST DUP2 EQ PUSH2 0x1DCE JUMPI PUSH1 0x0 DUP1 REVERT JUMPDEST POP JUMP JUMPDEST PUSH2 0x1DDA DUP2 PUSH2 0x1C1C JUMP JUMPDEST DUP2 EQ PUSH2 0x1DE5 JUMPI PUSH1 0x0 DUP1 REVERT JUMPDEST POP JUMP INVALID LOG2 PUSH5 0x6970667358 0x22 SLT KECCAK256 MSIZE 0xD1 PUSH25 0xA093F1C39A7FFE5F1098906BA9D95AEEF438A6DF580440BF9A EXTCODECOPY 0xD0 MLOAD 0xBE PUSH5 0x736F6C6343 STOP ADDMOD SMOD STOP CALLER "
				},
				"gasEstimates": {
					"creation": {
						"codeDepositCost": "1542000",
						"executionCost": "1610",
						"totalCost": "1543610"
					},
					"external": {
						"driverKeys(uint256)": "4978",
						"drivers(address)": "infinite",
						"getDriverInfo(address)": "infinite",
						"getPassengerInfo(address)": "infinite",
						"passengerKeys(uint256)": "5045",
						"passengers(address)": "infinite",
						"registerDriver(string,string,string,uint256)": "infinite",
						"registerPassenger(string,string,string,uint256)": "infinite",
						"rideKeys(uint256)": "infinite",
						"rides(string)": "infinite"
					}
				},
				"methodIdentifiers": {
					"driverKeys(uint256)": "47b399ed",
					"drivers(address)": "4aa60186",
					"getDriverInfo(address)": "219a7f27",
					"getPassengerInfo(address)": "470240c2",
					"passengerKeys(uint256)": "3e4994c9",
					"passengers(address)": "ce164fdd",
					"registerDriver(string,string,string,uint256)": "1881c5fc",
					"registerPassenger(string,string,string,uint256)": "0ca0c38b",
					"rideKeys(uint256)": "0294e77f",
					"rides(string)": "d4126e6f"
				}
			},
			"storageLayout": {
				"storage": [
					{
						"astId": 228,
						"contract": "contracts/rides.sol:Rides",
						"label": "passengers",
						"offset": 0,
						"slot": "0",
						"type": "t_mapping(t_address,t_struct(passenger)223_storage)"
					},
					{
						"astId": 231,
						"contract": "contracts/rides.sol:Rides",
						"label": "passengerKeys",
						"offset": 0,
						"slot": "1",
						"type": "t_array(t_address_payable)dyn_storage"
					},
					{
						"astId": 251,
						"contract": "contracts/rides.sol:Rides",
						"label": "drivers",
						"offset": 0,
						"slot": "2",
						"type": "t_mapping(t_address,t_struct(driver)246_storage)"
					},
					{
						"astId": 254,
						"contract": "contracts/rides.sol:Rides",
						"label": "driverKeys",
						"offset": 0,
						"slot": "3",
						"type": "t_array(t_address_payable)dyn_storage"
					},
					{
						"astId": 406,
						"contract": "contracts/rides.sol:Rides",
						"label": "rides",
						"offset": 0,
						"slot": "4",
						"type": "t_mapping(t_string_memory_ptr,t_struct(ride)401_storage)"
					},
					{
						"astId": 409,
						"contract": "contracts/rides.sol:Rides",
						"label": "rideKeys",
						"offset": 0,
						"slot": "5",
						"type": "t_array(t_string_storage)dyn_storage"
					}
				],
				"types": {
					"t_address": {
						"encoding": "inplace",
						"label": "address",
						"numberOfBytes": "20"
					},
					"t_address_payable": {
						"encoding": "inplace",
						"label": "address payable",
						"numberOfBytes": "20"
					},
					"t_array(t_address_payable)dyn_storage": {
						"base": "t_address_payable",
						"encoding": "dynamic_array",
						"label": "address payable[]",
						"numberOfBytes": "32"
					},
					"t_array(t_string_storage)dyn_storage": {
						"base": "t_string_storage",
						"encoding": "dynamic_array",
						"label": "string[]",
						"numberOfBytes": "32"
					},
					"t_enum(Users)208": {
						"encoding": "inplace",
						"label": "enum Rides.Users",
						"numberOfBytes": "1"
					},
					"t_mapping(t_address,t_struct(driver)246_storage)": {
						"encoding": "mapping",
						"key": "t_address",
						"label": "mapping(address => struct Rides.driver)",
						"numberOfBytes": "32",
						"value": "t_struct(driver)246_storage"
					},
					"t_mapping(t_address,t_struct(passenger)223_storage)": {
						"encoding": "mapping",
						"key": "t_address",
						"label": "mapping(address => struct Rides.passenger)",
						"numberOfBytes": "32",
						"value": "t_struct(passenger)223_storage"
					},
					"t_mapping(t_string_memory_ptr,t_struct(ride)401_storage)": {
						"encoding": "mapping",
						"key": "t_string_memory_ptr",
						"label": "mapping(string => struct Rides.ride)",
						"numberOfBytes": "32",
						"value": "t_struct(ride)401_storage"
					},
					"t_string_memory_ptr": {
						"encoding": "bytes",
						"label": "string",
						"numberOfBytes": "32"
					},
					"t_string_storage": {
						"encoding": "bytes",
						"label": "string",
						"numberOfBytes": "32"
					},
					"t_struct(driver)246_storage": {
						"encoding": "inplace",
						"label": "struct Rides.driver",
						"members": [
							{
								"astId": 233,
								"contract": "contracts/rides.sol:Rides",
								"label": "name",
								"offset": 0,
								"slot": "0",
								"type": "t_string_storage"
							},
							{
								"astId": 235,
								"contract": "contracts/rides.sol:Rides",
								"label": "email",
								"offset": 0,
								"slot": "1",
								"type": "t_string_storage"
							},
							{
								"astId": 237,
								"contract": "contracts/rides.sol:Rides",
								"label": "phoneNumber",
								"offset": 0,
								"slot": "2",
								"type": "t_string_storage"
							},
							{
								"astId": 239,
								"contract": "contracts/rides.sol:Rides",
								"label": "driverAddress",
								"offset": 0,
								"slot": "3",
								"type": "t_address_payable"
							},
							{
								"astId": 242,
								"contract": "contracts/rides.sol:Rides",
								"label": "rides",
								"offset": 0,
								"slot": "4",
								"type": "t_array(t_string_storage)dyn_storage"
							},
							{
								"astId": 245,
								"contract": "contracts/rides.sol:Rides",
								"label": "user",
								"offset": 0,
								"slot": "5",
								"type": "t_enum(Users)208"
							}
						],
						"numberOfBytes": "192"
					},
					"t_struct(passenger)223_storage": {
						"encoding": "inplace",
						"label": "struct Rides.passenger",
						"members": [
							{
								"astId": 210,
								"contract": "contracts/rides.sol:Rides",
								"label": "name",
								"offset": 0,
								"slot": "0",
								"type": "t_string_storage"
							},
							{
								"astId": 212,
								"contract": "contracts/rides.sol:Rides",
								"label": "email",
								"offset": 0,
								"slot": "1",
								"type": "t_string_storage"
							},
							{
								"astId": 214,
								"contract": "contracts/rides.sol:Rides",
								"label": "phoneNumber",
								"offset": 0,
								"slot": "2",
								"type": "t_string_storage"
							},
							{
								"astId": 216,
								"contract": "contracts/rides.sol:Rides",
								"label": "passengerAddress",
								"offset": 0,
								"slot": "3",
								"type": "t_address_payable"
							},
							{
								"astId": 219,
								"contract": "contracts/rides.sol:Rides",
								"label": "rides",
								"offset": 0,
								"slot": "4",
								"type": "t_array(t_string_storage)dyn_storage"
							},
							{
								"astId": 222,
								"contract": "contracts/rides.sol:Rides",
								"label": "user",
								"offset": 0,
								"slot": "5",
								"type": "t_enum(Users)208"
							}
						],
						"numberOfBytes": "192"
					},
					"t_struct(ride)401_storage": {
						"encoding": "inplace",
						"label": "struct Rides.ride",
						"members": [
							{
								"astId": 392,
								"contract": "contracts/rides.sol:Rides",
								"label": "passengerAddress",
								"offset": 0,
								"slot": "0",
								"type": "t_address_payable"
							},
							{
								"astId": 394,
								"contract": "contracts/rides.sol:Rides",
								"label": "driverAddress",
								"offset": 0,
								"slot": "1",
								"type": "t_address_payable"
							},
							{
								"astId": 396,
								"contract": "contracts/rides.sol:Rides",
								"label": "to",
								"offset": 0,
								"slot": "2",
								"type": "t_string_storage"
							},
							{
								"astId": 398,
								"contract": "contracts/rides.sol:Rides",
								"label": "from",
								"offset": 0,
								"slot": "3",
								"type": "t_string_storage"
							},
							{
								"astId": 400,
								"contract": "contracts/rides.sol:Rides",
								"label": "amount",
								"offset": 0,
								"slot": "4",
								"type": "t_uint256"
							}
						],
						"numberOfBytes": "160"
					},
					"t_uint256": {
						"encoding": "inplace",
						"label": "uint256",
						"numberOfBytes": "32"
					}
				}
			},
			"userdoc": {
				"kind": "user",
				"methods": {},
				"version": 1
			}
		}
	}
}