{
	"contracts/payments.sol": {
		"Payments": {
			"abi": [
				{
					"inputs": [
						{
							"internalType": "address payable",
							"name": "_driver",
							"type": "address"
						},
						{
							"internalType": "uint256",
							"name": "duration",
							"type": "uint256"
						}
					],
					"stateMutability": "payable",
					"type": "constructor"
				},
				{
					"inputs": [],
					"name": "claimTimeout",
					"outputs": [],
					"stateMutability": "nonpayable",
					"type": "function"
				},
				{
					"inputs": [
						{
							"internalType": "uint256",
							"name": "amount",
							"type": "uint256"
						},
						{
							"internalType": "bytes",
							"name": "signature",
							"type": "bytes"
						}
					],
					"name": "close",
					"outputs": [],
					"stateMutability": "nonpayable",
					"type": "function"
				},
				{
					"inputs": [],
					"name": "driver",
					"outputs": [
						{
							"internalType": "address payable",
							"name": "",
							"type": "address"
						}
					],
					"stateMutability": "view",
					"type": "function"
				},
				{
					"inputs": [],
					"name": "expiration",
					"outputs": [
						{
							"internalType": "uint256",
							"name": "",
							"type": "uint256"
						}
					],
					"stateMutability": "view",
					"type": "function"
				},
				{
					"inputs": [
						{
							"internalType": "uint256",
							"name": "newExpiration",
							"type": "uint256"
						}
					],
					"name": "extend",
					"outputs": [],
					"stateMutability": "nonpayable",
					"type": "function"
				},
				{
					"inputs": [],
					"name": "passenger",
					"outputs": [
						{
							"internalType": "address payable",
							"name": "",
							"type": "address"
						}
					],
					"stateMutability": "view",
					"type": "function"
				}
			],
			"devdoc": {
				"kind": "dev",
				"methods": {},
				"version": 1
			},
			"evm": {
				"assembly": "    /* \"contracts/payments.sol\":89:2100  contract Payments { //the whole code works\r... */\n  mstore(0x40, 0x80)\n    /* \"contracts/payments.sol\":367:554  constructor(address payable _driver, uint duration) payable {\r... */\n  mload(0x40)\n  sub(codesize, bytecodeSize)\n  dup1\n  bytecodeSize\n  dup4\n  codecopy\n  dup2\n  dup2\n  add\n  0x40\n  mstore\n  dup2\n  add\n  swap1\n  tag_1\n  swap2\n  swap1\n  tag_2\n  jump\t// in\ntag_1:\n    /* \"contracts/payments.sol\":458:468  msg.sender */\n  caller\n    /* \"contracts/payments.sol\":438:447  passenger */\n  0x00\n  dup1\n    /* \"contracts/payments.sol\":438:469  passenger = payable(msg.sender) */\n  0x0100\n  exp\n  dup2\n  sload\n  dup2\n  0xffffffffffffffffffffffffffffffffffffffff\n  mul\n  not\n  and\n  swap1\n  dup4\n  0xffffffffffffffffffffffffffffffffffffffff\n  and\n  mul\n  or\n  swap1\n  sstore\n  pop\n    /* \"contracts/payments.sol\":489:496  _driver */\n  dup2\n    /* \"contracts/payments.sol\":480:486  driver */\n  0x01\n  0x00\n    /* \"contracts/payments.sol\":480:496  driver = _driver */\n  0x0100\n  exp\n  dup2\n  sload\n  dup2\n  0xffffffffffffffffffffffffffffffffffffffff\n  mul\n  not\n  and\n  swap1\n  dup4\n  0xffffffffffffffffffffffffffffffffffffffff\n  and\n  mul\n  or\n  swap1\n  sstore\n  pop\n    /* \"contracts/payments.sol\":538:546  duration */\n  dup1\n    /* \"contracts/payments.sol\":520:535  block.timestamp */\n  timestamp\n    /* \"contracts/payments.sol\":520:546  block.timestamp + duration */\n  tag_5\n  swap2\n  swap1\n  tag_6\n  jump\t// in\ntag_5:\n    /* \"contracts/payments.sol\":507:517  expiration */\n  0x02\n    /* \"contracts/payments.sol\":507:546  expiration = block.timestamp + duration */\n  dup2\n  swap1\n  sstore\n  pop\n    /* \"contracts/payments.sol\":367:554  constructor(address payable _driver, uint duration) payable {\r... */\n  pop\n  pop\n    /* \"contracts/payments.sol\":89:2100  contract Payments { //the whole code works\r... */\n  jump(tag_7)\n    /* \"#utility.yul\":7:166   */\ntag_9:\n    /* \"#utility.yul\":72:77   */\n  0x00\n    /* \"#utility.yul\":103:109   */\n  dup2\n    /* \"#utility.yul\":97:110   */\n  mload\n    /* \"#utility.yul\":88:110   */\n  swap1\n  pop\n    /* \"#utility.yul\":119:160   */\n  tag_11\n    /* \"#utility.yul\":154:159   */\n  dup2\n    /* \"#utility.yul\":119:160   */\n  tag_12\n  jump\t// in\ntag_11:\n    /* \"#utility.yul\":7:166   */\n  swap3\n  swap2\n  pop\n  pop\n  jump\t// out\n    /* \"#utility.yul\":172:315   */\ntag_13:\n    /* \"#utility.yul\":229:234   */\n  0x00\n    /* \"#utility.yul\":260:266   */\n  dup2\n    /* \"#utility.yul\":254:267   */\n  mload\n    /* \"#utility.yul\":245:267   */\n  swap1\n  pop\n    /* \"#utility.yul\":276:309   */\n  tag_15\n    /* \"#utility.yul\":303:308   */\n  dup2\n    /* \"#utility.yul\":276:309   */\n  tag_16\n  jump\t// in\ntag_15:\n    /* \"#utility.yul\":172:315   */\n  swap3\n  swap2\n  pop\n  pop\n  jump\t// out\n    /* \"#utility.yul\":321:844   */\ntag_2:\n    /* \"#utility.yul\":408:414   */\n  0x00\n    /* \"#utility.yul\":416:422   */\n  dup1\n    /* \"#utility.yul\":465:467   */\n  0x40\n    /* \"#utility.yul\":453:462   */\n  dup4\n    /* \"#utility.yul\":444:451   */\n  dup6\n    /* \"#utility.yul\":440:463   */\n  sub\n    /* \"#utility.yul\":436:468   */\n  slt\n    /* \"#utility.yul\":433:552   */\n  iszero\n  tag_18\n  jumpi\n    /* \"#utility.yul\":471:550   */\n  tag_19\n  tag_20\n  jump\t// in\ntag_19:\n    /* \"#utility.yul\":433:552   */\ntag_18:\n    /* \"#utility.yul\":591:592   */\n  0x00\n    /* \"#utility.yul\":616:688   */\n  tag_21\n    /* \"#utility.yul\":680:687   */\n  dup6\n    /* \"#utility.yul\":671:677   */\n  dup3\n    /* \"#utility.yul\":660:669   */\n  dup7\n    /* \"#utility.yul\":656:678   */\n  add\n    /* \"#utility.yul\":616:688   */\n  tag_9\n  jump\t// in\ntag_21:\n    /* \"#utility.yul\":606:688   */\n  swap3\n  pop\n    /* \"#utility.yul\":562:698   */\n  pop\n    /* \"#utility.yul\":737:739   */\n  0x20\n    /* \"#utility.yul\":763:827   */\n  tag_22\n    /* \"#utility.yul\":819:826   */\n  dup6\n    /* \"#utility.yul\":810:816   */\n  dup3\n    /* \"#utility.yul\":799:808   */\n  dup7\n    /* \"#utility.yul\":795:817   */\n  add\n    /* \"#utility.yul\":763:827   */\n  tag_13\n  jump\t// in\ntag_22:\n    /* \"#utility.yul\":753:827   */\n  swap2\n  pop\n    /* \"#utility.yul\":708:837   */\n  pop\n    /* \"#utility.yul\":321:844   */\n  swap3\n  pop\n  swap3\n  swap1\n  pop\n  jump\t// out\n    /* \"#utility.yul\":931:1236   */\ntag_6:\n    /* \"#utility.yul\":971:974   */\n  0x00\n    /* \"#utility.yul\":990:1010   */\n  tag_26\n    /* \"#utility.yul\":1008:1009   */\n  dup3\n    /* \"#utility.yul\":990:1010   */\n  tag_27\n  jump\t// in\ntag_26:\n    /* \"#utility.yul\":985:1010   */\n  swap2\n  pop\n    /* \"#utility.yul\":1024:1044   */\n  tag_28\n    /* \"#utility.yul\":1042:1043   */\n  dup4\n    /* \"#utility.yul\":1024:1044   */\n  tag_27\n  jump\t// in\ntag_28:\n    /* \"#utility.yul\":1019:1044   */\n  swap3\n  pop\n    /* \"#utility.yul\":1178:1179   */\n  dup3\n    /* \"#utility.yul\":1110:1176   */\n  0xffffffffffffffffffffffffffffffffffffffffffffffffffffffffffffffff\n    /* \"#utility.yul\":1106:1180   */\n  sub\n    /* \"#utility.yul\":1103:1104   */\n  dup3\n    /* \"#utility.yul\":1100:1181   */\n  gt\n    /* \"#utility.yul\":1097:1204   */\n  iszero\n  tag_29\n  jumpi\n    /* \"#utility.yul\":1184:1202   */\n  tag_30\n  tag_31\n  jump\t// in\ntag_30:\n    /* \"#utility.yul\":1097:1204   */\ntag_29:\n    /* \"#utility.yul\":1228:1229   */\n  dup3\n    /* \"#utility.yul\":1225:1226   */\n  dup3\n    /* \"#utility.yul\":1221:1230   */\n  add\n    /* \"#utility.yul\":1214:1230   */\n  swap1\n  pop\n    /* \"#utility.yul\":931:1236   */\n  swap3\n  swap2\n  pop\n  pop\n  jump\t// out\n    /* \"#utility.yul\":1242:1346   */\ntag_32:\n    /* \"#utility.yul\":1287:1294   */\n  0x00\n    /* \"#utility.yul\":1316:1340   */\n  tag_34\n    /* \"#utility.yul\":1334:1339   */\n  dup3\n    /* \"#utility.yul\":1316:1340   */\n  tag_35\n  jump\t// in\ntag_34:\n    /* \"#utility.yul\":1305:1340   */\n  swap1\n  pop\n    /* \"#utility.yul\":1242:1346   */\n  swap2\n  swap1\n  pop\n  jump\t// out\n    /* \"#utility.yul\":1352:1478   */\ntag_35:\n    /* \"#utility.yul\":1389:1396   */\n  0x00\n    /* \"#utility.yul\":1429:1471   */\n  0xffffffffffffffffffffffffffffffffffffffff\n    /* \"#utility.yul\":1422:1427   */\n  dup3\n    /* \"#utility.yul\":1418:1472   */\n  and\n    /* \"#utility.yul\":1407:1472   */\n  swap1\n  pop\n    /* \"#utility.yul\":1352:1478   */\n  swap2\n  swap1\n  pop\n  jump\t// out\n    /* \"#utility.yul\":1484:1561   */\ntag_27:\n    /* \"#utility.yul\":1521:1528   */\n  0x00\n    /* \"#utility.yul\":1550:1555   */\n  dup2\n    /* \"#utility.yul\":1539:1555   */\n  swap1\n  pop\n    /* \"#utility.yul\":1484:1561   */\n  swap2\n  swap1\n  pop\n  jump\t// out\n    /* \"#utility.yul\":1567:1747   */\ntag_31:\n    /* \"#utility.yul\":1615:1692   */\n  0x4e487b7100000000000000000000000000000000000000000000000000000000\n    /* \"#utility.yul\":1612:1613   */\n  0x00\n    /* \"#utility.yul\":1605:1693   */\n  mstore\n    /* \"#utility.yul\":1712:1716   */\n  0x11\n    /* \"#utility.yul\":1709:1710   */\n  0x04\n    /* \"#utility.yul\":1702:1717   */\n  mstore\n    /* \"#utility.yul\":1736:1740   */\n  0x24\n    /* \"#utility.yul\":1733:1734   */\n  0x00\n    /* \"#utility.yul\":1726:1741   */\n  revert\n    /* \"#utility.yul\":1876:1993   */\ntag_20:\n    /* \"#utility.yul\":1985:1986   */\n  0x00\n    /* \"#utility.yul\":1982:1983   */\n  dup1\n    /* \"#utility.yul\":1975:1987   */\n  revert\n    /* \"#utility.yul\":1999:2137   */\ntag_12:\n    /* \"#utility.yul\":2080:2112   */\n  tag_43\n    /* \"#utility.yul\":2106:2111   */\n  dup2\n    /* \"#utility.yul\":2080:2112   */\n  tag_32\n  jump\t// in\ntag_43:\n    /* \"#utility.yul\":2073:2078   */\n  dup2\n    /* \"#utility.yul\":2070:2113   */\n  eq\n    /* \"#utility.yul\":2060:2131   */\n  tag_44\n  jumpi\n    /* \"#utility.yul\":2127:2128   */\n  0x00\n    /* \"#utility.yul\":2124:2125   */\n  dup1\n    /* \"#utility.yul\":2117:2129   */\n  revert\n    /* \"#utility.yul\":2060:2131   */\ntag_44:\n    /* \"#utility.yul\":1999:2137   */\n  pop\n  jump\t// out\n    /* \"#utility.yul\":2143:2265   */\ntag_16:\n    /* \"#utility.yul\":2216:2240   */\n  tag_46\n    /* \"#utility.yul\":2234:2239   */\n  dup2\n    /* \"#utility.yul\":2216:2240   */\n  tag_27\n  jump\t// in\ntag_46:\n    /* \"#utility.yul\":2209:2214   */\n  dup2\n    /* \"#utility.yul\":2206:2241   */\n  eq\n    /* \"#utility.yul\":2196:2259   */\n  tag_47\n  jumpi\n    /* \"#utility.yul\":2255:2256   */\n  0x00\n    /* \"#utility.yul\":2252:2253   */\n  dup1\n    /* \"#utility.yul\":2245:2257   */\n  revert\n    /* \"#utility.yul\":2196:2259   */\ntag_47:\n    /* \"#utility.yul\":2143:2265   */\n  pop\n  jump\t// out\n    /* \"contracts/payments.sol\":89:2100  contract Payments { //the whole code works\r... */\ntag_7:\n  dataSize(sub_0)\n  dup1\n  dataOffset(sub_0)\n  0x00\n  codecopy\n  0x00\n  return\nstop\n\nsub_0: assembly {\n        /* \"contracts/payments.sol\":89:2100  contract Payments { //the whole code works\r... */\n      mstore(0x40, 0x80)\n      callvalue\n      dup1\n      iszero\n      tag_1\n      jumpi\n      0x00\n      dup1\n      revert\n    tag_1:\n      pop\n      jumpi(tag_2, lt(calldatasize, 0x04))\n      shr(0xe0, calldataload(0x00))\n      dup1\n      0x0e1da6c3\n      eq\n      tag_3\n      jumpi\n      dup1\n      0x415ffba7\n      eq\n      tag_4\n      jumpi\n      dup1\n      0x4665096d\n      eq\n      tag_5\n      jumpi\n      dup1\n      0x6ecc5d62\n      eq\n      tag_6\n      jumpi\n      dup1\n      0x9714378c\n      eq\n      tag_7\n      jumpi\n      dup1\n      0xc11ae86f\n      eq\n      tag_8\n      jumpi\n    tag_2:\n      0x00\n      dup1\n      revert\n        /* \"contracts/payments.sol\":997:1121  function claimTimeout() external {\r... */\n    tag_3:\n      tag_9\n      tag_10\n      jump\t// in\n    tag_9:\n      stop\n        /* \"contracts/payments.sol\":562:799  function close(uint256 amount, bytes memory signature) external {\r... */\n    tag_4:\n      tag_11\n      0x04\n      dup1\n      calldatasize\n      sub\n      dup2\n      add\n      swap1\n      tag_12\n      swap2\n      swap1\n      tag_13\n      jump\t// in\n    tag_12:\n      tag_14\n      jump\t// in\n    tag_11:\n      stop\n        /* \"contracts/payments.sol\":323:348  uint256 public expiration */\n    tag_5:\n      tag_15\n      tag_16\n      jump\t// in\n    tag_15:\n      mload(0x40)\n      tag_17\n      swap2\n      swap1\n      tag_18\n      jump\t// in\n    tag_17:\n      mload(0x40)\n      dup1\n      swap2\n      sub\n      swap1\n      return\n        /* \"contracts/payments.sol\":275:304  address payable public driver */\n    tag_6:\n      tag_19\n      tag_20\n      jump\t// in\n    tag_19:\n      mload(0x40)\n      tag_21\n      swap2\n      swap1\n      tag_22\n      jump\t// in\n    tag_21:\n      mload(0x40)\n      dup1\n      swap2\n      sub\n      swap1\n      return\n        /* \"contracts/payments.sol\":807:989  function extend(uint256 newExpiration) external {\r... */\n    tag_7:\n      tag_23\n      0x04\n      dup1\n      calldatasize\n      sub\n      dup2\n      add\n      swap1\n      tag_24\n      swap2\n      swap1\n      tag_25\n      jump\t// in\n    tag_24:\n      tag_26\n      jump\t// in\n    tag_23:\n      stop\n        /* \"contracts/payments.sol\":227:259  address payable public passenger */\n    tag_8:\n      tag_27\n      tag_28\n      jump\t// in\n    tag_27:\n      mload(0x40)\n      tag_29\n      swap2\n      swap1\n      tag_22\n      jump\t// in\n    tag_29:\n      mload(0x40)\n      dup1\n      swap2\n      sub\n      swap1\n      return\n        /* \"contracts/payments.sol\":997:1121  function claimTimeout() external {\r... */\n    tag_10:\n        /* \"contracts/payments.sol\":1068:1078  expiration */\n      sload(0x02)\n        /* \"contracts/payments.sol\":1049:1064  block.timestamp */\n      timestamp\n        /* \"contracts/payments.sol\":1049:1078  block.timestamp >= expiration */\n      lt\n      iszero\n        /* \"contracts/payments.sol\":1041:1079  require(block.timestamp >= expiration) */\n      tag_31\n      jumpi\n      0x00\n      dup1\n      revert\n    tag_31:\n        /* \"contracts/payments.sol\":1103:1112  passenger */\n      0x00\n      dup1\n      sload\n      swap1\n      0x0100\n      exp\n      swap1\n      div\n      0xffffffffffffffffffffffffffffffffffffffff\n      and\n        /* \"contracts/payments.sol\":1090:1113  selfdestruct(passenger) */\n      0xffffffffffffffffffffffffffffffffffffffff\n      and\n      selfdestruct\n        /* \"contracts/payments.sol\":562:799  function close(uint256 amount, bytes memory signature) external {\r... */\n    tag_14:\n        /* \"contracts/payments.sol\":659:665  driver */\n      0x01\n      0x00\n      swap1\n      sload\n      swap1\n      0x0100\n      exp\n      swap1\n      div\n      0xffffffffffffffffffffffffffffffffffffffff\n      and\n        /* \"contracts/payments.sol\":645:665  msg.sender == driver */\n      0xffffffffffffffffffffffffffffffffffffffff\n      and\n        /* \"contracts/payments.sol\":645:655  msg.sender */\n      caller\n        /* \"contracts/payments.sol\":645:665  msg.sender == driver */\n      0xffffffffffffffffffffffffffffffffffffffff\n      and\n      eq\n        /* \"contracts/payments.sol\":637:666  require(msg.sender == driver) */\n      tag_33\n      jumpi\n      0x00\n      dup1\n      revert\n    tag_33:\n        /* \"contracts/payments.sol\":685:720  isValidSignature(amount, signature) */\n      tag_34\n        /* \"contracts/payments.sol\":702:708  amount */\n      dup3\n        /* \"contracts/payments.sol\":710:719  signature */\n      dup3\n        /* \"contracts/payments.sol\":685:701  isValidSignature */\n      tag_35\n        /* \"contracts/payments.sol\":685:720  isValidSignature(amount, signature) */\n      jump\t// in\n    tag_34:\n        /* \"contracts/payments.sol\":677:721  require(isValidSignature(amount, signature)) */\n      tag_36\n      jumpi\n      0x00\n      dup1\n      revert\n    tag_36:\n        /* \"contracts/payments.sol\":734:740  driver */\n      0x01\n      0x00\n      swap1\n      sload\n      swap1\n      0x0100\n      exp\n      swap1\n      div\n      0xffffffffffffffffffffffffffffffffffffffff\n      and\n        /* \"contracts/payments.sol\":734:749  driver.transfer */\n      0xffffffffffffffffffffffffffffffffffffffff\n      and\n        /* \"contracts/payments.sol\":734:757  driver.transfer(amount) */\n      0x08fc\n        /* \"contracts/payments.sol\":750:756  amount */\n      dup4\n        /* \"contracts/payments.sol\":734:757  driver.transfer(amount) */\n      swap1\n      dup2\n      iszero\n      mul\n      swap1\n      mload(0x40)\n      0x00\n      mload(0x40)\n      dup1\n      dup4\n      sub\n      dup2\n      dup6\n      dup9\n      dup9\n      call\n      swap4\n      pop\n      pop\n      pop\n      pop\n      iszero\n      dup1\n      iszero\n      tag_38\n      jumpi\n      returndatasize\n      0x00\n      dup1\n      returndatacopy\n      revert(0x00, returndatasize)\n    tag_38:\n      pop\n        /* \"contracts/payments.sol\":781:790  passenger */\n      0x00\n      dup1\n      sload\n      swap1\n      0x0100\n      exp\n      swap1\n      div\n      0xffffffffffffffffffffffffffffffffffffffff\n      and\n        /* \"contracts/payments.sol\":768:791  selfdestruct(passenger) */\n      0xffffffffffffffffffffffffffffffffffffffff\n      and\n      selfdestruct\n        /* \"contracts/payments.sol\":323:348  uint256 public expiration */\n    tag_16:\n      sload(0x02)\n      dup2\n      jump\t// out\n        /* \"contracts/payments.sol\":275:304  address payable public driver */\n    tag_20:\n      0x01\n      0x00\n      swap1\n      sload\n      swap1\n      0x0100\n      exp\n      swap1\n      div\n      0xffffffffffffffffffffffffffffffffffffffff\n      and\n      dup2\n      jump\t// out\n        /* \"contracts/payments.sol\":807:989  function extend(uint256 newExpiration) external {\r... */\n    tag_26:\n        /* \"contracts/payments.sol\":888:897  passenger */\n      0x00\n      dup1\n      sload\n      swap1\n      0x0100\n      exp\n      swap1\n      div\n      0xffffffffffffffffffffffffffffffffffffffff\n      and\n        /* \"contracts/payments.sol\":874:897  msg.sender == passenger */\n      0xffffffffffffffffffffffffffffffffffffffff\n      and\n        /* \"contracts/payments.sol\":874:884  msg.sender */\n      caller\n        /* \"contracts/payments.sol\":874:897  msg.sender == passenger */\n      0xffffffffffffffffffffffffffffffffffffffff\n      and\n      eq\n        /* \"contracts/payments.sol\":866:898  require(msg.sender == passenger) */\n      tag_40\n      jumpi\n      0x00\n      dup1\n      revert\n    tag_40:\n        /* \"contracts/payments.sol\":933:943  expiration */\n      sload(0x02)\n        /* \"contracts/payments.sol\":917:930  newExpiration */\n      dup2\n        /* \"contracts/payments.sol\":917:943  newExpiration > expiration */\n      gt\n        /* \"contracts/payments.sol\":909:944  require(newExpiration > expiration) */\n      tag_41\n      jumpi\n      0x00\n      dup1\n      revert\n    tag_41:\n        /* \"contracts/payments.sol\":968:981  newExpiration */\n      dup1\n        /* \"contracts/payments.sol\":955:965  expiration */\n      0x02\n        /* \"contracts/payments.sol\":955:981  expiration = newExpiration */\n      dup2\n      swap1\n      sstore\n      pop\n        /* \"contracts/payments.sol\":807:989  function extend(uint256 newExpiration) external {\r... */\n      pop\n      jump\t// out\n        /* \"contracts/payments.sol\":227:259  address payable public passenger */\n    tag_28:\n      0x00\n      dup1\n      sload\n      swap1\n      0x0100\n      exp\n      swap1\n      div\n      0xffffffffffffffffffffffffffffffffffffffff\n      and\n      dup2\n      jump\t// out\n        /* \"contracts/payments.sol\":1129:1376  function isValidSignature(uint256 amount, bytes memory signature) internal view returns (bool) {\r... */\n    tag_35:\n        /* \"contracts/payments.sol\":1218:1222  bool */\n      0x00\n        /* \"contracts/payments.sol\":1235:1250  bytes32 message */\n      dup1\n        /* \"contracts/payments.sol\":1253:1304  prefixed(keccak256(abi.encodePacked(this, amount))) */\n      tag_43\n        /* \"contracts/payments.sol\":1289:1293  this */\n      address\n        /* \"contracts/payments.sol\":1295:1301  amount */\n      dup6\n        /* \"contracts/payments.sol\":1272:1302  abi.encodePacked(this, amount) */\n      add(0x20, mload(0x40))\n      tag_44\n      swap3\n      swap2\n      swap1\n      tag_45\n      jump\t// in\n    tag_44:\n      mload(0x40)\n      0x20\n      dup2\n      dup4\n      sub\n      sub\n      dup2\n      mstore\n      swap1\n      0x40\n      mstore\n        /* \"contracts/payments.sol\":1262:1303  keccak256(abi.encodePacked(this, amount)) */\n      dup1\n      mload\n      swap1\n      0x20\n      add\n      keccak256\n        /* \"contracts/payments.sol\":1253:1261  prefixed */\n      tag_46\n        /* \"contracts/payments.sol\":1253:1304  prefixed(keccak256(abi.encodePacked(this, amount))) */\n      jump\t// in\n    tag_43:\n        /* \"contracts/payments.sol\":1235:1304  bytes32 message = prefixed(keccak256(abi.encodePacked(this, amount))) */\n      swap1\n      pop\n        /* \"contracts/payments.sol\":1359:1368  passenger */\n      0x00\n      dup1\n      sload\n      swap1\n      0x0100\n      exp\n      swap1\n      div\n      0xffffffffffffffffffffffffffffffffffffffff\n      and\n        /* \"contracts/payments.sol\":1322:1368  recoverSigner(message, signature) == passenger */\n      0xffffffffffffffffffffffffffffffffffffffff\n      and\n        /* \"contracts/payments.sol\":1322:1355  recoverSigner(message, signature) */\n      tag_47\n        /* \"contracts/payments.sol\":1336:1343  message */\n      dup3\n        /* \"contracts/payments.sol\":1345:1354  signature */\n      dup6\n        /* \"contracts/payments.sol\":1322:1335  recoverSigner */\n      tag_48\n        /* \"contracts/payments.sol\":1322:1355  recoverSigner(message, signature) */\n      jump\t// in\n    tag_47:\n        /* \"contracts/payments.sol\":1322:1368  recoverSigner(message, signature) == passenger */\n      0xffffffffffffffffffffffffffffffffffffffff\n      and\n      eq\n        /* \"contracts/payments.sol\":1315:1368  return recoverSigner(message, signature) == passenger */\n      swap2\n      pop\n      pop\n        /* \"contracts/payments.sol\":1129:1376  function isValidSignature(uint256 amount, bytes memory signature) internal view returns (bool) {\r... */\n      swap3\n      swap2\n      pop\n      pop\n      jump\t// out\n        /* \"contracts/payments.sol\":1936:2095  function prefixed(bytes32 hash) internal pure returns (bytes32) {\r... */\n    tag_46:\n        /* \"contracts/payments.sol\":1991:1998  bytes32 */\n      0x00\n        /* \"contracts/payments.sol\":2081:2085  hash */\n      dup2\n        /* \"contracts/payments.sol\":2028:2086  abi.encodePacked(\"\\x19Ethereum Signed Message:\\n32\", hash) */\n      add(0x20, mload(0x40))\n      tag_50\n      swap2\n      swap1\n      tag_51\n      jump\t// in\n    tag_50:\n      mload(0x40)\n      0x20\n      dup2\n      dup4\n      sub\n      sub\n      dup2\n      mstore\n      swap1\n      0x40\n      mstore\n        /* \"contracts/payments.sol\":2018:2087  keccak256(abi.encodePacked(\"\\x19Ethereum Signed Message:\\n32\", hash)) */\n      dup1\n      mload\n      swap1\n      0x20\n      add\n      keccak256\n        /* \"contracts/payments.sol\":2011:2087  return keccak256(abi.encodePacked(\"\\x19Ethereum Signed Message:\\n32\", hash)) */\n      swap1\n      pop\n        /* \"contracts/payments.sol\":1936:2095  function prefixed(bytes32 hash) internal pure returns (bytes32) {\r... */\n      swap2\n      swap1\n      pop\n      jump\t// out\n        /* \"contracts/payments.sol\":1719:1928  function recoverSigner(bytes32 message, bytes memory sig) internal pure returns (address) {\r... */\n    tag_48:\n        /* \"contracts/payments.sol\":1800:1807  address */\n      0x00\n        /* \"contracts/payments.sol\":1821:1828  uint8 v */\n      dup1\n        /* \"contracts/payments.sol\":1830:1839  bytes32 r */\n      0x00\n        /* \"contracts/payments.sol\":1841:1850  bytes32 s */\n      dup1\n        /* \"contracts/payments.sol\":1854:1873  splitSignature(sig) */\n      tag_53\n        /* \"contracts/payments.sol\":1869:1872  sig */\n      dup6\n        /* \"contracts/payments.sol\":1854:1868  splitSignature */\n      tag_54\n        /* \"contracts/payments.sol\":1854:1873  splitSignature(sig) */\n      jump\t// in\n    tag_53:\n        /* \"contracts/payments.sol\":1820:1873  (uint8 v, bytes32 r, bytes32 s) = splitSignature(sig) */\n      swap3\n      pop\n      swap3\n      pop\n      swap3\n      pop\n        /* \"contracts/payments.sol\":1893:1920  ecrecover(message, v, r, s) */\n      0x01\n        /* \"contracts/payments.sol\":1903:1910  message */\n      dup7\n        /* \"contracts/payments.sol\":1912:1913  v */\n      dup5\n        /* \"contracts/payments.sol\":1915:1916  r */\n      dup5\n        /* \"contracts/payments.sol\":1918:1919  s */\n      dup5\n        /* \"contracts/payments.sol\":1893:1920  ecrecover(message, v, r, s) */\n      mload(0x40)\n      0x00\n      dup2\n      mstore\n      0x20\n      add\n      0x40\n      mstore\n      mload(0x40)\n      tag_55\n      swap5\n      swap4\n      swap3\n      swap2\n      swap1\n      tag_56\n      jump\t// in\n    tag_55:\n      0x20\n      mload(0x40)\n      0x20\n      dup2\n      sub\n      swap1\n      dup1\n      dup5\n      sub\n      swap1\n      dup6\n      gas\n      staticcall\n      iszero\n      dup1\n      iszero\n      tag_58\n      jumpi\n      returndatasize\n      0x00\n      dup1\n      returndatacopy\n      revert(0x00, returndatasize)\n    tag_58:\n      pop\n      pop\n      pop\n      mload(sub(mload(0x40), 0x20))\n        /* \"contracts/payments.sol\":1886:1920  return ecrecover(message, v, r, s) */\n      swap4\n      pop\n      pop\n      pop\n      pop\n        /* \"contracts/payments.sol\":1719:1928  function recoverSigner(bytes32 message, bytes memory sig) internal pure returns (address) {\r... */\n      swap3\n      swap2\n      pop\n      pop\n      jump\t// out\n        /* \"contracts/payments.sol\":1384:1711  function splitSignature(bytes memory sig) internal pure returns (uint8 v, bytes32 r, bytes32 s) {\r... */\n    tag_54:\n        /* \"contracts/payments.sol\":1449:1456  uint8 v */\n      0x00\n        /* \"contracts/payments.sol\":1458:1467  bytes32 r */\n      dup1\n        /* \"contracts/payments.sol\":1469:1478  bytes32 s */\n      0x00\n        /* \"contracts/payments.sol\":1513:1515  65 */\n      0x41\n        /* \"contracts/payments.sol\":1499:1502  sig */\n      dup5\n        /* \"contracts/payments.sol\":1499:1509  sig.length */\n      mload\n        /* \"contracts/payments.sol\":1499:1515  sig.length == 65 */\n      eq\n        /* \"contracts/payments.sol\":1491:1516  require(sig.length == 65) */\n      tag_60\n      jumpi\n      0x00\n      dup1\n      revert\n    tag_60:\n        /* \"contracts/payments.sol\":1573:1575  32 */\n      0x20\n        /* \"contracts/payments.sol\":1568:1571  sig */\n      dup5\n        /* \"contracts/payments.sol\":1564:1576  add(sig, 32) */\n      add\n        /* \"contracts/payments.sol\":1558:1577  mload(add(sig, 32)) */\n      mload\n        /* \"contracts/payments.sol\":1553:1577  r := mload(add(sig, 32)) */\n      swap2\n      pop\n        /* \"contracts/payments.sol\":1611:1613  64 */\n      0x40\n        /* \"contracts/payments.sol\":1606:1609  sig */\n      dup5\n        /* \"contracts/payments.sol\":1602:1614  add(sig, 64) */\n      add\n        /* \"contracts/payments.sol\":1596:1615  mload(add(sig, 64)) */\n      mload\n        /* \"contracts/payments.sol\":1591:1615  s := mload(add(sig, 64)) */\n      swap1\n      pop\n        /* \"contracts/payments.sol\":1657:1659  96 */\n      0x60\n        /* \"contracts/payments.sol\":1652:1655  sig */\n      dup5\n        /* \"contracts/payments.sol\":1648:1660  add(sig, 96) */\n      add\n        /* \"contracts/payments.sol\":1642:1661  mload(add(sig, 96)) */\n      mload\n        /* \"contracts/payments.sol\":1639:1640  0 */\n      0x00\n        /* \"contracts/payments.sol\":1634:1662  byte(0, mload(add(sig, 96))) */\n      byte\n        /* \"contracts/payments.sol\":1629:1662  v := byte(0, mload(add(sig, 96))) */\n      swap3\n      pop\n        /* \"contracts/payments.sol\":1384:1711  function splitSignature(bytes memory sig) internal pure returns (uint8 v, bytes32 r, bytes32 s) {\r... */\n      swap2\n      swap4\n      swap1\n      swap3\n      pop\n      jump\t// out\n        /* \"#utility.yul\":7:417   */\n    tag_62:\n        /* \"#utility.yul\":84:89   */\n      0x00\n        /* \"#utility.yul\":109:174   */\n      tag_64\n        /* \"#utility.yul\":125:173   */\n      tag_65\n        /* \"#utility.yul\":166:172   */\n      dup5\n        /* \"#utility.yul\":125:173   */\n      tag_66\n      jump\t// in\n    tag_65:\n        /* \"#utility.yul\":109:174   */\n      tag_67\n      jump\t// in\n    tag_64:\n        /* \"#utility.yul\":100:174   */\n      swap1\n      pop\n        /* \"#utility.yul\":197:203   */\n      dup3\n        /* \"#utility.yul\":190:195   */\n      dup2\n        /* \"#utility.yul\":183:204   */\n      mstore\n        /* \"#utility.yul\":235:239   */\n      0x20\n        /* \"#utility.yul\":228:233   */\n      dup2\n        /* \"#utility.yul\":224:240   */\n      add\n        /* \"#utility.yul\":273:276   */\n      dup5\n        /* \"#utility.yul\":264:270   */\n      dup5\n        /* \"#utility.yul\":259:262   */\n      dup5\n        /* \"#utility.yul\":255:271   */\n      add\n        /* \"#utility.yul\":252:277   */\n      gt\n        /* \"#utility.yul\":249:361   */\n      iszero\n      tag_68\n      jumpi\n        /* \"#utility.yul\":280:359   */\n      tag_69\n      tag_70\n      jump\t// in\n    tag_69:\n        /* \"#utility.yul\":249:361   */\n    tag_68:\n        /* \"#utility.yul\":370:411   */\n      tag_71\n        /* \"#utility.yul\":404:410   */\n      dup5\n        /* \"#utility.yul\":399:402   */\n      dup3\n        /* \"#utility.yul\":394:397   */\n      dup6\n        /* \"#utility.yul\":370:411   */\n      tag_72\n      jump\t// in\n    tag_71:\n        /* \"#utility.yul\":90:417   */\n      pop\n        /* \"#utility.yul\":7:417   */\n      swap4\n      swap3\n      pop\n      pop\n      pop\n      jump\t// out\n        /* \"#utility.yul\":436:774   */\n    tag_73:\n        /* \"#utility.yul\":491:496   */\n      0x00\n        /* \"#utility.yul\":540:543   */\n      dup3\n        /* \"#utility.yul\":533:537   */\n      0x1f\n        /* \"#utility.yul\":525:531   */\n      dup4\n        /* \"#utility.yul\":521:538   */\n      add\n        /* \"#utility.yul\":517:544   */\n      slt\n        /* \"#utility.yul\":507:629   */\n      tag_75\n      jumpi\n        /* \"#utility.yul\":548:627   */\n      tag_76\n      tag_77\n      jump\t// in\n    tag_76:\n        /* \"#utility.yul\":507:629   */\n    tag_75:\n        /* \"#utility.yul\":665:671   */\n      dup2\n        /* \"#utility.yul\":652:672   */\n      calldataload\n        /* \"#utility.yul\":690:768   */\n      tag_78\n        /* \"#utility.yul\":764:767   */\n      dup5\n        /* \"#utility.yul\":756:762   */\n      dup3\n        /* \"#utility.yul\":749:753   */\n      0x20\n        /* \"#utility.yul\":741:747   */\n      dup7\n        /* \"#utility.yul\":737:754   */\n      add\n        /* \"#utility.yul\":690:768   */\n      tag_62\n      jump\t// in\n    tag_78:\n        /* \"#utility.yul\":681:768   */\n      swap2\n      pop\n        /* \"#utility.yul\":497:774   */\n      pop\n        /* \"#utility.yul\":436:774   */\n      swap3\n      swap2\n      pop\n      pop\n      jump\t// out\n        /* \"#utility.yul\":780:919   */\n    tag_79:\n        /* \"#utility.yul\":826:831   */\n      0x00\n        /* \"#utility.yul\":864:870   */\n      dup2\n        /* \"#utility.yul\":851:871   */\n      calldataload\n        /* \"#utility.yul\":842:871   */\n      swap1\n      pop\n        /* \"#utility.yul\":880:913   */\n      tag_81\n        /* \"#utility.yul\":907:912   */\n      dup2\n        /* \"#utility.yul\":880:913   */\n      tag_82\n      jump\t// in\n    tag_81:\n        /* \"#utility.yul\":780:919   */\n      swap3\n      swap2\n      pop\n      pop\n      jump\t// out\n        /* \"#utility.yul\":925:1254   */\n    tag_25:\n        /* \"#utility.yul\":984:990   */\n      0x00\n        /* \"#utility.yul\":1033:1035   */\n      0x20\n        /* \"#utility.yul\":1021:1030   */\n      dup3\n        /* \"#utility.yul\":1012:1019   */\n      dup5\n        /* \"#utility.yul\":1008:1031   */\n      sub\n        /* \"#utility.yul\":1004:1036   */\n      slt\n        /* \"#utility.yul\":1001:1120   */\n      iszero\n      tag_84\n      jumpi\n        /* \"#utility.yul\":1039:1118   */\n      tag_85\n      tag_86\n      jump\t// in\n    tag_85:\n        /* \"#utility.yul\":1001:1120   */\n    tag_84:\n        /* \"#utility.yul\":1159:1160   */\n      0x00\n        /* \"#utility.yul\":1184:1237   */\n      tag_87\n        /* \"#utility.yul\":1229:1236   */\n      dup5\n        /* \"#utility.yul\":1220:1226   */\n      dup3\n        /* \"#utility.yul\":1209:1218   */\n      dup6\n        /* \"#utility.yul\":1205:1227   */\n      add\n        /* \"#utility.yul\":1184:1237   */\n      tag_79\n      jump\t// in\n    tag_87:\n        /* \"#utility.yul\":1174:1237   */\n      swap2\n      pop\n        /* \"#utility.yul\":1130:1247   */\n      pop\n        /* \"#utility.yul\":925:1254   */\n      swap3\n      swap2\n      pop\n      pop\n      jump\t// out\n        /* \"#utility.yul\":1260:1912   */\n    tag_13:\n        /* \"#utility.yul\":1337:1343   */\n      0x00\n        /* \"#utility.yul\":1345:1351   */\n      dup1\n        /* \"#utility.yul\":1394:1396   */\n      0x40\n        /* \"#utility.yul\":1382:1391   */\n      dup4\n        /* \"#utility.yul\":1373:1380   */\n      dup6\n        /* \"#utility.yul\":1369:1392   */\n      sub\n        /* \"#utility.yul\":1365:1397   */\n      slt\n        /* \"#utility.yul\":1362:1481   */\n      iszero\n      tag_89\n      jumpi\n        /* \"#utility.yul\":1400:1479   */\n      tag_90\n      tag_86\n      jump\t// in\n    tag_90:\n        /* \"#utility.yul\":1362:1481   */\n    tag_89:\n        /* \"#utility.yul\":1520:1521   */\n      0x00\n        /* \"#utility.yul\":1545:1598   */\n      tag_91\n        /* \"#utility.yul\":1590:1597   */\n      dup6\n        /* \"#utility.yul\":1581:1587   */\n      dup3\n        /* \"#utility.yul\":1570:1579   */\n      dup7\n        /* \"#utility.yul\":1566:1588   */\n      add\n        /* \"#utility.yul\":1545:1598   */\n      tag_79\n      jump\t// in\n    tag_91:\n        /* \"#utility.yul\":1535:1598   */\n      swap3\n      pop\n        /* \"#utility.yul\":1491:1608   */\n      pop\n        /* \"#utility.yul\":1675:1677   */\n      0x20\n        /* \"#utility.yul\":1664:1673   */\n      dup4\n        /* \"#utility.yul\":1660:1678   */\n      add\n        /* \"#utility.yul\":1647:1679   */\n      calldataload\n        /* \"#utility.yul\":1706:1724   */\n      0xffffffffffffffff\n        /* \"#utility.yul\":1698:1704   */\n      dup2\n        /* \"#utility.yul\":1695:1725   */\n      gt\n        /* \"#utility.yul\":1692:1809   */\n      iszero\n      tag_92\n      jumpi\n        /* \"#utility.yul\":1728:1807   */\n      tag_93\n      tag_94\n      jump\t// in\n    tag_93:\n        /* \"#utility.yul\":1692:1809   */\n    tag_92:\n        /* \"#utility.yul\":1833:1895   */\n      tag_95\n        /* \"#utility.yul\":1887:1894   */\n      dup6\n        /* \"#utility.yul\":1878:1884   */\n      dup3\n        /* \"#utility.yul\":1867:1876   */\n      dup7\n        /* \"#utility.yul\":1863:1885   */\n      add\n        /* \"#utility.yul\":1833:1895   */\n      tag_73\n      jump\t// in\n    tag_95:\n        /* \"#utility.yul\":1823:1895   */\n      swap2\n      pop\n        /* \"#utility.yul\":1618:1905   */\n      pop\n        /* \"#utility.yul\":1260:1912   */\n      swap3\n      pop\n      swap3\n      swap1\n      pop\n      jump\t// out\n        /* \"#utility.yul\":1918:2060   */\n    tag_96:\n        /* \"#utility.yul\":2021:2053   */\n      tag_98\n        /* \"#utility.yul\":2047:2052   */\n      dup2\n        /* \"#utility.yul\":2021:2053   */\n      tag_99\n      jump\t// in\n    tag_98:\n        /* \"#utility.yul\":2016:2019   */\n      dup3\n        /* \"#utility.yul\":2009:2054   */\n      mstore\n        /* \"#utility.yul\":1918:2060   */\n      pop\n      pop\n      jump\t// out\n        /* \"#utility.yul\":2066:2184   */\n    tag_100:\n        /* \"#utility.yul\":2153:2177   */\n      tag_102\n        /* \"#utility.yul\":2171:2176   */\n      dup2\n        /* \"#utility.yul\":2153:2177   */\n      tag_103\n      jump\t// in\n    tag_102:\n        /* \"#utility.yul\":2148:2151   */\n      dup3\n        /* \"#utility.yul\":2141:2178   */\n      mstore\n        /* \"#utility.yul\":2066:2184   */\n      pop\n      pop\n      jump\t// out\n        /* \"#utility.yul\":2190:2347   */\n    tag_104:\n        /* \"#utility.yul\":2295:2340   */\n      tag_106\n        /* \"#utility.yul\":2315:2339   */\n      tag_107\n        /* \"#utility.yul\":2333:2338   */\n      dup3\n        /* \"#utility.yul\":2315:2339   */\n      tag_103\n      jump\t// in\n    tag_107:\n        /* \"#utility.yul\":2295:2340   */\n      tag_108\n      jump\t// in\n    tag_106:\n        /* \"#utility.yul\":2290:2293   */\n      dup3\n        /* \"#utility.yul\":2283:2341   */\n      mstore\n        /* \"#utility.yul\":2190:2347   */\n      pop\n      pop\n      jump\t// out\n        /* \"#utility.yul\":2353:2555   */\n    tag_109:\n        /* \"#utility.yul\":2474:2548   */\n      tag_111\n        /* \"#utility.yul\":2494:2547   */\n      tag_112\n        /* \"#utility.yul\":2541:2546   */\n      dup3\n        /* \"#utility.yul\":2494:2547   */\n      tag_113\n      jump\t// in\n    tag_112:\n        /* \"#utility.yul\":2474:2548   */\n      tag_114\n      jump\t// in\n    tag_111:\n        /* \"#utility.yul\":2469:2472   */\n      dup3\n        /* \"#utility.yul\":2462:2549   */\n      mstore\n        /* \"#utility.yul\":2353:2555   */\n      pop\n      pop\n      jump\t// out\n        /* \"#utility.yul\":2561:2963   */\n    tag_115:\n        /* \"#utility.yul\":2721:2724   */\n      0x00\n        /* \"#utility.yul\":2742:2827   */\n      tag_117\n        /* \"#utility.yul\":2824:2826   */\n      0x1c\n        /* \"#utility.yul\":2819:2822   */\n      dup4\n        /* \"#utility.yul\":2742:2827   */\n      tag_118\n      jump\t// in\n    tag_117:\n        /* \"#utility.yul\":2735:2827   */\n      swap2\n      pop\n        /* \"#utility.yul\":2836:2929   */\n      tag_119\n        /* \"#utility.yul\":2925:2928   */\n      dup3\n        /* \"#utility.yul\":2836:2929   */\n      tag_120\n      jump\t// in\n    tag_119:\n        /* \"#utility.yul\":2954:2956   */\n      0x1c\n        /* \"#utility.yul\":2949:2952   */\n      dup3\n        /* \"#utility.yul\":2945:2957   */\n      add\n        /* \"#utility.yul\":2938:2957   */\n      swap1\n      pop\n        /* \"#utility.yul\":2561:2963   */\n      swap2\n      swap1\n      pop\n      jump\t// out\n        /* \"#utility.yul\":2969:3087   */\n    tag_121:\n        /* \"#utility.yul\":3056:3080   */\n      tag_123\n        /* \"#utility.yul\":3074:3079   */\n      dup2\n        /* \"#utility.yul\":3056:3080   */\n      tag_124\n      jump\t// in\n    tag_123:\n        /* \"#utility.yul\":3051:3054   */\n      dup3\n        /* \"#utility.yul\":3044:3081   */\n      mstore\n        /* \"#utility.yul\":2969:3087   */\n      pop\n      pop\n      jump\t// out\n        /* \"#utility.yul\":3093:3250   */\n    tag_125:\n        /* \"#utility.yul\":3198:3243   */\n      tag_127\n        /* \"#utility.yul\":3218:3242   */\n      tag_128\n        /* \"#utility.yul\":3236:3241   */\n      dup3\n        /* \"#utility.yul\":3218:3242   */\n      tag_124\n      jump\t// in\n    tag_128:\n        /* \"#utility.yul\":3198:3243   */\n      tag_129\n      jump\t// in\n    tag_127:\n        /* \"#utility.yul\":3193:3196   */\n      dup3\n        /* \"#utility.yul\":3186:3244   */\n      mstore\n        /* \"#utility.yul\":3093:3250   */\n      pop\n      pop\n      jump\t// out\n        /* \"#utility.yul\":3256:3368   */\n    tag_130:\n        /* \"#utility.yul\":3339:3361   */\n      tag_132\n        /* \"#utility.yul\":3355:3360   */\n      dup2\n        /* \"#utility.yul\":3339:3361   */\n      tag_133\n      jump\t// in\n    tag_132:\n        /* \"#utility.yul\":3334:3337   */\n      dup3\n        /* \"#utility.yul\":3327:3362   */\n      mstore\n        /* \"#utility.yul\":3256:3368   */\n      pop\n      pop\n      jump\t// out\n        /* \"#utility.yul\":3374:3803   */\n    tag_45:\n        /* \"#utility.yul\":3530:3533   */\n      0x00\n        /* \"#utility.yul\":3545:3636   */\n      tag_135\n        /* \"#utility.yul\":3632:3635   */\n      dup3\n        /* \"#utility.yul\":3623:3629   */\n      dup6\n        /* \"#utility.yul\":3545:3636   */\n      tag_109\n      jump\t// in\n    tag_135:\n        /* \"#utility.yul\":3661:3663   */\n      0x14\n        /* \"#utility.yul\":3656:3659   */\n      dup3\n        /* \"#utility.yul\":3652:3664   */\n      add\n        /* \"#utility.yul\":3645:3664   */\n      swap2\n      pop\n        /* \"#utility.yul\":3674:3749   */\n      tag_136\n        /* \"#utility.yul\":3745:3748   */\n      dup3\n        /* \"#utility.yul\":3736:3742   */\n      dup5\n        /* \"#utility.yul\":3674:3749   */\n      tag_125\n      jump\t// in\n    tag_136:\n        /* \"#utility.yul\":3774:3776   */\n      0x20\n        /* \"#utility.yul\":3769:3772   */\n      dup3\n        /* \"#utility.yul\":3765:3777   */\n      add\n        /* \"#utility.yul\":3758:3777   */\n      swap2\n      pop\n        /* \"#utility.yul\":3794:3797   */\n      dup2\n        /* \"#utility.yul\":3787:3797   */\n      swap1\n      pop\n        /* \"#utility.yul\":3374:3803   */\n      swap4\n      swap3\n      pop\n      pop\n      pop\n      jump\t// out\n        /* \"#utility.yul\":3809:4331   */\n    tag_51:\n        /* \"#utility.yul\":4022:4025   */\n      0x00\n        /* \"#utility.yul\":4044:4192   */\n      tag_138\n        /* \"#utility.yul\":4188:4191   */\n      dup3\n        /* \"#utility.yul\":4044:4192   */\n      tag_115\n      jump\t// in\n    tag_138:\n        /* \"#utility.yul\":4037:4192   */\n      swap2\n      pop\n        /* \"#utility.yul\":4202:4277   */\n      tag_139\n        /* \"#utility.yul\":4273:4276   */\n      dup3\n        /* \"#utility.yul\":4264:4270   */\n      dup5\n        /* \"#utility.yul\":4202:4277   */\n      tag_104\n      jump\t// in\n    tag_139:\n        /* \"#utility.yul\":4302:4304   */\n      0x20\n        /* \"#utility.yul\":4297:4300   */\n      dup3\n        /* \"#utility.yul\":4293:4305   */\n      add\n        /* \"#utility.yul\":4286:4305   */\n      swap2\n      pop\n        /* \"#utility.yul\":4322:4325   */\n      dup2\n        /* \"#utility.yul\":4315:4325   */\n      swap1\n      pop\n        /* \"#utility.yul\":3809:4331   */\n      swap3\n      swap2\n      pop\n      pop\n      jump\t// out\n        /* \"#utility.yul\":4337:4591   */\n    tag_22:\n        /* \"#utility.yul\":4446:4450   */\n      0x00\n        /* \"#utility.yul\":4484:4486   */\n      0x20\n        /* \"#utility.yul\":4473:4482   */\n      dup3\n        /* \"#utility.yul\":4469:4487   */\n      add\n        /* \"#utility.yul\":4461:4487   */\n      swap1\n      pop\n        /* \"#utility.yul\":4497:4584   */\n      tag_141\n        /* \"#utility.yul\":4581:4582   */\n      0x00\n        /* \"#utility.yul\":4570:4579   */\n      dup4\n        /* \"#utility.yul\":4566:4583   */\n      add\n        /* \"#utility.yul\":4557:4563   */\n      dup5\n        /* \"#utility.yul\":4497:4584   */\n      tag_96\n      jump\t// in\n    tag_141:\n        /* \"#utility.yul\":4337:4591   */\n      swap3\n      swap2\n      pop\n      pop\n      jump\t// out\n        /* \"#utility.yul\":4597:5142   */\n    tag_56:\n        /* \"#utility.yul\":4770:4774   */\n      0x00\n        /* \"#utility.yul\":4808:4811   */\n      0x80\n        /* \"#utility.yul\":4797:4806   */\n      dup3\n        /* \"#utility.yul\":4793:4812   */\n      add\n        /* \"#utility.yul\":4785:4812   */\n      swap1\n      pop\n        /* \"#utility.yul\":4822:4893   */\n      tag_143\n        /* \"#utility.yul\":4890:4891   */\n      0x00\n        /* \"#utility.yul\":4879:4888   */\n      dup4\n        /* \"#utility.yul\":4875:4892   */\n      add\n        /* \"#utility.yul\":4866:4872   */\n      dup8\n        /* \"#utility.yul\":4822:4893   */\n      tag_100\n      jump\t// in\n    tag_143:\n        /* \"#utility.yul\":4903:4971   */\n      tag_144\n        /* \"#utility.yul\":4967:4969   */\n      0x20\n        /* \"#utility.yul\":4956:4965   */\n      dup4\n        /* \"#utility.yul\":4952:4970   */\n      add\n        /* \"#utility.yul\":4943:4949   */\n      dup7\n        /* \"#utility.yul\":4903:4971   */\n      tag_130\n      jump\t// in\n    tag_144:\n        /* \"#utility.yul\":4981:5053   */\n      tag_145\n        /* \"#utility.yul\":5049:5051   */\n      0x40\n        /* \"#utility.yul\":5038:5047   */\n      dup4\n        /* \"#utility.yul\":5034:5052   */\n      add\n        /* \"#utility.yul\":5025:5031   */\n      dup6\n        /* \"#utility.yul\":4981:5053   */\n      tag_100\n      jump\t// in\n    tag_145:\n        /* \"#utility.yul\":5063:5135   */\n      tag_146\n        /* \"#utility.yul\":5131:5133   */\n      0x60\n        /* \"#utility.yul\":5120:5129   */\n      dup4\n        /* \"#utility.yul\":5116:5134   */\n      add\n        /* \"#utility.yul\":5107:5113   */\n      dup5\n        /* \"#utility.yul\":5063:5135   */\n      tag_100\n      jump\t// in\n    tag_146:\n        /* \"#utility.yul\":4597:5142   */\n      swap6\n      swap5\n      pop\n      pop\n      pop\n      pop\n      pop\n      jump\t// out\n        /* \"#utility.yul\":5148:5370   */\n    tag_18:\n        /* \"#utility.yul\":5241:5245   */\n      0x00\n        /* \"#utility.yul\":5279:5281   */\n      0x20\n        /* \"#utility.yul\":5268:5277   */\n      dup3\n        /* \"#utility.yul\":5264:5282   */\n      add\n        /* \"#utility.yul\":5256:5282   */\n      swap1\n      pop\n        /* \"#utility.yul\":5292:5363   */\n      tag_148\n        /* \"#utility.yul\":5360:5361   */\n      0x00\n        /* \"#utility.yul\":5349:5358   */\n      dup4\n        /* \"#utility.yul\":5345:5362   */\n      add\n        /* \"#utility.yul\":5336:5342   */\n      dup5\n        /* \"#utility.yul\":5292:5363   */\n      tag_121\n      jump\t// in\n    tag_148:\n        /* \"#utility.yul\":5148:5370   */\n      swap3\n      swap2\n      pop\n      pop\n      jump\t// out\n        /* \"#utility.yul\":5376:5505   */\n    tag_67:\n        /* \"#utility.yul\":5410:5416   */\n      0x00\n        /* \"#utility.yul\":5437:5457   */\n      tag_150\n      tag_151\n      jump\t// in\n    tag_150:\n        /* \"#utility.yul\":5427:5457   */\n      swap1\n      pop\n        /* \"#utility.yul\":5466:5499   */\n      tag_152\n        /* \"#utility.yul\":5494:5498   */\n      dup3\n        /* \"#utility.yul\":5486:5492   */\n      dup3\n        /* \"#utility.yul\":5466:5499   */\n      tag_153\n      jump\t// in\n    tag_152:\n        /* \"#utility.yul\":5376:5505   */\n      swap2\n      swap1\n      pop\n      jump\t// out\n        /* \"#utility.yul\":5511:5586   */\n    tag_151:\n        /* \"#utility.yul\":5544:5550   */\n      0x00\n        /* \"#utility.yul\":5577:5579   */\n      0x40\n        /* \"#utility.yul\":5571:5580   */\n      mload\n        /* \"#utility.yul\":5561:5580   */\n      swap1\n      pop\n        /* \"#utility.yul\":5511:5586   */\n      swap1\n      jump\t// out\n        /* \"#utility.yul\":5592:5899   */\n    tag_66:\n        /* \"#utility.yul\":5653:5657   */\n      0x00\n        /* \"#utility.yul\":5743:5761   */\n      0xffffffffffffffff\n        /* \"#utility.yul\":5735:5741   */\n      dup3\n        /* \"#utility.yul\":5732:5762   */\n      gt\n        /* \"#utility.yul\":5729:5785   */\n      iszero\n      tag_156\n      jumpi\n        /* \"#utility.yul\":5765:5783   */\n      tag_157\n      tag_158\n      jump\t// in\n    tag_157:\n        /* \"#utility.yul\":5729:5785   */\n    tag_156:\n        /* \"#utility.yul\":5803:5832   */\n      tag_159\n        /* \"#utility.yul\":5825:5831   */\n      dup3\n        /* \"#utility.yul\":5803:5832   */\n      tag_160\n      jump\t// in\n    tag_159:\n        /* \"#utility.yul\":5795:5832   */\n      swap1\n      pop\n        /* \"#utility.yul\":5887:5891   */\n      0x20\n        /* \"#utility.yul\":5881:5885   */\n      dup2\n        /* \"#utility.yul\":5877:5892   */\n      add\n        /* \"#utility.yul\":5869:5892   */\n      swap1\n      pop\n        /* \"#utility.yul\":5592:5899   */\n      swap2\n      swap1\n      pop\n      jump\t// out\n        /* \"#utility.yul\":5905:6053   */\n    tag_118:\n        /* \"#utility.yul\":6007:6018   */\n      0x00\n        /* \"#utility.yul\":6044:6047   */\n      dup2\n        /* \"#utility.yul\":6029:6047   */\n      swap1\n      pop\n        /* \"#utility.yul\":5905:6053   */\n      swap3\n      swap2\n      pop\n      pop\n      jump\t// out\n        /* \"#utility.yul\":6059:6163   */\n    tag_99:\n        /* \"#utility.yul\":6104:6111   */\n      0x00\n        /* \"#utility.yul\":6133:6157   */\n      tag_163\n        /* \"#utility.yul\":6151:6156   */\n      dup3\n        /* \"#utility.yul\":6133:6157   */\n      tag_164\n      jump\t// in\n    tag_163:\n        /* \"#utility.yul\":6122:6157   */\n      swap1\n      pop\n        /* \"#utility.yul\":6059:6163   */\n      swap2\n      swap1\n      pop\n      jump\t// out\n        /* \"#utility.yul\":6169:6246   */\n    tag_103:\n        /* \"#utility.yul\":6206:6213   */\n      0x00\n        /* \"#utility.yul\":6235:6240   */\n      dup2\n        /* \"#utility.yul\":6224:6240   */\n      swap1\n      pop\n        /* \"#utility.yul\":6169:6246   */\n      swap2\n      swap1\n      pop\n      jump\t// out\n        /* \"#utility.yul\":6252:6378   */\n    tag_164:\n        /* \"#utility.yul\":6289:6296   */\n      0x00\n        /* \"#utility.yul\":6329:6371   */\n      0xffffffffffffffffffffffffffffffffffffffff\n        /* \"#utility.yul\":6322:6327   */\n      dup3\n        /* \"#utility.yul\":6318:6372   */\n      and\n        /* \"#utility.yul\":6307:6372   */\n      swap1\n      pop\n        /* \"#utility.yul\":6252:6378   */\n      swap2\n      swap1\n      pop\n      jump\t// out\n        /* \"#utility.yul\":6384:6461   */\n    tag_124:\n        /* \"#utility.yul\":6421:6428   */\n      0x00\n        /* \"#utility.yul\":6450:6455   */\n      dup2\n        /* \"#utility.yul\":6439:6455   */\n      swap1\n      pop\n        /* \"#utility.yul\":6384:6461   */\n      swap2\n      swap1\n      pop\n      jump\t// out\n        /* \"#utility.yul\":6467:6553   */\n    tag_133:\n        /* \"#utility.yul\":6502:6509   */\n      0x00\n        /* \"#utility.yul\":6542:6546   */\n      0xff\n        /* \"#utility.yul\":6535:6540   */\n      dup3\n        /* \"#utility.yul\":6531:6547   */\n      and\n        /* \"#utility.yul\":6520:6547   */\n      swap1\n      pop\n        /* \"#utility.yul\":6467:6553   */\n      swap2\n      swap1\n      pop\n      jump\t// out\n        /* \"#utility.yul\":6559:6701   */\n    tag_113:\n        /* \"#utility.yul\":6625:6634   */\n      0x00\n        /* \"#utility.yul\":6658:6695   */\n      tag_170\n        /* \"#utility.yul\":6689:6694   */\n      dup3\n        /* \"#utility.yul\":6658:6695   */\n      tag_171\n      jump\t// in\n    tag_170:\n        /* \"#utility.yul\":6645:6695   */\n      swap1\n      pop\n        /* \"#utility.yul\":6559:6701   */\n      swap2\n      swap1\n      pop\n      jump\t// out\n        /* \"#utility.yul\":6707:6833   */\n    tag_171:\n        /* \"#utility.yul\":6757:6766   */\n      0x00\n        /* \"#utility.yul\":6790:6827   */\n      tag_173\n        /* \"#utility.yul\":6821:6826   */\n      dup3\n        /* \"#utility.yul\":6790:6827   */\n      tag_174\n      jump\t// in\n    tag_173:\n        /* \"#utility.yul\":6777:6827   */\n      swap1\n      pop\n        /* \"#utility.yul\":6707:6833   */\n      swap2\n      swap1\n      pop\n      jump\t// out\n        /* \"#utility.yul\":6839:6952   */\n    tag_174:\n        /* \"#utility.yul\":6889:6898   */\n      0x00\n        /* \"#utility.yul\":6922:6946   */\n      tag_176\n        /* \"#utility.yul\":6940:6945   */\n      dup3\n        /* \"#utility.yul\":6922:6946   */\n      tag_164\n      jump\t// in\n    tag_176:\n        /* \"#utility.yul\":6909:6946   */\n      swap1\n      pop\n        /* \"#utility.yul\":6839:6952   */\n      swap2\n      swap1\n      pop\n      jump\t// out\n        /* \"#utility.yul\":6958:7112   */\n    tag_72:\n        /* \"#utility.yul\":7042:7048   */\n      dup3\n        /* \"#utility.yul\":7037:7040   */\n      dup2\n        /* \"#utility.yul\":7032:7035   */\n      dup4\n        /* \"#utility.yul\":7019:7049   */\n      calldatacopy\n        /* \"#utility.yul\":7104:7105   */\n      0x00\n        /* \"#utility.yul\":7095:7101   */\n      dup4\n        /* \"#utility.yul\":7090:7093   */\n      dup4\n        /* \"#utility.yul\":7086:7102   */\n      add\n        /* \"#utility.yul\":7079:7106   */\n      mstore\n        /* \"#utility.yul\":6958:7112   */\n      pop\n      pop\n      pop\n      jump\t// out\n        /* \"#utility.yul\":7118:7399   */\n    tag_153:\n        /* \"#utility.yul\":7201:7228   */\n      tag_179\n        /* \"#utility.yul\":7223:7227   */\n      dup3\n        /* \"#utility.yul\":7201:7228   */\n      tag_160\n      jump\t// in\n    tag_179:\n        /* \"#utility.yul\":7193:7199   */\n      dup2\n        /* \"#utility.yul\":7189:7229   */\n      add\n        /* \"#utility.yul\":7331:7337   */\n      dup2\n        /* \"#utility.yul\":7319:7329   */\n      dup2\n        /* \"#utility.yul\":7316:7338   */\n      lt\n        /* \"#utility.yul\":7295:7313   */\n      0xffffffffffffffff\n        /* \"#utility.yul\":7283:7293   */\n      dup3\n        /* \"#utility.yul\":7280:7314   */\n      gt\n        /* \"#utility.yul\":7277:7339   */\n      or\n        /* \"#utility.yul\":7274:7362   */\n      iszero\n      tag_180\n      jumpi\n        /* \"#utility.yul\":7342:7360   */\n      tag_181\n      tag_158\n      jump\t// in\n    tag_181:\n        /* \"#utility.yul\":7274:7362   */\n    tag_180:\n        /* \"#utility.yul\":7382:7392   */\n      dup1\n        /* \"#utility.yul\":7378:7380   */\n      0x40\n        /* \"#utility.yul\":7371:7393   */\n      mstore\n        /* \"#utility.yul\":7161:7399   */\n      pop\n        /* \"#utility.yul\":7118:7399   */\n      pop\n      pop\n      jump\t// out\n        /* \"#utility.yul\":7405:7505   */\n    tag_114:\n        /* \"#utility.yul\":7444:7451   */\n      0x00\n        /* \"#utility.yul\":7473:7499   */\n      tag_183\n        /* \"#utility.yul\":7493:7498   */\n      dup3\n        /* \"#utility.yul\":7473:7499   */\n      tag_184\n      jump\t// in\n    tag_183:\n        /* \"#utility.yul\":7462:7499   */\n      swap1\n      pop\n        /* \"#utility.yul\":7405:7505   */\n      swap2\n      swap1\n      pop\n      jump\t// out\n        /* \"#utility.yul\":7511:7590   */\n    tag_108:\n        /* \"#utility.yul\":7550:7557   */\n      0x00\n        /* \"#utility.yul\":7579:7584   */\n      dup2\n        /* \"#utility.yul\":7568:7584   */\n      swap1\n      pop\n        /* \"#utility.yul\":7511:7590   */\n      swap2\n      swap1\n      pop\n      jump\t// out\n        /* \"#utility.yul\":7596:7690   */\n    tag_184:\n        /* \"#utility.yul\":7635:7642   */\n      0x00\n        /* \"#utility.yul\":7664:7684   */\n      tag_187\n        /* \"#utility.yul\":7678:7683   */\n      dup3\n        /* \"#utility.yul\":7664:7684   */\n      tag_188\n      jump\t// in\n    tag_187:\n        /* \"#utility.yul\":7653:7684   */\n      swap1\n      pop\n        /* \"#utility.yul\":7596:7690   */\n      swap2\n      swap1\n      pop\n      jump\t// out\n        /* \"#utility.yul\":7696:7775   */\n    tag_129:\n        /* \"#utility.yul\":7735:7742   */\n      0x00\n        /* \"#utility.yul\":7764:7769   */\n      dup2\n        /* \"#utility.yul\":7753:7769   */\n      swap1\n      pop\n        /* \"#utility.yul\":7696:7775   */\n      swap2\n      swap1\n      pop\n      jump\t// out\n        /* \"#utility.yul\":7781:7961   */\n    tag_158:\n        /* \"#utility.yul\":7829:7906   */\n      0x4e487b7100000000000000000000000000000000000000000000000000000000\n        /* \"#utility.yul\":7826:7827   */\n      0x00\n        /* \"#utility.yul\":7819:7907   */\n      mstore\n        /* \"#utility.yul\":7926:7930   */\n      0x41\n        /* \"#utility.yul\":7923:7924   */\n      0x04\n        /* \"#utility.yul\":7916:7931   */\n      mstore\n        /* \"#utility.yul\":7950:7954   */\n      0x24\n        /* \"#utility.yul\":7947:7948   */\n      0x00\n        /* \"#utility.yul\":7940:7955   */\n      revert\n        /* \"#utility.yul\":7967:8084   */\n    tag_77:\n        /* \"#utility.yul\":8076:8077   */\n      0x00\n        /* \"#utility.yul\":8073:8074   */\n      dup1\n        /* \"#utility.yul\":8066:8078   */\n      revert\n        /* \"#utility.yul\":8090:8207   */\n    tag_70:\n        /* \"#utility.yul\":8199:8200   */\n      0x00\n        /* \"#utility.yul\":8196:8197   */\n      dup1\n        /* \"#utility.yul\":8189:8201   */\n      revert\n        /* \"#utility.yul\":8213:8330   */\n    tag_94:\n        /* \"#utility.yul\":8322:8323   */\n      0x00\n        /* \"#utility.yul\":8319:8320   */\n      dup1\n        /* \"#utility.yul\":8312:8324   */\n      revert\n        /* \"#utility.yul\":8336:8453   */\n    tag_86:\n        /* \"#utility.yul\":8445:8446   */\n      0x00\n        /* \"#utility.yul\":8442:8443   */\n      dup1\n        /* \"#utility.yul\":8435:8447   */\n      revert\n        /* \"#utility.yul\":8459:8561   */\n    tag_160:\n        /* \"#utility.yul\":8500:8506   */\n      0x00\n        /* \"#utility.yul\":8551:8553   */\n      0x1f\n        /* \"#utility.yul\":8547:8554   */\n      not\n        /* \"#utility.yul\":8542:8544   */\n      0x1f\n        /* \"#utility.yul\":8535:8540   */\n      dup4\n        /* \"#utility.yul\":8531:8545   */\n      add\n        /* \"#utility.yul\":8527:8555   */\n      and\n        /* \"#utility.yul\":8517:8555   */\n      swap1\n      pop\n        /* \"#utility.yul\":8459:8561   */\n      swap2\n      swap1\n      pop\n      jump\t// out\n        /* \"#utility.yul\":8567:8661   */\n    tag_188:\n        /* \"#utility.yul\":8600:8608   */\n      0x00\n        /* \"#utility.yul\":8648:8653   */\n      dup2\n        /* \"#utility.yul\":8644:8646   */\n      0x60\n        /* \"#utility.yul\":8640:8654   */\n      shl\n        /* \"#utility.yul\":8619:8654   */\n      swap1\n      pop\n        /* \"#utility.yul\":8567:8661   */\n      swap2\n      swap1\n      pop\n      jump\t// out\n        /* \"#utility.yul\":8667:8881   */\n    tag_120:\n        /* \"#utility.yul\":8807:8873   */\n      0x19457468657265756d205369676e6564204d6573736167653a0a333200000000\n        /* \"#utility.yul\":8803:8804   */\n      0x00\n        /* \"#utility.yul\":8795:8801   */\n      dup3\n        /* \"#utility.yul\":8791:8805   */\n      add\n        /* \"#utility.yul\":8784:8874   */\n      mstore\n        /* \"#utility.yul\":8667:8881   */\n      pop\n      jump\t// out\n        /* \"#utility.yul\":8887:9009   */\n    tag_82:\n        /* \"#utility.yul\":8960:8984   */\n      tag_199\n        /* \"#utility.yul\":8978:8983   */\n      dup2\n        /* \"#utility.yul\":8960:8984   */\n      tag_124\n      jump\t// in\n    tag_199:\n        /* \"#utility.yul\":8953:8958   */\n      dup2\n        /* \"#utility.yul\":8950:8985   */\n      eq\n        /* \"#utility.yul\":8940:9003   */\n      tag_200\n      jumpi\n        /* \"#utility.yul\":8999:9000   */\n      0x00\n        /* \"#utility.yul\":8996:8997   */\n      dup1\n        /* \"#utility.yul\":8989:9001   */\n      revert\n        /* \"#utility.yul\":8940:9003   */\n    tag_200:\n        /* \"#utility.yul\":8887:9009   */\n      pop\n      jump\t// out\n\n    auxdata: 0xa2646970667358221220212c59e34810217a09a8810a62a297d8cf43ccbe2de5aa601e37c0a1de9c5d9464736f6c63430008070033\n}\n",
				"bytecode": {
					"linkReferences": {},
					"object": "608060405260405162000b8838038062000b888339818101604052810190620000299190620000f4565b336000806101000a81548173ffffffffffffffffffffffffffffffffffffffff021916908373ffffffffffffffffffffffffffffffffffffffff16021790555081600160006101000a81548173ffffffffffffffffffffffffffffffffffffffff021916908373ffffffffffffffffffffffffffffffffffffffff1602179055508042620000b891906200013b565b60028190555050506200023e565b600081519050620000d7816200020a565b92915050565b600081519050620000ee8162000224565b92915050565b600080604083850312156200010e576200010d62000205565b5b60006200011e85828601620000c6565b92505060206200013185828601620000dd565b9150509250929050565b60006200014882620001cc565b91506200015583620001cc565b9250827fffffffffffffffffffffffffffffffffffffffffffffffffffffffffffffffff038211156200018d576200018c620001d6565b5b828201905092915050565b6000620001a582620001ac565b9050919050565b600073ffffffffffffffffffffffffffffffffffffffff82169050919050565b6000819050919050565b7f4e487b7100000000000000000000000000000000000000000000000000000000600052601160045260246000fd5b600080fd5b620002158162000198565b81146200022157600080fd5b50565b6200022f81620001cc565b81146200023b57600080fd5b50565b61093a806200024e6000396000f3fe608060405234801561001057600080fd5b50600436106100625760003560e01c80630e1da6c314610067578063415ffba7146100715780634665096d1461008d5780636ecc5d62146100ab5780639714378c146100c9578063c11ae86f146100e5575b600080fd5b61006f610103565b005b61008b60048036038101906100869190610534565b61014b565b005b61009561025a565b6040516100a291906106e6565b60405180910390f35b6100b3610260565b6040516100c09190610686565b60405180910390f35b6100e360048036038101906100de9190610507565b610286565b005b6100ed6102f6565b6040516100fa9190610686565b60405180910390f35b60025442101561011257600080fd5b60008054906101000a900473ffffffffffffffffffffffffffffffffffffffff1673ffffffffffffffffffffffffffffffffffffffff16ff5b600160009054906101000a900473ffffffffffffffffffffffffffffffffffffffff1673ffffffffffffffffffffffffffffffffffffffff163373ffffffffffffffffffffffffffffffffffffffff16146101a557600080fd5b6101af828261031a565b6101b857600080fd5b600160009054906101000a900473ffffffffffffffffffffffffffffffffffffffff1673ffffffffffffffffffffffffffffffffffffffff166108fc839081150290604051600060405180830381858888f19350505050158015610220573d6000803e3d6000fd5b5060008054906101000a900473ffffffffffffffffffffffffffffffffffffffff1673ffffffffffffffffffffffffffffffffffffffff16ff5b60025481565b600160009054906101000a900473ffffffffffffffffffffffffffffffffffffffff1681565b60008054906101000a900473ffffffffffffffffffffffffffffffffffffffff1673ffffffffffffffffffffffffffffffffffffffff163373ffffffffffffffffffffffffffffffffffffffff16146102de57600080fd5b60025481116102ec57600080fd5b8060028190555050565b60008054906101000a900473ffffffffffffffffffffffffffffffffffffffff1681565b60008061034e3085604051602001610333929190610634565b604051602081830303815290604052805190602001206103b1565b905060008054906101000a900473ffffffffffffffffffffffffffffffffffffffff1673ffffffffffffffffffffffffffffffffffffffff1661039182856103e1565b73ffffffffffffffffffffffffffffffffffffffff161491505092915050565b6000816040516020016103c49190610660565b604051602081830303815290604052805190602001209050919050565b6000806000806103f085610450565b9250925092506001868484846040516000815260200160405260405161041994939291906106a1565b6020604051602081039080840390855afa15801561043b573d6000803e3d6000fd5b50505060206040510351935050505092915050565b6000806000604184511461046357600080fd5b6020840151915060408401519050606084015160001a92509193909250565b600061049561049084610726565b610701565b9050828152602081018484840111156104b1576104b0610897565b5b6104bc8482856107eb565b509392505050565b600082601f8301126104d9576104d8610892565b5b81356104e9848260208601610482565b91505092915050565b600081359050610501816108ed565b92915050565b60006020828403121561051d5761051c6108a1565b5b600061052b848285016104f2565b91505092915050565b6000806040838503121561054b5761054a6108a1565b5b6000610559858286016104f2565b925050602083013567ffffffffffffffff81111561057a5761057961089c565b5b610586858286016104c4565b9150509250929050565b61059981610762565b82525050565b6105a881610774565b82525050565b6105bf6105ba82610774565b61083d565b82525050565b6105d66105d1826107b5565b61082b565b82525050565b60006105e9601c83610757565b91506105f4826108c4565b601c82019050919050565b6106088161079e565b82525050565b61061f61061a8261079e565b610859565b82525050565b61062e816107a8565b82525050565b600061064082856105c5565b601482019150610650828461060e565b6020820191508190509392505050565b600061066b826105dc565b915061067782846105ae565b60208201915081905092915050565b600060208201905061069b6000830184610590565b92915050565b60006080820190506106b6600083018761059f565b6106c36020830186610625565b6106d0604083018561059f565b6106dd606083018461059f565b95945050505050565b60006020820190506106fb60008301846105ff565b92915050565b600061070b61071c565b905061071782826107fa565b919050565b6000604051905090565b600067ffffffffffffffff82111561074157610740610863565b5b61074a826108a6565b9050602081019050919050565b600081905092915050565b600061076d8261077e565b9050919050565b6000819050919050565b600073ffffffffffffffffffffffffffffffffffffffff82169050919050565b6000819050919050565b600060ff82169050919050565b60006107c0826107c7565b9050919050565b60006107d2826107d9565b9050919050565b60006107e48261077e565b9050919050565b82818337600083830152505050565b610803826108a6565b810181811067ffffffffffffffff8211171561082257610821610863565b5b80604052505050565b600061083682610847565b9050919050565b6000819050919050565b6000610852826108b7565b9050919050565b6000819050919050565b7f4e487b7100000000000000000000000000000000000000000000000000000000600052604160045260246000fd5b600080fd5b600080fd5b600080fd5b600080fd5b6000601f19601f8301169050919050565b60008160601b9050919050565b7f19457468657265756d205369676e6564204d6573736167653a0a333200000000600082015250565b6108f68161079e565b811461090157600080fd5b5056fea2646970667358221220212c59e34810217a09a8810a62a297d8cf43ccbe2de5aa601e37c0a1de9c5d9464736f6c63430008070033",
					"opcodes": "PUSH1 0x80 PUSH1 0x40 MSTORE PUSH1 0x40 MLOAD PUSH3 0xB88 CODESIZE SUB DUP1 PUSH3 0xB88 DUP4 CODECOPY DUP2 DUP2 ADD PUSH1 0x40 MSTORE DUP2 ADD SWAP1 PUSH3 0x29 SWAP2 SWAP1 PUSH3 0xF4 JUMP JUMPDEST CALLER PUSH1 0x0 DUP1 PUSH2 0x100 EXP DUP2 SLOAD DUP2 PUSH20 0xFFFFFFFFFFFFFFFFFFFFFFFFFFFFFFFFFFFFFFFF MUL NOT AND SWAP1 DUP4 PUSH20 0xFFFFFFFFFFFFFFFFFFFFFFFFFFFFFFFFFFFFFFFF AND MUL OR SWAP1 SSTORE POP DUP2 PUSH1 0x1 PUSH1 0x0 PUSH2 0x100 EXP DUP2 SLOAD DUP2 PUSH20 0xFFFFFFFFFFFFFFFFFFFFFFFFFFFFFFFFFFFFFFFF MUL NOT AND SWAP1 DUP4 PUSH20 0xFFFFFFFFFFFFFFFFFFFFFFFFFFFFFFFFFFFFFFFF AND MUL OR SWAP1 SSTORE POP DUP1 TIMESTAMP PUSH3 0xB8 SWAP2 SWAP1 PUSH3 0x13B JUMP JUMPDEST PUSH1 0x2 DUP2 SWAP1 SSTORE POP POP POP PUSH3 0x23E JUMP JUMPDEST PUSH1 0x0 DUP2 MLOAD SWAP1 POP PUSH3 0xD7 DUP2 PUSH3 0x20A JUMP JUMPDEST SWAP3 SWAP2 POP POP JUMP JUMPDEST PUSH1 0x0 DUP2 MLOAD SWAP1 POP PUSH3 0xEE DUP2 PUSH3 0x224 JUMP JUMPDEST SWAP3 SWAP2 POP POP JUMP JUMPDEST PUSH1 0x0 DUP1 PUSH1 0x40 DUP4 DUP6 SUB SLT ISZERO PUSH3 0x10E JUMPI PUSH3 0x10D PUSH3 0x205 JUMP JUMPDEST JUMPDEST PUSH1 0x0 PUSH3 0x11E DUP6 DUP3 DUP7 ADD PUSH3 0xC6 JUMP JUMPDEST SWAP3 POP POP PUSH1 0x20 PUSH3 0x131 DUP6 DUP3 DUP7 ADD PUSH3 0xDD JUMP JUMPDEST SWAP2 POP POP SWAP3 POP SWAP3 SWAP1 POP JUMP JUMPDEST PUSH1 0x0 PUSH3 0x148 DUP3 PUSH3 0x1CC JUMP JUMPDEST SWAP2 POP PUSH3 0x155 DUP4 PUSH3 0x1CC JUMP JUMPDEST SWAP3 POP DUP3 PUSH32 0xFFFFFFFFFFFFFFFFFFFFFFFFFFFFFFFFFFFFFFFFFFFFFFFFFFFFFFFFFFFFFFFF SUB DUP3 GT ISZERO PUSH3 0x18D JUMPI PUSH3 0x18C PUSH3 0x1D6 JUMP JUMPDEST JUMPDEST DUP3 DUP3 ADD SWAP1 POP SWAP3 SWAP2 POP POP JUMP JUMPDEST PUSH1 0x0 PUSH3 0x1A5 DUP3 PUSH3 0x1AC JUMP JUMPDEST SWAP1 POP SWAP2 SWAP1 POP JUMP JUMPDEST PUSH1 0x0 PUSH20 0xFFFFFFFFFFFFFFFFFFFFFFFFFFFFFFFFFFFFFFFF DUP3 AND SWAP1 POP SWAP2 SWAP1 POP JUMP JUMPDEST PUSH1 0x0 DUP2 SWAP1 POP SWAP2 SWAP1 POP JUMP JUMPDEST PUSH32 0x4E487B7100000000000000000000000000000000000000000000000000000000 PUSH1 0x0 MSTORE PUSH1 0x11 PUSH1 0x4 MSTORE PUSH1 0x24 PUSH1 0x0 REVERT JUMPDEST PUSH1 0x0 DUP1 REVERT JUMPDEST PUSH3 0x215 DUP2 PUSH3 0x198 JUMP JUMPDEST DUP2 EQ PUSH3 0x221 JUMPI PUSH1 0x0 DUP1 REVERT JUMPDEST POP JUMP JUMPDEST PUSH3 0x22F DUP2 PUSH3 0x1CC JUMP JUMPDEST DUP2 EQ PUSH3 0x23B JUMPI PUSH1 0x0 DUP1 REVERT JUMPDEST POP JUMP JUMPDEST PUSH2 0x93A DUP1 PUSH3 0x24E PUSH1 0x0 CODECOPY PUSH1 0x0 RETURN INVALID PUSH1 0x80 PUSH1 0x40 MSTORE CALLVALUE DUP1 ISZERO PUSH2 0x10 JUMPI PUSH1 0x0 DUP1 REVERT JUMPDEST POP PUSH1 0x4 CALLDATASIZE LT PUSH2 0x62 JUMPI PUSH1 0x0 CALLDATALOAD PUSH1 0xE0 SHR DUP1 PUSH4 0xE1DA6C3 EQ PUSH2 0x67 JUMPI DUP1 PUSH4 0x415FFBA7 EQ PUSH2 0x71 JUMPI DUP1 PUSH4 0x4665096D EQ PUSH2 0x8D JUMPI DUP1 PUSH4 0x6ECC5D62 EQ PUSH2 0xAB JUMPI DUP1 PUSH4 0x9714378C EQ PUSH2 0xC9 JUMPI DUP1 PUSH4 0xC11AE86F EQ PUSH2 0xE5 JUMPI JUMPDEST PUSH1 0x0 DUP1 REVERT JUMPDEST PUSH2 0x6F PUSH2 0x103 JUMP JUMPDEST STOP JUMPDEST PUSH2 0x8B PUSH1 0x4 DUP1 CALLDATASIZE SUB DUP2 ADD SWAP1 PUSH2 0x86 SWAP2 SWAP1 PUSH2 0x534 JUMP JUMPDEST PUSH2 0x14B JUMP JUMPDEST STOP JUMPDEST PUSH2 0x95 PUSH2 0x25A JUMP JUMPDEST PUSH1 0x40 MLOAD PUSH2 0xA2 SWAP2 SWAP1 PUSH2 0x6E6 JUMP JUMPDEST PUSH1 0x40 MLOAD DUP1 SWAP2 SUB SWAP1 RETURN JUMPDEST PUSH2 0xB3 PUSH2 0x260 JUMP JUMPDEST PUSH1 0x40 MLOAD PUSH2 0xC0 SWAP2 SWAP1 PUSH2 0x686 JUMP JUMPDEST PUSH1 0x40 MLOAD DUP1 SWAP2 SUB SWAP1 RETURN JUMPDEST PUSH2 0xE3 PUSH1 0x4 DUP1 CALLDATASIZE SUB DUP2 ADD SWAP1 PUSH2 0xDE SWAP2 SWAP1 PUSH2 0x507 JUMP JUMPDEST PUSH2 0x286 JUMP JUMPDEST STOP JUMPDEST PUSH2 0xED PUSH2 0x2F6 JUMP JUMPDEST PUSH1 0x40 MLOAD PUSH2 0xFA SWAP2 SWAP1 PUSH2 0x686 JUMP JUMPDEST PUSH1 0x40 MLOAD DUP1 SWAP2 SUB SWAP1 RETURN JUMPDEST PUSH1 0x2 SLOAD TIMESTAMP LT ISZERO PUSH2 0x112 JUMPI PUSH1 0x0 DUP1 REVERT JUMPDEST PUSH1 0x0 DUP1 SLOAD SWAP1 PUSH2 0x100 EXP SWAP1 DIV PUSH20 0xFFFFFFFFFFFFFFFFFFFFFFFFFFFFFFFFFFFFFFFF AND PUSH20 0xFFFFFFFFFFFFFFFFFFFFFFFFFFFFFFFFFFFFFFFF AND SELFDESTRUCT JUMPDEST PUSH1 0x1 PUSH1 0x0 SWAP1 SLOAD SWAP1 PUSH2 0x100 EXP SWAP1 DIV PUSH20 0xFFFFFFFFFFFFFFFFFFFFFFFFFFFFFFFFFFFFFFFF AND PUSH20 0xFFFFFFFFFFFFFFFFFFFFFFFFFFFFFFFFFFFFFFFF AND CALLER PUSH20 0xFFFFFFFFFFFFFFFFFFFFFFFFFFFFFFFFFFFFFFFF AND EQ PUSH2 0x1A5 JUMPI PUSH1 0x0 DUP1 REVERT JUMPDEST PUSH2 0x1AF DUP3 DUP3 PUSH2 0x31A JUMP JUMPDEST PUSH2 0x1B8 JUMPI PUSH1 0x0 DUP1 REVERT JUMPDEST PUSH1 0x1 PUSH1 0x0 SWAP1 SLOAD SWAP1 PUSH2 0x100 EXP SWAP1 DIV PUSH20 0xFFFFFFFFFFFFFFFFFFFFFFFFFFFFFFFFFFFFFFFF AND PUSH20 0xFFFFFFFFFFFFFFFFFFFFFFFFFFFFFFFFFFFFFFFF AND PUSH2 0x8FC DUP4 SWAP1 DUP2 ISZERO MUL SWAP1 PUSH1 0x40 MLOAD PUSH1 0x0 PUSH1 0x40 MLOAD DUP1 DUP4 SUB DUP2 DUP6 DUP9 DUP9 CALL SWAP4 POP POP POP POP ISZERO DUP1 ISZERO PUSH2 0x220 JUMPI RETURNDATASIZE PUSH1 0x0 DUP1 RETURNDATACOPY RETURNDATASIZE PUSH1 0x0 REVERT JUMPDEST POP PUSH1 0x0 DUP1 SLOAD SWAP1 PUSH2 0x100 EXP SWAP1 DIV PUSH20 0xFFFFFFFFFFFFFFFFFFFFFFFFFFFFFFFFFFFFFFFF AND PUSH20 0xFFFFFFFFFFFFFFFFFFFFFFFFFFFFFFFFFFFFFFFF AND SELFDESTRUCT JUMPDEST PUSH1 0x2 SLOAD DUP2 JUMP JUMPDEST PUSH1 0x1 PUSH1 0x0 SWAP1 SLOAD SWAP1 PUSH2 0x100 EXP SWAP1 DIV PUSH20 0xFFFFFFFFFFFFFFFFFFFFFFFFFFFFFFFFFFFFFFFF AND DUP2 JUMP JUMPDEST PUSH1 0x0 DUP1 SLOAD SWAP1 PUSH2 0x100 EXP SWAP1 DIV PUSH20 0xFFFFFFFFFFFFFFFFFFFFFFFFFFFFFFFFFFFFFFFF AND PUSH20 0xFFFFFFFFFFFFFFFFFFFFFFFFFFFFFFFFFFFFFFFF AND CALLER PUSH20 0xFFFFFFFFFFFFFFFFFFFFFFFFFFFFFFFFFFFFFFFF AND EQ PUSH2 0x2DE JUMPI PUSH1 0x0 DUP1 REVERT JUMPDEST PUSH1 0x2 SLOAD DUP2 GT PUSH2 0x2EC JUMPI PUSH1 0x0 DUP1 REVERT JUMPDEST DUP1 PUSH1 0x2 DUP2 SWAP1 SSTORE POP POP JUMP JUMPDEST PUSH1 0x0 DUP1 SLOAD SWAP1 PUSH2 0x100 EXP SWAP1 DIV PUSH20 0xFFFFFFFFFFFFFFFFFFFFFFFFFFFFFFFFFFFFFFFF AND DUP2 JUMP JUMPDEST PUSH1 0x0 DUP1 PUSH2 0x34E ADDRESS DUP6 PUSH1 0x40 MLOAD PUSH1 0x20 ADD PUSH2 0x333 SWAP3 SWAP2 SWAP1 PUSH2 0x634 JUMP JUMPDEST PUSH1 0x40 MLOAD PUSH1 0x20 DUP2 DUP4 SUB SUB DUP2 MSTORE SWAP1 PUSH1 0x40 MSTORE DUP1 MLOAD SWAP1 PUSH1 0x20 ADD KECCAK256 PUSH2 0x3B1 JUMP JUMPDEST SWAP1 POP PUSH1 0x0 DUP1 SLOAD SWAP1 PUSH2 0x100 EXP SWAP1 DIV PUSH20 0xFFFFFFFFFFFFFFFFFFFFFFFFFFFFFFFFFFFFFFFF AND PUSH20 0xFFFFFFFFFFFFFFFFFFFFFFFFFFFFFFFFFFFFFFFF AND PUSH2 0x391 DUP3 DUP6 PUSH2 0x3E1 JUMP JUMPDEST PUSH20 0xFFFFFFFFFFFFFFFFFFFFFFFFFFFFFFFFFFFFFFFF AND EQ SWAP2 POP POP SWAP3 SWAP2 POP POP JUMP JUMPDEST PUSH1 0x0 DUP2 PUSH1 0x40 MLOAD PUSH1 0x20 ADD PUSH2 0x3C4 SWAP2 SWAP1 PUSH2 0x660 JUMP JUMPDEST PUSH1 0x40 MLOAD PUSH1 0x20 DUP2 DUP4 SUB SUB DUP2 MSTORE SWAP1 PUSH1 0x40 MSTORE DUP1 MLOAD SWAP1 PUSH1 0x20 ADD KECCAK256 SWAP1 POP SWAP2 SWAP1 POP JUMP JUMPDEST PUSH1 0x0 DUP1 PUSH1 0x0 DUP1 PUSH2 0x3F0 DUP6 PUSH2 0x450 JUMP JUMPDEST SWAP3 POP SWAP3 POP SWAP3 POP PUSH1 0x1 DUP7 DUP5 DUP5 DUP5 PUSH1 0x40 MLOAD PUSH1 0x0 DUP2 MSTORE PUSH1 0x20 ADD PUSH1 0x40 MSTORE PUSH1 0x40 MLOAD PUSH2 0x419 SWAP5 SWAP4 SWAP3 SWAP2 SWAP1 PUSH2 0x6A1 JUMP JUMPDEST PUSH1 0x20 PUSH1 0x40 MLOAD PUSH1 0x20 DUP2 SUB SWAP1 DUP1 DUP5 SUB SWAP1 DUP6 GAS STATICCALL ISZERO DUP1 ISZERO PUSH2 0x43B JUMPI RETURNDATASIZE PUSH1 0x0 DUP1 RETURNDATACOPY RETURNDATASIZE PUSH1 0x0 REVERT JUMPDEST POP POP POP PUSH1 0x20 PUSH1 0x40 MLOAD SUB MLOAD SWAP4 POP POP POP POP SWAP3 SWAP2 POP POP JUMP JUMPDEST PUSH1 0x0 DUP1 PUSH1 0x0 PUSH1 0x41 DUP5 MLOAD EQ PUSH2 0x463 JUMPI PUSH1 0x0 DUP1 REVERT JUMPDEST PUSH1 0x20 DUP5 ADD MLOAD SWAP2 POP PUSH1 0x40 DUP5 ADD MLOAD SWAP1 POP PUSH1 0x60 DUP5 ADD MLOAD PUSH1 0x0 BYTE SWAP3 POP SWAP2 SWAP4 SWAP1 SWAP3 POP JUMP JUMPDEST PUSH1 0x0 PUSH2 0x495 PUSH2 0x490 DUP5 PUSH2 0x726 JUMP JUMPDEST PUSH2 0x701 JUMP JUMPDEST SWAP1 POP DUP3 DUP2 MSTORE PUSH1 0x20 DUP2 ADD DUP5 DUP5 DUP5 ADD GT ISZERO PUSH2 0x4B1 JUMPI PUSH2 0x4B0 PUSH2 0x897 JUMP JUMPDEST JUMPDEST PUSH2 0x4BC DUP5 DUP3 DUP6 PUSH2 0x7EB JUMP JUMPDEST POP SWAP4 SWAP3 POP POP POP JUMP JUMPDEST PUSH1 0x0 DUP3 PUSH1 0x1F DUP4 ADD SLT PUSH2 0x4D9 JUMPI PUSH2 0x4D8 PUSH2 0x892 JUMP JUMPDEST JUMPDEST DUP2 CALLDATALOAD PUSH2 0x4E9 DUP5 DUP3 PUSH1 0x20 DUP7 ADD PUSH2 0x482 JUMP JUMPDEST SWAP2 POP POP SWAP3 SWAP2 POP POP JUMP JUMPDEST PUSH1 0x0 DUP2 CALLDATALOAD SWAP1 POP PUSH2 0x501 DUP2 PUSH2 0x8ED JUMP JUMPDEST SWAP3 SWAP2 POP POP JUMP JUMPDEST PUSH1 0x0 PUSH1 0x20 DUP3 DUP5 SUB SLT ISZERO PUSH2 0x51D JUMPI PUSH2 0x51C PUSH2 0x8A1 JUMP JUMPDEST JUMPDEST PUSH1 0x0 PUSH2 0x52B DUP5 DUP3 DUP6 ADD PUSH2 0x4F2 JUMP JUMPDEST SWAP2 POP POP SWAP3 SWAP2 POP POP JUMP JUMPDEST PUSH1 0x0 DUP1 PUSH1 0x40 DUP4 DUP6 SUB SLT ISZERO PUSH2 0x54B JUMPI PUSH2 0x54A PUSH2 0x8A1 JUMP JUMPDEST JUMPDEST PUSH1 0x0 PUSH2 0x559 DUP6 DUP3 DUP7 ADD PUSH2 0x4F2 JUMP JUMPDEST SWAP3 POP POP PUSH1 0x20 DUP4 ADD CALLDATALOAD PUSH8 0xFFFFFFFFFFFFFFFF DUP2 GT ISZERO PUSH2 0x57A JUMPI PUSH2 0x579 PUSH2 0x89C JUMP JUMPDEST JUMPDEST PUSH2 0x586 DUP6 DUP3 DUP7 ADD PUSH2 0x4C4 JUMP JUMPDEST SWAP2 POP POP SWAP3 POP SWAP3 SWAP1 POP JUMP JUMPDEST PUSH2 0x599 DUP2 PUSH2 0x762 JUMP JUMPDEST DUP3 MSTORE POP POP JUMP JUMPDEST PUSH2 0x5A8 DUP2 PUSH2 0x774 JUMP JUMPDEST DUP3 MSTORE POP POP JUMP JUMPDEST PUSH2 0x5BF PUSH2 0x5BA DUP3 PUSH2 0x774 JUMP JUMPDEST PUSH2 0x83D JUMP JUMPDEST DUP3 MSTORE POP POP JUMP JUMPDEST PUSH2 0x5D6 PUSH2 0x5D1 DUP3 PUSH2 0x7B5 JUMP JUMPDEST PUSH2 0x82B JUMP JUMPDEST DUP3 MSTORE POP POP JUMP JUMPDEST PUSH1 0x0 PUSH2 0x5E9 PUSH1 0x1C DUP4 PUSH2 0x757 JUMP JUMPDEST SWAP2 POP PUSH2 0x5F4 DUP3 PUSH2 0x8C4 JUMP JUMPDEST PUSH1 0x1C DUP3 ADD SWAP1 POP SWAP2 SWAP1 POP JUMP JUMPDEST PUSH2 0x608 DUP2 PUSH2 0x79E JUMP JUMPDEST DUP3 MSTORE POP POP JUMP JUMPDEST PUSH2 0x61F PUSH2 0x61A DUP3 PUSH2 0x79E JUMP JUMPDEST PUSH2 0x859 JUMP JUMPDEST DUP3 MSTORE POP POP JUMP JUMPDEST PUSH2 0x62E DUP2 PUSH2 0x7A8 JUMP JUMPDEST DUP3 MSTORE POP POP JUMP JUMPDEST PUSH1 0x0 PUSH2 0x640 DUP3 DUP6 PUSH2 0x5C5 JUMP JUMPDEST PUSH1 0x14 DUP3 ADD SWAP2 POP PUSH2 0x650 DUP3 DUP5 PUSH2 0x60E JUMP JUMPDEST PUSH1 0x20 DUP3 ADD SWAP2 POP DUP2 SWAP1 POP SWAP4 SWAP3 POP POP POP JUMP JUMPDEST PUSH1 0x0 PUSH2 0x66B DUP3 PUSH2 0x5DC JUMP JUMPDEST SWAP2 POP PUSH2 0x677 DUP3 DUP5 PUSH2 0x5AE JUMP JUMPDEST PUSH1 0x20 DUP3 ADD SWAP2 POP DUP2 SWAP1 POP SWAP3 SWAP2 POP POP JUMP JUMPDEST PUSH1 0x0 PUSH1 0x20 DUP3 ADD SWAP1 POP PUSH2 0x69B PUSH1 0x0 DUP4 ADD DUP5 PUSH2 0x590 JUMP JUMPDEST SWAP3 SWAP2 POP POP JUMP JUMPDEST PUSH1 0x0 PUSH1 0x80 DUP3 ADD SWAP1 POP PUSH2 0x6B6 PUSH1 0x0 DUP4 ADD DUP8 PUSH2 0x59F JUMP JUMPDEST PUSH2 0x6C3 PUSH1 0x20 DUP4 ADD DUP7 PUSH2 0x625 JUMP JUMPDEST PUSH2 0x6D0 PUSH1 0x40 DUP4 ADD DUP6 PUSH2 0x59F JUMP JUMPDEST PUSH2 0x6DD PUSH1 0x60 DUP4 ADD DUP5 PUSH2 0x59F JUMP JUMPDEST SWAP6 SWAP5 POP POP POP POP POP JUMP JUMPDEST PUSH1 0x0 PUSH1 0x20 DUP3 ADD SWAP1 POP PUSH2 0x6FB PUSH1 0x0 DUP4 ADD DUP5 PUSH2 0x5FF JUMP JUMPDEST SWAP3 SWAP2 POP POP JUMP JUMPDEST PUSH1 0x0 PUSH2 0x70B PUSH2 0x71C JUMP JUMPDEST SWAP1 POP PUSH2 0x717 DUP3 DUP3 PUSH2 0x7FA JUMP JUMPDEST SWAP2 SWAP1 POP JUMP JUMPDEST PUSH1 0x0 PUSH1 0x40 MLOAD SWAP1 POP SWAP1 JUMP JUMPDEST PUSH1 0x0 PUSH8 0xFFFFFFFFFFFFFFFF DUP3 GT ISZERO PUSH2 0x741 JUMPI PUSH2 0x740 PUSH2 0x863 JUMP JUMPDEST JUMPDEST PUSH2 0x74A DUP3 PUSH2 0x8A6 JUMP JUMPDEST SWAP1 POP PUSH1 0x20 DUP2 ADD SWAP1 POP SWAP2 SWAP1 POP JUMP JUMPDEST PUSH1 0x0 DUP2 SWAP1 POP SWAP3 SWAP2 POP POP JUMP JUMPDEST PUSH1 0x0 PUSH2 0x76D DUP3 PUSH2 0x77E JUMP JUMPDEST SWAP1 POP SWAP2 SWAP1 POP JUMP JUMPDEST PUSH1 0x0 DUP2 SWAP1 POP SWAP2 SWAP1 POP JUMP JUMPDEST PUSH1 0x0 PUSH20 0xFFFFFFFFFFFFFFFFFFFFFFFFFFFFFFFFFFFFFFFF DUP3 AND SWAP1 POP SWAP2 SWAP1 POP JUMP JUMPDEST PUSH1 0x0 DUP2 SWAP1 POP SWAP2 SWAP1 POP JUMP JUMPDEST PUSH1 0x0 PUSH1 0xFF DUP3 AND SWAP1 POP SWAP2 SWAP1 POP JUMP JUMPDEST PUSH1 0x0 PUSH2 0x7C0 DUP3 PUSH2 0x7C7 JUMP JUMPDEST SWAP1 POP SWAP2 SWAP1 POP JUMP JUMPDEST PUSH1 0x0 PUSH2 0x7D2 DUP3 PUSH2 0x7D9 JUMP JUMPDEST SWAP1 POP SWAP2 SWAP1 POP JUMP JUMPDEST PUSH1 0x0 PUSH2 0x7E4 DUP3 PUSH2 0x77E JUMP JUMPDEST SWAP1 POP SWAP2 SWAP1 POP JUMP JUMPDEST DUP3 DUP2 DUP4 CALLDATACOPY PUSH1 0x0 DUP4 DUP4 ADD MSTORE POP POP POP JUMP JUMPDEST PUSH2 0x803 DUP3 PUSH2 0x8A6 JUMP JUMPDEST DUP2 ADD DUP2 DUP2 LT PUSH8 0xFFFFFFFFFFFFFFFF DUP3 GT OR ISZERO PUSH2 0x822 JUMPI PUSH2 0x821 PUSH2 0x863 JUMP JUMPDEST JUMPDEST DUP1 PUSH1 0x40 MSTORE POP POP POP JUMP JUMPDEST PUSH1 0x0 PUSH2 0x836 DUP3 PUSH2 0x847 JUMP JUMPDEST SWAP1 POP SWAP2 SWAP1 POP JUMP JUMPDEST PUSH1 0x0 DUP2 SWAP1 POP SWAP2 SWAP1 POP JUMP JUMPDEST PUSH1 0x0 PUSH2 0x852 DUP3 PUSH2 0x8B7 JUMP JUMPDEST SWAP1 POP SWAP2 SWAP1 POP JUMP JUMPDEST PUSH1 0x0 DUP2 SWAP1 POP SWAP2 SWAP1 POP JUMP JUMPDEST PUSH32 0x4E487B7100000000000000000000000000000000000000000000000000000000 PUSH1 0x0 MSTORE PUSH1 0x41 PUSH1 0x4 MSTORE PUSH1 0x24 PUSH1 0x0 REVERT JUMPDEST PUSH1 0x0 DUP1 REVERT JUMPDEST PUSH1 0x0 DUP1 REVERT JUMPDEST PUSH1 0x0 DUP1 REVERT JUMPDEST PUSH1 0x0 DUP1 REVERT JUMPDEST PUSH1 0x0 PUSH1 0x1F NOT PUSH1 0x1F DUP4 ADD AND SWAP1 POP SWAP2 SWAP1 POP JUMP JUMPDEST PUSH1 0x0 DUP2 PUSH1 0x60 SHL SWAP1 POP SWAP2 SWAP1 POP JUMP JUMPDEST PUSH32 0x19457468657265756D205369676E6564204D6573736167653A0A333200000000 PUSH1 0x0 DUP3 ADD MSTORE POP JUMP JUMPDEST PUSH2 0x8F6 DUP2 PUSH2 0x79E JUMP JUMPDEST DUP2 EQ PUSH2 0x901 JUMPI PUSH1 0x0 DUP1 REVERT JUMPDEST POP JUMP INVALID LOG2 PUSH5 0x6970667358 0x22 SLT KECCAK256 0x21 0x2C MSIZE 0xE3 BASEFEE LT 0x21 PUSH27 0x9A8810A62A297D8CF43CCBE2DE5AA601E37C0A1DE9C5D9464736F PUSH13 0x63430008070033000000000000 "
				},
				"gasEstimates": {
					"creation": {
						"codeDepositCost": "472400",
						"executionCost": "infinite",
						"totalCost": "infinite"
					},
					"external": {
						"claimTimeout()": "31980",
						"close(uint256,bytes)": "infinite",
						"driver()": "2558",
						"expiration()": "2451",
						"extend(uint256)": "26876",
						"passenger()": "2599"
					},
					"internal": {
						"isValidSignature(uint256,bytes memory)": "infinite",
						"prefixed(bytes32)": "infinite",
						"recoverSigner(bytes32,bytes memory)": "infinite",
						"splitSignature(bytes memory)": "infinite"
					}
				},
				"methodIdentifiers": {
					"claimTimeout()": "0e1da6c3",
					"close(uint256,bytes)": "415ffba7",
					"driver()": "6ecc5d62",
					"expiration()": "4665096d",
					"extend(uint256)": "9714378c",
					"passenger()": "c11ae86f"
				}
			},
			"storageLayout": {
				"storage": [
					{
						"astId": 4,
						"contract": "contracts/payments.sol:Payments",
						"label": "passenger",
						"offset": 0,
						"slot": "0",
						"type": "t_address_payable"
					},
					{
						"astId": 6,
						"contract": "contracts/payments.sol:Payments",
						"label": "driver",
						"offset": 0,
						"slot": "1",
						"type": "t_address_payable"
					},
					{
						"astId": 8,
						"contract": "contracts/payments.sol:Payments",
						"label": "expiration",
						"offset": 0,
						"slot": "2",
						"type": "t_uint256"
					}
				],
				"types": {
					"t_address_payable": {
						"encoding": "inplace",
						"label": "address payable",
						"numberOfBytes": "20"
					},
					"t_uint256": {
						"encoding": "inplace",
						"label": "uint256",
						"numberOfBytes": "32"
					}
				}
			},
			"userdoc": {
				"kind": "user",
				"methods": {},
				"version": 1
			}
		}
	}
}